:020000040000FA
:10000000020703020803FFFFFFFFFF02080BFFFFC9
:10001000FFFFFF020813FFFFFFFFFF02081BFFFFA8
:10002000FFFFFF020823FFFFFFFFFF02082BFFFF78
:10003000FFFFFF020833FFFFFFFFFF02083BFFFF48
:10004000FFFFFF020843FFFFFFFFFF02084BFFFF18
:10005000FFFFFF020853FFFFFFFFFF02085BFFFFE8
:10006000FFFFFF020863FFFFFFFFFF02086BFFFFB8
:10007000FFFFFF020873FFFFFFFFFF02087BFFFF88
:10008000FFFFFF020883FFFFFFFFFF02088B74F7EB
:100090001205C074FC1206C97508047509007808B9
:1000A0001206F274021207387A907B00790112046A
:1000B000BD7402120681850C82850D83E0F8A3E0F1
:1000C000F9E8496021850C82850D83E0F47003A373
:1000D000E0F46012740212072EE0687003A3E06976
:1000E000700479018002790074041206817F020293
:1000F000062674F71205C074FF1206C98002E4F0E8
:100100007C017D00AA0CAB0D79001204138B09EA67
:100110004509700302021E900283E0600C14601B0C
:1001200014604014607F020214850C82850D83E008
:1001300064FE70CC900283740180C4850C82850DAE
:1001400083E0C394FC90028350B47402F090028167
:10015000E4F0900280F0850C82850D83E02403900A
:100160000282F0850C82850D83E0F8900280E068C1
:10017000F0850C82850D83E0C0E0900281E0F87488
:100180008128F582E43401F583D0E0F0900281E02B
:1001900004F0F8900282E06860030201009002839C
:1001A00074030200FFE4F0900280E0F8850C828581
:1001B0000D83E0686003020100900182E0541F6437
:1001C0000D60030201001202257800900181E024F5
:1001D00003FA7E006008FFE0C868F8A3DFF97481C5
:1001E0002AF582E43401F583E8F0900183E064832A
:1001F0007007A3E070030A7E0190018074FEF0EAAC
:100200002402FCE43400FD7A807B01790012043181
:10021000EEF9800CC2AF75C9AB75C95B80FE790081
:1002200074010200EA74F51205C074FC1206C9904C
:100230000185E0FC900184E0FDFAECF8E4C8F9EAFD
:1002400028F8F508E93402F5097F017E0090018362
:10025000E014600F14603D14607C14700302037E90
:1002600002037CE5095401F9E8497011880A8509FF
:100270000B7409780A120712A90A1205A9750A1047
:100280008E0B780A1206F27C867D01AA08AB091251
:100290000543803A7F43EC900186F0ED900185F0B4
:1002A000750A408E0B780A1206F27C877D01EAF50A
:1002B0000AE5095401F50B7402780A1206DFAA0A4E
:1002C000AB0B74097808120712A9081204BD740256
:1002D00012068102037E7508048E0978081206F260
:1002E00074021207387A907B0079011204BD7402FF
:1002F000120681740212072EE0F8A3E0F9850C8241
:10030000850D83E0687003A3E0696053850C8285E6
:100310000D83E0F8A3E0F9740212072EE8F0A3E9D8
:10032000F0850C82850D8374FFF0A3F08F087808A8
:100330001206F274021207387A247B021205437403
:100340000212068175080478081206F27402120778
:10035000387A907B0079011204BD740212068185FF
:100360000C82850D83E0F8A3E0F9740212072EE0F9
:10037000687003A3E06960067E0780027E01EF904B
:100380000181F0900183E0D2E7F0EEA3F074041253
:1003900006817F0402062674F81205C07E00758669
:1003A0008075C48053F1FE43F30C53FF3F85FFFF7C
:1003B00075C2D875C50B75C4027586C0803CE586CC
:1003C000A2E150295386FD90028CE0F890028EE065
:1003D00028FAA3E034008A82F583E0F5C190028C0C
:1003E000E004F00890028DE0687002E4F0E586A277
:1003F000E250071200F2E9CE4EFE90028DE070BE90
:10040000EE60EAE586A2E040E4C2AF75C9AB75C90B
:100410005B80FEC082C083E586A2E2500BE5C18A04
:10042000828B83F07A0180027A007B00D083D082B5
:1004300022C082C08390028EEAF0A3EBF0EC90021F
:100440008DF090028C7401F05386FD8A828B83E0DC
:10045000F5C1ECFAEDFB80D453BEFBE59DA2E6505E
:10046000FAE5C654804449F5C6E59E547F64497058
:10047000F853C67FE59EA2E740FA53C680E59E5436
:100480007F70FA43BE049062707408F07402F5D570
:1004900075D48412008EE96401700D020800C2AFA9
:1004A00075C9AB75C95B80FE794E12069CE960F890
:1004B000120397C2AF75C9AB75C95B80FE74F612A3
:1004C00005C0890A740F550AF508750900740B7880
:1004D000081206DFEA2400F8EB3480F9E82400E98A
:1004E0003509F985C709A2AFE433F508C2AFE50ABB
:1004F000C4540FFAE5C754F84AF5C7740A12072E18
:10050000E0FEA3E0FFEE4F602CEEFAEFFB8882895D
:1005100083E08C828D83F088828983A3A882A9835B
:100520008C828D83A3AC82AD83EA24FF1AEB34FF67
:10053000FBEA4B70D88509C7E508A2E092AF7F03BC
:1005400002062674F71205C0ED900284F0ECA3F0C9
:10055000A37462F0A37473F0A3E0541FF074091243
:10056000072EE0F508A3E0F509E508333354FC90C5
:100570000289F074067808120712E508900288F0E4
:1005800090028A7412F0A37442F075D11E75D601E0
:10059000EA906271F0EBA3F0906270E0D2E1F0E0DB
:1005A000A2E740FB7F02020626C082C083E9C33374
:1005B000906272F0906270E0D2E0F0D083D082223C
:1005C000250CC582C0E0E50D34FFC583C0E0E50C15
:1005D000C3958224F910AF0885830D85820C8008AD
:1005E00085830D85820CD2AFCEF0A3E520F0A378F1
:1005F00008E608F0A3DEFAEFF0A3E58124FBF8E6B5
:1006000008F0A3E608F0A30808E608F0A3E608F05F
:10061000A315811581D0E0FED0E0F815811581E8A1
:10062000C0E0EEC0E022850D83850C82E0A3FEE0F1
:10063000A3F5207808E0A3F608DFFAE0A3FFE0A323
:10064000C0E0E0A3C0E0E0A3C0E0E0A3C0E010AFE2
:100650000885820C85830D800885820C85830DD2E8
:10066000AFD083D08222250CF58210AF08F50C4064
:100670000C150D8008F50C4002150DD2AF850D83C9
:100680002200C0D0250C10AF08F50C500C050D80D1
:1006900008F50C5002050DD2AFD0D022E9F875B69E
:1006A0000FE5B4A2E750FAE8C395BB5003790122E5
:1006B000790022E4900180781179028002F0A3D8B9
:1006C000FCD9FA120458120740250C10AF08F50C9B
:1006D000400C150D8008F50C4002150DD2AF2270AC
:1006E0000422600D18C6C333C608C633C6D5E0F46D
:1006F000182274028000C0E0F404120666D0E012F2
:1007000007212275D00075813F750C80750D01029F
:1007100006B3600C08C6C313C618C613C6D5E0F4EA
:1007200022CAC0E0E6F0A308DAFAD0E0FA22250CEB
:10073000F582E4350DF58322250CFCE4350DFD2210
:1007400000000080FBFFFFFFFFFFFFFFFFFFFFFF39
:10075000FFFFFFFFFFFFFFFFFFFFFFFFFFFFFFFFA9
:10076000FFFFFFFFFFFFFFFFFFFFFFFFFFFFFFFF99
:10077000FFFFFFFFFFFFFFFFFFFFFFFFFFFFFFFF89
:10078000FFFFFFFFFFFFFFFFFFFFFFFFFFFFFFFF79
:10079000FFFFFFFFFFFFFFFFFFFFFFFFFFFFFFFF69
:1007A000FFFFFFFFFFFFFFFFFFFFFFFFFFFFFFFF59
:1007B000FFFFFFFFFFFFFFFFFFFFFFFFFFFFFFFF49
:1007C000FFFFFFFFFFFFFFFFFFFFFFFFFFFFFFFF39
:1007D000FFFFFFFFFFFFFFFFFFFFFFFFFFFFFFFF29
:1007E000FFFFFFFFFFFFFFFFFFFFFFFFFFFFFFFF19
:1007F000FFFFFFFFFFFFFFFFFFFFFFFFFFFFFFFF09
:0400000500000703ED
:00000001FF
