:10000000F05D00201D170000391700003D170000AB
:1000100041170000451700004917000000000000CC
:100020000000000000000000000000004D1700006C
:10003000511700000000000055170000591700007C
:1000400011160000210C00005D1700006117000070
:1000500065170000691700006D1700007117000098
:1000600075170000791700007D1700008117000048
:1000700085170000891700008D17000091170000F8
:1000800095170000991700009D170000A1170000A8
:10009000A5170000A9170000AD170000B117000058
:1000A000B5170000B9170000A70B0000BD1700002E
:1000B000C1170000C5170000C9170000CD170000C8
:1000C000D1170000D5170000D9170000DD17000078
:1000D000E1170000E5170000E9170000ED17000028
:1000E000DFF8E007016801F00702052A09D8DFE818
:1000F00002F0030305050305042200E0052262F374
:10010000020101607047DFF8BC17DFF8BC370A68EE
:10011000984208D302F007039B1E012B94BF0523CE
:10012000042363F30202DFF8A437DFF8A4C71B1827
:1001300063450BD202F007039B1E012B01D9DB1E86
:1001400001D1032300E0012363F30202DFF88437C7
:1001500098420CD202F00700801E012801D9C01E6F
:1001600003D1022060F3020201E0D208D2000A604B
:100170007047DFF86407006810F4E06018D0B0F54D
:10018000807F12D0B0F5007F0CD0B0F5407F06D054
:10019000B0F5C06F12D0B0F5E06F0CD011E0DFF811
:1001A0003C077047DFF838077047DFF838077047BB
:1001B000DFF834077047DFF834077047DFF830079F
:1001C00070470020704710B5DFF828178A6A43008F
:1001D00022FA03F414F003020FD0022A04D002D34F
:1001E000032A02D013E0FBE1FEE14868C00502D417
:1001F0000868400000D5FBE1FEE1896A800010300C
:1002000031FA00F21CBFBDE8104000F031BC002004
:1002100010BD0000011101F00F0101290ED056D3CD
:10022000032918D010D3052901D037D34FE0DFF8C8
:10023000C4060068C0F38230401C7047DFF8B40683
:10024000806800F00F003FE0DFF8A8064068012159
:1002500000F00F0038E0DFF8A016884208D0DFF881
:100260009C1688420BD0DFF8981688420FD02EE0FB
:10027000DFF88006806E0121C0F3031024E0DFF870
:100280007406806E000A012100F00F001CE0DFF808
:100290006406806E012100F0030015E0DFF86416AB
:1002A000884204D0DFF86016884207D00FE0DFF8FC
:1002B0004406006F012100F0030005E0DFF834067A
:1002C000006F0121C0F3011001FA00F07047012016
:1002D000704700002DE9F0410646301200F00F0093
:1002E0000025401E05280C4617D8DFE800F003184B
:1002F0001D393F45DFF81876C6F304303DB1DFF80D
:100300001016CA6CD20702D48A6C2A42FCD1800033
:1003100000EB471000F184400460BDE8F081DFF895
:10032000F00500F13C07E7E7DFF8E40500F13807E6
:10033000512000F065F90428DED100F08BFB8046E7
:10034000DFF8D005FFF766FFDFF87C15B8FBF0F0AB
:100350008842D1D3DFF8B405012101608162CBE787
:10036000DFF8AC0500F150070125C5E7DFF8A0056F
:1003700000F158071025BFE7DFF8940500F170077A
:10038000BAE710B510F4781000F00A81B0F5003F1C
:1003900025D0B0F5802F30D0B0F5C02F31D0B0F5DA
:1003A000002F32D0B0F5202F39D0B0F5801F41D0CA
:1003B000B0F5901F48D0B0F5A01F64D0B0F5B01FC5
:1003C00000F08E80B0F5C01F00F0B980B0F5D01FEE
:1003D00000F0F180B0F5E01F00F0F080FEE000F0EA
:1003E000FAFADFF810452168C1F38231491CB0FBED
:1003F000F1F1A06800F00F029EE0BDE8104000F0AF
:1004000097BABDE810400020DDE60020FFF7DBFED4
:100410000146DFF8E004806EC0F303128CE0002098
:10042000FFF7D1FE0146DFF8CC04806E000A00F031
:100430000F0281E00020FFF7C6FE0146DFF8B4049A
:10044000806E00F0030277E0DFF8A844A06A80081D
:1004500010F0030007D0022800F0BF80C0F0BC807D
:10046000032808D0BAE0A06A000D00F0B880BDE80B
:10047000104000F0FDBA6068C00503D42068400059
:1004800000D4B9E0B4E0DFF86C44A06A800810F052
:10049000030005D0022817D019D3032806D01AE08C
:1004A000A06A000D17D04FF47A7012E06068C005A2
:1004B00006D42068400003D400F03AFA41080BE06B
:1004C00000F036FA810807E000F0D5FA01E000F00C
:1004D000CBFA014600E00021206F00F003022BE080
:1004E000DFF81044A06A800810F0030005D002284D
:1004F00017D019D3032806D01AE0A06A000D17D030
:100500004FF47A7012E06068C00506D4206840009D
:1005100003D400F00DFA41080BE000F009FA81085D
:1005200007E000F0A8FA01E000F09EFA014600E0C2
:100530000021206FC0F3011221FA02F010BDDFF894
:10054000D80300F05DF8072802D0082828D045E03D
:10055000DFF8A003406910F4E06015D0B0F5807FAB
:1005600015D0B0F5007F15D0B0F5407F15D0B0F5AF
:10057000C06F03D0B0F5E06F03D02FE0DFF8700359
:1005800010BDDFF8680310BDDFF85C0310BDDFF8B5
:10059000540310BDDFF8480310BDDFF8400310BD61
:1005A00000F019FADFF84C130968C1F38231491CD5
:1005B000B0FBF1F010BDBDE81040DAE5DFF85C03F8
:1005C00000F01EF8022808D0032805D0082805D11D
:1005D000BDE8104000F0FFB902E005E0002010BDCA
:1005E000BDE8104000F040BABDE8104000F043BA4A
:1005F00000F09EF9800810BD00F09AF9400810BD87
:100600000146012001F00F01012907D05AD3032927
:1006100025D016D3052940D033D353E0DFF8D402D8
:10062000C06A00F47050B0F5006F06D0B0F5805F7E
:1006300046D0B0F5005F41D001E0042070470520AE
:100640007047DFF8B0128A6A02F00302012A37D03D
:1006500002D3032A0ED031D3896AC9030EE0DFF832
:1006600094128A6A02F00C02042A29D0082A25D0A2
:100670000C2A01D106207047896AC90223D50920B6
:100680007047DFF87012096811F0805103D0B1F1A2
:10069000805F11D0704707207047DFF85812C96A91
:1006A00001F46031B1F5004F06D0B1F5803F05D0BF
:1006B000B1F5003F04D07047082070470220704712
:1006C00003207047002070472DE9F04103240027E4
:1006D00000F00F06012EA0460AD029D3032E4BD0DE
:1006E0004AD3052E00F09B80C0F08780BDE8F081E2
:1006F000022909D003291DD004291ED0052939D08B
:10070000092903D0BDE8F0810424B8460122012163
:10071000404600F0ADF8FFF7E3FCDFF8D801446293
:1007200000F00AFA00F004F9BDE8F041FFF7EBBC75
:10073000BDE8F0814FF00108E8E70224A046DFF8A9
:10074000B45100F087F96049884228680CD340F022
:10075000804040F060002860286CC006D6D5DFF8E5
:10076000AC1101208862D1E720F0600040F0200049
:100770002860CBE70124C9E7012909D0022916D056
:1007800003291BD0062920D009292CD0BDE8F081EF
:100790000024DFF86051A86A022E27D1DFF880110B
:1007A0000840204340EA0740A862BDE8F0810122EA
:1007B0000121384600F05CF80224EAE70121012219
:1007C000084600F055F80124E3E7DFF8581101204E
:1007D000086000F0ADF83C498842DAD34B4801216B
:1007E00001608162D5E700240127D2E74E49084025
:1007F00040EA840040EA0750D6E7072903D00829D9
:1008000008D0BDE8F0813B4D286820F0805028607A
:10081000BDE8F081374D286840F08050F7E70229A5
:100820000BD0032916D0082982D1324D20206862CE
:10083000E86A0004FCD5BDE8F081012201213846B8
:1008400000F016F82B4D40206862E86AC003FCD522
:10085000BDE8F08101210122084600F009F8254D8C
:1008600060206862E86A8003FCD5BDE8F081000082
:10087000052800D9704730B4DFE800F017140E03E4
:100880001121012002231C46284DA1B128609AB1F4
:10089000E8682042FCD00FE004200823F3E7102092
:1008A0002023F0E740208023EDE74FF400734FF45E
:1008B00080701C46E8E72B6030BC00F03DB930BCCE
:1008C0007047000004000C400148E801FFDB0BFF0B
:1008D0000024F4000124F40014800C4040420F0076
:1008E000C0CF6A00C0D8A700809FD500406F4001EC
:1008F000003FAB0100800C403014080030240A0097
:100900003004100040051400401516007800904394
:1009100008800C40200004000400180005231C007F
:10092000FCFFFEFF10089043F3FFEFFF20800C4018
:100930005348C16A01F47051B1F5006F06D0B1F5AA
:10094000805F06D0B1F5005F06D008E04D49096828
:1009500032E04FF400412FE04A4949682CE0C16879
:1009600011F4E0610FD0B1F5807F14D0B1F5007FB4
:1009700019D0B1F5407F18D0B1F5806F17D0B1F51F
:10098000A06F16D017E040490968090E1329B4BFBB
:100990003E493F4910E03C490968090E1329B4BF9C
:1009A0003C493D4908E03D4906E03D4904E03D49F8
:1009B00002E03D4900E0002102684068314BC2F38B
:1009C0008232521CB1FBF2F100F00F0021FA00F26A
:1009D0009A60986870473548016A01F47051B1F522
:1009E000006F07D0B1F5805F03D0B1F5005F02D191
:1009F00042E03AE02FE0006810F4E0601FD0B0F56C
:100A0000807F13D0B0F5007F0ED0B0F5407F09D0C5
:100A1000B0F5806F04D0B0F5A06F19D122487047AF
:100A2000204870471E4870471C48704716480068A9
:100A3000000E132801DB184870471648704712480B
:100A40000068000E132801DB114870470F487047FB
:100A50000020704700BF0B480068704714480168C9
:100A600041F470010160704700BF4FF400407047CF
:100A70004FF47A70704700BF02484068704700002A
:100A800000800C40DC560020FC81E00F40420F004B
:100A9000804F1200C0CF6A0040B56400C0D8A700E4
:100AA000809FD500406F4001003FAB010C800C409F
:100AB00088ED00E02348416E45F60E024266224A68
:100AC000128802F4AA73036002F47053B3F5006F46
:100AD00010D0B3F5805F03D0B3F5005F05D00EE012
:100AE000C3681B06FCD5032308E0C3689B05FCD53F
:100AF000042303E0C3681B07FCD502234360D2072D
:100B00005CBF02220260C90744BF002141667047F2
:100B10000E4A0D4912680A800D4A136843F0040317
:100B2000136030BF002818BFFFF7C4BF0888400516
:100B300058BFFFF7FDBE70470448034900680880AE
:100B40007047000020800C40E85600202C800C40AC
:100B500010ED00E080B501219348FFF7BBFB0123B6
:100B600004220121022000F06BF90221012304225A
:100B7000084600F065F9012304220321022000F059
:100B80005FF9002304220121022000F059F941F20B
:100B9000883000F087F985490220086084490860A0
:100BA0008D49086001BD8349012008608248C16900
:100BB000491CC16193494A68D207FCD40A6A037888
:100BC00000EB830CCCF804205A1CD2B2042A02DBBE
:100BD00001230022437002700120086070471CB599
:100BE00001217648FFF776FB0FF22820D0E9002399
:100BF000CDE90023002000F0F3F98DF80300002177
:100C00006F4800F0D4F9804C8DF8040000A920460C
:100C100000F04CF90FF21021204600F061F913BDED
:100C20007A4801688160704738B52DED088B88B02F
:100C30000FF200211CC904A81CC06248046800A867
:100C400000F0F4F9200E102804BF9DF801000328DD
:100C500006D15D48016821F0400141F010010160BA
:100C6000FFF778FF012201210020FFF701FE02219A
:100C70005648FFF729FD56480121FFF72BFB0121BC
:100C80005448FFF727FB0FF294111CC901A85249E1
:100C90001CC001208DF805008DF8080040F6CC42FC
:100CA0004E4CE06A40F00100E0624FF08060086066
:100CB0000021204600F0CAF901A9204600F0CFF932
:100CC00004A800F012FAFFF78AFF4FF4FA5000F080
:100CD000E9F801213448FFF7FDFA414D364C9FED0C
:100CE000418A9FED419B9FED42AB9FED43BB05E0E9
:100CF000052803DB0020E061022028600120FFF7C7
:100D000007FF00F0EBF96078F0B100206070A16897
:100D100060680818E168081821690818411000EB9C
:100D200091708010606100F017FA53EC1B2B00F0FB
:100D300029FA53EC1A2B00F025FA53EC192B00F08A
:100D400021FA00F0F1FAA06194ED060AB4EE480A27
:100D5000F1EE10FA22DB2A48022101604FF4006113
:100D600001602B4880F3088800F0B8F94FF0005577
:100D700045F2BC6204F12001284600F01DFB002072
:100D800000F0A4F9322000F08DF86968286800F0BE
:100D90004FFB08B00020BDEC088B32BDA178E069A4
:100DA0000129A5D01328A4E700D202005860004012
:100DB00080E200E02820084000000020000203003C
:100DC000C0CF6A00FC81E00FC0800C40020006002A
:100DD0000043040030240A0000E100E00020084045
:100DE00060600040CDCC0C40000000000000303FAF
:100DF000000000000000F43F48E17A14AE470640CE
:100E000080E100E004200040002000401461004028
:100E1000B05E00200000001F000000000100000084
:100E200000000000000000000003000007000000B8
:100E300000000000010001010000000009000000A6
:100E4000F0B400EBC004A00000F1804000F5C04009
:100E50002AB101248C40002B14BF046144610F258A
:100E6000082909D28E004768B54027EA050502FA2D
:100E700006F42C4344600AE0A1F10806B600876836
:100E8000B54027EA050502FA06F42C43846032B91E
:100E9000012202FA01F4002B14BF04614461F0BC8A
:100EA000704700000138FDD1704770470A22426048
:100EB000CB780A781B0403F4FE0343EA02620B7941
:100EC0001B0203F4FE431A434B7842EA03128B7869
:100ED00049791A4309B142F00802026070470000E4
:100EE00030B4022242608A78062A3FD8DFE802F056
:100EF00031241A0D3E3E0400426B434B9B68D209DD
:100F000003F07F0343EAC2122FE0436B3E4A3F4D9A
:100F100054685268240C2B4004F4FE442343C2F36B
:100F2000064221E0436B384A384D546852682B40E2
:100F300004F4FE44234315E0436B334A334D1468F5
:100F40001268240C2B4004F4FE442343C2F30642EF
:100F50000AE0436B2C4A2D4D146812682B4004F4B0
:100F6000FE44234302F07F021A4342634B780A781F
:100F70001B0543EA02728B7842EA03420B7942EA8C
:100F80000322CB7842EA03128B790BB142F08072D4
:100F9000CB790BB142F004024B790BB142F0020263
:100FA000097A09B142F00102C26030BC704710B545
:100FB0000446084616498C4228BF164C04D2B4F5A4
:100FC000FA4F38BF4FF4FA4410B91348FFF7D9F974
:100FD0002018401EB0FBF4F000B1401EC0B210BD9E
:100FE00080B528B90C48FFF7CCF908B9012003E017
:100FF0000A49884228BF0A480A4908180A49B0FB2A
:10100000F1F0401EC0B202BDB481E00F8080FFFF4E
:10101000415DC600405DC600108102000148E80144
:101020000048E8013F420F0040420F0006490A68AD
:1010300002F03F0202708A68C96802F0F002C1F350
:101040000311114341707047E0FF0FE011B1012916
:1010500003D070471030026070471430FBE710B4C3
:101060000A78002322B98468E40744BF022444605C
:101070004C780CB14FF480538C780CB143F48063FE
:10108000CC780CB143F400630C790CB143F40073D9
:101090004C790CB143F480738C790CB143F040036C
:1010A000CC790CB143F080030C7A43EA84034C7A88
:1010B000897A43EA04131943016022B18168C907A0
:1010C0005CBF0121416010BC7047000018B91D4988
:1010D0000968C907FBD41C49086070471B48416870
:1010E00089075CBF01210160704710B40178437823
:1010F0000A460BB142F0020283780BB142F00402BF
:10110000C3780BB142F0080203790BB142F0200220
:1011100043790BB142F04002047AC379240244EAD5
:1011200003331A430A4B9C68E407FCD41A608079A5
:1011300030B111B19868C007FCD40649012008609D
:1011400010BC70470880084000001043048008402D
:101150000080084010001043010040F10780F44671
:10116000404200F003F851F00041604709D0B0FA66
:1011700080F18840C91CC1F58461090501EBD021CB
:1011800040057047B0B581EA030C0CF0004C40F20A
:10119000FF7515EA11541DBF15EA1357AC42AF4253
:1011A00039E0E41923EA455343F48013C90241F0BE
:1011B000004141EA505EC7021100A7FB020200286D
:1011C0004FF00000EEFB01204FF00001E3FB072190
:1011D00018BF42F00102401800214941E3FB0E0113
:1011E000A4F580640F0302D252004041494154F1FA
:1011F00001046CDD470872F1004250F1000051EB30
:101200000451A1F580115CBF41EA0C01B0BD4CEA6C
:1012100005510020B0BD05EA1357AC4214BFAF42E0
:1012200041E050EA410E1CBF52EA430E02E0614623
:101230000020B0BD24423C441BD15FEA070EF6D02B
:10124000090302BF01460020AEF1140EB1FA81F786
:10125000AEEB070401FA07FE0C37C7F1200100FAD4
:1012600007F7C8404EEA000E23EA455343F48013C3
:10127000A2E733F00043B3FA83F704BFB2FA82FE69
:1012800077440B3FE41BB7F1200E2FBF02FA0EF399
:10129000BB40C7F1200E22FA0EFE38BF43EA0E0310
:1012A000BA40641C82E750EA410E14BF52EA430E72
:1012B0006FF000014FF4001717EB430F8ABF194678
:1012C00017EB410FB5E74CEA05510020B0BDD4F152
:1012D0000104B4F120070FDAC4F12007520828BF37
:1012E00042F0010210FA07F501FA07F7E1BF2A43BD
:1012F000E0403843E1400FE0352C98DCC7F1200492
:1013000052EA400220FA07F218BF42F0010231FA15
:1013100007F0A1400A43002172F1004250F10000A1
:1013200051EB0C01B0BD00004FEAF17CBCF1E04C88
:101330002CBFBCF5001F11E05FEA4C0C34BFBCF1C0
:101340007F5F2EE05FEA9C0C4FEA0C1C4FEA3C0CDE
:10135000C10071F100414CEB50707047C90241EA85
:101360005051C00218BF41F0010141F000414FEA65
:101370006C50C0F10900212810D240EACC7CCCF19D
:10138000200C11FA0CF070F10040CCF1200C21FA85
:101390000CF00CF0004C40EB0C0070474FEACC70A6
:1013A0007047490011F5001F04D84FEACC10FF30F8
:1013B000C0057047C817704762B38B0708D0521E2C
:1013C00011F8013B00F8013B00F024808B07F6D1B7
:1013D000830740F0208000BF103A07D330B4B1E853
:1013E0003810103AA0E83810F9D230BC530724BFA7
:1013F000B1E80810A0E8081044BF51F8043B40F8D9
:10140000043BD20724BF31F8022B20F8022B44BF43
:101410000B7803707047083A07D3B1E80810083A10
:1014200040F8043B40F804CBF7D25307E4E7000050
:1014300080F3088880F309888F467047816807E049
:1014400002681168536889185B18C360083202602B
:10145000C2689142F4D04A1C82600878704738B55F
:1014600004460D46A068E168884212D12068616890
:10147000884208BF00F0C3F82068227C016802B1EE
:101480004944A160426852180830E26091422060ED
:10149000ECD0A068401CA06000F8015D31BD2DE9D2
:1014A000F0418AB000F1080105910268520801EB91
:1014B000C20106910021079108910168490800EBDB
:1014C000C10108310091017901F001018DF810107E
:1014D00040680099400801EBC00001900020029094
:1014E000039084E005A8FFF7A9FF044614F0030663
:1014F00003D105A8FFF7A2FFC61C25090F2D1BD19C
:1015000005A8FFF79BFF00F10F0515E0059801689E
:101510000818059907904968081808900598083038
:101520000590079808998842F0D0401C079010F861
:10153000011D00A8FFF793FF761EF2D1002D51D0B8
:1015400005A8FFF77BFF0646A00800F0030003286C
:1015500004BF05A8FFF772FFDDF800800299039F22
:1015600006EB002008E0A8F10808801A58F8081CCB
:1015700058F8042C5718394658F8082C8A1A824211
:10158000F1D30C1AAE1C2DD0BC4206D158F8044B36
:1015900058F8040B0719BC42F8D00298039914F8C4
:1015A000015B884217D100980199884208BF00F07A
:1015B00026F8009800689DF81010029009B1484480
:1015C0000290009902984968009A091808328842E6
:1015D00003910092E7D00298401C0290761E00F81A
:1015E000015DD1D10298039988427FF47BAF0198C5
:1015F000009981427FF476AF0AB0BDE8F081012006
:1016000000F000B82021090326311820ABBEF9E70D
:101610002DE9F047DFF86C402068E168084000D50C
:10162000FEE7DFF85C50296B01EA0006022720EA9A
:1016300001084FF001094FF0000A1AE0F00715D534
:10164000286809FA0AF100EB0A10A160C06868B1C5
:10165000017A81F00102027203681A0006D0491E65
:1016600089414268C943C90F5046984776080AF134
:10167000010A002EE2D17F1E4646DCD1BDE8F0878C
:1016800008200C4000300C4010B50749794418314F
:10169000064C7C44163404E00A68081D511888473B
:1016A0000146A142F8D110BD2C000000440000000A
:1016B0004EF68851CEF20001086840F470000860D0
:1016C000BFF34F8FBFF36F8F4FF00070E1EE100A42
:1016D00070470000CBFDFFFF020000000200000089
:1016E000100100007226000000000020EA560000F1
:1016F0000120C046002801D0FFF7C6FF0020C046E9
:10170000C046FFF791FA00F000F800F001B80000C1
:1017100007463846FFF776FFFBE7000001488047A1
:10172000014800475D0A00002D170000C046C04672
:10173000FFF7BEFFFFF7DCFFFFF7FEBFFFF7FEBFBF
:10174000FFF7FEBFFFF7FEBFFFF7FEBFFFF7FEBFCD
:10175000FFF7FEBFFFF7FEBFFFF7FEBFFFF7FEBFBD
:10176000FFF7FEBFFFF7FEBFFFF7FEBFFFF7FEBFAD
:10177000FFF7FEBFFFF7FEBFFFF7FEBFFFF7FEBF9D
:10178000FFF7FEBFFFF7FEBFFFF7FEBFFFF7FEBF8D
:10179000FFF7FEBFFFF7FEBFFFF7FEBFFFF7FEBF7D
:1017A000FFF7FEBFFFF7FEBFFFF7FEBFFFF7FEBF6D
:1017B000FFF7FEBFFFF7FEBFFFF7FEBFFFF7FEBF5D
:1017C000FFF7FEBFFFF7FEBFFFF7FEBFFFF7FEBF4D
:1017D000FFF7FEBFFFF7FEBFFFF7FEBFFFF7FEBF3D
:1017E000FFF7FEBFFFF7FEBFFFF7FEBFFFF7FEBF2D
:1017F000F20E00011007904B0020C12A0020DD04EA
:1018000012E10412E50412E90412ED04E12C12F1D4
:101810001452F51812F90812FD041007FF260020D3
:10182000012B00200504120904120D0412110412E8
:101830001504121904121D04122104122504122980
:1018400004122D041231041235041003FD29002066
:101850003908123D04124104124504124904124D84
:10186000041251041255041003271C0020590810BB
:10187000034F0100205D081261041265041269041F
:10188000126D04127104127504127904127D04128F
:101890008104128504128904128D04100610B58487
:1018A000B001220121A6100FF00FF90221DFF8E4A8
:1018B0000901F036F8DFF8E009161002F037FE01F2
:1018C00014203CD80900F032FE0FF660211CC9003C
:1018D000A8DFF8CC191CC001208DF801008DF80498
:1018E000004FF4FA72DFF8BC49E06A40F00100E012
:1018F000624FF0806008600021204601F045F90049
:10190000A90810174AF904B010BDDFF89C1901208E
:101910000860DFF89809017C491C01744106100138
:1019200041748106101C8174018B491C89B2B1F588
:10193000C87FC8BF002101830188012905D1017C2E
:101940000C2915D1101002740EE002101003417C16
:101950001E290D101009417406E0032904BF817C83
:1019600003161010002181740220DFF8441908606A
:101970007047DFF84009041010298179008880023F
:1019800010604A294FF4805014BF4B0810010060CA
:10199000502210082DE9F047ADF5006D00A8121493
:1019A0001A6101F041F901F043F9FFF7E2FFDFF8B6
:1019B000FC084068C50A4405640DDFF8000E1016E7
:1019C0006DF900264FF4184A4FF6FB784FF6FA7976
:1019D0000FE0401C491E36D13A14306200A950462F
:1019E00004F012FF0028FDD101F064F9761C0AF51D
:1019F000006AAE422BD2002700E07F1C01F057FAAC
:101A000008B14F45F9D3474528BF00F0C05A53B03D
:101A1000083A60034401F000FB28B2432823ACF8E5
:101A20005823B0FE58235046A410270278FF2AC23C
:101A3000D0FEE7002C55D000F055FCED0222460008
:101A4000A905F1100001F0DDFA00F04CFC05F518D5
:101A500046354628383294381201A81009761CA061
:101A60004203D23178FF29F83C200414F0030F0719
:101A7000D138212632B72640202CE004F0030001A3
:101A80002804D029D303281CD00ED325E000A9FFB9
:101A90002060546118E21C487088702E32A02E72AB
:101AA000151C12A21C411A32931A52081A23621CE6
:101AB000144289821402F0DBF80D661406BDE8F0CA
:101AC0008738B500A8C6176000A616B0A2F00A07AE
:101AD000B0272146135C01F8013B401C08140A1092
:101AE00028EDDB20898002A0F10801821C0540015D
:101AF000F027FB8DF85F032A0A7C10030020ADF865
:101B000002FE201867F8FFF706FF4FF47E3004F05E
:101B100017FEC5B201F0A0F8002DFDD104223C2033
:101B20000800A9001F04F041FEC0B292200431BD9C
:101B300010B582B084122C84F002232C27009086EA
:101B40001802E4FA0090181015F801F0FFFA009856
:101B50002189890251F8041C884205D0DFF8DC167F
:101B600004100A06086013BD01F05CF8BDE81330EC
:101B70001BECBA7068034FADF6040D7012093C12ED
:101B80000BB8180BAAFEDFF88C064068C40A45059E
:101B90006D701804900601F035F8706801F0100AB5
:101BA000701A10205801401E377016585E43DAFD37
:101BB000CE480201F02BF8729AA6728B1EF94A6881
:101BC00002FFF787FFA8600201F0C9F924B20C24D4
:101BD000200475FFF702BB465A52775A2D28031A84
:101BE00039362AC1721B2D587218031CFBE6022AD3
:101BF0003A3A06721007A4F900F013FB3446203479
:101C0000625D8E39709AA8701A15702308D136213A
:101C100028527F2858012FE005721A2C7238031EB3
:101C2000D00FD3283C580368546918EA7221305207
:101C3000673072171E3AAA74211C52591C52091C93
:101C4000236A1C16524E16140300F09FFF0D6E19E6
:101C500078168F7A1C0841DFF8285569680024102F
:101C6000E6042C0E9AF9298988423BD1FFF735FF0B
:101C70006868411EFA0432FC14557070087700D170
:101C80007FE0641CFFF7252032EC2014051FD100F3
:101C90002600E0763E34076DF808B1BE42F9D3461F
:101CA0003E23D6FE246341F91EB25E1E16C7E21320
:101CB000C814044007040860042CD2DB5FE09220C3
:101CC000029444616890100152F9215C12459048D9
:101CD00008B5FD606849F2FF7529186632B11A61CE
:101CE0009612112230015DFE3262B22D62129662AE
:101CF000126862126862100BE07C03281FDA401C35
:101D0000E074FFF78D50614C328B4C12EF44633B13
:101D1000FEA8B20A463273C61ADE7C2006CEE70D54
:101D2000E000F024FA101007D6F800F01FFADFF8F0
:101D3000086012086015521281042801415BE6D246
:101D40001C03A1B001A880260612A23C1C0400902E
:101D500042F2107B08061E033C061A73D21D34069D
:101D6000237F051869C81D38061024A334E020B36A
:101D7000461E584600F0C2FE38780028F0B2F6D071
:101D8000D8B1DFF8B8038078022802BFDFF8AC03CF
:101D9000C0181C0911D000989AF8001000053CE406
:101DA0000510119AF80210052907D19AF8051000BC
:101DB0000E401C814218B2121A761C0F3870052191
:101DC0000098B0FBF1F101EB8101401A083C0528B5
:101DD0000EA1FE0098401C00900098A04227D2401F
:101DE00021FA56899E600600F08FFF08B14E45F635
:101DF000600EF8FD0098C001802201A9103001F0AA
:101E000039F826B27C26401EE5FD01A801F046FC0B
:101E10003C26A4E7012D56DB680805EB907080088E
:101E2000A5EB8006E0012A463E18031AF8002400BC
:101E30003A100100F05D3E124C3E32443E2004C692
:101E4000FD002E0AD12616035230031BFB00F05072
:101E5000FC1401FCD02F683C024AFE012E0A034EFE
:101E60002E0A035A01EC2F2A460A0341344301FB90
:101E700030B2171E411C43F3FA1C52091C232A4698
:101E80001652E81625222F21B0080328080000F872
:101E9000B5884C61680025762B17F8101C041CBF10
:101EA000BDE8F14000041C05BD8E48017819B1A0C1
:101EB00005141C25017011E0207D8B4E401C2075FF
:101EC000802070608A4800F0ECFD80203060884EF1
:101ED00030B823E6FD061807E3FD94F91400032843
:101EE0001852100956FDFCE77D48807A20B9802CF5
:101EF0001002D6FD02258C100C2807D1607D401CF5
:101F0000607501F03FFB7B1812CA321C0A150006EF
:101F100028E6DA052DFDD8DFE80404301004071F99
:101F20002E05C1E7E0E7DCE7F4E701F037FB71627B
:101F30005001B5FD688E12038E100105E0A0482304
:101F4000A0751A12A8441216441409DDDBC3E7FF7A
:101F5000F7BEFE0BE06D6E1803A6FE08B1B5C827EC
:101F6000BD426E100E0FFDFFF70DFD41F2883000EF
:101F7000F090FD2089EC1004FB00202083535410C6
:101F8000170029FCD0594994F9170009780129183C
:101F9000BF002805D0401EE07555A018087AFDF155
:101FA000E70128E0DB0025AC3376005A52795A1954
:101FB000C242775E1BE0FCD22C05F04BFF0025C22D
:101FC000E7C8031C0F47494FF0005000240860FF8A
:101FD000F759FB01F0808A071F9FFD0A031C0D7053
:101FE00000F051FD2C4D05F11C0000F05FFDD20505
:101FF0002D5A04395C4F4EFE78032D18034960209A
:1020000004B5FC102229465A4002F8FE264626AFA7
:102010003BFE9E031405A4FC05F10D012804140FDA
:10202000A6FFA97A40291CBF4129422900D10124D9
:10203000E9C82C0211D1288850051E0D5005101139
:1020400008D004D309E044B1FFF7CBFD07E0FFF768
:1020500004FF040610017CFD01061281BE2DC2039F
:1020600010150000020006000043040030240A009E
:1020700000E100E0002008402804140C005100207A
:1020800060600040F881E00F5055381006A107004D
:102090001068FFFF400C12F014100F0CED00E0046C
:1020A00000FA05904F0020EC540020D4081234347C
:1020B00012C4341F80B594071006350C00905F01E0
:1020C0000091181003A0BB0D000830A40270B501E8
:1020D000245677CEFD561C0370854202D38A051222
:1020E000FC829C0424204670BD01500B1D4804183E
:1020F0000807016801F00702052A09323C1102F0C5
:10210000030305050305042200E0052262F3020132
:1021100001EC0913BC1704101B370A68984208D356
:1021200002F007039B1E012B94BF0523042363F3D6
:102130000202DFF8A437046005C71B1863450BD201
:1021400020500901D9DB1E01D1032300E001262024
:1021500003843798420C20100C00801E012801D9FE
:10216000C01E03D10220601C300501E0D208D2005D
:102170000A6C100D6407006810F4E06018D0B0F528
:10218000807F12061001007F0C061001407F0606BA
:1021900023C06F122008E06F0CD011E0DFF83C077D
:1021A000329238069234061230061C040020704722
:1021B00010B59E061C07178A6A430022FA03F4A290
:1021C00009201D020FD0022A04D002D3032A02D014
:1021D00013E0FBE1FEE14868C00502D40868400056
:1021E00000D5102C08896A8000103031FA00F2C244
:1021F000031E10E0051F3DBBCC0B1C03BD000001FE
:1022000011C80B10120101290ED056D3032918D082
:1022100010D3052901D037D34F902008C406006899
:10222000C0F38230401C801007B406806800F00FB5
:10223000003F1A1EA882082DEE0B10010F00380E69
:102240001C03A016884208CA08129C08120B081228
:10225000980810010FD02E1A10098006806E0121F7
:10226000C0F30310240E12740E43000A38121C101F
:1022700032641E1E00DC0722150E113612043E12B7
:102280006008100107D00F1240024406006F2012B0
:10229000050E32340E1C03C0F30110013403140187
:1022A0007047010C2F0000540320020646301254E0
:1022B00014070025401E05280C4617FC11361C0C7F
:1022C000181D393F45DFF81876C6F304303D340653
:1022D0003C171016CA6CD20702D48A6C2A42FCD171
:1022E000800000EB471000F1844004A6061C08DFC4
:1022F000F8F00500F13C07E7E7D40C110A1C01389F
:10230000075160031C0365F90428DE38091C09978E
:10231000FA8046DFF8D005FFF766F20B14087C154B
:10232000B8FBF0F08842D1D3181F0501A60A1001AE
:102330008162CB3812AC38100350070125C50C124E
:10234000A00C100358071025BF0C12940C180C7029
:1023500007BAE710B510F4781000F00A81082B3F97
:1023600025142B2F30082B2F311A132F3206200162
:10237000202F3918131F41061001901F4806100125
:10238000A01F64061004B01F00F08E802C110812EC
:10239000B90812D00812F10812E0081C05F080FEFE
:1023A000E001F00678072C0810452168C1F382315E
:1023B000491CE40626A0B24401029EE0F423A3B91E
:1023C000081D9C0E1EE6680E1002F7DBFE01D214FB
:1023D00002E004806EA01F128CD2033001FFF7D1FF
:1023E0001412CC1423000A3A32811632C61622B4D3
:1023F00016196E2A7700140444A06A8008109A2CDB
:102400000A07D0022800F0BF80C0F0BC804C044016
:1024100008BAE0A06A000D00F0B88074180109BA8B
:10242000608C280103D4208C1002D4B9E0B43E7231
:102430006C3E12053E1C0117D0198604300106D0EF
:102440001A3A200617D04FF47A7012E03632063668
:102450001F03D44A071002F941080BE2100342F9A6
:10246000810807081001E1F901061C01D7F901FCF8
:10247000041D380E226F98122B5AF220105A52194E
:102480005A52155A32B45A72AA5A19702C03122190
:10249000FA02F08C0E1FD803AA072808F8072802B2
:1024A000D0082828D045FA2C01034069DE033E15E8
:1024B000DE0321063200063240063C01C06F03DE17
:1024C000031E03B8072002DFF870034432680632A7
:1024D0005C06325406324806124006840701F02595
:1024E000F9DFF84C1309C21178254823DAE53414D2
:1024F0000300F01EF802641E038606440208280545
:10250000D16214030BB902E005A8412A340101F09D
:102510004CE6100201F04FB9C816F80E1158200110
:10252000A6F840082F4601B60F1DEE031C0107D088
:102530005AEE031C0125D016EE03100340D033D30E
:1025400053A01006D402C06A00F47050C42E6F9CD1
:10255000042001805F46D01C045F41D001E0046C80
:10256000031205041D860D1C01128A6A58053C02DF
:1025700002012A37720410070ED031D3896AC903C9
:102580000E4232941C100D0C02042A29D0082A2570
:10259000D00C2A01D10636112030020223D5094081
:1025A00030117012096811F0805103D0B1F1805FD1
:1025B00011D07047071810115812C96A01F4603120
:1025C000B1F5004F06D0B1F5803F05061001003F80
:1025D00004221208221202044F032002052DF403E4
:1025E0001F03249A0C2C06F00F06012EA0460A8A1F
:1025F0000E18082E4BD04AD3052E00F09B8C1A875C
:102600007E2014F081022909D003291DD004291E3F
:10261000D0052939D0092903D0182C020424B84642
:10262000C4101E401E071EAD540D17E3FCDC1C0435
:1026300001446201F0D4660D1E10840D2004F041A7
:10264000FFF7EBBC2C2C074FF00108E8E70224A0B1
:1026500002031C1B5101F093F86049884228680C62
:10266000D340F0804040F060002860286CC006D65F
:10267000D5FE0310061101208862D1E72016100153
:1026800040F0201A1005CBE70124C9E701881001AA
:102690000229168C10031BD006292088322C881F93
:1026A0000024EE041C0551A86A022E27D12C052017
:1026B00009110840204340EA0740A8621E21A212E7
:1026C00038A21C045CF80224EAE764041322080E12
:1026D0001C0355F80124E3520412586C1D341110E8
:1026E00002F0B9FF3C904C02DAD34B488604100E3E
:1026F000D5E700240127D2E74E49084040EA84008C
:1027000050100250D6E707FA3001082908763C0736
:102710003B4D286820F0805028F60412370E11CA6D
:10272000100450F7E702290BA2121628A00C82D140
:10273000324D20206862E86A0004FCD58C30031614
:10274000F82B4D401A53C0031A5198300309F8254D
:102750004D601A52801A2C080000052800D97047D5
:1027600030B48E051C1717140E031121012002230B
:102770001C46284DA1B128609AB1E8682042FCEAC5
:10278000051C1004200823F3E710202023F0E74065
:10279000208023EDE74E0E1E7382111C07701C462D
:1027A000E8E72B6030BCD4072C01B830BCF0051032
:1027B0000F04000C400148E801FFDB0BFF0024F48C
:1027C000000104101B14800C4040420F00C0CF6A6F
:1027D00000C0D8A700809FD500406F4001003FABEC
:1027E00001001C3C01301408B808100F3004100020
:1027F000400514004015160078009043081C122074
:102800005210130400180005231C00FCFFFEFF10EB
:10281000089043F3FFEFFF201C140111B101381D94
:1028200072071F3002CC0710181430FBE710B40AEF
:1028300078002322B98468E40744BF022444604C32
:10284000780CB1AA13538C08300343F48063CC088E
:10285000300200630C790833734C08200180738CBC
:10286000083002F04003CC08100980030C7A43EAD8
:1028700084034C7A8908101104131943016022B1B2
:102880008168C9075CBF0121416010EC100450F859
:10289000041B61B106132BD36C1410A9F101039A28
:1028A000180023091F42F8043BFAD1EFE70E1C0F72
:1028B0002200F085BF000010B5164C41F671306063
:1028C00063D6041D9309202020604FF4D010FFF739
:1028D000C8FC114A11499042A26C0BD311400B2243
:1028E00050430A22B0FBF2F00D4A067007401C0864
:1028F000430CE0114037187207182C0440F4803064
:10290000A064200816087026C158151C2564100BF9
:102910000138FDD17047704718B91D4909B02C0224
:10292000FBD41C49421330031B48416889BE2D6407
:1029300009200E10B4017843780A460BB142F00228
:102940000283780830010402C308200208020379D8
:1029500008300120024308140F4002047AC379248E
:102960000244EA03331A430A4B9C5C100BFCD41A52
:1029700060807930B111B19868C00E2B0649EE2500
:1029800016130880E12002001043040811041210FD
:102990000C1C07F0B587B00FF24C41FC6C141C0204
:1029A0000121FCC0F4072C0D04FFF7F2FBDFF81443
:1029B000040121FFF7EDFB9414120C141C07E8FB33
:1029C00001230422052103DA0730013CFF02081E1F
:1029D000FE0E0F1001F4132060211C10010F2104C2
:1029E0001418072EFF042201230A2110DA300528CB
:1029F000FF012302220B18322218320C181E1C0869
:102A0000081EC0BC0E1C02C043029058131DDE14E9
:102A10002F0C00E4141E0EE4141E0DE4141C0340DD
:102A200070ADF810741210018DF81212100114001C
:102A300020342C0434FF0B2060656C0C1001FFF770
:102A40005A401C01884320A2071C0BF1F820688023
:102A50007800F097F807B0F00C06101378130A68A6
:102A6000120648BFCA680A685206FCD54862086860
:102A700080081001086800063C02C868C0B256030E
:102A80001012F85043256800232D060ED5E5681571
:102A9000700BE025686D2010055D5C65622568ADF2
:102AA0000A2C0AE5689D545B1C9BB28342F1DB3E15
:102AB0000312103410131C331C680022240608D59E
:102AC000DC6806E0545C5C621C68A42C2408521C80
:102AD000DC6892B28242F5D366215E43F0425E32F8
:102AE000095EF0010006E0615623F5D3562E80A85A
:102AF000131C02F01FF89D68131C02C00701D5E4E7
:102B00000313BD00041D30051D260B1FAC22CC0392
:102B1000100441416013685B3C10050623536213A7
:102B2000689B0A100113681BE21C05D268FFE701CD
:102B3000600CD4051E706613270446463600341612
:102B400001421E0074051C0970520DF102026E60F4
:102B500000A9028A081C0384FF9DF8030306122EB5
:102B6000341C0176BD150C071E16E6073C09172814
:102B700025D0182833D037282196071340023C1F50
:102B8000118106031F00529C031003310161426151
:102B9000082C05712022C16082618C07121C22332F
:102BA0008001221341011C10010061C10C1005803D
:102BB00061416140211D201EFCB813320020213EDE
:102BC0001106225120120020100180210D201FDC4F
:102BD00001B416C271203241642C0A81611021C1F6
:102BE00061012180F8211042081D320720010101F6
:102BF00070E01D540C2F51049A151F466ED0161408
:102C00000394010168490810059F21416201688908
:102C10000A1401016809122FC06872092002FDFE22
:102C20002070082004F9FE04F8010F0A32F40A1497
:102C3000052E6070BDF8B50C182C0B5C11896888E6
:102C400042154601D30020F2460821C614034777F7
:102C50006003214217108D2617010C461F1001FA40
:102C6000141B0210BC1C03A9FFF7FFFECA151C01B0
:102C7000212846F40E17FF37421417F2BDF0B54471
:102C80004F06467869864283B0A8BF042021DA0146
:102C9000A8FFF739661604CC1C0448BF082018D4D6
:102CA00038111001FF3A4C5E20054565602021F87F
:102CB00068604370435E316891621001CEFE255812
:102CC0001A03C61002F8B42D4B341003445C6003A1
:102CD0002632100D60071400AE00257770F07007E3
:102CE000122548324019700022D0F800C05FEA0C6B
:102CF0006C174648BFD0F80CC017F806C0C0F824BF
:102D0000C01820048C6CFAD57F1C181C0A042FF103
:102D1000D30668360619D5C668DC13140426466245
:102D20000668B6321C111746C668120242EA17221C
:102D3000F6B2724092B216090612083C177240822F
:102D4000EA023292B2D6B26D1C82EA46128D42E598
:102D5000DB1C601046F240061C01108102CD0E11F2
:102D6000041C02D202007CA707180100127AB71CCB
:102D70000100403C940E12100812A0141E20A80E50
:102D80005E05540E2DF404AE05650E200522814229
:102D900013D31346781C01132210F015125A7A50DF
:102DA00005130903F00F035A7A200AD3B281428235
:102DB000EA4312EBD2104674100780F3088880F3C0
:102DC00009888F0E101980B52448244B4FF0FF312D
:102DD0000160416001222248026000224260826359
:102DE000210A1C0142601AC4072C1602211F484107
:102DF000604FF6FF71C1610260026302221C48420B
:102E000060C1610E17100101631A0C2F01611817C0
:102E10001C02FFF73CFD4C19180670FFF734FD1536
:102E2000480078138160221006211348C16188216F
:102E300081302B816394112C100521C16305210180
:102E400062422E65E0131E0CB4052C09416800682F
:102E5000BDE80440AFE780D00F2C01310C405C0787
:102E60001C0104200C6005100201400004042DE048
:102E70000F2C0100084028072D980F2D70061E3DCD
:102E800014061DC20B1C0516086818B1401E8208E6
:102E90001C01D162B630041FB58582051C01B061EA
:102EA0003C82051C0106213C82051C035006FFF7ED
:102EB0002B82052F4C0682052F2CF9820512441413
:102EC0001E27E20A32401412220A1E3810161D6212
:102ED000132EFDA4151E00C0152C0440F203406003
:102EE0006588051C0102210570052F6AFC7C051E02
:102EF000006E1A1C1000F064FC3C2020613E206033
:102F000061DFF80416A06BA4061C0560A063E02036
:102F100008708C031E70C4051C0415086005B030D1
:102F20000C031EF0920D2C0481700421C1802E0F21
:102F3000128E9A100A24611CC90BA80FF230611C72
:102F4000C00E400B60D0E90023CDE9062308A81C81
:102F5000C912430121142F0423D20D2C02FFF7D3F1
:102F6000F886041208EC1C03A805039002E2041082
:102F70000315FE0BA901881C02D9FD06AAE606115D
:102F80000A1C01F1FD089604100300F0D0FD0412A4
:102F9000210A1FE8FD1C0E1235042C0105186424BB
:102FA0001B1C06586400223F200190C8042C010518
:102FB000009028091C01A6FD0ED81A1C012DE9FC61
:102FC000D2151C085C452669A661002572B69204DC
:102FD00016050E1C0775016811F1010F1CBFEA1AD6
:102FE0001C0E600A20B880FFF749FF700540F1BD54
:102FF000800198131D801812652A2C197596F80205
:103000000488BBE85D3C281AD186F8035496F8037F
:1030100004451CEDB2E91930111805EDB23C2D0341
:10302000DA119A2C083E2BF7D1291A4A1CC1190C27
:10303000132304FE283003281A401C312621406344
:103040001FBF0A63DAD00A32D50A10043C2DCEDB4A
:103050001FE032100814A8464518EDB2EB190136EE
:103060002390461A201A13DA13F801CBBCF13E0F55
:1030700008F10102F3D150FA81F1C919801900F069
:10308000D2FD9C11161002010818860A13707810E0
:103090001C141481425CD332783C2A02BF8219127C
:1030A000F8013C3E2B41D1B15013100137D1F1064C
:1030B0001C0539D112F8021C00B615200612F803BF
:1030C0002C002A0AD1261044042C32B9301D2CC8F9
:1030D00006F2444102202CC11EE0012924D1022124
:1030E00006F204420DE08B5D13701B2B06D18B1989
:1030F000491C5B7883F033031370C9B2491CC9B211
:10310000521C431E9942EEDB0C2206F206413E1091
:103110000C4000F087FD012086F8010404E00566FC
:10312000210C230004981E300A051E5DEC1321AA11
:103130001E40E00A1D9A1426FBAE440400943B4650
:103140000022E44404CEFCBDE8F381B0140A987375
:103150000446F8788846164638B9F68C01F804E03B
:1031600004031C02B87880B98E191C04030168217D
:10317000F00468121C0430BFD249BA88B20780013B
:103180002AECD1261B79780A2C015311B184051C35
:103190001320FB78783C2141554019B11D417084C2
:1031A0007032464146C0EE121C0630FD7878301869
:1031B0004019B403380C7001713E21417172B6BFE1
:1031C000490868101A1D9E09591A1E3CCE161EB8D1
:1031D000460510027878C84B30121DB84A958652C1
:1031E00074B41005F043B94F83B080B45289B4521F
:1031F00076B45220B48004A94C70B9B748B41FB952
:10320000889008800129EDD1243C01B04D0632069A
:103210001C13C9FA3C20A8713246B01DE87185F82C
:103220000880494605F109AA141001D9FC70AA705A
:1032300009417281723E21C17272B620A85220A843
:1032400023E8FDA8200206F10B00A2400200229D07
:103250004BA62C0121FC0368161C068310B5012126
:103260008B48FE66061E00F8032D3603300300F07F
:103270006EFA94961C0160714188074C040160024B
:10328000209149A0093E0718041C035EFA8E4C8069
:1032900078141C078E48FFF7B6FA8020204E151EC2
:1032A000BDC8151B08FEE81DBA031C027B49087047
:1032B000BE0A1FB583BA1B1D7A1B1623CE1D02033F
:1032C000100313FA01216F6A2402E5FE764BE81C15
:1032D0000201217648F6173DC00C1C01DAFB6E6432
:1032E0000A1C04C87003B000BDD2081D2A1C1E00B1
:1032F000B6094C02020003227A08F00104FEFE0126
:10330000182C034CFF01BD70141F1D78071C040806
:103310001002A95C4C721A1C050A8870E07838B952
:10332000721646FF7036284C9405A0784D4D70B942
:103330005B707401A188287041242802544E062134
:10334000981611701007B07103220920F071026AFB
:103350003401307206701E2192157407B0813E2030
:10336000B07372B6286C16286C16A06C16326C28D6
:1033700003A07000960EC65722426A400A6CFB04F6
:10338000B070BD7CB5354C054698AB72FFBC900360
:10339000A078B0B9359638012349A2BA3001EDD1F1
:1033A0005024120724900105E02D221EA02C185055
:1033B00001F6D029AC23BBF9AC1C078621B01D80D7
:1033C000224170037C0521AC1DA0163FF0CA5E03AC
:1033D00010098900002106F1890041703E1CD801C6
:1033E00072B60BCE21BA43D5FCBA328BBA5214BA9C
:1033F0001C010FFB7370061E584C163C0103001293
:1034000080162DC00D2DBC071E00E90C1F18E4947A
:10341000061DBC062D501610040003040000524483
:103420001DBC071003831B00201C202D8C211E10A7
:10343000B8062C038053002028190D1DC8061280E1
:10344000046D7C166DE407AF00C2E107421007521D
:10345000030F111B12011412E05861131C01534891
:10346000C1AC101F7051A0103E6FAC10225F06124D
:1034700000061C0108E04D160D2F32E0580A200D01
:103480002FE04A4949682CE0C16811F4E0610F2837
:10349000237F1428137F19062001407F1812136F11
:1034A00017061C01A06F16AA1912403A700B090EDC
:1034B0001329B4BF3E493F4910E03C1010073C4976
:1034C0003D4908E03D4906041204041202042D5C43
:1034D0000A2C0E02684068314BC2F38232521CB192
:1034E000FBF2F104151E21E41514049A609868702B
:1034F00047D271A63207A63203A64C0602D142E09B
:103500003AE02FE098163E1FBA123E13BA123E0E52
:10351000BA122209122F6F04781410066F19D122E3
:103520004870472004121E041D4D1D300A471648DE
:103530000068000E132801DB180E7001704712128C
:1035400012110E4F0F48A411100100BF0B181D36A9
:103550000F19363C0141F4707A171700BF182C017F
:103560004070478813210E10010248402215511562
:10357000941628C41EFC30182D70093C01804F128F
:10358000CC0FFC010040B564D00F120C2C1688D46F
:1035900020060348024900680880401A5C20122C6B
:1035A000181C1D00B500BF1300964694461039281C
:1035B000BFA0E80C50FAD85FEA417C28BF0CC04895
:1035C000BF404A0F1C0AC90728BF20F8022B48BF7A
:1035D00000F86623195C1C0100EBC0BF0D902F168C
:1035E0004A83589B0841EA830181507047F0B40F29
:1035F000250829124C08D28E002768B54027EA0515
:1036000005B0402843206009E0A1F10806B6006734
:10361000161C0A60608D000848425108484351005A
:10362000123C0840E061064904984851F0700A2EA7
:1036300000640A1261041002210C4280041004008C
:10364000220C42F0B4761F04A00124201280400016
:10365000F5C0402AB101248C40002B14BF04614402
:10366000617C12097A524764500702FA06F42C432F
:1036700044600A7CB287186008846032B901220273
:10368000FA01F44041781C0970B5044640F6AA607E
:10369000E0600D281A1C04206041F20500A8191CE6
:1036A0000B20A0606061E06441F6F970A06429100D
:1036B0001404652248844204E62D5C0A1F8160944C
:1036C00021100220A0651F142319BF061C0400202E
:1036D000E065A87BFA1F1D6C092C062168B5F9105E
:1036E000201043B42316080C1C09A87C00B110203C
:1036F000297D09B140D21A232168141F287B96091D
:103700001C08506060AE68686810B9096C051C0F31
:1037100086FC06EB4000401EB0FBF6F0800140380E
:103720000598121001606168541C051020E06028A3
:1037300078E0D20C3D940B3FFF1F880B125004130E
:1037400000C4041C04C80040016909E60B2C02FFF8
:10375000E7C069F20E1DF3031E18DA1534070308DB
:10376000D0C91A1FD3DB07C4362DD034062D130061
:1037700030B4144615F8240520E93C00FAD849EA8B
:103780003401E90C00F840012D89002841342DB6A0
:103790000E3001C918180C12CB28210821601638E8
:1037A000341003154631B90DFA100113D10DBE1CAA
:1037B0000527FC0146206CC034181C01606C408851
:1037C0001010134801B0FBF5F0203847F6F87101EE
:1037D000EAC000E06031BD042E2C04FBD10348E7B1
:1037E000E794043DA00412440833151650720D40AE
:1037F0001280401E0AB4061F606C681D140AD101B5
:103800002020642068297B20F01C4E1003697B086F
:1038100043A9041C052060AA686968205405240295
:10382000B9FF2878B01C04206431BD416C881C1E8F
:10383000D190081F64EA1C1225AA1EC1020C2C0894
:103840004161816340F2F9714163DE0B2002416501
:103850000164C41EF0BA0F1C29E841266806EB007B
:1038600016002A12BF3546676807EB0015F6680692
:10387000B13272059F069E57B1D5F808C0CCF381CE
:103880006CBCF1038405400806FA0CFC67442F6009
:10389000049F1AA0024FEA9C7C1A1C036F60012748
:1038A00007721929601C0C20616061002A14BFE0B6
:1038B00062A062A868B4141F2110661428040610C0
:1038C0000843A860782D26251DE2081C03412068C6
:1038D000E16870052FD5FEAA141C0B51296B01EA73
:1038E0000006022720EA010850151E09021D1C408F
:1038F0000A1AE0F00715D5286809FA0AF100EB0A60
:1039000010A160C06868B1017A81F00102027203FF
:10391000681A0006D0491E89414268C943C90F5040
:1039200046984776080AF1010A002EE2D17F1E462A
:1039300046DCFE162FF0878E261C0204460798C32D
:10394000032409931346069801900A460121401C5E
:10395000067BFF01203A49A04044211D700B1C0B3F
:1039600010B4344A13688C6803EB0013DC48081C5D
:103970001F0C788340002C14BF136353634A6831D3
:103980004C44F820204978304A02EB800011B12FD6
:10399000490B100C3E0170121C0330B4264B140866
:1039A0001E1C1214BF1968596893781D0745EA84D4
:1039B00074557844EA8564B2121C03631479D27892
:1039C000CA131C014301EB89123C03EA8232826074
:1039D0006A1115FA180101211E4216AF3A3C011274
:1039E000F81DC0122D2A1311FC13401B081F61681B
:1039F00032131C06602178490141F0011E05300197
:103A000010BD18241C0500211548016040FC0D1C48
:103A10000881610162816201638163CE0C100264DE
:103A200000210A301F10497E07132105581F01BECF
:103A30009A0D1DAC0D1C0408C0FFFF003040052D81
:103A4000B80D1DC40D10038001864308102D10070A
:103A50004F80E220074F0C30D80D2DE80D1EFF5F80
:103A6000052C0662B38B0708D0521E240C19FC1ECD
:103A70003BBC211C05808B07F6D18307B616100EC0
:103A80008000BF103A07D330B4B1E83810103AA024
:103A900006100BF9D230BC530724BFB1E80810A0C0
:103AA000041F44BFBE241E3B5803133BD2161E31D5
:103AB00050052D54051C0344BF0B7803D80512088C
:103AC0003E212A23083A2211042825CBF7D2530796
:103AD000E4E7816807E002681168536889185B1899
:103AE000C36008320260C2689142F4D04A1C82600E
:103AF00008783E1C01FF4D0034251C0D0091002765
:103B00000268520801EBC2010191B8B4101C020214
:103B100091039130111C040800EBC1014032131CC9
:103B20000D010501F10804400804EBC00630E00077
:103B3000B4101011D0FF4FFA80FA0AE00098016823
:103B400008180099029049081E03D4211C0A083065
:103B50000090029803998842F0D0B00F2C07BB0266
:103B60009047450CD1B442FA2110171DF82768057B
:103B7000B14F44606800EB070808344745F2D0BAFB
:103B8000F1000F072818010AD51A701003E8D14771
:103B900045CE2E2C03CCD1304604B00A138DBA1674
:103BA0002C02D6D5F3E71E0C2C0E00B820210903F9
:103BB00026311820ABBEF9E70E48B2041C1000D421
:103BC000704738B50C4CE568FFF79EFD2855E06856
:103BD0005E231C01602069120B1C0561E068082847
:103BE00004BF560511103002092803DB0A1F61A02B
:103BF00046042DF4041E2CC8061C1F10B507497975
:103C0000441831064C7C44163404E00A68081D51FF
:103C10001888470146A142F8D110BD08530612305A
:103C2000042C03E3E9FFFF6091084E52402A1C0276
:103C3000C5FEFFFF46052200041FDC2A14074E01C3
:103C40008C2A1EB0E50824060120C046002801D0B9
:103C50002612000C1C01C046FD600411BE1DAC23E1
:103C60002C0401B800000746FC0C10029AFFFBE789
:103C70002C400B4880470148004711230020D12ADF
:103C80002E21021C02FFF7DCFF060BF29FBF04F29D
:103C9000FF0001F5FF11F9FF21FDFF3103FDFF4199
:103CA00004FDFF5105FDFF6106FDFF7107FDFF816A
:103CB00008FDFF9109FDFFA10AFDFFB10BFDFFC14A
:103CC0000CFDFFD10DFDFFE10EFDFFF10FFDFF012A
:103CD00011FDFF1112FDFF2113FDFF3114FDFF4106
:103CE00015FDFF5116FDFF6117FDFF7118FDFF81E6
:103CF00019FDFF911AFDFFA11BFDFFB11CFDFFC1C6
:103D00001DFDFFD11EFDFFE11FFDFFF120FDFF01A5
:103D100022FDFF1123FDFF2124FDFF3125FDFF4181
:103D200026FDFF5127FDFF6128FD4EBF28D28102ED
:103D30001C1CF7000055B2007E4649454A0B6843FB
:103D4000F001030B60886001204860486940070467
:103D5000333F2DF833900508601EE048698010104D
:103D60000119E00224600C01E022B1521E4869C032
:103D700007FAD422B91C6305E00A2DC9321C026F70
:103D8000F00200B3322001F0FF300C12010C1C07CE
:103D9000F0B42B4C294E256845872C1C0125601357
:103DA0002B381C0C9B7E1000259D4240DA00EB85D1
:103DB00007A7D63B100E6260626912F0060F0AD0A8
:103DC0005FEA427C02D53F10053231E0920702D50E
:103DD000431C1A022CE07F057F0DC7F50067002207
:103DE000BF08A3EB050CBC45B8BF67467D1902644C
:103DF0003B100B091D7F1E002FD7D0324601E0AAD1
:103E00009F2C01D4F814263D10087CF8D572B10A15
:103E1000682261085E211C723A1C1007CC7C21F8D4
:103E2000D4002AE1D1AC6E0203424F104609323C65
:103E300001809698C5411EE9D3341C02FC000301A1
:103E40004F371C0CFC00000CFC00046CDC020080F2
:103E5000F900243E1C02FB000324E0343200126D02
:023E6000292A0D
:0497FC000000000C5D
:040000050000172DB3
:00000001FF
