:020000040000FA
:0600000002011A0228F1C2
:03002B0002301789
:03003B000230810F
:03004300022FEC9D
:0300530002296718
:03006B0002303F21
:10008300022747E5C754F84401F5C7790122000068
:100093000080FB120086B90003020104E479217891
:1000A30008B800028004F709D8FCE479297802B87B
:1000B30000028004F709D8FCE490028178D4791611
:1000C3008002F0A3D8FCD9FA781A90014A7A01BACF
:1000D30000028007E493A3F608DAF97A547B1890B8
:1000E300014B789379068015E493A3AD82AE838A9E
:1000F300828B83F0A3AA82AB838D828E83D8E9D9C6
:10010300E775829B75839D740412012C758291752A
:100113008300740012012C75D00075813F7518811E
:10012300751902759F00020096C09FF59FE473D076
:100133009F22D083D082C09FE493C0E0740193C018
:10014300E0740293F59F22010112416363656C2EF3
:100153002044617461000A416363656C2E20436F20
:100163006E662E000A0A416363656C2E2050657229
:10017300696F640002CE83010000A58302CA830174
:100183000000551810B181010000830202C68303E9
:100193000000860202C883010000561802CA8301C8
:1001A3000000621810A181030000880202C88301C5
:1001B3000000631802CA83010000701810618103F4
:1001C3000000711802C883010000721812642C0128
:1001D3000400AD27011131040102CE83010000C0E8
:1001E3008302CA83010000D81802FE83010000D9EC
:1001F3001802C6830300008B0202FA83010000E3A6
:100203001802D483010000DC18FF0000B4000028AA
:10021300002800283075A000A000A000A00000085E
:100223000008E001F00010001000100010001000A2
:10023300100050005000500010001000D0070000C4
:10024300000000000F0001000500307507001000DA
:10025300010081FF00000000FFFFFF940AB20A9A29
:100263000AD60AFF02020208025000A0000000E8BA
:100273000302CE83010000A28302CA83010000703F
:1002830019020284010000CB0202CA83010000713B
:100293001902D683010000E10202CA830100007241
:1002A3001902EC83010000E30202CA830100007318
:1002B3001902F483080000E40202CA8301000074F7
:1002C3001902F6830100007519FFFF0100FF2002E8
:1002D300CE83010000A88302CA83010000DA190259
:1002E300F883000000000002C68303000012031716
:1002F30000541154115411541154115411541154E4
:100303001154115411541154115411121424140C76
:100313001412436F6E6E2E20506172616D7300086C
:10032300436F6E6E2E20506172616D732052657142
:100333000008446973636F6E6E6563742052657160
:100343000002CE83010000AB8302CA830100001DBB
:100353001A10F1810100004E0702C6830300005406
:100363000702C8830100001E1A02CA830100002B82
:100373001A10E181020000560702C8830100002C15
:100383001A02CA830100003D1A10D1810200005EE7
:100393000702C8830100003E1A0202464620464671
:1003A3002046462046462046462046460002023066
:1003B300302E3031000202CE83010000BD8302CA19
:1003C30083010000A51A02F0830100005E8202CAC5
:1003D30083010000A61A02EE83010000A71A02CAD5
:1003E30083010000B91A02DC83010000C78202CA3C
:1003F30083010000BA1A02DA83010000BB1A02CAA1
:1004030083010000C11A02D883010000898201E838
:10041300030577100A0AEC15124779726F204461BD
:100423007461000A4779726F20436F6E662E000A6B
:100433000A4779726F20506572696F640002CE8338
:100443000100009F8302CA83010000241B10118155
:100453000100001B0802C683030000210802C883B1
:10046300010000251B02CA830100002F1B10F1802D
:10047300030000230802C883010000301B02CA8363
:100483000100003B1B10E1800300003C1B02C883FA
:100493000100003D1B61801254656D702E20446184
:1004A3007461000A54656D702E20436F6E662E00D2
:1004B3001E02CE830100009C8302CA83010000A3B5
:1004C3001B104181010000FD0902C68303000021C6
:1004D3000A02C883010000A41B02CA83010000AF03
:1004E3001B10C181030000230A02C883010000B06E
:1004F3001B124D61676E2E2044617461000A4D61C9
:10050300676E2E20436F6E662E000A0A4D61676E7A
:100513002E20506572696F640002CE83010000AE25
:100523008302CA83010000FD1B1011820100002613
:100533000A02C6830300002C0A02C883010000FEDE
:100543001B02CA83010000091C1051810300002E05
:100553000A02C8830100000A1C02CA8301000016B4
:100563001C108181030000171C02C88301000018BE
:100573001C10416C6572744E6F74696669636174B3
:10058300696F6E2E20446174610002CE8301000006
:10059300BA8302CA830100007D1C02E883000000C5
:1005A300310A02C683030000320A02C88301000035
:1005B3007E1C1C02CE83010000C38302CA83010098
:1005C30000BE1C103080020000340A02C683030000
:1005D30000360A02C883010000518202CA83010067
:1005E30000BE1C104080020000350A02C6830300CF
:1005F30000380A02C8830100006982FFFFFFFFFF82
:100603000001307503020106000000000000000035
:1006130000000000000000000000000000000000D7
:1006230000000000FFFF0600800CE8030A0412022A
:10063300CE83010000B78302CA83010000381D0284
:10064300E4830300000D1702CE83010000B483028C
:10065300CA83010000391D02E4830200000E170261
:10066300CE83010000B18302CA830100003A1D0258
:10067300E6830100000F1702C68303000010170F63
:1006830009526F636B62616E64315F7878787805C5
:100693001250002003020A00020106070250AA09B1
:1006A300180D1808FF000DFFAAFFFFFF526F636BC1
:1006B30062616E64315F7878787800D007E803E888
:1006C30003901A0000A81AAE1AB41ABA1AC61ACCA2
:0A06D3001A000000013C04003E0183
:10080200FFFF0D00007C42424242FFFFFFFFFFFF5D
:10081200FFFFFFFFFFFFFFFFFFFFFFFFFFFF0001E3
:1008220002030405060708090A0BFFFFFFFF120176
:1008320035E4C1031201351BC20312013544C20360
:1008420012013519C30312013582C3031201359017
:10085200C403120135A78704120135188804120156
:1008620035F48804120135D88904120135E8890467
:1008720012013549EB031201355CEB031201358D90
:10088200EB03120135C7EB0312013520EC03120111
:100892003567EC03120135AFEC03120135DEEC03D0
:1008A2001201350DED0312013544ED031201358BB2
:1008B200ED03120135A4ED03120135F9ED03120126
:1008C2003512EE0312013560EE031201359AEE0382
:1008D20012013504F50212013507F6021201354004
:1008E200F60212013563F60212013575F6021201A3
:1008F20035B3F6021201352FF702120135F7F7026E
:1009020012013519F802120135B0F802120135024E
:10091200F90212013533F90212013540F9021201CE
:1009220035AAF90212013501FA0212013504FA025E
:100932001201353DFA0212013540FA021201354A1E
:10094200FA021201359EFA02120135DFFA02120191
:100952003512FB021201354FFB0212013551FC0226
:10096200120135F5FC021201355EFD021201359CC1
:10097200FD0212013598DF03120135C0DF031201B7
:1009820035EDDF0312013525E00312013583E00363
:10099200120135CFE00312013536E103120135763B
:1009A200E103120135B3E103120135E1E103120162
:1009B200358BE20312013595E203120135A2E203FF
:1009C200120135D5E203120135E1E203120135F9D4
:1009D200E20312013503E303120135F59A04120111
:1009E20035039B041201351B9B04120135329B0413
:1009F200120135FED001120135A8D101120135BB19
:100A0200D20112013537D30112013555D401120139
:100A12003591D4011201352CD50112013510D601C0
:100A2200120135DCD6011201356AD801120135DB1B
:100A3200D80112013595D90112013587DA01120167
:100A420035C7DA011201357BDB01120135ADDB015D
:100A5200120135A3DD01120135E5DD011201350375
:100A6200DE0112013569DE0112013538DF011201A2
:100A720035FCDF011201351BE201120135C18F0382
:100A8200120135AB9003120135569103120135A7BD
:100A92009103120135579203120135C892031201D4
:100AA20035AD9303120135E19303120135DA940354
:100AB200120135179503120135F3950312013532F0
:100AC20096031201354E9603120135F58B0412017D
:100AD20035798C04120135A48C04120135BE8D04C3
:100AE20012013591E303120135A7E303120135C563
:100AF200E303120135D6E403120135E0E4031201E7
:100B0200350BE60312013502E7031201356FE703E5
:100B12001201351BA30312013551A403120135CB77
:100B2200A403120135FBA4031201350EA503120121
:100B32003565A5031201357AA703120135ECFF01D1
:100B420012013548AC01120135D4AC01120135381D
:100B5200AE0112013544AE011201357FAE01120120
:100B620035EEAE01120135F7AF0112013500B101C8
:100B7200120135C7B10112013524B3011201354208
:100B8200B3011201355FB3011201350CB401120138
:100B92003589B401120135B1B4011201357BB701B7
:100BA20012013580B70112013599B901120135E7F9
:100BB200B90112013557BA0112013595BA01120174
:100BC2003571BB0112013531BC011201357DBC0109
:100BD20012013580BC01120135C4BC011201350C71
:100BE200BD011201354BBD011201356DBD0112016E
:100BF20035A1BD0112013504BE01120135E2AE0379
:100C0200120135F0AE0312013543AF031201356212
:100C1200AF03120135A7AF03120135EBB003120186
:100C22003586B103120135CAB103120135F4B1039D
:100C320012013563B203120135A9B2031201352044
:100C4200B303120135D1B30312013504310012018D
:100C520035143100120135B531001201351132005F
:100C6200120135CE3200120135EA33001201351C71
:100C720034001201354B3400120135F835001201EF
:100C8200356F3800120135DF3A00120135D13B00D1
:100C9200120135CA3C00120135D13E00120135C5A0
:100CA2004100120135F44200120135F844001201EC
:100CB2003508460012013597470012013588480071
:100CC200120135D648001201354549001201356935
:100CD2004900120135BA49001201355B4E0012017A
:100CE200355C4F00120135BD4F00120135E84F004F
:100CF200120135AE50001201355BD7031201356582
:100D0200D703120135AAD703120135BED703120148
:100D1200354ED80312013587D803120135C2D803E4
:100D2200120135EBD8031201353FD90312013554B4
:100D3200D90312013576D9031201358BD903120179
:100D4200359FD903120135B4D903120135EED90307
:100D52001201351ADA0312013563DA03120135D5AD
:100D6200DA0312013518DB0312013542DB031201EB
:100D7200356DDB03120135D0970412013580CD02A7
:100D820012013563CE02120135DECE02120135198F
:100D9200CF021201356AD002120135F8D0021201D7
:100DA200358AD3021201353CD40212013548D502EC
:100DB200120135BBD60212013514D70212013539A0
:100DC200C6031201357CC60312013500C7031201A6
:100DD20035D7C903120135358504120135E785047B
:100DE200120135E386041201352287041201357C93
:100DF2008704120135ED8D04120135508E04120163
:100E020035ED8E04120135228F04120135528F0402
:100E12001201358D8F04120135AD8F041201359AFE
:100E2200B80312013526B903120135E5B9031201DF
:100E320035FDBA0312013517BD031201351BAC0291
:100E420012013540AC021201350DAD02120135E13D
:100E5200AD021201354EAE021201358EAE02120102
:100E6200352AAF021201355EB00212013539B102E4
:100E720012013598B10212013524B20212013592E3
:100E8200B2021201351EB30212013564B30212011D
:100E920035D6B30212013568B40212013509B50222
:100EA20012013529B50212013571B502120135BAA6
:100EB200B502120135D6B502120135FCB502120196
:100EC2003576B60212013584B60212013513B70225
:100ED2001201357CB7021201354EBD03120135D322
:100EE200BD0312013515BE03120135F9BE0312010D
:100EF2003566BF03120135AABF03120135EEBF03E7
:100F02001201351BC00312013543C0031201357BA8
:100F1200C003120135B9C003120135E0C00312014A
:100F2200355AC103120135A4C10312013528E20169
:100F3200120135C7E301120135FFE50112013553F4
:100F4200E6011201357EE6011201355AE70112016E
:100F5200358AE701120135B9E701120135CCE70103
:100F62001201350DE8011201353AE8011201358806
:100F7200E801120135C4E80112013509E901120143
:100F82003556E901120135D0E90112013511EC01A2
:100F9200120135FBED0112013537EE01120135C6A2
:100FA200EF011201350BF0011201357EF001120141
:100FB20035D3F001120135D8F00112013562F10189
:100FC20012013581F20112013592F20112013565E9
:100FD200EB02120135DEEB0212013598F102120129
:100FE20035A3F2021201354CF402120135DAF40291
:100FF200120135359801120135B69801120135E317
:1010020098011201352C99011201352D9A01120114
:1010120035869A01120135029C01120135849C0128
:101022001201359F9C01120135109D01120135CD2F
:101032009D01120135909E011201351E9F01120180
:1010420035D59F01120135E89F0112013581A001BA
:1010520012013518A1011201353FA101120135A873
:10106200A101120135F2A10112013540A2011201C2
:1010720035E5A20112013583A30112013510A40145
:1010820012013581A401120135C8A40112013520D3
:10109200A50112013552A5011201350CA60112015A
:1010A2003513A7011201355CA70112013579A70199
:1010B20012013598A701120135CBA8011201358220
:1010C200A901120135A7A901120135BCA90112011A
:1010D200352CAA011201356DAA0112013591AB011D
:1010E20012013512AC01120135A5E102120135F0EF
:1010F200E102120135FCE102120135D0E2021201D5
:1011020035E7E20212013524E30212013555E3020A
:101112001201358DE302120135E3E302120135F9C2
:10112200E30212013535E40212013548E4021201EC
:10113200356FE402120135A3E402120135C9E5025A
:1011420012013513E7021201350FE8021201352CA4
:10115200E902120135FCFF011201354F7000120144
:10116200358A7000120135DC7300120135387500C2
:10117200120135F775001201355E7900120135480A
:101182007A00120135947A00120135AE7A0012010A
:1011920035EB7A00120135F67A00120135357B0003
:1011A2001201353E7B00120135E87B00120135BF8A
:1011B2007C00120135137D00120135707D00120191
:1011C20035E27D00120135DCBE011201353BC20160
:1011D20012013541C20112013572C901120135797C
:1011E200CD0112013502EF0312013598EF0312010E
:1011F20035AEEF0312013507F0031201354BF00350
:1012020012013585F0031201351DF1031201358CEF
:10121200F10312013595F103120135A1F103120117
:1012220035BBF103120135E5F103120135FAF10381
:101232001201355CF20312013583F20312013519F2
:10124200D30312013526D30312013540D303120111
:101252003573D303120135B1D30312013516D4030A
:101262001201352BD40312013536D4031201354352
:10127200D4031201355AD40312013568D403120182
:101282003573D4031201357FD4031201358ED40392
:1012920012013599D403120135BCD4031201356011
:1012A200D50312013570D5031201358AD503120117
:1012B20035A7D503120135C2D503120135E7D5038F
:1012C200120135F2D50312013507D6031201351B7F
:1012D200D6031201357CD60312013582D6031201E0
:1012E2003588D6031201358ED603120135A6D603F0
:1012F200120135D9D603120135989E021201352FFB
:101302009F02120135C79F02120135B7A0021201D6
:1013120035EEA00212013501A1021201356FA102C0
:101322001201350AA30212013531A302120135D38B
:10133200A30212013508A40212013519A4021201F6
:101342003592A402120135B3A402120135CBA402D4
:1013520012013523A6021201352CA8021201357C96
:10136200AA021201357FAB02120135CEAB02120185
:1013720035069002120135039102120135EE9102F7
:10138200120135F891021201351A92021201352624
:101392009202120135789302120135A793021201CB
:1013A20035D794021201351995021201354596027C
:1013B2001201351B97021201356D9702120135CCCD
:1013C20097021201350398021201353E980212016A
:1013D20035D99B02120135F29B02120135749C022F
:1013E200120135829C02120135D79C02120135E5A9
:1013F2009C02120135529D02120135C49D02120156
:10140200350A9E021201359FB702120135C1B70299
:10141200120135ABB90212013550BD0212013593EA
:10142200BE021201356DBF02120135BB8F041201DB
:1014320035E08F041201355190041201350080030A
:10144200120135098003120135128003120135435E
:10145200810312013562830312013598830312015D
:1014620035D2830312013508840312013542840305
:10147200120135768403120135A28403120135EB81
:1014820084031201352585031201356D850312018E
:1014920035C38503120135F88503120135538603DE
:1014A2001201358D8603120135DE860312013514D1
:1014B20087031201354E87031201357C870312011F
:1014C200359F8703120135C29B04120135EE9B043E
:1014D200120135499C04120135539C0412013563F3
:1014E2009C0412013595DB03120135CCDB0312019A
:1014F20035E9DB03120135CDDC031201354EDD0384
:1015020012013525DE03120135E3B303120135BCA6
:10151200B503120135E3B503120135ECB50312012F
:1015220035169D041201351A51001201352A540054
:10153200120135BF55001201353A5600120135E647
:101542005600120135895700120135215800120147
:1015520035505800120135E85C001201357A5D0001
:10156200120135B65E00120135205F00120135D43A
:101572005F001201358A6200120135C46200120155
:10158200352E63001201358B6300120135E86300CA
:1015920012013545640012013530650012013576BD
:1015A2006500120135C16500120135E465001201C2
:1015B20035466700120135616700120135E968009E
:1015C200120135286900120135686900120135BB24
:1015D2006900120135DC6900120135236A0012012B
:1015E20035496C001201358A6C00120135216D00FB
:1015F200120135CD6D00120135686E00120135DA27
:101602006E001201351B700012013541A90312014F
:1016120035E7A9031201352CAB03120135B5AB0333
:10162200120135A2AC03120135E1AC031201354BB4
:10163200AD03120135B9AD03120135D1CE0312014A
:101642003508CF0312013531CF03120135F9CF032B
:1016520012013562D00312013570D10312013586B1
:101662009504120135CB9504120135A99604120195
:1016720035D0FF03120135E6FF031201355A9E04ED
:10168200120135BB9604120135CB9604120135DCEA
:101692009604120135BF9704120135E5F8031201D1
:1016A200358DF903120135CFFB03120135C2FD025C
:1016B20012013525FE0212013593FE02120135494F
:1016C200FF0212013568FF0212013578FF02120192
:1016D20035B7FF02120135719104120135C0910430
:1016E200120135F29104120135849204120135007F
:1016F2009304120135F5FF02120135979E0412017F
:1017020035A99E04120135AC9E041201358AFE03EE
:10171200120135D3FE03120135FFFE031201351FFC
:10172200FF03120135BEFF03120135E498041201D2
:1017320035339904120135C39904120135F87F003B
:10174200120135EAFB03120135D0FD031201353CCB
:10175200FE0312013587FE03120135AF9603120113
:1017620035AC9803120135169903120135149A0308
:10177200120135D89A03120135B49B031201350FB9
:101782009C031201353E9C03120135419C03120158
:10179200354F9C031201356C9C03120135959C0355
:1017A200120135BE9C03120135CC9C03120135E4B3
:1017B2009C03120135CCF50312013503F603120125
:1017C200352CF60312013543F70312013589CA039A
:1017D200120135C0CA03120135E9CA03120135B13B
:1017E200CB031201351ACC0312013528CD031201A5
:1017F20035008004120135718004120135848004A1
:101802001201351A8104120135C5810412013531E4
:101812007F00120135AA7F00120135C97F00120133
:1018220035E87F00120135AFC2021201356DC302E5
:101832001201358EC3021201359EC402120135CE49
:10184200C502120135B7C702120135C0C802120122
:10185200355FCA02120135B5CA02120135EECC0259
:101862001201354C94041201357594041201359F0E
:101872009404120135BF94041201351D950412011E
:10188200352D88031201354288031201359E8803E3
:10189200120135098903120135518903120135C339
:1018A2008903120135EC8903120135FA8903120109
:1018B200355C8A031201359A8A03120135B58A030F
:1018C200120135508B03120135F98B031201357C5D
:1018D2008C03120135B58C03120135408D031201C0
:1018E20035978D03120135F58D03120135078E03ED
:1018F2001201352D8E03120135368E031201358DFC
:101902008F03120135FB8904120135628A04120128
:10191200351F8B041201359D8B0412013579E703C3
:10192200120135ACE703120135DEE803120135225C
:10193200E903120135FEE903120135129304120183
:1019420035F093041201359D8204120135E28204BE
:10195200120135288304120135F184041201351075
:10196200FF011201352BFF011201353BFF0112016C
:1019720035A0FF011201356D9C04120135BDD7025D
:1019820012013599D802120135E0D8021201351D33
:10199200D9021201358BD902120135E5D9021201A1
:1019A2003555DA0212013525DB0212013514DC024B
:1019B2001201358BDC0212013527DE02120135B429
:1019C200DE0212013527DF02120135A3DF02120106
:1019D20035BADF02120135DFE00212013539E102C8
:1019E200120135F29C03120135129D0312013518C2
:1019F2009E03120135649E03120135849E03120177
:101A020035D79E03120135449F031201358A9F0385
:101A1200120135EE9F031201359AA2031201350518
:101A22008401120135328901120135358C0112010E
:101A3200355E8C01120135758C011201359E8C01C7
:101A4200120135508D01120135398F011201358491
:101A520090011201359D9001120135E795011201A5
:101A620035209601120135649601120135759701F0
:101A7200120135B1F20312013591F30312013565FA
:101A8200F4031201350080021201351D8302120196
:101A9200350F86021201350D870212013538870291
:101AA2001201356387021201358E8702120135E376
:101AB20087021201358A88021201352F890212012A
:101AC20035D68902120135A78A02120135748B02BA
:101AD200120135028C02120135848C021201350486
:101AE2008D02120135508D02120135858D021201CF
:101AF200352D8F02120135738F02120135B5F201B5
:101B020012013542F30112013597F3011201359AA0
:101B1200F3011201353AF50112013555F5011201B1
:101B22003575F501120135A7F50112013581F6016E
:101B320012013588F6011201358FF601120135FFC7
:101B4200F601120135B1FC0112013532FE0112011A
:101B520035F099041201359C9A04120135149E0441
:101B6200120135C9FF02120135799E04E066701038
:101B720008A3E066700A08A3E066700408A3E066A2
:101B820022C3E7960809E7960809E7960809E79647
:101B920022C3E09608A3E09608A3E09608A3E09685
:101BA20022C008C3E096F50808A3E096420808A3FD
:101BB200E096420808A3E09645087001D3D00822B7
:101BC200080808EAC0E0EBC0E086F0E7A4FA1809CA
:101BD20086F0E7A42AFA180986F0E7A42AFA180977
:101BE20086F0E7A42AFA1986F0E7A4FBE5F02AFAC0
:101BF200190886F0E7A42BFBE5F03AFA190886F0FB
:101C0200E7A42BFBE5F03AFA18180986F0E7A4C519
:101C1200F02BFBE43AFA1908E7C5F0C6A426F6E56C
:101C2200F03BFBE43AFA1886F0E7A4F6E5F0082662
:101C3200F6E43B08F6E43A08F6D0E0FBD0E0FA22FC
:101C4200E4CFC0E0E4CEC0E0E4CDC0E0E4CCC0E04C
:101C520075F020E626F608E633F608E633F608E6DF
:101C620033F6181818EC33FCED33FDEE33FEEF3388
:101C7200FFC3EC9709ED9709EE9709EF9719191928
:101C8200400FFFEC97FC09ED97FD09EE97FE19193D
:101C920006D5F0BFECF709EDF709EEF709EFF719F2
:101CA2001919D0E0FCD0E0FDD0E0FED0E0FF2260C8
:101CB20016080808C6C313C618C613C618C613C624
:101CC20018C613C6D5E0EA22700908080822601671
:101CD200181818C6C333C608C633C608C633C608A2
:101CE200C633C6D5E0EA22E627F60809E637F60843
:101CF20009E637F60809E637F622E026F608A3E0F9
:101D020036F608A3E036F608A3E036F622E026F01F
:101D120008A3E036F008A3E036F008A3E036F0228C
:101D2200C3E697F60809E697F60809E697F6080962
:101D3200E697F622C3E096F008A3E096F008A3E047
:101D420096F008A3E096F022E056F608A3E056F6D5
:101D520008A3E056F608A3E056F622E056F008A3E0
:101D6200E056F008A3E056F008A3E056F022E0F6B1
:101D720008A3E0F608A3E0F608A3E0F622E6F008DE
:101D8200A3E6F008A3E6F008A3E6F022E0FAA3E057
:101D9200FBA3E0FCA3E0FD22EAF0A3EBF0A3ECF04E
:101DA200A3EDF022E0F8A3E0F9A3E0FAA3E0FB221E
:101DB200E8F0A3E9F0A3EAF0A3EBF022CAC0E0E660
:101DC200F0A308DAFAD0E0FA22CAC0E0E0A3C582A2
:101DD200CCC582C583CDC583F0A3C582CCC582C5DF
:101DE20083CDC583DAE6D0E0CA22C3E498F8E49949
:101DF200F9121E2D8026C3E49AFAE49BFBE920E740
:101E0200E9121E2DE498F8E499F922C3E498F8E463
:101E120099F9121E2DE498F8E499F9C3E49AFAE4C8
:101E22009BFB22EB20E7CFE920E7E0B90010BB00E3
:101E320008E88AF084F8AAF022E4FBC8FA22EB70E0
:101E4200227B10C833C8C933C9335007C39AC3DBD6
:101E5200F280069A50012ADBEAC833F4C8C933F487
:101E6200C9FA2275F008E4C833C8C933C933C99A1C
:101E7200C99B5004C92AC93BD5F0ECFBC833F4C84E
:101E8200E4C9FA22600D08C6A2E713C618C613C633
:101E9200D5E0F322600C08C6C313C618C613C6D514
:101EA200E0F422700422600D18C6C333C608C6339C
:101EB200C6D5E0F41822251810AF08F518400C1505
:101EC200198008F51840021519D2AF2200C0D0259A
:101ED2001810AF08F518500C05198008F5185002B3
:101EE2000519D2AFD0D0222518F58210AF08F51807
:101EF200400C15198008F51840021519D2AF851942
:101F020083222518F582E43519F583222518F8E491
:101F12003519F9222518FAE43519FB222518FCE4B3
:101F22003519FD22E4732518C582C0E0E51934FF96
:101F3200C583C0E0E518C3958224F810AF088583F5
:101F4200198582188008858319858218D2AFCEF050
:101F5200A3E520F0A37808E608F0A3DEFAEFF0A3E9
:101F6200E58124FAF8E608F0A3E608F0A3E608F013
:101F7200A30808E608F0A3E608F0A315811581D0AE
:101F8200E0FED0E0F8158115811581E8C0E0EEC0D1
:101F9200E0222518C582C0E0E51934FFC583C0E000
:101FA200E518C3958224F910AF0885831985821834
:101FB2008008858319858218D2AFCEF0A3E520F080
:101FC200A37808E608F0A3DEFAEFF0A3E58124FB8C
:101FD200F8E608F0A3E608F0A30808E608F0A3E68E
:101FE20008F0A315811581D0E0FED0E0F815811527
:101FF20081E8C0E0EEC0E022851983851882E0A363
:10200200FEE0A3F5207808E0A3F608DFFAE0A3FFDC
:10201200E0A3C0E0E0A3C0E0E0A3C0E0E0A3C0E032
:10202200E0A3C0E010AF0885821885831980088577
:102032008218858319D2AFD083D0820201328519EA
:1020420083851882E0A3FEE0A3F5207808E0A3F6DA
:1020520008DFFAE0A3FFE0A3C0E0E0A3C0E0E0A352
:10206200C0E0E0A3C0E010AF088582188583198024
:1020720008858218858319D2AFD083D08222C0D03E
:102082002518C582C0E0E51934FFC583C0E0E51814
:10209200C3958224F310AF088583198582188008BE
:1020A200858319858218D2AFC8F0A3E9F0A3EAF0BC
:1020B200A3EBF0A37908E709F0A3D8FAECF0A3EDBB
:1020C200F0A3EEF0A3EFF0A3D0E0F0A3D0E0F0A3F2
:1020D200D0E0F0A3E520F0A3E5F0F0A32285198378
:1020E200851882E0C0E0A3E0F9A3E0FAA3E0FBA335
:1020F2007808E0F608A3DFFAE0FCA3E0FDA3E0FE27
:10210200A3E0FFA3E0C0E0A3E0C0E0A3E0F5D0A31A
:10211200E0F520A3E0A3F5F010AF088583198582CE
:10212200188008858319858218D2AFD082D083D0D7
:10213200E0F8D0E03274048006740280027401C0B8
:10214200E0F404121EE9D0E0121DBE2274048004E1
:1021520074028000CCC0E0EDC0E0E518C39CCCADB9
:102162001950011D10AF068C188D1980068C188D20
:1021720019D2AF121DCBD0E0FDD0E0FC22D083D02B
:1021820082E9C0E0E493A3C386F0C5F095F0F908B4
:10219200E493A386F0C5F095F0700BE493A3C39982
:1021A2004005E9048002A3E475F002A42582F582C9
:1021B200E5F03583F583D0E0F9E493A3C0E0E4933E
:1021C200C0E022D083D082ECC0E0EDC0E0E493A373
:1021D200FCE493A3FDED4C600D122211EC24FFFCF4
:1021E200ED34FFFD80EFE493A3FCE493A3FDED4CFB
:1021F200600D122250EC24FFFCED34FFFD80EFD085
:10220200E0FDD0E0FCE493A3C0E0E493C0E022C090
:10221200E0C3E49396087401939618400FE4936622
:10222200700808740193661870007019A3A3C3E4C0
:102232009396087401939618A3A3400DD0E0D0E0C2
:10224200D0E0022201A3A3A3A3A3A3D0E022C0E073
:10225200C0F088F0E4936670080874019366187001
:1022620000A8F0A3A3700BD0F0D0E0D0E0D0E00241
:092272002201A3A3D0F0D0E02268
:10227C0074F6121F94EAFEEBFF8C088D09EE2434E1
:10228C00F8E43FF9E8FCE9FDEE243512258FFAEE6F
:10229C00243712258FF88508F0A4C885F00A850923
:1022AC00F0A4250AF9EA28F8E439F97A257B00121A
:1022BC001E2DEA8C828D83F0FA131313541FF8EE43
:1022CC0028F8E43FF9E8245DF582E439F583E0C0B1
:1022DC00E074075AF8D0E0B800028004C313D8FCAD
:1022EC00A2E0EE50082434F582E43F801824361224
:1022FC00258FF5F0EA84A8F0EE28F8E43FF9E824FD
:10230C0038F582E439F583E0F97F0302204074F755
:10231C00121F94EAFEEBFFEE243412258FC0E0EE80
:10232C002435F582E43FF583D0E0F08E828F83A3D1
:10233C00A3A3A3A3A3A3C082C0838E828F83A3A3D2
:10234C00A3A3A3E0F8A3E0F9D083D082E0C398F56F
:10235C0008A3E099F509EE247F12258F6401703EE5
:10236C00EE2480F582E43FF583C082C0838E828F99
:10237C0083A3A3A3A3A3E0240108A3E03400F9D012
:10238C0083D082E0687003A3E06970127CBD7D0489
:10239C00121094EE247FF582E43FF583E4F0AC0850
:1023AC00AD09EEFAEFFB12227CE9F9122FDE7F0267
:1023BC00022040C082C083851882851983E0F8A36F
:1023CC00E0F9C3EA9CEB9D5010C3EC98ED99401BCF
:1023DC00C3EA98EB995014800EC3EA98EB99400726
:1023EC00C3EC98ED994004790180027900D083D038
:1023FC008222EAC39CFAEB9DFB2274EF121F94908D
:10240C000382E064086005E06407702A9061C8E00C
:10241C0060249003B0E0F4601DE0F875F00BA4C8E4
:10242C00AAF02AF974B228FE740339FF8E828F83C6
:10243C00A3A3A3E07003022514906060E0C0E0EE5B
:10244C002468F582E43FF583D0E0F0750C2D750D12
:10245C0005750800750900E5D914F50AE5D954038A
:10246C00F50E60127403650E6043E50A600AEE24F3
:10247C006712258F70028075900528E06401601F3B
:10248C0012258C60047A0480027A00E50AC39AFA59
:10249C0095E0FB120F3E8A088B09EA45097005127C
:1024AC0012DA806412258C70048A0C8B0DE50A609C
:1024BC0012850C82850D83F50BE5D9F0A3150BE580
:1024CC000B70F612258C604474FC250AF50A780C06
:1024DC0012213BAC0AA90EEEFAEFFB12114E74025C
:1024EC00121ECEE97026AA08AB0912190A793D8E84
:1024FC00828F83A3A3A3A3E0FA7B00120DA0EEFAB4
:10250C00EFFB1210B81211607900806F7403650E26
:10251C006051850A10751100781012213BAC0CAD7E
:10252C000DAA08AB091211127402121ECEEE246809
:10253C0012258F64807004747F8001E0F50C780C98
:10254C0012213FE50EF50C780C12213FA90AAC08BC
:10255C00AD099003B0E0FA7B00120D767402121EE6
:10256C00CE8013900382E06408600BAC0CAD0DEED2
:10257C00FAEFFB1211D81212E679017F0A02204001
:10258C00EE2483F582E43FF583E02274F2121F946B
:10259C0074FC121EB8EAFEEBFF8909A2AFE433F516
:1025AC0008C2AF022661E0601B780C12213BAC0B19
:1025BC00A90EEEFAEFFB1211487402121ECE74042F
:1025CC00250BF50B7401250BF5D9850ED9E50B60A0
:1025DC0018F50A850C82850D83E0F5D9A385820C4C
:1025EC0085830D150AE50A70EA75E195EE2463F80A
:1025FC00E43FF97A007B00A2AFE433F50BC2AF885D
:10260C00828983E0FCA3E0FDEC4D603A88828983EB
:10261C00E0FAA3E0FB8A828B83E0FCA3E0FD8882D6
:10262C008983ECF0A3EDF08A828B83E4F0A3F0882D
:10263C00828983E0FCA3E0FDEC4D700A88828983DB
:10264C00A3A3E4F0A3F0E50BA2E092AF12190A9059
:10265C0004C4E004F0EE246312258FF8A3E0F9E83B
:10266C00496064EE246312258F2402F8A3E0340041
:10267C00F988828983E5822402F50CE43583F50D13
:10268C00E0F50BA3E0F50EEE246212258F640170C9
:10269C00369061D0E0F812258C60047C0480027CBA
:1026AC00007480C398FA95E0FBE50B2CF8E4340039
:1026BC00F9E82402F8500109C3EA98EB99A2D26513
:1026CC00D03340030225B29004C4E0604D9004C5A1
:1026DC00E0F89004C4E0C398500C74026509703A99
:1026EC009004C6E060348E828F83A3A3A3A3E085FD
:1026FC0018828519831227367402121F04E81227D8
:10270C00369004C3E028F07402121F1EAA18AB19ED
:10271C007901120DCA9004C4E4F0E508A2E092AF6E
:10272C007404121ECE7F07022040F0A3E4F0900444
:10273C00C4E0F8228521878522C622C0E074EB1202
:10274C002080A2AFE433F508C2AF759B0090618284
:10275C00E0A2E05030E591A2E0502A7591FE7401A0
:10276C00652170211228DA1212261228C812214E65
:10277C00122D887404121ECEE964017005790112C1
:10278C00126E122406906182E0A2E5505DE591A2E2
:10279C00E550577591DF900382E064076005E064B3
:1027AC0008702F1228DA74016521703E121226125D
:1027BC0028C812214E122D887404121ECEE9640111
:1027CC007005790112126E7901EEFAEFFB12259762
:1027DC008018E0640D70139003A4E004F06428707A
:1027EC0002E4F07A00E0F91212EC906182E0A2E6C9
:1027FC00400302289DE591A2E6400302289D7591B5
:10280C00BF900382E06405700812120E12121A8037
:10281C000312121475210012127AE9900383F079D5
:10282C000012126E1210047A017B00900381E0F901
:10283C001218DA907803E06442705690052CE0147C
:10284C00F0704EC2AF12285400782AD0E0F618D09F
:10285C00E0F6E59F5407F87005750DFF8003750DC4
:10286C007FC4C0E07829E6F50A08E6550DF50B742F
:10287C000B780A121E96D0E0250AF8906270E0A23E
:10288C00E740F8E8C333906272F0906270E0D2E0F7
:10289C00F0906181E0A2E35009E5E9A2E3500375F1
:1028AC00E9F7A3E0A2E75009E591A2E7500375917F
:1028BC007FE508A2E092AF7F080220DF8E828F8333
:1028CC00E0F8A3E0C82416F582E438F583229003DF
:1028DC00B0E0F875F00BA4C8AAF02AF974B228FE7F
:1028EC00740339FF22C0E0C0D0C082C083906183E2
:1028FC00E0A2E05009E5BFA2E0500375BFFEE0A2E4
:10290C00E15009E5BFA2E1500375BFFDE0A2E25022
:10291C0009E5BFA2E2500375BFFBE0A2E35009E555
:10292C00BFA2E3500375BFF7E0A2E45009E5BFA2D4
:10293C00E4500375BFEFE0A2E55009E5BFA2E550F6
:10294C000375BFDFE0A2E65009E5BFA2E6500375B0
:10295C00BFBFD083D082D0D0D0E032C0E074F212AE
:10296C002080E5A7A2E6500FE5A1A2E6500953A7E7
:10297C00BF75A1BF1229BBE5A7A2E5500CE5A1A22A
:10298C00E5500653A7DF75A1DFE5A7A2E15009E5E5
:10299C00A1A2E1500375A1FDE5A7A2E2500CE5A1AF
:1029AC00A2E2500653A7FB75A1FB7F010220DF7446
:1029BC00F7121F94752101900382E06406701512C2
:1029CC0011848A828B83A3A3A3A3A3A3E0FAA3E01D
:1029DC00FB1211FCA2AFE433FED2AF900388E0648B
:1029EC000170187A207B00900381E0F9121A067AA4
:1029FC00207B00900381E0F91218E0906182E0D214
:102A0C00E6F0900529E0602185C6228016900387A8
:102A1C00E064017008E5C654F84405F5C653BEFCE5
:102A2C001227407401652160E4EEA2E092AF7F02B0
:102A3C00022040008E238F248582288583278518C9
:102A4C0082851983E0CEA3E0CF852882852783EB8E
:102A5C00C9EAC8EDCBECCA75F010C3E833C8E9334A
:102A6C00C9EA33CAEB33CBC3EA9EF526EB9FF525B7
:102A7C00B35004AB25AA26EC33CCED33CDD5F0DA2C
:102A8C00AE23AF242274E9121F9474FA121EB8EA12
:102A9C00FEEBFF8C0A8D0B121232EAF8EBF9ECFA12
:102AAC00EDFB8E828F83121DB2900382E024F7C35C
:102ABC0094055006751401022BF81211848A088BA8
:102ACC0009EA45097003022BF5EEFCEFFDAA18ABE1
:102ADC001912122C850882850983A3A3780C121D68
:102AEC0070908330780C121D4A8518828519837872
:102AFC0010121D709083307810121D4A780C7910CA
:102B0C00121B83501F780C7910121D229083607851
:102B1C000C121BA34047850C14850D15850E1685CC
:102B2C000F1780459083608510148511158512163A
:102B3C008513177814790C121D227814121BA350CC
:102B4C001C7514007515007516007517017814792D
:102B5C0010121D227814790C121CE9800C751401CA
:102B6C0075150075160075170074097814121CCAB7
:102B7C0090835C780C121D707814790C121C4285B1
:102B8C000882850983A3A3A3A3A3A3122C16121E48
:102B9C002D880C890DE4F50EF50F7814790C121CA8
:102BAC00E97404121F04122C16121E2DE8FA8A0C5A
:102BBC00E4F50D7814790C121B8350077814790CFA
:102BCC00121D22900382E06408600AE0640660052E
:102BDC00E06405702090834C7814121BA35016905F
:102BEC0083487814121CFC800C7514007515007544
:102BFC001600751700850A82850B837814121D7FC9
:102C0C007406121ECE7F10022040E0F8A3E0F97A81
:102C1C00D07B032274F7121F94121244900527E004
:102C2C0064017010906245E4F0A3F053F4F343FE9A
:102C3C000C5390F31211EAE5C654B84441F5C6E5BD
:102C4C009E5447644170F8906185740FF09005258F
:102C5C00E0F47002A3E0604E900526E0600814607A
:102C6C001B14602E8040750801750900900525E045
:102C7C007808121EA5E508F45280802A75080175A3
:102C8C000900900525E07808121EA5E508F452907D
:102C9C008014750801750900900525E07808121E4E
:102CAC00A5E508F452A079007F0202204074F712C7
:102CBC001F94E9FEEAFF12124474016E700C7A80C4
:102CCC007B00900381E0F91218DA9030FCE493F465
:102CDC006008E493F9120FF8800953C6B8E59E54C6
:102CEC004770FA1211F0900527E06401700312107E
:102CFC0016900525E0F47002A3E0604B900526E0E9
:102D0C00600814601A14602C803D75080175090068
:102D1C00900525E07808121EA5E5084280802875EC
:102D2C000801750900900525E07808121EA5E50834
:102D3C0042908013750801750900900525E078080C
:102D4C00121EA5E50842A01211848A088B09A80856
:102D5C00A909E8496014E5E170FCE82414F582E463
:102D6C0039F583E0F46003E0F5E174016F700A7AE1
:102D7C0001900381E0F912196A022CB474F1121F4C
:102D8C00948A088B098C0A8D0B9083307808121D5D
:102D9C004A740F121F04780C121D70908330780C3B
:102DAC00121D4A7808790C121B839083605010789E
:102DBC0008790C121D227808121BA34014800E787F
:102DCC000C7908121D22780C121BA3500479018077
:102DDC000279007F0802204074ED121F948A088B40
:102DEC00098C0A8D0B9083307808121D4A741312CB
:102DFC001F04780C121D70908330780C121D4A78C9
:102E0C000C7908121B8340117808790C121D22AA28
:102E1C0008AB09AC0AAD0B8022751000751100755A
:102E2C0012007513017810790C121D227810790894
:102E3C00121CE9AA10AB11AC12AD137F0C0220408E
:102E4C009083307808121D708A828B837808121D4B
:102E5C005D7F0402204074F5121F948C828D837860
:102E6C0008121D708A828B837808121D36122EBAB6
:102E7C00C3E09CF0A3E09D122EAC4022908300781E
:102E8C0008121D708A828B837808121D0F8A828B20
:102E9C0083A3A3A3A3E02420F0A3E0344EF080A0EE
:102EAC00F088828983C3E09420A3E0944E22EA2424
:102EBC0004F8E43BF98C828D83A3A3A3A3E0FCA3C9
:102ECC00E0FD888289832274F5121F94E9FE900438
:102EDC00DFE0FAA3E0FBEE29F8E433F9744128F5BE
:102EEC0082748239F583E02AF508A3E03BF5097872
:102EFC000812213B908314121D8E122A4074021268
:102F0C001ECE8A088B098C0A8D0B74107808121C43
:102F1C00B1AA08AB097F0402204074F1121F948AF5
:102F2C000C8B0D8C0E8D0F7411121F041221527408
:102F3C0011121F04E02401F508A3E03400F509E4A4
:102F4C00F50AF50B780C7908121BC29083407808AF
:102F5C00121D70780C7908121BC2AA0CAB0DAC0EAA
:102F6C00AD0F122A407402121ECE8B09EA4509607D
:102F7C00047A0180027A00EC2AFCE43DFD74131201
:102F8C001F04E0F8A3E0F9E8FEE9FFECF8EDF97AAC
:102F9C00717B02121E2D88088909E4F50AF50B8E47
:102FAC00828F837808121D7FECF8EDF97A717B0221
:102FBC00121E2D8A088B0974057808121EA58E82A4
:102FCC008F83A3A3A3A3E508F0A3E509F07F080270
:102FDC002040C082C083E9906000F0D083D0822270
:102FEC00C0E074F2122080A2AFE433FED2AFC2C0B4
:102FFC00E5D1A2E4500675D10F1217AE751A00EE8A
:10300C00F8EEA2E092AF7F010220DFC0E0C0D0E872
:10301C00C0E0E9C0E0A2AFE433F8D2AFC2C7751A82
:10302C0000E8F9E8A2E092AFD0E0F9D0E0F8D0D017
:10303C00D0E032C0E074F2122080A2AFE433FED2B2
:10304C00AF758900C2C59008727401F0751A007AC8
:10305C000190084FE0F912196AE9F8C2BD53ABFBB5
:10306C005389FB43F3047586C0EEF9EEA2E092AFF0
:10307C007F010220DFC0E0C0D0E8C0E0E9C0E0EA98
:10308C00C0E0C082C083A2AFE433FAD2AF9009F69D
:10309C00E0F89009F7E068700B539AFB9009F8740C
:1030AC0001F0802CC2E99009F6E0F874012890092F
:1030BC00F6F07900747628F582740939F583E0F519
:1030CC00C19009F6E0C3948040069009F67400F0B4
:1030DC00EAF8EAA2E092AFD083D082D0E0FAD0E056
:0F30EC00F9D0E0F8D0D0D0E032C2AF020000221D
:1030FC00FFFFFFFFFFFFFFFFC082C083E99019D9DC
:10310C00F0D083D08202013274F6121F28E99002AB
:10311C00F4F0900354E0F508750900740278081275
:10312C001EA5AA08AB091219529002F5123AC790C3
:10313C0002F5123EB4606F900354E075F003A4FAEC
:10314C00ABF0121952900312123AC7900312123EAE
:10315C00B4700B9002F5123E8512195880489003FA
:10316C0012124E197AFF7BFF12160A7A0080198A06
:10317C000875090074027808121EA51248C174FF64
:10318C001232C7E4F0A3F00A900354E0F8EAC398B3
:10319C0040DD7905120C629002F4E0F9120B4E7AC4
:1031AC00EC7B0C120EDE02496474F4121F288A08A0
:1031BC008B09EB548060479002F4E0F91218C28A34
:1031CC000A8B0BAE0AAF0BEE4F602A8E828F83E018
:1031DC0064B0701A120C74E960148E828F83A3A3EE
:1031EC00A3A3E0F9EE2405FAE43FFB120C44EEFA3B
:1031FC00EFFB1218B0AA08E5096480FB80047A0082
:10320C007B0002341774F2121F2874FB121EB8EAEA
:10321C00FEEBFFEE4F60457403121F04EEF0A3EFBC
:10322C00F0851882851983ECF0A3EDF07402121F5F
:10323C0004E9F0AA18AB19120B48E9F5087075747B
:10324C0013121F04E0F50AA3E0F50BE50A450B6029
:10325C00638E828F83123850EE4F70057508028092
:10326C00537A067B001219528A0C8B0DA80CA90DEF
:10327C00E8497005750813803B88828983E4123213
:10328C00C7EEF0A3EF1233E3E50AF0A3E50BF090E1
:10329C0002F81233DC9002F86017E0FCA3E0800324
:1032AC00EAFCEBFD8C828D831233DC70F38C828D07
:1032BC00831244DCA9087405025099F0A3124DFB4B
:1032CC00A32274F2121F288908890C750D0074034F
:1032DC00780C121EA5850C0A850D0B9002F7F09048
:1032EC0002F51242E71233DA602E12195879008077
:1032FC001D890C750D007402780C121EA59002F538
:10330C001247808882F583A3A3E4F0A3F00990030D
:10331C0054E0F8E9C39840D9900354E0FA850AF0D8
:10332C00A4CAA8F0850BF0A428FB1219528A0C8BA6
:10333C000DAE0CAF0DEE4F70030233D0900354E082
:10334C00FC850AF0A4CCA8F0850BF0A428FD79002C
:10335C0012189E7C0080318D0C750D007403780C56
:10336C00121EA58A828B831233D588828983E4F05E
:10337C001233E2A3A3F0A3F00DEDC3950840D8EEF1
:10338C00250AFEEF350BFF0C900354E0F8ECC398C4
:10339C0050288C0C750D007402780C121EA590022E
:1033AC00F51233D5E82402500109FAE9FB8A828B25
:1033BC0083EEF0A3EFF07D0080BFE5089002F7F0FC
:1033CC0079008002791302509C124784F922A3A33E
:1033DC00123E89EA4B22A3124DFBA3A3A32274F441
:1033EC00121F287900EAA2E0501F75089775098210
:1033FC00780812213B79107C047D007ADB7B191252
:10340C000C5C7402121ECEE9F980007F04021FFAD4
:10341C00C082C0839002F8123EB4601C88828983FB
:10342C00A3A3E06A7003A3E06B8882898370E8A38E
:10343C00A3A3A3123E8580047A007B0002310D7495
:10344C00F2121F2874FD121EB8EAFEEBFF851882DB
:10345C00851983E4F0A3F07402121F047401F012B6
:10346C003EB17014120E181219529002FB123AC788
:10347C00123EB170030235DD123BC7EE2404F50A8F
:10348C00E43FF50B850A82F583E024FE603C24FCC6
:10349C00607424FE607E24FE700302352D24FE70C1
:1034AC000302353A24FE700302354724FE700302F2
:1034BC00355424FE700302356124FC7003023582FE
:1034CC0024FE700302359A0235D6120E189002FDB6
:1034DC00EAF0A3EB1235E912087EE960030235D657
:1034EC009002FD1221528E828F83A3A3A3A3A31259
:1034FC004E19850882850983123E85120C2C7402A4
:10350C00121ECE0235D6AC18AD19EEFAEFFB120C2A
:10351C007A0235A5AC18AD19EEFAEFFB120C8080CF
:10352C0078AC18AD19EEFAEFFB120C86806BAC1868
:10353C00AD19EEFAEFFB120C8C805EAC18AD19EEE7
:10354C00FAEFFB120C928051AC18AD19EEFAEFFBAE
:10355C00120C9880447402121F0E880C890D780C82
:10356C0012213B7402121F1EEEFAEFFB120C9E741A
:10357C0002121ECE8023AC18AD19EEFAEFFB120C22
:10358C00A4E9F870167402121F04E4F0803CAC1825
:10359C00AD19EEFAEFFB120CAAE9F8E8602C8E825A
:1035AC008F83A3E064146022850A82850B83E090EC
:1035BC0002FDF0851882851983123E859002FE1259
:1035CC003AC7E8A31235E9120878EEFAEFFB120CB1
:1035DC00027402121F04E0F97403025099F07CFD8E
:1035EC007D02850882850983123E892274E8121FA8
:1035FC002874FA121EB87404121F04ECF0A3EDF038
:10360C008A128B13EA2405F50EE43513F50FEA2420
:10361C0002F510E43513F511851082F583123E8501
:10362C0012096E8A0A8B0B7508007C037D007900E9
:10363C007AFD7B0212189EE50E2402F516E4350F76
:10364C00F5177402121F0E880C890D780C12213B91
:10365C00850E82850F83A3A3A3A3E0F50C750D0043
:10366C00780C12213BE50E2405F50CE4350FF50D15
:10367C00780C12213B85168285178312418C120B14
:10368C00667406121ECE8A0C8B0DE50C450D70036C
:10369C000238198020851882851983E088828983F5
:1036AC00F00508851882851983A3E0C0E012385A0A
:1036BC00D0E0F00508E50A24FBFAE50B34FFFBC368
:1036CC00E5089AE49B40030238197E007F008512BE
:1036DC0082851383A3A3A3A3E0F509780912213FE4
:1036EC00E4F514F515781412213B7514FA751502CE
:1036FC00781412213B9002FB1221527409121F0400
:10370C00122152E50A24F9F9AC0CAD0D8510828515
:10371C001183123E85120CD47409121ECEE960037B
:10372C000237BA850E82850F83A3A3A3A3A3A3A3F9
:10373C00E0F89002FAE0687075E0F5148E157814D4
:10374C0012213B124E16850E82850F83A3A3A3A3D1
:10375C00A3A3A3A3123E851218987402121ECEE9DD
:10376C00604C9002FE123EB4703BE4F514781412D7
:10377C00213B7CFF7DFF7907851082851183123EEA
:10378C0085120C3E7402121ECE123EBA7017850EB4
:10379C0082850F83124FB37404121F0412487412E3
:1037AC0041BD02384D850C82850D83123850A81806
:1037BC00A91988148915781412213B7404121F045A
:1037CC00122152851682851783123ABD120B727420
:1037DC0004121ECE8A0C8B0DEE4F7003023696121D
:1037EC00385AEE123865124173EF123865F8A3E0BF
:1037FC003400F9E50C450D60030236A188828983FB
:10380C0074FFF0050812385A74FFF00508E50860DB
:10381C001A1313543F123ACD12088AE96009900228
:10382C00FE123E8512190A79008016850E82850FCC
:10383C0083124FB37404121F041248741244DC79BF
:10384C000A024146A3A3A3A3E0FEA3E0FF22A8081B
:10385C009002FEE02812417322F00508089002FE47
:10386C00E0282274E8121F2874FA121EB87402128F
:10387C001F04123AC77404121F04ECF0A3EDF07489
:10388C0002121F04E0240512415CE0F50CA3E0F5E4
:10389C000D7402121F04E02402F510A3E03400F5AD
:1038AC0011851082F583123E8512096E750800751C
:1038BC000900EA24FCFEEB34FFFF8008050CE50C44
:1038CC007002050DA808C3EE98EF94005003023A5D
:1038DC0079A818A919880E890F780E12213B851426
:1038EC0082851583A3A3A3A3124E1D12213BE514BD
:1038FC002405F50EE43515F50F780E12213B8514D1
:10390C0082851583123ABB120B667406121ECE8A80
:10391C000E8B0FEA450F7003023A79EA2404F51670
:10392C00E4350FF517851682F583E0F50CA3E0F569
:10393C000D851882851983124E198A828B83A3A355
:10394C00A3E0F9851082851183123E85120B54E990
:10395C00F5096003023A797402121F04124183F5CF
:10396C0009780912213FE4F512F513781212213B64
:10397C007512FA751302781212213B9002FB122178
:10398C00527407121F04122152EEF9AC0EAD0F85C2
:10399C001082851183123E85120CD47409121ECE2E
:1039AC00E9F5096003023A79E508703FE4F50EF594
:1039BC000F780E12213B7CFF7DFF790985108285E3
:1039CC001183123E85120C3E7402121ECE1241A9B6
:1039DC00700D7404121F04123AB07911023AAD90B2
:1039EC0002FAE024029002FEF080149002FEE0FA4B
:1039FC009002FAE0790024025001096A497072A819
:103A0C00089002FAE0FAE82AFAE43400FBEE9AEFA6
:103A1C009B405A851682851783E0C0E09002FF1206
:103A2C00385FD0E0F00508851682851783A3E0C0C7
:103A3C00E0089002FF12385FD0E0F005089002FA1F
:103A4C00124E1D12213B124E16A80812415012188C
:103A5C00867402121ECE9002FAE02508F50874FF57
:103A6C00650C700474FF650D60030238C8E50860CE
:103A7C001F9002FEE0F5F0E50884123ACD12089092
:103A8C00E960099002FF123E8512190A7900801133
:103A9C00E509700375090A7404121F04123AB0A9DF
:103AAC00090241461242EBE50CF0A3E50DF022A30E
:103ABC00A31250A8AA0CAB0D22A3A3EAF0A3EBF01F
:103ACC00229002FDF07CFD7D02851082851183120F
:103ADC003E892274EC121F2874FC121EB81245EC9D
:103AEC007402121F1E123E7F120B6C8A0C8B0DEA95
:103AFC00450D7003023BB7123BC7A818A9198810D3
:103B0C008911781012213B7CFF7DFF790B8508828F
:103B1C00850983123E85120C3E7402121ECE123C95
:103B2C00BD700C850A82850B831241BA023BC48E90
:103B3C00828F83A3A3A3A3E0F512781212213FE492
:103B4C00F512F513781212213B7512FD75130278DC
:103B5C001212213B781012213B7409121F041221FE
:103B6C00527409121F04E0F9AC0CAD0D8508828566
:103B7C000983123E85120CD47409121ECEE9FE7014
:103B8C00157CFD7D02850882850983123E8512080D
:103B9C0096E97009802074166E70027E009002FE09
:103BAC00123E8512190AEE7004800B7E01850A8282
:103BBC00850B831244D9EEF90244EEEE2402F5088B
:103BCC00E43FF5092274EC121F2874FC121EB8EAAB
:103BDC00FEEBFF8C0E8D0FEE2405F508E43FF50986
:103BEC007402121F1E850882850983123E85120BF2
:103BFC006C8A0C8B0DEA450D7003023CADEE240271
:103C0C00F50AE43FF50BA818A9198810891178104A
:103C1C0012213B7CFF7DFF790D123E7F120C3E740E
:103C2C0002121ECE123CBD700B85088285098312D0
:103C3C0041BA807A8E828F83A3A3A3A3E0F5127876
:103C4C001212213F850882850983A3A31221527584
:103C5C0012FD751302781212213B781012213B745D
:103C6C0009121F041221527409121F04E0F9123EAA
:103C7C007B120CD47409121ECEE9FE700F7CFD7DF4
:103C8C0002123E7F12089CE97009802074166E7037
:103C9C00027E009002FE123E8512190AEE7004801C
:103CAC000B7E018508828509831244D9EEF9024402
:103CBC00EE123EC4F510A3E0F511EA45112274E8AA
:103CCC00121F2874FE121EB88A168B178C148D15B1
:103CDC00EA2405F50CE43517F50DEA2402F50EE49B
:103CEC003517F50F850E82F583123E8512096E8A03
:103CFC00088B09750B007C037D0079007AFD7B0233
:103D0C0012189E750A00E50814F5100424FFF50836
:103D1C00E50934FFF50980549002FDE0FA9002FAAF
:103D2C00E0F8EA28F8E43400F9E50898E509995038
:103D3C000D9002FDE0F8E510C3989002FAF0E0F562
:103D4C0012751300781212213B124E169002FEE0EF
:103D5C002AFAA3E03400FB1218867402121ECE90CD
:103D6C0002FAE0F89002FDE028F0050A850C828545
:103D7C000D83A3A31247904003023E609002FDE026
:103D8C00C39508E495094003023E60AE0AEE2EFE90
:103D9C00E433FF123E9FAC18AD19124E31E439FBDF
:103DAC00120B6C8A128B13AC12AD13EC4D701B758D
:103DBC000B01123E8F1244DD9002FE1233DC6003C5
:103DCC0012190AA90B7402024148851682851783C1
:103DDC00A3A3A3A3E0F50B780B12213FE4F512F596
:103DEC0013781212213B7512FA75130278121221F4
:103DFC003B9002FB1221527407121F04122152A98C
:103E0C0010850E82850F83123E85120CD474091214
:103E1C001ECEE9F50B709B9002FE123EB4600302BD
:103E2C003D24E4F512F513781212213B7CFF7DFF43
:103E3C00790F850E82850F83123E85120C3E74021B
:103E4C00121ECE123EBA6003023D24123E8F124166
:103E5C00BE023DD17CFD7D02850E82850F83123E14
:103E6C00851208A2E96003023DC47900023DD1AC81
:103E7C000CAD0D850A82850B83123E8922E0FAA3D4
:103E8C00E0FB22123E9FE0FAA3E0F9EA851482855A
:103E9C00158322850C82850D83E02EF8A3E03FF973
:103EAC0088828983229002FB124FB7E84922123E86
:103EBC00C4F8A3E0F9E849229002FEEAF0A3EBF083
:103ECC009002FEE02274E8121F2874FA121EB874D5
:103EDC0004121F04123AC78C168D177404121F0497
:103EEC00E02405F50EA3E03400F50F7404121F0452
:103EFC00E0240212415C123E8512096E8A0A8B0B79
:103F0C007F007E00A818A919880889097808122151
:103F1C003B850E82850F83A3A3A3A3E0F5088E092E
:103F2C00780812213BE50E2405F508E4350FF50958
:103F3C00780812213B850E82850F83A3A312418C36
:103F4C00120B667406121ECE8A0C8B0D8029124140
:103F5C007DF00F12417DF00F9002FA1244C812212D
:103F6C003B124E16EFF81241501218867402121EB4
:103F7C00CE9002FAE02FFFE50C450D700302400CC9
:103F8C008518828519831245FEA3A3A3E0F9851435
:103F9C0082851583123E85120B54E9FEE50C240430
:103FAC00F510E4350DF511EE70507404121F041267
:103FBC004183F508780812213FE4F508F5097808E3
:103FCC0012213B7508FA750902780812213B900200
:103FDC00FB1221527407121F04122152E50A24FA13
:103FEC00F9AC0CAD0D851482851583123E85120C2F
:103FFC00D47409121ECEE9FE60391241991244DCC8
:10400C00EF70030241339002FEE0F5F0EF84900272
:10401C00FDF07CFD7D02851482851583123E851290
:10402C0008A8E960099002FF123E8512190A79006E
:10403C000241468F08EF703BE4F512F5137812122B
:10404C00213B7CFF7DFF7911851482851583123EFF
:10405C0085120C3E7402121ECE1241A97009124137
:10406C00991241BD0241469002FAE024049002FEEE
:10407C00F080359002FAE0F89002FEE0FAE82404B1
:10408C00FCE43400FDEC6A4D6003024012E50A24A6
:10409C00FAFAE50B34FFFBE50828F8E43400F9EAFA
:1040AC0098EB995003024012851082851183E0C071
:1040BC00E09002FFE02FF8A3E034008882F583D073
:1040CC00E0F00F851082851183A3E0C0E012416AF5
:1040DC00D0E0F00F7402121F0E88088909780812BC
:1040EC00213B7402121F04122152850E82850F830C
:1040FC00123ABB120B727404121ECE8A0C8B0DEA90
:10410C00450D7003023F5A7402121F04E0C0E01206
:10411C00416AD0E0F00F7402121F04A3E0C0E01259
:10412C00416AD0E0023F62EE70027E0A850E828503
:10413C000F8312419F1244DCEEF97406121ECE7FDF
:10414C0010021FFA9002FFE028FAA3E03400FB22D1
:10415C00F514A3E03400F515851482F58322124181
:10416C006E229002FFE02FFAA3E034008A82F583DE
:10417C002212416E74FF221242EBA3A3A3A3E022EE
:10418C001250A8850E82850F83123E8922851082DB
:10419C00851183124FB7851682851783229002FFF3
:1041AC00EAF0A3EBF09002FF124FB7E84922124459
:1041BC00E2E8F0A3E9F079112274EA121F2874FEE8
:1041CC00121EB88A088B098C128D13EA2405FEE4A2
:1041DC003509FFAC18AD198E828F83123E85120BF8
:1041EC006C8A0C8B0DEE2406F50EE43FF50FEA45B8
:1041FC000D70030242BDE5082402F50AE43509F509
:10420C000B8A828B83A3A3A3E0A2E5502885188296
:10421C00851983123E85120CC88A108B11EA451140
:10422C0060207912123E7B851082851183121F2625
:10423C00E9F50C707F850E82850F83E06009795259
:10424C008011750C0E806D850882850983A3A3A34C
:10425C00A3E0F9E4F508F509780812213B8E828F6A
:10426C0083A3A3E0F508780812213B8E828F83A3E9
:10427C00A3A31221528E828F83124E19123E7F12EB
:10428C000CDA7406121ECEE9F50C7011850E8285BF
:10429C000F83E0702D123E7F1208AE8025741665D8
:1042AC000C7011750C007418121F041242E7E48094
:1042BC0010750C01124FAF851282851383E8F0A3A1
:1042CC00E9F0850E82850F83E0600479008002A9F5
:1042DC000C7402121ECE7F0E021FFA1242EB22E069
:1042EC00F8A3E0F58388822274EC121F2874F7126D
:1042FC001EB88A0A8B0B8C108D11EA2405FEE4354E
:10430C000BFF750C00AC18AD198E828F83123E8595
:10431C00120B6C8A088B09EA450970030244B3E559
:10432C000A2402F50A5002050B8A828B83A3A3A3ED
:10433C00E0A2E5502F851882851983123E85120C58
:10434C00C88A0C8B0DEA450D604F7912AC08AD098B
:10435C00123E7F850C82850D83121F26E9F50C60B9
:10436C00030244B6850A82850B83E0F508A3E0F5C9
:10437C0009AA08FB120CBCEA4B70197AFF7BFF12DE
:10438C000CBCEA4B70030244A98A828B83E508F0CB
:10439C00A3E509F07508008008750C0E0244B605FB
:1043AC00089002F7E0F8E508C39840030244A98599
:1043BC00080E750F007403780E121EA58A828B836B
:1043CC00A3A3E0250EF8A3E0350F12487D70D08E24
:1043DC00828F831244D1123AC78E828F83A3A31289
:1043EC0044D1123AC5EE2404F508E43FF5098508DA
:1043FC0082F583E088828983A3A3A3A3F0A3E4F0CE
:10440C00EE2405F50EE43FF50F850E82F58312447C
:10441C00D1A3A3A3A3123AC5751207751300781282
:10442C0012213BEEFCEFFD7404121F161218867459
:10443C0002121ECEE4F512781212213B85088285F9
:10444C000983E0FC7D007917123E7F120C3E74024A
:10445C00121ECE7407121F04123AC77407121F04DF
:10446C00E0FA4B603D8508828509831244C812210D
:10447C003B850E82850F83124E1912188674021218
:10448C001ECE7402121F1E123E7F1208B4E9602663
:10449C007407121F04123E8512190A8019750C0933
:1044AC008008750C118003750C01124FAF851082BA
:1044BC008511831244DCA90C74098028E0F5087579
:1044CC000900780822123E8988828983221244E2EC
:1044DC00E8F0A3E9F022E0F8A3E0F9850E82850F5D
:1044EC0083227404121ECE7F0C021FFA74EC121F6E
:1044FC00281245EC751000EE2402F50CE43FF50D86
:10450C00850C82F583123E85120CBC8A088B09EA55
:10451C00450970030245D0850A82850B83E064014E
:10452C0060030245C5AC08AD09AA0AAB0B120CB06E
:10453C00E9606E850882850983123852EE2406F5EF
:10454C000AE43FF50B8E828F83A3A31221528E8235
:10455C008F83A3A3A3A3122152850A82850B8312F6
:10456C00215279188E828F831245FE123E85120CD1
:10457C00DA7406121ECEE9F8741668700B850A827E
:10458C00850B83E4F0A38014E860128E828F831273
:10459C003E85850E82850F83EAF0A3EBF0881080B0
:1045AC0018780E12213BAC08AD09EEFAEFFB120C99
:1045BC00B67402121ECEE9F510AA08AB09120CC291
:1045CC00E510700E850C82850D83123E851208BA9B
:1045DC008009741665107003751000A9100244F35D
:1045EC00EAFEEBFF8C0E8D0FEE2405F50AE43FF589
:1045FC000B221250A8850C82850D832274EA121F9F
:10460C00287508007509007E007F00750A00EC24EF
:10461C0002F510E43DF5118035EC65087003ED658D
:10462C000960030246BD88828983A3A3E06A7003F4
:10463C00A3E06B707C88828983A3A3A3A3124FB3DE
:10464C00EE28FEEF39FFEA28FAEB39FB050A124790
:10465C008D503A850A0C750D007403780C121EA54A
:10466C0085108285118312478012487D601FE508F2
:10467C00450970A58C088D09888289831238508869
:10468C00828983A3A3E02EFAA3E03F80BEE50AC390
:10469C009402500302477B750800750900EE4F60C9
:1046AC0010EEFAEFFB1219048A0E8B0FEA450F700D
:1046BC0005790002477D750B00024750850B0C7580
:1046CC000D007403780C121EA5851082851183E0F1
:1046DC00250CF50CA3E0350DF50DE50C2406F514B1
:1046EC00E4350DF515851482F5831248826042E598
:1046FC000C2404F512E4350DF513851282F58312A2
:10470C002152E50E2508FAE50F3509FB12188674BF
:10471C0002121ECE851282851383E02508F508A3AC
:10472C00E03509F509851482851583123E85121929
:10473C000AE50B600D7C087D007900AA0CAB0D120C
:10474C00189E050BE50BC3950A50030246C885104D
:10475C0082851183124FB388828983A3A3A3A3A359
:10476C00A3E50EF0A3E50F1233E3EEF0A3EFF0791F
:10477C00010242E212478422E0250CF8A3E0350D39
:10478C00229002F7E0F8E50AC3982274F0121F2871
:10479C008A0E8B0F8C0A8D0B750D00750C008050DA
:1047AC007916EE2406F508E43FF5098E828F83A373
:1047BC00A31221528E828F83A3A3A3A3122152850D
:1047CC000882850983122152850E82850F83A3A34B
:1047DC00123E85120CDA7406121ECEE9F50D741613
:1047EC00650D706C850882850983E4F0A3F0050CD7
:1047FC009002F7E0F8E50CC3985066AA0C8A08758D
:10480C00090074037808121EA5850A82850B83A300
:10481C00A31248CCE8FEE9FF8E828F831248826097
:10482C0040EA2401F508E43400F5099002F7E0654C
:10483C00087002E509601488828983A3A3A3A3A34B
:10484C00A3A3A3123EB460030247AC79180247AE8F
:10485C00E9609B124FAF7410121F0412487412447B
:10486C00DCA90D7F08021FFAE0FAA3E0F5838A8227
:10487C0022F9888289831250A8EC4D2274F6121FFB
:10488C00287C0080010C900354E0F8ECC398501E77
:10489C008C0875090074027808121EA51248C1E034
:1048AC006A7003A3E06B70DDE8FAE9FB80047A0020
:1048BC007B000249649002F51248CC8882898322DD
:1048CC00E02508F8A3E03509F92274F2121F288AB2
:1048DC00088B09750A0080278E828F83A3A3A3A35C
:1048EC001233DA600312190A7C087D007900EEFAA3
:1048FC00EFFB12189E8E828F83E4F0A3F0050A1250
:10490C00478D5027850A0C750D007403780C121E08
:10491C00A5850882850983A3A3E0250CFEA3E035B9
:10492C000DFF8E828F83123EB470AD85088285098F
:10493C008374FFF0A3F002509C74F6121F28120C23
:10494C006E8A828B83E582458370067A007B0080B9
:10495C0007A3A3A3A3123E857F02021FFA74F412CD
:10496C001F2889088C828D83E06402703C124F52A0
:10497C00FEA3E0F9EEF874026870037429697029DB
:10498C00750A02750B00780A12213B7410121F0471
:10499C001221527410121F04122152A90812161C53
:1049AC007406121ECEE9F98002790102341774E8FC
:1049BC00121F2874FB121EB8E9851882851983F022
:1049CC008A168B17ECFEEDFF7510008E828F83A379
:1049DC00A3A3E0A2E4502D741D121F04123E8512F5
:1049EC000CC88A828B83E58245837003024DF17972
:1049FC000AEEFCEFFDAA16AB17121F26E9F51060A4
:104A0C0003024DF4741F121F04E0F508A3E0F5092E
:104A1C007421121F04E0F50AA3E0F50B7423121F96
:104A2C0004E0F50EA3E0F50F8E828F83E064026044
:104A3C0003024D92A3124FB3850882850983A38587
:104A4C008212858313EE2406F50CE43FF50D888263
:104A5C008983124E31F514E439F51578141221C5F9
:104A6C00010000280128944A07000228594B03280A
:104A7C00C74A0029884C0129B34C0229544C0329FC
:104A8C00884C04292C4D924DE50E450F6003024DC8
:104A9C008D850C82850D83124FB3E8FAE9FB8A826F
:104AAC008B83E0850A82850B83124E3C12213B8A54
:104ABC00828B83A3E0FCA3E0024D16E50E450F604C
:104ACC0003024D8D850A82850B837401F0124E26EC
:104ADC00850882850983F07C007D008E828F83A3FC
:104AEC00A3A3A3E02401FAA3E03400FB120B6CEAAD
:104AFC004B60408A828B83E02402F8850A82850B06
:104B0C0083E028F0EA2404F8E43BF988828983E006
:104B1C00851282851383124E4A124E3C12213B8A17
:104B2C00828B83A3124E19E5082403FAE43509FBA2
:104B3C00024D1B850A82850B83E02404F07C047DE6
:104B4C00007900AA12AB1312189E024DF4E50E4523
:104B5C000F6003024D8D124E26FEA3E0FF850A82E4
:104B6C00850B837404F0EE850882850983F0EF854C
:104B7C001282851383F07403121F1EEEFAEFFB12E0
:104B8C000B6C8A0C8B0DEA450D7003024C378A8234
:104B9C008B83A3A31238507401121F0E880E890F39
:104BAC00780E12213B7405121F041221527CFF7DDA
:104BBC00FF120B727404121ECE8B0FEA450F70336A
:104BCC00850C82850D83124E1D12213B850C82852E
:104BDC000D83A31221527C027D007ACC7B831209B7
:104BEC005C7404121ECEE9700A7401121F0474FF67
:104BFC00F0A3F08E828F83E064027039750C02751D
:104C0C000D00780C12213B8E828F83A3124E19E576
:104C1C00082404FAE43509FB1218867402121ECE1D
:104C2C00850A82850B83E0240280097401121F041B
:104C3C00EEF0A3EFF07401121F04124E0B7401126C
:104C4C001F04124E02024D87E50E450F6003024D04
:104C5C008D850C82850D831250A1AA16AB171216E6
:104C6C0022850A82850B837402F08508828509836C
:104C7C00EAF0851282851383EB024D8AE50E450F0F
:104C8C006003024D8D124E26F8A3E0F9850A828549
:104C9C000B837402F0E8850882850983F0E985129C
:104CAC0082851383024D8A850C82850D83123E8585
:104CBC00121880EAFAF8C3950EE4950F405CE8658B
:104CCC000E450F70047A008021851882851983E0C7
:104CDC00FCE50E2CFCE4350FFDC3EC98ED94005074
:104CEC0003E08005E50ECAC39AFAEA850A82850BB1
:104CFC0083F08A0A750B00780A12213B850C828599
:104D0C000D83E0250EFCA3E0350FFDAA08AB0912BC
:104D1C0018867402121ECE024DF4751007024DF463
:104D2C00E50E450F705B850C82850D83124FB385A4
:104D3C000A82850B837407F088828983124E0312D2
:104D4C004DFBE0851282851383F0E82402FAE439E6
:104D5C00FB8A828B83124E0B8A828B83124E02A3A8
:104D6C00A31233E2124E10F0E82405F85001098822
:104D7C00828983124E10A3124E4AA3A3A3A3F080E0
:104D8C006775100B8062741D121F04123E85120C85
:104D9C006E8A828B83E5824583604A124FB3880CFE
:104DAC00890DE8450D603E7425121F04E0F510785E
:104DBC001012213F780E12213B780A12213B780801
:104DCC0012213B7407121F04E0F9EEFCEFFDAA164A
:104DDC00AB17850C82850D83121F267407121ECE0D
:104DEC00E9F510800375100EA9107405024148F006
:104DFC0088828983A322A3E08508828509832212F5
:104E0C004E51F022124E51A3A3229002FB1250A835
:104E1C0022E0F50E750F00780E22850C82850D832D
:104E2C001242EBE022E0FAA3E0F8E4C8F9EA282207
:104E3C00F08A828B83E0F50A750B00780A22124DFA
:104E4C00FB124E5122E0850882850983A3A32274AC
:104E5C00EE121F2874FE121EB88A088B09ECFEEDA8
:104E6C00FF890AAC18AD19EEFAEFFB120B6C8A0C29
:104E7C008B0DEA450D7003024F438518828519830B
:104E8C00123E85120C6E8A828B83E58245837003F9
:104E9C00024F3EA3A3124FB3880E890FE8450F7043
:104EAC0003024F3E7414121F04E0F510A3E0F51139
:104EBC00E50AF50B780B12213F7419121F0412210D
:104ECC0052781012213B741B121F04E0F9AC0CAD8C
:104EDC000DAA08AB09850E82850F83121F26740557
:104EEC00121ECEE9F50B705274FE650A604C850CEF
:104EFC0082850D83E064027041124F52FAA3E0F9EF
:104F0C00EAF87402687003742969702E8510828522
:104F1C001183124E31F50CE439F50D780C12213B4E
:104F2C00EEFCEFFDAA08AB09120CF27402121ECEB5
:104F3C008008750B0E8003750B01A90B7402121EF1
:104F4C00CE7F0A021FFAA3124FB788828983E02210
:104F5C0074F6121F2874FE121EB8740C121F041261
:104F6C004FB3E8851882851983F07401121F04E988
:104F7C00F0E4F508F509780812213B750802780869
:104F8C0012213B7404121F0E88088909780812211B
:104F9C003B79FE120CDA7406121ECE7402121ECE6F
:104FAC000249648E828F83124FB722E0F8A3E0F996
:104FBC002274F7121F28EAFEEBFF890890031212E5
:104FCC004E19121622EA5402600BA908EEFAEFFBF6
:104FDC00120B60800279017F01021FFA74F2121F1A
:104FEC002874FE121EB8EAFEEBFF890A7401650AEA
:104FFC0060147402650A60030250977901120EFC6A
:10500C00E96003025097EEFAEFFB120CBCEA4B601E
:10501C0003120CC2A818A91988088909780812214A
:10502C003B750802750900780812213B7508C67596
:10503C000983780812213B7CFF7DFF7A017B0012EB
:10504C000B667406121ECE8038850882850983A3F0
:10505C00A3A3A3A3A31250A1EEFAEFFB12160AE42A
:10506C00F50CF50D780C12213B7402121F04122161
:10507C00527CFF7DFFAA08AB09120B727404121E3E
:10508C00CE8A088B09E508450970BE7402121ECE43
:10509C007F06021FFA1242EB1250A822E0FCA3E09A
:1050AC00FD2274F4121F288A088B09ECFEEDFF9088
:1050BC0019D9E0F4604B7A097B001218AAEA4B600C
:1050CC00408A828B8374B1F0A3E4125110F08A826F
:1050DC008B83A3A3E508F0A3E509125110A3EEF00E
:1050EC00A3EFF0740C121F04124FB38A828B83A3AC
:1050FC00A3A3A3A3A3A31244DC9019D9E0F912181B
:10510C00B6023417F08A828B83A3A3A3A32274EE76
:10511C00121F2874FA121EB88A0A8B0BE9FF8C082E
:10512C008D097E00850A0C850B0D780C12217F00F1
:10513C000410F65362518551A451C751EA510D52D6
:10514C003E5261527852A85257537A539D53CB53C7
:10515C00F653F653D15274016F7019850882850984
:10516C0083E0C39403500D850882850983E0901B6E
:10517C001AF080027E1802541E74026F7015850896
:10518C0082850983E0F8A3E0F9901B1BE8F0A3E902
:10519C00F080027E1802541E74016F70198508820B
:1051AC00850983E0C39402500D850882850983E04C
:1051BC00900760F080027E1802541E74016F701903
:1051CC00850882850983E0C39405500D8508828586
:1051DC000983E0900761F080027E1802541E74016E
:1051EC006F7019850882850983E0C39402500D8580
:1051FC000882850983E0900762F080027E180254D1
:10520C001E74106F7027750C10750D00780C122120
:10521C003BAC08AD097A637B071218867402121E28
:10522C00CE8A0C8B0D850C82850D8380027E180234
:10523C00541E74016F7019850882850983E0C3942C
:10524C0002500D850882850983E0900773F0800277
:10525C007E1802541E74016F700D850882850983B7
:10526C00E0901B1EF080027E1802541E74046F70B6
:10527C0026908314780C121D70850882850983781A
:10528C000C121B935011850882850983121DA69060
:10529C000775121DB280027E1802541EEF70211287
:1052AC000AF4E970131215A4E9F50D79501219DC02
:1052BC00E9F50C121592800A9008087401F080022E
:1052CC007E1802541E74076F707C750E06750F00E5
:1052DC00780E12213B850882850983A3AC82AD83AD
:1052EC007402121F1612188C7402121ECE8A108BA6
:1052FC001185100E85110F7C007D00AA18AB198545
:10530C000882850983E0F9121538E9F50CE50CC320
:10531C00940A502E120AF4E97015A90C1215AAE978
:10532C00F50E79501219DCE9F50D1215928019A8B9
:10533C000C7900740928F582740839F5837401F02E
:10534C0080067E0280027E1802541E74016F701952
:10535C00850882850983E0C39402500D85088285F7
:10536C000983E0900774F080027E1802541E7401C9
:10537C006F7019850882850983E0C3940A500D85E6
:10538C000882850983E0901B1DF080027E18025470
:10539C001E74016F7025850882850983E0C394070C
:1053AC004019850882850983E0C39411500D850846
:1053BC0082850983E0901B1FF080577E1880537400
:1053CC00016F7022900807E0F50C8508828509832F
:1053DC00E0900807F0E50C7039900807E064017064
:1053EC0031121592802C7E188028C3E50A9427E58B
:1053FC000B9400501B74026F70168508828509830C
:10540C00E0FCA3E0FDAA0AAB0B120974E9FE8002D2
:10541C007E02EEF97406121ECE7F0A021FFA74EC9D
:10542C00121F2874DA121EB8890D8A128B138C0A7B
:10543C008D0B743A121F04E0F50C9082CDAC18ADB4
:10544C00197406121DCBAC18AD19AA12AB13A90D09
:10545C00121538E9FEEEC3940A400302559EEEF98C
:10546C00121574E9FF901B1AE06402700474018039
:10547C00027400F508780812213FAD0CEFFCEEF930
:10548C00AA0AAB0B1215F27401121ECE7C147D000D
:10549C0079007412121F1612189E8A0E8B0F850E2D
:1054AC0008850F097412121F1E7A1075F006EEA4EF
:1054BC002424F91219D6E9703C7C1079FF7412126D
:1054CC001F161218FEE9702D7422121F04AC82AD47
:1054DC00837A0475F006EEA42425F91219D6E9F5A1
:1054EC00087412121F1EEFA2E0E433F9AA0AAB0BE8
:1054FC001209FEE9F87406121F1E7A0C74702EF94C
:10550C001219D6E970797406121F16121568750EE9
:10551C0000E50EC394045067A80E7900E875F003FB
:10552C00A4C8AAF075F000A42AFA75F003E9A42A1D
:10553C00F97406121F04E58228F508E58339F5098C
:10554C00850882850983E0F8A3E0F9E849602C8599
:10555C000882850983A3A3E0F51075110078101259
:10556C00213B850882850983E0FCA3E0FDAA0AABF8
:10557C000B120CE07402121ECEE9F8050E8092EFAD
:10558C00A2E1500E90075FE0F9AA0AAB0B120CE6F1
:10559C00E9F87404650C700F901B1AE06402700734
:1055AC00AA0AAB0B1215E079007426121ECE7F0CE2
:1055BC00021FFA74F7121F28EAFEEBFF120AF4E935
:1055CC007067900808E06401701B1215A4E9F508D7
:1055DC009008087400F07C0A7D0079007A097B0839
:1055EC0012189E8039750800E508C3940A502FA83C
:1055FC00087900740928F582740839F583E0640190
:10560C007018A9081215AAE9FAA8087900740928D3
:10561C00F582740839F5837400F0050880CA795056
:10562C001219DCE9F5081215927F01021FFA74F2C7
:10563C00121F28890BEAFEEBFF8C088D09750A0AEC
:10564C00E50B600C1460091460441460640256DFAE
:10565C00EEFAEFFB121586E9F50AE50AC3940A5037
:10566C0072E5084509606C750C06750D00780C1216
:10567C00213BEEFCEFFDAA08AB091218867402124E
:10568C001ECE8A0C8B0D850C82850D838045EEFA1F
:10569C00EFFB121580E9F50AE50AC3940A5034E5CC
:1056AC00084509602EAA08AB09A90A12157AE980E7
:1056BC0022EEFAEFFB12158CE9F50AE50AC3940AFF
:1056CC005011E5084509600BAA08AB09A90A121587
:1056DC007AE9F8A90A7F06021FFA74F2121F288AC7
:1056EC000C8B0DE9FF7E1574FF650C700474FF655F
:1056FC000D702A750800E508C3940A5014EFFC7A63
:10570C00027B00A908121556E960027E000508808C
:10571C00E5EF60627ACE7B15120F208059AA0CAB94
:10572C000D120EF08A0A8B0B850A08850B09E50809
:10573C00450960407C007D00E5082405FAE4350944
:10574C00FB850882850983A3A3A3A3E0F91215386E
:10575C00E9F50AE50AC3940A500EEFFC7A027B00C5
:10576C00A90A121556E97E00EF600BAA08AB0912C4
:10577C0015CE80027E14EEF97F06021FFA74EE122B
:10578C001F288A0E8B0F8C0A8D0B7412121F04E0CB
:10579C00F50CA3E0F50D75081574FF650E70047417
:1057AC00FF650F701E7E00EEC3940A5061AC0CAD09
:1057BC000DAA0AAB0BEEF912155CE9600375080033
:1057CC000E80E4AA0EAB0F120EF08A108B11AE10E5
:1057DC00AF11EE4F60357C007D00EE2405FAE43FFE
:1057EC00FB8E828F83A3A3A3A3E0F9121538E9F5EE
:1057FC0009E509C3940A5016AC0CAD0DAA0AAB0B03
:10580C00A90912155CE97508008003750814A9082C
:10581C007F0A021FFA74F7121F28EAFEEBFF9007AB
:10582C0079EEF0A3EFF090075FE0FC7D007A267B29
:10583C0000120974E9F50890075FE0F9120C4A7F31
:10584C0001021FFA74F0121F2874EC121EB88A0C95
:10585C008B0D850C82850D83A3A3E024FA700302C3
:10586C005CC924FD7003025B3E14700302594014A2
:10587C00601024FD7003025AE6147003025B7D0273
:10588C005CDCAE0CAF0D900779E0F8A3E0F9E849C9
:10589C006066900779E0F8A3E0F5838882E0F8A3CE
:1058AC00E0F9E8496052EE240CF582E43FF583E020
:1058BC00F508780812213FEE240BF582E43FF583BE
:1058CC00E0F98E828F83A3A3A3A3A3A3A3A3A3E036
:1058DC00FCA3E0FDEE2403FAE43FFB900779E0F82B
:1058EC00A3E0F5838882E0F8A3E0F5838882121F99
:1058FC00267401121ECE80398E828F83A3A3A3A39C
:10590C00A3A3A3A3A3122152900775121D8E120AF2
:10591C00107402121ECEE9601879018E828F83A357
:10592C00A3A3A3A3A3A3A3A3E0FAA3E0FB120A0AD5
:10593C00E9025CDCAE0CAF0D7508008E828F83A380
:10594C00E06003025A688E828F83A3A3A3A3A3E013
:10595C00A2E04003025A68900813E0F8A3E0F9E8CB
:10596C00496003025A687C0E7D007900AA18AB19B5
:10597C0012189E8A0A8B0BAA0AAB0BEE240CF5822A
:10598C00E43FF583E0F8A3E0F9E8496036750A06D0
:10599C00750B00780A12213BEE240CF582E43FF5DE
:1059AC0083E02410FCA3E03400FD7402121F1612D5
:1059BC0018867402121ECE8A0A8B0B850A82850BFE
:1059CC0083804F8E828F83A3A3A3E0FAA3E0FB1204
:1059DC000EF08A0E8B0F850E0A850F0BE50A450B10
:1059EC00602D750E06750F00780E12213BE50A240A
:1059FC0005FCE4350BFD7402121F16121886740296
:105A0C00121ECE8A0E8B0F850E82850F83800302A9
:105A1C005CDC8E828F83A3A3A3A3A3E0A2E2500439
:105A2C00D2F08002C2F0A2F0E433F87900740C12C8
:105A3C001F04E048F0A3E049F0EEFCEFFDAA18AB20
:105A4C001912156EE970127A027B0090075FE0F96B
:105A5C001218DAE97900025CDE750815900779E016
:105A6C00F8A3E0F9E849606F900779E0F8A3E0F556
:105A7C00838882A3A3E0F8A3E0F9E84960598E82F9
:105A8C008F83A3E0FC79018E828F83A3A3A3E0FA1A
:105A9C00A3E0FB900779E0F8A3E0F5838882A3A349
:105AAC00E0F8A3E0F5838882121F26E5086028AC95
:105ABC000879038E828F83A3A3A3E0FAA3E0FB9063
:105ACC000779E0F8A3E0F5838882A3A3E0F8A3E0CC
:105ADC00F5838882121F26025CDCAE0CAF0D90079A
:105AEC0079E0F8A3E0F9E8496045900779E0F8A37C
:105AFC00E0F5838882A3A3E0F8A3E0F9E849602FDE
:105B0C00850C82850D83A3E0FC79028E828F83A3A2
:105B1C00A3A3E0FAA3E0FB900779E0F8A3E0F583F8
:105B2C008882A3A3E0F8A3E0F5838882121F2602E3
:105B3C005CDCAE0CAF0D7C007D00EE2404FAE43F7F
:105B4C00FB8E828F83A3A3A3E0F9121538E9F50825
:105B5C00E508C3940A5017EE240AFCE43FFD7A04CE
:105B6C0075F006E508A42425F91219D0E9F8025CB1
:105B7C00DCAE0CAF0D900774E06019901B1DE0F9C2
:105B8C008E828F83A3A3A3E0FAA3E0FB120A0AE997
:105B9C00F8025CDC901B1AE0701679058E828F83FC
:105BAC00A3A3A3E0FAA3E0FB120A0AE9F8025CDC67
:105BBC008E828F83A3A3A3E0FAA3E0FB120EF08ADC
:105BCC000A8B0B850A08850B09E508450970030249
:105BDC005CDC8E828F83A3A3A3A3A3A3A3E0A2E088
:105BEC00506D850882850983A3A3A3A3E060608E12
:105BFC00828F83A3A3A3A3A3A3A3A3A3E0F50AA3C8
:105C0C00E0F50B7409780A121E96E50A5401F8E5C2
:105C1C000B5400F9E8A2E04036740E121F1EE50882
:105C2C002405FAE43509FB850882850983A3A3A31F
:105C3C00A3E0F9121538E9701679038E828F83A3CD
:105C4C00A3A3E0FAA3E0FB120A0AE9F8025CDCEE7B
