:020000040000FA
:0600000002011A0228EDC6
:03002B000230138D
:03003B0002307D13
:03004300022FE8A1
:030053000229631C
:03006B0002303B25
:10008300022743E5C754F84401F5C779012200006C
:100093000080FB120086B90003020104E479217891
:1000A30008B800028004F709D8FCE479297802B87B
:1000B30000028004F709D8FCE490028178D2791613
:1000C3008002F0A3D8FCD9FA781A90014A7A01BACF
:1000D30000028007E493A3F608DAF97A527B1890BA
:1000E300014B789179068015E493A3AD82AE838AA0
:1000F300828B83F0A3AA82AB838D828E83D8E9D9C6
:10010300E775822A75839D740412012C758291759B
:100113008300740012012C75D00075813F7518811E
:10012300751902759F00020096C09FF59FE473D076
:100133009F22D083D082C09FE493C0E0740193C018
:10014300E0740293F59F22010112416363656C2EF3
:100153002044617461000A416363656C2E20436F20
:100163006E662E000A0A416363656C2E2050657229
:10017300696F640002CE83010000A58302CA830174
:100183000000531810B181010000830202C68303EB
:100193000000860202C883010000541802CA8301CA
:1001A3000000601810A181030000880202C88301C7
:1001B3000000611802CA830100006E1810618103F8
:1001C30000006F1802C88301000070181264040055
:1001D300AD27011131040102CE83010000C0830267
:1001E300CA83010000D61802FE83010000D718025B
:1001F300C6830300008B0202FA83010000DF1802AA
:10020300D483010000D818FF0000B40000280028A0
:1002130000283075A000A000A000A000000800087E
:10022300E001F0001000100010001000100010009A
:1002330050005000500010001000D00700000000D4
:1002430000000F00010005003075070010000100D9
:1002530081FF00000000FFFFFF8E0AAC0A940AD062
:100263000AFF02020208025000A0000000E8030295
:10027300CE83010000A28302CA830100006C19022D
:100283000284010000CB0202CA830100006D19023F
:10029300D683010000E10202CA830100006E190245
:1002A300EC83010000E30202CA830100006F19021C
:1002B300F483080000E40202CA83010000701902FB
:1002C300F6830100007119FFFF0100FF2002CE83B6
:1002D300010000A88302CA83010000D61902F88333
:1002E300000000000002C683030000120317004E43
:1002F300114E114E114E114E114E114E114E114E03
:10030300114E114E114E114E110C141E14061412DF
:10031300436F6E6E2E20506172616D730008436FE0
:100323006E6E2E20506172616D73205265710008EC
:10033300446973636F6E6E65637420526571000266
:10034300CE83010000AB8302CA83010000191A1097
:10035300F1810100004E0702C68303000054070227
:10036300C8830100001A1A02CA83010000271A1069
:10037300E181020000560702C883010000281A0227
:10038300CA83010000391A10D1810200005E0702FE
:10039300C8830100003A1A02024646204646204618
:1003A3004620464620464620464600020230302E6E
:1003B3003031000202CE83010000BD8302CA8301F3
:1003C3000000A11A02F0830100005E8202CA8301C9
:1003D3000000A21A02EE83010000A31A02CA8301DD
:1003E3000000B51A02DC83010000C78202CA830140
:1003F3000000B61A02DA83010000B71A02CA8301A9
:100403000000BD1A02D883010000898201E80305B8
:1004130077100A0AE615124779726F2044617461F6
:10042300000A4779726F20436F6E662E000A0A47EF
:1004330079726F20506572696F640002CE83010088
:10044300009F8302CA83010000201B101181010059
:10045300001B0802C683030000210802C8830100B1
:1004630000211B02CA830100002B1B10F180030033
:1004730000230802C8830100002C1B02CA83010069
:1004830000371B10E180030000381B02C883010002
:1004930000391B61801254656D702E2044617461B4
:1004A300000A54656D702E20436F6E662E001E0287
:1004B300CE830100009C8302CA830100009F1B10AE
:1004C3004181010000FD0902C683030000210A02E5
:1004D300C883010000A01B02CA83010000AB1B10EC
:1004E300C181030000230A02C883010000AC1B1270
:1004F3004D61676E2E2044617461000A4D61676E21
:100503002E20436F6E662E000A0A4D61676E2E2001
:10051300506572696F640002CE83010000AE8302EE
:10052300CA83010000F91B101182010000260A0290
:10053300C6830300002C0A02C883010000FA1B02D1
:10054300CA83010000051C1051810300002E0A021A
:10055300C883010000061C02CA83010000121C109C
:100563008181030000131C02C883010000141C10C6
:10057300416C6572744E6F74696669636174696F07
:100583006E2E20446174610002CE83010000BA83A1
:1005930002CA83010000791C02E883000000310ACB
:1005A30002C683030000320A02C8830100007A1CDA
:1005B3001C02CE83010000C38302CA83010000BA78
:1005C3001C103080020000340A02C6830300003688
:1005D3000A02C883010000518202CA83010000BAE3
:1005E3001C104080020000350A02C6830300003855
:1005F3000A02C8830100006982FFFFFFFFFF0001B9
:100603003075030201060000000000000000000036
:1006130000000000000000000000000000000000D7
:100623000000FFFF0600800CE8030A041202CE83D9
:10063300010000B78302CA83010000341D02E48372
:100643000300000D1702CE83010000B48302CA83A6
:10065300010000351D02E4830200000E1702CE8361
:10066300010000B18302CA83010000361D02E68344
:100673000100000F1702C68303000010170F095271
:100683006F636B62616E64315F78787878051250BE
:10069300002003020A00020106070250AA09180DEE
:1006A3001808FF000DFFAAFFFFFF526F636B626123
:1006B3006E64315F7878787800D007E803E8038ABE
:1006C3001A0000A21AA81AAE1AB41AC01AC61A003F
:0806D3000000013C04003E019F
:10080200FFFF0D00007C42424242FFFFFFFFFFFF5D
:10081200FFFFFFFFFFFFFFFFFFFFFFFFFFFF0001E3
:1008220002030405060708090A0BFFFFFFFF120176
:1008320035E4C1031201351BC20312013544C20360
:1008420012013519C30312013582C3031201359017
:10085200C403120135A78704120135188804120156
:1008620035F48804120135D8890412013549EB03A5
:100872001201355CEB031201358DEB03120135C712
:10088200EB0312013520EC0312013567EC03120170
:1008920035AFEC03120135DEEC031201350DED0329
:1008A20012013544ED031201358BED03120135A41B
:1008B200ED03120135F9ED0312013512EE031201B7
:1008C2003560EE031201359AEE0312013504F5028A
:1008D20012013507F60212013540F60212013563A4
:1008E200F60212013575F602120135B3F602120153
:1008F200352FF702120135F7F70212013519F80206
:10090200120135B0F80212013502F9021201353333
:10091200F90212013540F902120135AAF902120157
:100922003501FA0212013504FA021201353DFA02CA
:1009320012013540FA021201354AFA021201359EBD
:10094200FA02120135DFFA0212013512FB0212011C
:10095200354FFB0212013551FC02120135F5FC0242
:100962001201355EFD021201359CFD02120135981D
:10097200DF03120135C0DF03120135EDDF0312017F
:100982003525E00312013583E003120135CFE00380
:1009920012013536E10312013576E103120135B356
:1009A200E103120135E1E1031201358BE203120189
:1009B2003595E203120135A2E203120135D5E203B5
:1009C200120135E1E203120135F9E20312013503A6
:1009D200E303120135849A04120135929A0412013A
:1009E20035AA9A04120135C19A04120135FED001CA
:1009F200120135A8D101120135BBD20112013537DE
:100A0200D30112013555D40112013591D4011201DD
:100A1200352CD50112013510D601120135DCD60173
:100A22001201356AD801120135DBD8011201359560
:100A3200D90112013587DA01120135C7DA01120133
:100A4200357BDB01120135ADDB01120135A3DD017E
:100A5200120135E5DD0112013503DE0112013569AE
:100A6200DE0112013538DF01120135FCDF0112010E
:100A7200351BE201120135C18F03120135AB900320
:100A8200120135569103120135A791031201355710
:100A92009203120135C89203120135AD930312017C
:100AA20035E19303120135DA9403120135179503E8
:100AB200120135F395031201353296031201354EB8
:100AC2009603120135E28B04120135668C04120181
:100AD20035918C04120135AB8D0412013591E3037B
:100AE200120135A7E303120135C5E303120135D61E
:100AF200E403120135E0E4031201350BE6031201AF
:100B02003502E7031201356FE7031201351BA30318
:100B120012013551A403120135CBA403120135FB96
:100B2200A4031201350EA50312013565A5031201B6
:100B3200357AA703120135EDFF0312013548AC01E6
:100B4200120135D4AC0112013538AE01120135441F
:100B5200AE011201357FAE01120135EEAE01120176
:100B620035F7AF0112013500B101120135C7B101EC
:100B720012013524B30112013542B3011201355F6E
:100B8200B3011201350CB40112013589B40112010D
:100B920035B1B4011201357BB70112013580B701BD
:100BA20012013599B901120135E7B9011201355720
:100BB200BA0112013595BA0112013571BB01120158
:100BC2003531BC011201357DBC0112013580BC01F9
:100BD200120135C4BC011201350CBD011201354BA5
:100BE200BD011201356DBD01120135A1BD01120118
:100BF2003504BE01120135E2AE03120135F0AE0337
:100C020012013543AF0312013562AF03120135A75A
:100C1200AF03120135EBB00312013586B1031201A5
:100C220035CAB103120135F4B10312013563B203BF
:100C3200120135A9B20312013520B303120135D1D5
:100C4200B3031201350031001201351031001201D7
:100C520035B131001201350D3200120135CA3200B0
:100C6200120135E6330012013518340012013547FE
:100C72003400120135F435001201356B38001201CF
:100C820035DB3A00120135CD3B00120135C63C007E
:100C9200120135CD3E00120135C14100120135F07D
:100CA2004200120135F444001201350446001201DB
:100CB20035934700120135844800120135D24800AD
:100CC200120135414900120135654900120135B65C
:100CD2004900120135574E00120135584F001201DA
:100CE20035B94F00120135E44F00120135AA500008
:100CF2001201355BD70312013565D703120135AAFC
:100D0200D703120135BED7031201354ED8031201A3
:100D12003587D803120135C2D803120135EBD80347
:100D22001201353FD90312013554D9031201357628
:100D3200D9031201358BD9031201359FD903120150
:100D420035B4D903120135EED9031201351ADA038B
:100D520012013563DA03120135D5DA0312013518AF
:100D6200DB0312013542DB031201356DDB03120195
:100D72003583960412013580CD0212013563CE020D
:100D8200120135DECE0212013519CF021201356A87
:100D9200D002120135F8D0021201358AD3021201B3
:100DA200353CD40212013548D502120135BBD602B8
:100DB20012013514D70212013539C6031201357CEE
:100DC200C60312013500C703120135D7C903120148
:100DD20035358504120135E78504120135E38604B1
:100DE2001201352287041201357C8704120135DA9B
:100DF2008D041201353D8E04120135DA8E04120182
:100E0200350F8F041201353F8F041201357A8F049A
:100E12001201359A8F041201359AB8031201352650
:100E2200B903120135E5B903120135FDBA03120106
:100E32003517BD031201351BAC0212013540AC025D
:100E42001201350DAD02120135E1AD021201354E2E
:100E5200AE021201358EAE021201352AAF02120124
:100E6200355EB00212013539B10212013598B10274
:100E720012013524B20212013592B2021201351E5C
:100E8200B30212013564B302120135D6B302120164
:100E92003568B40212013509B50212013529B502CD
:100EA20012013571B502120135BAB502120135D6F9
:100EB200B502120135FCB50212013576B6021201F5
:100EC2003584B60212013513B7021201357CB7021E
:100ED2001201354EBD03120135D3BD031201351582
:100EE200BE03120135F9BE0312013566BF031201BA
:100EF20035AABF03120135EEBF031201351BC00331
:100F020012013543C0031201357BC003120135B90A
:100F1200C003120135E0C0031201355AC1031201A8
:100F220035A4C10312013528E201120135C7E301DC
:100F3200120135FFE50112013553E6011201357E3A
:100F4200E6011201355AE7011201358AE701120161
:100F520035B9E701120135CCE7011201350DE8017F
:100F62001201353AE80112013588E801120135C44F
:100F7200E80112013509E90112013556E9011201B0
:100F820035D0E90112013511EC01120135FBED01F9
:100F920012013537EE01120135C6EF011201350B90
:100FA200F0011201357EF001120135D3F001120178
:100FB20035D8F00112013562F10112013581F201D9
:100FC20012013592F20112013565EB02120135DE92
:100FD200EB0212013598F102120135A3F20212015D
:100FE200354CF402120135DAF4021201353598015A
:100FF200120135B69801120135E398011201352C20
:1010020099011201352D9A01120135869A011201B8
:1010120035029C01120135849C011201359F9C010D
:10102200120135109D01120135CD9D01120135903D
:101032009E011201351E9F01120135D59F01120139
:1010420035E89F0112013581A00112013518A10175
:101052001201353FA101120135A8A101120135F299
:10106200A10112013540A201120135E5A2011201CE
:101072003583A30112013510A40112013581A401A7
:10108200120135C8A40112013520A5011201355201
:10109200A5011201350CA60112013513A701120197
:1010A200355CA70112013579A70112013598A70114
:1010B200120135CBA80112013582A901120135A70F
:1010C200A901120135BCA9011201352CAA01120194
:1010D200356DAA0112013591AB0112013512AC0135
:1010E200120135A5E102120135F0E102120135FCCF
:1010F200E102120135D0E202120135E7E2021201E9
:101102003524E30212013555E3021201358DE30263
:10111200120135E3E302120135F9E302120135351A
:10112200E40212013548E4021201356FE4021201B1
:1011320035A3E402120135C9E50212013513E702B3
:101142001201350FE8021201352CE902120135F4C1
:101152007F001201354B70001201358670001201BA
:1011620035D87300120135347500120135F375005C
:101172001201355A7900120135447A001201359074
:101182007A00120135AA7A00120135E77A001201BB
:1011920035F27A00120135317B001201353A7B00BB
:1011A200120135E47B00120135BB7C001201350FC0
:1011B2007D001201356C7D00120135DE7D001201C9
:1011C20035DCBE011201353BC20112013541C201BB
:1011D20012013572C90112013579CD0112013502B0
:1011E200EF0312013598EF03120135AEEF0312013E
:1011F2003507F0031201354BF00312013585F00378
:101202001201351DF1031201358CF10312013595DE
:10121200F103120135A1F103120135BBF1031201F1
:1012220035E5F103120135FAF1031201355CF203DF
:1012320012013583F20312013519D3031201352647
:10124200D30312013540D30312013573D3031201C4
:1012520035B1D30312013516D4031201352BD40351
:1012620012013536D40312013543D4031201355A23
:10127200D40312013568D40312013573D403120169
:10128200357FD4031201358ED40312013599D4036C
:10129200120135BCD40312013560D5031201357039
:1012A200D5031201358AD503120135A7D5031201E0
:1012B20035C2D503120135E7D503120135F2D50344
:1012C20012013507D6031201351BD6031201357CF4
:1012D200D60312013582D60312013588D6031201D4
:1012E200358ED603120135A6D603120135D9D6039F
:1012F200120135989E021201352F9F02120135C745
:101302009F02120135B7A002120135EEA0021201AE
:101312003501A1021201356FA1021201350AA302A1
:1013220012013531A302120135D3A302120135088D
:10133200A40212013519A40212013592A40212016B
:1013420035B3A402120135CBA40212013523A60241
:101352001201352CA8021201357CAA021201357F36
:10136200AB02120135CEAB02120135069002120118
:1013720035039102120135EE9102120135F8910204
:101382001201351A920212013526920212013578A3
:101392009302120135A79302120135D7940212016A
:1013A200351995021201354596021201351B970235
:1013B2001201356D9702120135CC970212013503E5
:1013C20098021201353E9802120135D99B02120190
:1013D20035F29B02120135749C02120135829C0285
:1013E200120135D79C02120135E59C0212013552D9
:1013F2009D02120135C49D021201350A9E0212019C
:10140200359FB702120135C1B702120135ABB902DD
:1014120012013550BD0212013593BE021201356D23
:10142200BF02120135A88F04120135CD8F041201BB
:10143200353E900412013500800312013509800304
:101442001201351280031201354381031201356204
:101452008303120135988303120135D283031201EB
:101462003508840312013542840312013576840360
:10147200120135A28403120135EB840312013525D2
:1014820085031201356D8503120135C385031201EF
:1014920035F885031201355386031201358D860313
:1014A200120135DE86031201351487031201354E0F
:1014B20087031201357C87031201359F87031201CE
:1014C20035519B041201357D9B04120135D89B04D2
:1014D200120135E29B04120135F29B04120135958B
:1014E200DB03120135CCDB03120135E9DB03120108
:1014F20035CDDC031201354EDD0312013525DE0345
:10150200120135E3B303120135BCB503120135E311
:10151200B503120135ECB503120135A59C04120185
:1015220035165100120135265400120135BB550003
:10153200120135365600120135E256001201358588
:1015420057001201351D58001201354C5800120186
:1015520035E45C00120135765D00120135B25E00A1
:101562001201351C5F00120135D05F001201358671
:101572006200120135C062001201352A63001201B5
:1015820035876300120135E46300120135416400BE
:101592001201352C6500120135726500120135BD4C
:1015A2006500120135E06500120135426700120143
:1015B200355D6700120135E56800120135246900C6
:1015C200120135646900120135B76900120135D87C
:1015D20069001201351F6A00120135456C001201C3
:1015E20035866C001201351D6D00120135C96D0082
:1015F200120135646E00120135D66E0012013517E4
:10160200700012013541A903120135E7A903120145
:10161200352CAB03120135B5AB03120135A2AC0375
:10162200120135E1AC031201354BAD03120135B99C
:10163200AD03120135D1CE0312013508CF031201D9
:101642003531CF03120135F9CF0312013562D003D0
:1016520012013570D1031201353994041201357E1D
:1016620094041201355C9504120135C4FF03120182
:1016720035DAFF03120135A39D041201356E95047C
:101682001201357E95041201358F950412013572CF
:101692009604120135E5F8031201358DF9031201A2
:1016A20035CFFB03120135C2FD0212013525FE02C0
:1016B20012013593FE0212013549FF02120135680B
:1016C200FF0212013578FF02120135B7FF02120143
:1016D200355E9104120135AD9104120135DF91049A
:1016E200120135719204120135ED9204120135F1A5
:1016F200FF01120135E09D04120135F29D04120131
:1017020035F59D0412013565FE01120135AEFE016B
:10171200120135DAFE01120135FAFE011201359984
:10172200FF01120135979704120135E69704120161
:1017320035769804120135F87F00120135EAFB0371
:10174200120135D0FD031201353CFE03120135872B
:10175200FE03120135AF9603120135AC9803120154
:1017620035169903120135149A03120135D89A03DA
:10177200120135B49B031201350F9C031201353E51
:101782009C03120135419C031201354F9C03120147
:10179200356C9C03120135959C03120135BE9C03E6
:1017A200120135CC9C03120135E49C03120135CCA5
:1017B200F50312013503F6031201352CF60312016B
:1017C2003543F70312013589CA03120135C0CA0332
:1017D200120135E9CA03120135B1CB031201351AE0
:1017E200CC0312013528CD03120135008004120109
:1017F200357180041201358480041201351A810486
:10180200120135C581041201352D7F00120135A662
:101812007F00120135C57F00120135E47F001201FD
:1018220035AFC2021201356DC3021201358EC302F9
:101832001201359EC402120135CEC502120135B71E
:10184200C702120135C0C8021201355FCA02120175
:1018520035B5CA02120135EECC02120135FF9204EF
:101862001201352893041201355293041201357284
:101872009304120135D093041201352D880312010D
:10188200354288031201359E880312013509890306
:10189200120135518903120135C38903120135EC56
:1018A2008903120135FA89031201355C8A03120198
:1018B200359A8A03120135B58A03120135508B031A
:1018C200120135F98B031201357C8C03120135B5F7
:1018D2008C03120135408D03120135978D031201DD
:1018E20035F58D03120135078E031201352D8E0356
:1018F200120135368E031201358D8F03120135E840
:1019020089041201354F8A041201350C8B0412012D
:10191200358A8B0412013579E703120135ACE703EE
:10192200120135DEE80312013522E903120135FE08
:10193200E9031201358AFE0312013568FF03120121
:10194200359D8204120135E2820412013528830496
:10195200120135F18404120135A89904120135C32C
:101962009904120135D39904120135389A041201EF
:1019720035FC9B04120135BDD70212013599D802FC
:10198200120135E0D8021201351DD9021201358B40
:10199200D902120135E5D90212013555DA021201D6
:1019A2003525DB0212013514DC021201358BDC0213
:1019B20012013527DE02120135B4DE02120135278B
:1019C200DF02120135A3DF02120135BADF02120172
:1019D20035DFE00212013539E102120135F29C03D2
:1019E200120135129D03120135189E03120135644E
:1019F2009E03120135849E03120135D79E03120104
:101A020035449F031201358A9F03120135EE9F036D
:101A12001201359AA20312013505840112013532F1
:101A22008901120135358C011201355E8C011201DA
:101A320035758C011201359E8C01120135508D01D4
:101A4200120135398F011201358490011201359D41
:101A52009001120135E7950112013520960112011C
:101A620035649601120135759701120135B1F20301
:101A720012013591F30312013565F40312013500A9
:101A820080021201351D83021201350F86021201F6
:101A9200350D87021201353887021201356387023C
:101AA2001201358E8702120135E387021201358A4F
:101AB20088021201352F8902120135D689021201DC
:101AC20035A78A02120135748B02120135028C028B
:101AD200120135848C02120135048D021201355037
:101AE2008D02120135858D021201352D8F021201F0
:101AF20035738F02120135B5F20112013542F3013D
:101B020012013597F3011201359AF3011201353AA8
:101B1200F50112013555F50112013575F501120174
:101B220035A7F50112013556F6011201355DF601B0
:101B320012013564F601120135D4F601120135069F
:101B4200FC0112013587FD01120135A3980412012F
:101B5200354F9904120135ABFF01120135C9FF025D
:101B6200120135C29D04E066701008A3E066700A97
:101B720008A3E066700408A3E06622C3E79608099A
:101B8200E7960809E7960809E79622C3E09608A3B4
:101B9200E09608A3E09608A3E09622C008C3E09668
:101BA200F50808A3E096420808A3E096420808A3B5
:101BB200E09645087001D3D00822080808EAC0E080
:101BC200EBC0E086F0E7A4FA180986F0E7A42AFA47
:101BD200180986F0E7A42AFA180986F0E7A42AFA77
:101BE2001986F0E7A4FBE5F02AFA190886F0E7A4C3
:101BF2002BFBE5F03AFA190886F0E7A42BFBE5F097
:101C02003AFA18180986F0E7A4C5F02BFBE43AFA71
:101C12001908E7C5F0C6A426F6E5F03BFBE43AFA5C
:101C22001886F0E7A4F6E5F00826F6E43B08F6E4A9
:101C32003A08F6D0E0FBD0E0FA22E4CFC0E0E4CEEE
:101C4200C0E0E4CDC0E0E4CCC0E075F020E626F6CA
:101C520008E633F608E633F608E633F6181818EC09
:101C620033FCED33FDEE33FEEF33FFC3EC9709EDAA
:101C72009709EE9709EF97191919400FFFEC97FC96
:101C820009ED97FD09EE97FE191906D5F0BFECF79D
:101C920009EDF709EEF709EFF7191919D0E0FCD0B1
:101CA200E0FDD0E0FED0E0FF226016080808C6C3BF
:101CB20013C618C613C618C613C618C613C6D5E06F
:101CC200EA227009080808226016181818C6C333D9
:101CD200C608C633C608C633C608C633C6D5E0EA48
:101CE20022E627F60809E637F60809E637F6080974
:101CF200E637F622E026F608A3E036F608A3E03639
:101D0200F608A3E036F622E026F008A3E036F00853
:101D1200A3E036F008A3E036F022C3E697F60809FE
:101D2200E697F60809E697F60809E697F622C3E071
:101D320096F008A3E096F008A3E096F008A3E096D8
:101D4200F022E056F608A3E056F608A3E056F6089D
:101D5200A3E056F622E056F008A3E056F008A3E00E
:101D620056F008A3E056F022E0F608A3E0F608A336
:101D7200E0F608A3E0F622E6F008A3E6F008A3E600
:101D8200F008A3E6F022E0FAA3E0FBA3E0FCA3E064
:101D9200FD22EAF0A3EBF0A3ECF0A3EDF022E0F8D1
:101DA200A3E0F9A3E0FAA3E0FB22E8F0A3E9F0A3A1
:101DB200EAF0A3EBF022CAC0E0E6F0A308DAFAD018
:101DC200E0FA22CAC0E0E0A3C582CCC582C583CDB9
:101DD200C583F0A3C582CCC582C583CDC583DAE6AF
:101DE200D0E0CA22C3E498F8E499F9121E278026AB
:101DF200C3E49AFAE49BFBE920E7E9121E27E49880
:101E0200F8E499F922C3E498F8E499F9121E27E458
:101E120098F8E499F9C3E49AFAE49BFB22EB20E7F1
:101E2200CFE920E7E0B90010BB0008E88AF084F8A7
:101E3200AAF022E4FBC8FA22EB70227B10C833C856
:101E4200C933C9335007C39AC3DBF280069A5001E3
:101E52002ADBEAC833F4C8C933F4C9FA2275F00898
:101E6200E4C833C8C933C933C99AC99B5004C92AC3
:101E7200C93BD5F0ECFBC833F4C8E4C9FA22600DC3
:101E820008C6A2E713C618C613C6D5E0F322600C33
:101E920008C6C313C618C613C6D5E0F422700422BE
:101EA200600D18C6C333C608C633C6D5E0F418227F
:101EB200251810AF08F518400C15198008F51840C0
:101EC200021519D2AF2200C0D0251810AF08F5189C
:101ED200500C05198008F51850020519D2AFD0D060
:101EE200222518F58210AF08F518400C1519800844
:101EF200F51840021519D2AF851983222518F582EB
:101F0200E43519F583222518F8E43519F922251844
:101F1200FAE43519FB222518FCE43519FD22E47395
:101F22002518C582C0E0E51934FFC583C0E0E51875
:101F3200C3958224F810AF0885831985821880081A
:101F4200858319858218D2AFCEF0A3E520F0A3785D
:101F520008E608F0A3DEFAEFF0A3E58124FAF8E63A
:101F620008F0A3E608F0A3E608F0A30808E608F0E4
:101F7200A3E608F0A315811581D0E0FED0E0F815A4
:101F82008115811581E8C0E0EEC0E0222518C582E6
:101F9200C0E0E51934FFC583C0E0E518C39582248B
:101FA200F910AF0885831985821880088583198501
:101FB2008218D2AFCEF0A3E520F0A37808E608F0AD
:101FC200A3DEFAEFF0A3E58124FBF8E608F0A3E62E
:101FD20008F0A30808E608F0A3E608F0A3158115A7
:101FE20081D0E0FED0E0F815811581E8C0E0EEC0B6
:101FF200E022851983851882E0A3FEE0A3F520780C
:1020020008E0A3F608DFFAE0A3FFE0A3C0E0E0A344
:10201200C0E0E0A3C0E0E0A3C0E0E0A3C0E010AFF6
:10202200088582188583198008858218858319D2CC
:10203200AFD083D082020132851983851882E0A352
:10204200FEE0A3F5207808E0A3F608DFFAE0A3FF9C
:10205200E0A3C0E0E0A3C0E0E0A3C0E0E0A3C0E0F2
:1020620010AF0885821885831980088582188583B8
:1020720019D2AFD083D08222C0D02518C582C0E049
:10208200E51934FFC583C0E0E518C3958224F31037
:10209200AF0885831985821880088583198582187F
:1020A200D2AFC8F0A3E9F0A3EAF0A3EBF0A379085A
:1020B200E709F0A3D8FAECF0A3EDF0A3EEF0A3EF5A
:1020C200F0A3D0E0F0A3D0E0F0A3D0E0F0A3E520AD
:1020D200F0A3E5F0F0A322851983851882E0C0E021
:1020E200A3E0F9A3E0FAA3E0FBA37808E0F608A3D3
:1020F200DFFAE0FCA3E0FDA3E0FEA3E0FFA3E0C063
:10210200E0A3E0C0E0A3E0F5D0A3E0F520A3E0A3C4
:10211200F5F010AF08858319858218800885831928
:10212200858218D2AFD082D083D0E0F8D0E032746A
:10213200048006740280027401C0E0F404121EE3FB
:10214200D0E0121DB8227404800474028000CCC056
:10215200E0EDC0E0E518C39CCCAD1950011D10AFF5
:10216200068C188D1980068C188D19D2AF121DC5D8
:10217200D0E0FDD0E0FC22D083D082E9C0E0E4933D
:10218200A3C386F0C5F095F0F908E493A386F0C5E1
:10219200F095F0700BE493A3C3994005E904800223
:1021A200A3E475F002A42582F582E5F03583F58378
:1021B200D0E0F9E493A3C0E0E493C0E022D083D05E
:1021C20082ECC0E0EDC0E0E493A3FCE493A3FDED58
:1021D2004C600D12220BEC24FFFCED34FFFD80EF6E
:1021E200E493A3FCE493A3FDED4C600D12224AECB0
:1021F20024FFFCED34FFFD80EFD0E0FDD0E0FCE4F5
:1022020093A3C0E0E493C0E022C0E0C3E493960845
:102212007401939618400FE4936670080874019352
:10222200661870007019A3A3C3E49396087401930F
:102232009618A3A3400DD0E0D0E0D0E00221FBA38A
:10224200A3A3A3A3A3D0E022C0E0C0F088F0E4934C
:102252006670080874019366187000A8F0A3A37052
:102262000BD0F0D0E0D0E0D0E00221FBA3A3D0F06D
:03227200D0E02297
:1022780074F6121F8EEAFEEBFF8C088D09EE2434EB
:10228800F8E43FF9E8FCE9FDEE243512258BFAEE77
:10229800243712258BF88508F0A4C885F00A85092B
:1022A800F0A4250AF9EA28F8E439F97A257B00121E
:1022B8001E27EA8C828D83F0FA131313541FF8EE4D
:1022C80028F8E43FF9E8245DF582E439F583E0C0B5
:1022D800E074075AF8D0E0B800028004C313D8FCB1
:1022E800A2E0EE50082434F582E43F801824361228
:1022F800258BF5F0EA84A8F0EE28F8E43FF9E82405
:1023080038F582E439F583E0F97F0302203A74F75F
:10231800121F8EEAFEEBFFEE243412258BC0E0EE8E
:102328002435F582E43FF583D0E0F08E828F83A3D5
:10233800A3A3A3A3A3A3C082C0838E828F83A3A3D6
:10234800A3A3A3E0F8A3E0F9D083D082E0C398F573
:1023580008A3E099F509EE247F12258B6401703EED
:10236800EE2480F582E43FF583C082C0838E828F9D
:1023780083A3A3A3A3A3E0240108A3E03400F9D016
:1023880083D082E0687003A3E06970127CBD7D048D
:1023980012108EEE247FF582E43FF583E4F0AC085A
:1023A800AD09EEFAEFFB122278E9F9122FDA7F0273
:1023B80002203AC082C083851882851983E0F8A379
:1023C800E0F9C3EA9CEB9D5010C3EC98ED99401BD3
:1023D800C3EA98EB995014800EC3EA98EB9940072A
:1023E800C3EC98ED994004790180027900D083D03C
:1023F8008222EAC39CFAEB9DFB2274EF121F8E9097
:102408000382E064086005E06407702A9061C8E010
:1024180060249003B0E0F4601DE0F875F00BA4C8E8
:10242800AAF02AF974B228FE740339FF8E828F83CA
:10243800A3A3A3E07003022510906060E0C0E0EE63
:102448002468F582E43FF583D0E0F0750C2D750D16
:1024580005750800750900E5D914F50AE5D954038E
:10246800F50E60127403650E6043E50A600AEE24F7
:102478006712258B70028075900528E06401601F43
:1024880012258860047A0480027A00E50AC39AFA61
:1024980095E0FB120F388A088B09EA450970051286
:1024A80012D4806412258870048A0C8B0DE50A60AA
:1024B80012850C82850D83F50BE5D9F0A3150BE584
:1024C8000B70F6122588604474FC250AF50A780C0E
:1024D800122135AC0AA90EEEFAEFFB12114874026C
:1024E800121EC8E97026AA08AB09121904793D8E94
:1024F800828F83A3A3A3A3E0FA7B00120D9AEEFABE
:10250800EFFB1210B212115A7900806F7403650E36
:102518006051850A107511007810122135AC0CAD88
:102528000DAA08AB0912110C7402121EC8EE246819
:1025380012258B64807004747F8001E0F50C780CA0
:10254800122139E50EF50C780C122139A90AAC08CC
:10255800AD099003B0E0FA7B00120D707402121EF0
:10256800C88013900382E06408600BAC0CAD0DEEDC
:10257800FAEFFB1211D21212E079017F0A02203A17
:10258800EE2483F582E43FF583E02274F2121F8E75
:1025980074FC121EB2EAFEEBFF8909A2AFE433F520
:1025A80008C2AF02265DE0601B780C122135AC0B27
:1025B800A90EEEFAEFFB1211427402121EC874043F
:1025C800250BF50B7401250BF5D9850ED9E50B60A4
:1025D80018F50A850C82850D83E0F5D9A385820C50
:1025E80085830D150AE50A70EA75E195EE2463F80E
:1025F800E43FF97A007B00A2AFE433F50BC2AF8861
:10260800828983E0FCA3E0FDEC4D603A88828983EF
:10261800E0FAA3E0FB8A828B83E0FCA3E0FD8882DA
:102628008983ECF0A3EDF08A828B83E4F0A3F08831
:10263800828983E0FCA3E0FDEC4D700A88828983DF
:10264800A3A3E4F0A3F0E50BA2E092AF1219049063
:1026580004C4E004F0EE246312258BF8A3E0F9E843
:10266800496064EE246312258B2402F8A3E0340049
:10267800F988828983E5822402F50CE43583F50D17
:10268800E0F50BA3E0F50EEE246212258B640170D1
:10269800369061D0E0F812258860047C0480027CC2
:1026A800007480C398FA95E0FBE50B2CF8E434003D
:1026B800F9E82402F8500109C3EA98EB99A2D26517
:1026C800D03340030225AE9004C4E0604D9004C5A9
:1026D800E0F89004C4E0C398500C74026509703A9D
:1026E8009004C6E060348E828F83A3A3A3A3E08501
:1026F80018828519831227327402121EFEE81227E7
:10270800329004C3E028F07402121F18AA18AB19FB
:102718007901120DC49004C4E4F0E508A2E092AF78
:102728007404121EC87F0702203AF0A3E4F0900454
:10273800C4E0F8228521878522C622C0E074EB1206
:10274800207AA2AFE433F508C2AF759B009061828E
:10275800E0A2E05030E591A2E0502A7591FE7401A4
:10276800652170211228D61212201228C41221487D
:10277800122D847404121EC8E964017005790112CF
:102788001268122402906182E0A2E5505DE591A2F0
:10279800E550577591DF900382E064076005E064B7
:1027A80008702F1228D674016521703E121220126B
:1027B80028C4122148122D847404121EC8E9640129
:1027C800700579011212687901EEFAEFFB12259370
:1027D8008018E0640D70139003A4E004F06428707E
:1027E80002E4F07A00E0F91212E6906182E0A2E6D3
:1027F8004003022899E591A2E640030228997591C1
:10280800BF900382E0640570081212081212148047
:102818000312120E752100121274E9900383F079E5
:1028280000121268120FFE7A017B00900381E0F912
:102838001218D4907803E06442705690052CE01486
:10284800F0704EC2AF12285000782AD0E0F618D0A7
:10285800E0F6E59F5407F87005750DFF8003750DC8
:102868007FC4C0E07829E6F50A08E6550DF50B7433
:102878000B780A121E90D0E0250AF8906270E0A248
:10288800E740F8E8C333906272F0906270E0D2E0FB
:10289800F0906181E0A2E35009E5E9A2E3500375F5
:1028A800E9F7A3E0A2E75009E591A2E75003759183
:1028B8007FE508A2E092AF7F080220D98E828F833D
:1028C800E0F8A3E0C82416F582E438F583229003E3
:1028D800B0E0F875F00BA4C8AAF02AF974B228FE83
:1028E800740339FF22C0E0C0D0C082C083906183E6
:1028F800E0A2E05009E5BFA2E0500375BFFEE0A2E8
:10290800E15009E5BFA2E1500375BFFDE0A2E25026
:1029180009E5BFA2E2500375BFFBE0A2E35009E559
:10292800BFA2E3500375BFF7E0A2E45009E5BFA2D8
:10293800E4500375BFEFE0A2E55009E5BFA2E550FA
:102948000375BFDFE0A2E65009E5BFA2E6500375B4
:10295800BFBFD083D082D0D0D0E032C0E074F212B2
:10296800207AE5A7A2E6500FE5A1A2E6500953A7F1
:10297800BF75A1BF1229B7E5A7A2E5500CE5A1A232
:10298800E5500653A7DF75A1DFE5A7A2E15009E5E9
:10299800A1A2E1500375A1FDE5A7A2E2500CE5A1B3
:1029A800A2E2500653A7FB75A1FB7F010220D97450
:1029B800F7121F8E752101900382E06406701512CC
:1029C800117E8A828B83A3A3A3A3A3A3E0FAA3E027
:1029D800FB1211F6A2AFE433FED2AF900388E06495
:1029E8000170187A207B00900381E0F9121A007AAE
:1029F800207B00900381E0F91218DA906182E0D21E
:102A0800E6F0900529E0602185C6228016900387AC
:102A1800E064017008E5C654F84405F5C653BEFCE9
:102A280012273C7401652160E4EEA2E092AF7F02B8
:102A380002203A008E238F248582288583278518D3
:102A480082851983E0CEA3E0CF852882852783EB92
:102A5800C9EAC8EDCBECCA75F010C3E833C8E9334E
:102A6800C9EA33CAEB33CBC3EA9EF526EB9FF525BB
:102A7800B35004AB25AA26EC33CCED33CDD5F0DA30
:102A8800AE23AF242274E9121F8E74FA121EB2EA22
:102A9800FEEBFF8C0A8D0B12122CEAF8EBF9ECFA1C
:102AA800EDFB8E828F83121DAC900382E024F7C366
:102AB80094055006751401022BF412117E8A088BB6
:102AC80009EA45097003022BF1EEFCEFFDAA18ABE9
:102AD80019121226850882850983A3A3780C121D72
:102AE8006A908330780C121D448518828519837882
:102AF80010121D6A9083307810121D44780C7910DA
:102B0800121B7D501F780C7910121D1C9083607861
:102B18000C121B9D4047850C14850D15850E1685D6
:102B28000F1780459083608510148511158512163E
:102B38008513177814790C121D1C7814121B9D50DC
:102B48001C75140075150075160075170178147931
:102B580010121D1C7814790C121CE3800C751401DA
:102B680075150075160075170074097814121CC4C1
:102B780090835C780C121D6A7814790C121C3C85C1
:102B88000882850983A3A3A3A3A3A3122C12121E50
:102B980027880C890DE4F50EF50F7814790C121CB2
:102BA800E37404121EFE122C12121E27E8FA8A0C75
:102BB800E4F50D7814790C121B7D50077814790C04
:102BC800121D1C900382E06408600AE06406600538
:102BD800E06405702090834C7814121B9D50169069
:102BE80083487814121CF6800C751400751500754E
:102BF8001600751700850A82850B837814121D79D3
:102C08007406121EC87F1002203AE0F8A3E0F97A91
:102C1800D07B032274F7121F8E12123E900527E014
:102C280064017010906245E4F0A3F053F4F343FE9E
:102C38000C5390F31211E4E5C654B84441F5C6E5C7
:102C48009E5447644170F8906185740FF090052593
:102C5800E0F47002A3E0604E900526E0600814607E
:102C68001B14602E8040750801750900900525E049
:102C78007808121E9FE508F45280802A75080175AD
:102C88000900900525E07808121E9FE508F4529087
:102C98008014750801750900900525E07808121E52
:102CA8009FE508F452A079007F0202203A74F712D7
:102CB8001F8EE9FEEAFF12123E74016E700C7A80D4
:102CC8007B00900381E0F91218D49030F8E493F473
:102CD8006008E493F9120FF2800953C6B8E59E54D0
:102CE8004770FA1211EA900527E064017003121088
:102CF80010900525E0F47002A3E0604B900526E0F3
:102D0800600814601A14602C803D7508017509006C
:102D1800900525E07808121E9FE5084280802875F6
:102D28000801750900900525E07808121E9FE5083E
:102D380042908013750801750900900525E0780810
:102D4800121E9FE50842A012117E8A088B09A80866
:102D5800A909E8496014E5E170FCE82414F582E467
:102D680039F583E0F46003E0F5E174016F700A7AE5
:102D780001900381E0F9121964022CB074F1121F5A
:102D88008E8A088B098C0A8D0B9083307808121D67
:102D980044740F121EFE780C121D6A908330780C52
:102DA800121D447808790C121B7D908360501078AE
:102DB80008790C121D1C7808121B9D4014800E788F
:102DC8000C7908121D1C780C121B9D500479018087
:102DD8000279007F0802203A74ED121F8E8A088B50
:102DE800098C0A8D0B9083307808121D44741312D5
:102DF8001EFE780C121D6A908330780C121D4478E0
:102E08000C7908121B7D40117808790C121D1CAA38
:102E180008AB09AC0AAD0B8022751000751100755E
:102E280012007513017810790C121D1C781079089E
:102E3800121CE3AA10AB11AC12AD137F0C02203A9E
:102E48009083307808121D6A8A828B837808121D55
:102E5800577F0402203A74F5121F8E8C828D837876
:102E680008121D6A8A828B837808121D30122EB6CA
:102E7800C3E09CF0A3E09D122EA840229083007826
:102E880008121D6A8A828B837808121D098A828B30
:102E980083A3A3A3A3E02420F0A3E0344EF080A0F2
:102EA800F088828983C3E09420A3E0944E22EA2428
:102EB80004F8E43BF98C828D83A3A3A3A3E0FCA3CD
:102EC800E0FD888289832274F5121F8EE9FE900442
:102ED800DFE0FAA3E0FBEE29F8E433F9744128F5C2
:102EE80082748239F583E02AF508A3E03BF5097876
:102EF80008122135908314121D88122A3C7402127C
:102F08001EC88A088B098C0A8D0B74107808121C4D
:102F1800ABAA08AB097F0402203A74F1121F8E8A0B
:102F28000C8B0D8C0E8D0F7411121EFE12214C7419
:102F380011121EFEE02401F508A3E03400F509E4AF
:102F4800F50AF50B780C7908121BBC9083407808B9
:102F5800121D6A780C7908121BBCAA0CAB0DAC0EBA
:102F6800AD0F122A3C7402121EC88B09EA4509608B
:102F7800047A0180027A00EC2AFCE43DFD74131205
:102F88001EFEE0F8A3E0F9E8FEE9FFECF8EDF97AB7
:102F9800717B02121E2788088909E4F50AF50B8E51
:102FA800828F837808121D79ECF8EDF97A717B022B
:102FB800121E278A088B0974057808121E9F8E82B4
:102FC8008F83A3A3A3A3E508F0A3E509F07F080274
:102FD800203AC082C083E9906000F0D083D082227A
:102FE800C0E074F212207AA2AFE433FED2AFC2C0BE
:102FF800E5D1A2E4500675D10F1217A8751A00EE94
:10300800F8EEA2E092AF7F010220D9C0E0C0D0E87C
:10301800C0E0E9C0E0A2AFE433F8D2AFC2C7751A86
:1030280000E8F9E8A2E092AFD0E0F9D0E0F8D0D01B
:10303800D0E032C0E074F212207AA2AFE433FED2BC
:10304800AF758900C2C59008727401F0751A007ACC
:103058000190084FE0F9121964E9F8C2BD53ABFBBF
:103068005389FB43F3047586C0EEF9EEA2E092AFF4
:103078007F010220D9C0E0C0D0E8C0E0E9C0E0EAA2
:10308800C0E0C082C083A2AFE433FAD2AF9009F6A1
:10309800E0F89009F7E068700B539AFB9009F87410
:1030A80001F0802CC2E99009F6E0F8740128900933
:1030B800F6F07900747628F582740939F583E0F51D
:1030C800C19009F6E0C3948040069009F67400F0B8
:1030D800EAF8EAA2E092AFD083D082D0E0FAD0E05A
:0F30E800F9D0E0F8D0D0D0E032C2AF0200002221
:1030F800FFFFFFFFFFFFFFFFC082C083E99019D5E4
:10310800F0D083D08202013274F6121F22E99002B5
:10311800F4F0900354E0F508750900740278081279
:103128001E9FAA08AB0912194C9002F5123AC390D7
:1031380002F5123EB0606F900354E075F003A4FAF4
:10314800ABF012194C900312123AC3900312123EBC
:10315800B0700B9002F5123E81121952804890030C
:1031680012124E157AFF7BFF1216047A0080198A14
:103178000875090074027808121E9F1248BD74FF72
:103188001232C3E4F0A3F00A900354E0F8EAC398BB
:1031980040DD7905120C5C9002F4E0F9120B487AD4
:1031A800E67B0C120ED802496074F4121F228A08BA
:1031B8008B09EB548060479002F4E0F91218BC8A3E
:1031C8000A8B0BAE0AAF0BEE4F602A8E828F83E01C
:1031D80064B0701A120C6EE960148E828F83A3A3F8
:1031E800A3A3E0F9EE2405FAE43FFB120C3EEEFA45
:1031F800EFFB1218AAAA08E5096480FB80047A008C
:103208007B0002341374F2121F2274FB121EB2EAFE
:10321800FEEBFFEE4F60457403121EFEEEF0A3EFC7
:10322800F0851882851983ECF0A3EDF07402121E64
:10323800FEE9F0AA18AB19120B42E9F5087075748B
:1032480013121EFEE0F50AA3E0F50BE50A450B6034
:10325800638E828F8312384CEE4F7005750802809A
:10326800537A067B0012194C8A0C8B0DA80CA90DF9
:10327800E8497005750813803B88828983E4123217
:10328800C3EEF0A3EF1233DFE50AF0A3E50BF090ED
:1032980002F81233D89002F86017E0FCA3E080032C
:1032A800EAFCEBFD8C828D831233D870F38C828D0F
:1032B800831244D8A9087405025095F0A3124DF75B
:1032C800A32274F2121F228908890C750D00740359
:1032D800780C121E9F850C0A850D0B9002F7F09052
:1032E80002F51242E31233D6602E12195279008089
:1032F8001D890C750D007402780C121E9F9002F542
:1033080012477C8882F583A3A3E4F0A3F009900315
:1033180054E0F8E9C39840D9900354E0FA850AF0DC
:10332800A4CAA8F0850BF0A428FB12194C8A0C8BB0
:103338000DAE0CAF0DEE4F70030233CC900354E08A
:10334800FC850AF0A4CCA8F0850BF0A428FD790030
:103358001218987C0080318D0C750D007403780C60
:10336800121E9F8A828B831233D188828983E4F06C
:103378001233DEA3A3F0A3F00DEDC3950840D8EEF9
:10338800250AFEEF350BFF0C900354E0F8ECC398C8
:1033980050288C0C750D007402780C121E9F900238
:1033A800F51233D1E82402500109FAE9FB8A828B2D
:1033B80083EEF0A3EFF07D0080BFE5089002F7F000
:1033C800790080027913025098124780F922A3A34A
:1033D800123E85EA4B22A3124DF7A3A3A32274F44D
:1033E800121F227900EAA2E0501F7508977509821A
:1033F800780812213579107C047D007AD77B191260
:103408000C567402121EC8E9F980007F04021FF4EA
:10341800C082C0839002F8123EB0601C8882898303
:10342800A3A3E06A7003A3E06B8882898370E8A392
:10343800A3A3A3123E8180047A007B0002310974A1
:10344800F2121F2274FD121EB2EAFEEBFF851882EB
:10345800851983E4F0A3F07402121EFE7401F012C1
:103468003EAD7014120E1212194C9002FB123AC3A0
:10347800123EAD70030235D9123BC3EE2404F50A9F
:10348800E43FF50B850A82F583E024FE603C24FCCA
:10349800607424FE607E24FE700302352924FE70C9
:1034A8000302353624FE700302354324FE700302FE
:1034B800355024FE700302355D24FC700302357E0E
:1034C80024FE70030235960235D2120E129002FDC8
:1034D800EAF0A3EB1235E5120878E960030235D269
:1034E8009002FD12214C8E828F83A3A3A3A3A31263
:1034F8004E15850882850983123E81120C267402B6
:10350800121EC80235D2AC18AD19EEFAEFFB120C38
:10351800740235A1AC18AD19EEFAEFFB120C7A80E3
:1035280078AC18AD19EEFAEFFB120C80806BAC1872
:10353800AD19EEFAEFFB120C86805EAC18AD19EEF1
:10354800FAEFFB120C8C8051AC18AD19EEFAEFFBB8
:10355800120C9280447402121F08880C890D780C92
:103568001221357402121F18EEFAEFFB120C987430
:1035780002121EC88023AC18AD19EEFAEFFB120C2C
:103588009EE9F870167402121EFEE4F0803CAC1836
:10359800AD19EEFAEFFB120CA4E9F8E8602C8E8264
:1035A8008F83A3E064146022850A82850B83E090F0
:1035B80002FDF0851882851983123E819002FE1261
:1035C8003AC3E8A31235E5120872EEFAEFFB120BC4
:1035D800FC7402121EFEE0F97403025095F07CFDA3
:1035E8007D02850882850983123E852274E8121FB0
:1035F8002274FA121EB27404121EFEECF0A3EDF04F
:103608008A128B13EA2405F50EE43513F50FEA2424
:1036180002F510E43513F511851082F583123E8109
:103628001209688A0A8B0B7508007C037D007900F3
:103638007AFD7B02121898E50E2402F516E4350F80
:10364800F5177402121F08880C890D780C122135A1
:10365800850E82850F83A3A3A3A3E0F50C750D0047
:10366800780C122135E50E2405F50CE4350FF50D1F
:10367800780C122135851682851783124188120B22
:10368800607406121EC88A0C8B0DE50C450D70037C
:103698000238158020851882851983E088828983FD
:1036A800F00508851882851983A3E0C0E012385612
:1036B800D0E0F00508E50A24FBFAE50B34FFFBC36C
:1036C800E5089AE49B40030238157E007F008512C6
:1036D80082851383A3A3A3A3E0F5097809122139EE
:1036E800E4F514F51578141221357514FA751502D8
:1036F80078141221359002FB12214C7409121EFE17
:1037080012214CE50A24F9F9AC0CAD0D851082851F
:103718001183123E81120CCE7409121EC8E960038F
:103728000237B6850E82850F83A3A3A3A3A3A3A301
:10373800E0F89002FAE0687075E0F5148E157814D8
:10374800122135124E12850E82850F83A3A3A3A3DF
:10375800A3A3A3A3123E811218927402121EC8E9F1
:10376800604C9002FE123EB0703BE4F514781412DF
:1037780021357CFF7DFF7907851082851183123EF4
:1037880081120C387402121EC8123EB67017850ECC
:1037980082850F83124FAF7404121EFE12487012F6
:1037A80041B9023849850C82850D8312384CA81816
:1037B800A9198814891578141221357404121EFE6B
:1037C80012214C851682851783123AB9120B6C7434
:1037D80004121EC88A0C8B0DEE4F7003023692122B
:1037E8003856EE12386112416FEF123861F8A3E0D3
:1037F8003400F9E50C450D600302369D8882898303
:1038080074FFF0050812385674FFF00508E50860E3
:103818001A1313543F123AC9120884E96009900236
:10382800FE123E8112190479008016850E82850FDA
:1038380083124FAF7404121EFE1248701244D879D6
:103848000A024142A3A3A3A3E0FEA3E0FF22A80823
:103858009002FEE02812416F22F00508089002FE4F
:10386800E0282274E8121F2274FA121EB27402129F
:103878001EFE123AC37404121EFEECF0A3EDF0749F
:1038880002121EFEE02405124158E0F50CA3E0F5F3
:103898000D7402121EFEE02402F510A3E03400F5B8
:1038A80011851082F583123E81120968750800752A
:1038B8000900EA24FCFEEB34FFFF8008050CE50C48
:1038C8007002050DA808C3EE98EF94005003023A61
:1038D80075A818A919880E890F780E122135851434
:1038E80082851583A3A3A3A3124E19122135E514CB
:1038F8002405F50EE43515F50F780E1221358514DB
:1039080082851583123AB7120B607406121EC88A94
:103918000E8B0FEA450F7003023A75EA2404F51678
:10392800E4350FF517851682F583E0F50CA3E0F56D
:103938000D851882851983124E158A828B83A3A35D
:10394800A3E0F9851082851183123E81120B4EE99E
:10395800F5096003023A757402121EFE12417FF5E2
:10396800097809122139E4F512F513781212213574
:103978007512FA75130278121221359002FB122182
:103988004C7407121EFE12214CEEF9AC0EAD0F85D9
:103998001082851183123E81120CCE7409121EC842
:1039A800E9F5096003023A75E508703FE4F50EF59C
:1039B8000F780E1221357CFF7DFF790985108285ED
:1039C8001183123E81120C387402121EC81241A5CE
:1039D800700D7404121EFE123AAC7911023AA990C5
:1039E80002FAE024029002FEF080149002FEE0FA4F
:1039F8009002FAE0790024025001096A497072A81D
:103A0800089002FAE0FAE82AFAE43400FBEE9AEFAA
:103A18009B405A851682851783E0C0E09002FF120A
:103A2800385BD0E0F00508851682851783A3E0C0CF
:103A3800E0089002FF12385BD0E0F005089002FA27
:103A4800124E19122135124E12A80812414C1218A2
:103A5800807402121EC89002FAE02508F50874FF67
:103A6800650C700474FF650D60030238C4E50860D6
:103A78001F9002FEE0F5F0E50884123AC912088AA0
:103A8800E960099002FF123E811219047900801141
:103A9800E509700375090A7404121EFE123AACA9EE
:103AA800090241421242E7E50CF0A3E50DF022A31A
:103AB800A31250A4AA0CAB0D22A3A3EAF0A3EBF027
:103AC800229002FDF07CFD7D028510828511831213
:103AD8003E852274EC121F2274FC121EB21245E8B5
:103AE8007402121F18123E7B120B668A0C8B0DEAA9
:103AF800450D7003023BB3123BC3A818A9198810DF
:103B0800891178101221357CFF7DFF790B85088299
:103B1800850983123E81120C387402121EC8123CA9
:103B2800B9700C850A82850B831241B6023BC08EA0
:103B3800828F83A3A3A3A3E0F5127812122139E49C
:103B4800F512F51378121221357512FD75130278E6
:103B58001212213578101221357409121EFE122115
:103B68004C7409121EFEE0F9AC0CAD0D8508828577
:103B78000983123E81120CCE7409121EC8E9FE7028
:103B8800157CFD7D02850882850983123E81120815
:103B980090E97009802074166E70027E009002FE13
:103BA800123E81121904EE7004800B7E01850A8290
:103BB800850B831244D5EEF90244EAEE2402F50897
:103BC800E43FF5092274EC121F2274FC121EB2EABB
:103BD800FEEBFF8C0E8D0FEE2405F508E43FF5098A
:103BE8007402121F18850882850983123E81120B00
:103BF800668A0C8B0DEA450D7003023CA9EE24027F
:103C0800F50AE43FF50BA818A9198810891178104E
:103C18001221357CFF7DFF790D123E7B120C387422
:103C280002121EC8123CB9700B85088285098312DE
:103C380041B6807A8E828F83A3A3A3A3E0F512787E
:103C480012122139850882850983A3A312214C7594
:103C580012FD75130278121221357810122135746D
:103C680009121EFE12214C7409121EFEE0F9123EC2
:103C780077120CCE7409121EC8E9FE700F7CFD7D08
:103C880002123E7B120896E97009802074166E7045
:103C9800027E009002FE123E81121904EE7004802A
:103CA8000B7E018508828509831244D5EEF902440A
:103CB800EA123EC0F510A3E0F511EA45112274E8B6
:103CC800121F2274FE121EB28A168B178C148D15C1
:103CD800EA2405F50CE43517F50DEA2402F50EE49F
:103CE8003517F50F850E82F583123E811209688A11
:103CF800088B09750B007C037D0079007AFD7B0237
:103D0800121898750A00E50814F5100424FFF50840
:103D1800E50934FFF50980549002FDE0FA9002FAB3
:103D2800E0F8EA28F8E43400F9E50898E50999503C
:103D38000D9002FDE0F8E510C3989002FAF0E0F566
:103D4800127513007812122135124E129002FEE0FD
:103D58002AFAA3E03400FB1218807402121EC890DD
:103D680002FAE0F89002FDE028F0050A850C828549
:103D78000D83A3A312478C4003023E5C9002FDE032
:103D8800C39508E495094003023E5CAE0AEE2EFE98
:103D9800E433FF123E9BAC18AD19124E2DE439FBEB
:103DA800120B668A128B13AC12AD13EC4D701B7597
:103DB8000B01123E8B1244D99002FE1233D86003D5
:103DC800121904A90B7402024144851682851783CF
:103DD800A3A3A3A3E0F50B780B122139E4F512F5A0
:103DE8001378121221357512FA75130278121221FE
:103DF800359002FB12214C7407121EFE12214CA9A9
:103E080010850E82850F83123E81120CCE74091222
:103E18001EC8E9F50B709B9002FE123EB0600302CB
:103E28003D20E4F512F51378121221357CFF7DFF51
:103E3800790F850E82850F83123E81120C38740229
:103E4800121EC8123EB66003023D20123E8B12417C
:103E5800BA023DCD7CFD7D02850E82850F83123E20
:103E68008112089CE96003023DC07900023DCDAC97
:103E78000CAD0D850A82850B83123E8522E0FAA3DC
:103E8800E0FB22123E9BE0FAA3E0F9EA8514828562
:103E9800158322850C82850D83E02EF8A3E03FF977
:103EA80088828983229002FB124FB3E84922123E8E
:103EB800C0F8A3E0F9E849229002FEEAF0A3EBF08B
:103EC8009002FEE02274E8121F2274FA121EB274E5
:103ED80004121EFE123AC38C168D177404121EFEAD
:103EE800E02405F50EA3E03400F50F7404121EFE5D
:103EF800E02402124158123E811209688A0A8B0B8B
:103F08007F007E00A818A919880889097808122155
:103F180035850E82850F83A3A3A3A3E0F5088E0938
:103F28007808122135E50E2405F508E4350FF50962
:103F38007808122135850E82850F83A3A312418844
:103F4800120B607406121EC88A0C8B0D8029124150
:103F580079F00F124179F00F9002FA1244C412213D
:103F680035124E12EFF812414C1218807402121ECC
:103F7800C89002FAE02FFFE50C450D7003024008D7
:103F88008518828519831245FAA3A3A3E0F985143D
:103F980082851583123E81120B4EE9FEE50C24043E
:103FA800F510E4350DF511EE70507404121EFE1272
:103FB800417FF5087808122139E4F508F5097808F1
:103FC8001221357508FA7509027808122135900210
:103FD800FB12214C7407121EFE12214CE50A24FA2A
:103FE800F9AC0CAD0D851482851583123E81120C37
:103FF800CE7409121EC8E9FE60391241951244D8E0
:10400800EF700302412F9002FEE0F5F0EF8490027A
:10401800FDF07CFD7D02851482851583123E811298
:1040280008A2E960099002FF123E81121904790082
:104038000241428F08EF703BE4F512F51378121233
:1040480021357CFF7DFF7911851482851583123E09
:1040580081120C387402121EC81241A5700912414F
:10406800951241B90241429002FAE024049002FEFE
:10407800F080359002FAE0F89002FEE0FAE82404B5
:10408800FCE43400FDEC6A4D600302400EE50A24AE
:10409800FAFAE50B34FFFBE50828F8E43400F9EAFE
:1040A80098EB99500302400E851082851183E0C079
:1040B800E09002FFE02FF8A3E034008882F583D077
:1040C800E0F00F851082851183A3E0C0E0124166FD
:1040D800D0E0F00F7402121F0888088909780812C6
:1040E80021357402121EFE12214C850E82850F8323
:1040F800123AB7120B6C7404121EC88A0C8B0DEAA4
:10410800450D7003023F567402121EFEE0C0E01215
:104118004166D0E0F00F7402121EFEA3E0C0E01268
:104128004166D0E0023F5EEE70027E0A850E82850F
:104138000F8312419B1244D8EEF97406121EC87FF1
:1041480010021FF49002FFE028FAA3E03400FB22DB
:10415800F514A3E03400F515851482F58322124185
:104168006A229002FFE02FFAA3E034008A82F583E6
:104178002212416A74FF221242E7A3A3A3A3E022FA
:104188001250A4850E82850F83123E8522851082E7
:10419800851183124FB3851682851783229002FFFB
:1041A800EAF0A3EBF09002FF124FB3E84922124461
:1041B800DEE8F0A3E9F079112274EA121F2274FEF6
:1041C800121EB28A088B098C128D13EA2405FEE4AC
:1041D8003509FFAC18AD198E828F83123E81120B00
:1041E800668A0C8B0DEE2406F50EE43FF50FEA45C2
:1041F8000D70030242B9E5082402F50AE43509F511
:104208000B8A828B83A3A3A3E0A2E550288518829A
:10421800851983123E81120CC28A108B11EA45114E
:1042280060207912123E77851082851183121F2033
:10423800E9F50C707F850E82850F83E0600979525D
:104248008011750C0E806D850882850983A3A3A350
:10425800A3E0F9E4F508F50978081221358E828F74
:1042680083A3A3E0F50878081221358E828F83A3F3
:10427800A3A312214C8E828F83124E15123E7B12FD
:104288000CD47406121EC8E9F50C7011850E8285CF
:104298000F83E0702D123E7B1208A88025741665E6
:1042A8000C7011750C007418121EFE1242E3E480A3
:1042B80010750C01124FAB851282851383E8F0A3A9
:1042C800E9F0850E82850F83E0600479008002A9F9
:1042D8000C7402121EC87F0E021FF41242E722E07D
:1042E800F8A3E0F58388822274EC121F2274F71277
:1042F8001EB28A0A8B0B8C108D11EA2405FEE43558
:104308000BFF750C00AC18AD198E828F83123E819D
:10431800120B668A088B09EA450970030244AFE567
:104328000A2402F50A5002050B8A828B83A3A3A3F1
:10433800E0A2E5502F851882851983123E81120C60
:10434800C28A0C8B0DEA450D604F7912AC08AD0995
:10435800123E7B850C82850D83121F20E9F50C60C7
:10436800030244B2850A82850B83E0F508A3E0F5D1
:1043780009AA08FB120CB6EA4B70197AFF7BFF12E8
:104388000CB6EA4B70030244A58A828B83E508F0D9
:10439800A3E509F07508008008750C0E0244B20503
:1043A800089002F7E0F8E508C39840030244A585A1
:1043B800080E750F007403780E121E9F8A828B8375
:1043C800A3A3E0250EF8A3E0350F12487970D08E2C
:1043D800828F831244CD123AC38E828F83A3A31295
:1043E80044CD123AC1EE2404F508E43FF5098508E6
:1043F80082F583E088828983A3A3A3A3F0A3E4F0D2
:10440800EE2405F50EE43FF50F850E82F583124480
:10441800CDA3A3A3A3123AC175120775130078128E
:10442800122135EEFCEFFD7404121F10121880746F
:1044380002121EC8E4F51278121221358508828509
:104448000983E0FC7D007917123E7B120C38740258
:10445800121EC87407121EFE123AC37407121EFEFB
:10446800E0FA4B603D8508828509831244C4122115
:1044780035850E82850F83124E151218807402122C
:104488001EC87402121F18123E7B1208AEE960267D
:104498007407121EFE123E811219048019750C0948
:1044A8008008750C118003750C01124FAB851082C2
:1044B8008511831244D8A90C74098028E0F5087581
:1044C8000900780822123E8588828983221244DEF8
:1044D800E8F0A3E9F022E0F8A3E0F9850E82850F61
:1044E80083227404121EC87F0C021FF474EC121F7E
:1044F800221245E8751000EE2402F50CE43FF50D94
:10450800850C82F583123E81120CB68A088B09EA63
:10451800450970030245CC850A82850B83E0640156
:1045280060030245C1AC08AD09AA0AAB0B120CAA7C
:10453800E9606E85088285098312384EEE2406F5F7
:104548000AE43FF50B8E828F83A3A312214C8E823F
:104558008F83A3A3A3A312214C850A82850B831200
:10456800214C79188E828F831245FA123E81120CE3
:10457800D47406121EC8E9F8741668700B850A828E
:10458800850B83E4F0A38014E860128E828F831277
:104598003E81850E82850F83EAF0A3EBF0881080B8
:1045A80018780E122135AC08AD09EEFAEFFB120CA3
:1045B800B07402121EC8E9F510AA08AB09120CBCA7
:1045C800E510700E850C82850D83123E811208B4A9
:1045D8008009741665107003751000A9100244EF65
:1045E800EAFEEBFF8C0E8D0FEE2405F50AE43FF58D
:1045F8000B221250A4850C82850D832274EA121FA7
:10460800227508007509007E007F00750A00EC24F9
:1046180002F510E43DF5118035EC65087003ED6591
:104628000960030246B988828983A3A3E06A7003FC
:10463800A3E06B707C88828983A3A3A3A3124FAFE6
:10464800EE28FEEF39FFEA28FAEB39FB050A124794
:1046580089503A850A0C750D007403780C121E9F58
:1046680085108285118312477C124879601FE508FE
:10467800450970A58C088D098882898312384C8871
:10468800828983A3A3E02EFAA3E03F80BEE50AC394
:1046980094025003024777750800750900EE4F60D1
:1046A80010EEFAEFFB1218FE8A0E8B0FEA450F7018
:1046B800057900024779750B0002474C850B0C758C
:1046C8000D007403780C121E9F851082851183E0FB
:1046D800250CF50CA3E0350DF50DE50C2406F514B5
:1046E800E4350DF515851482F58312487E6042E5A0
:1046F8000C2404F512E4350DF513851282F58312A6
:10470800214CE50E2508FAE50F3509FB12188074CF
:1047180002121EC8851282851383E02508F508A3B6
:10472800E03509F509851482851583123E81121931
:1047380004E50B600D7C087D007900AA0CAB0D1216
:104748001898050BE50BC3950A50030246C485105B
:1047580082851183124FAF88828983A3A3A3A3A361
:10476800A3E50EF0A3E50F1233DFEEF0A3EFF07927
:10477800010242DE12478022E0250CF8A3E0350D45
:10478800229002F7E0F8E50AC3982274F0121F227B
:104798008A0E8B0F8C0A8D0B750D00750C008050DE
:1047A8007916EE2406F508E43FF5098E828F83A377
:1047B800A312214C8E828F83A3A3A3A312214C851D
:1047C800088285098312214C850E82850F83A3A355
:1047D800123E81120CD47406121EC8E9F50D741627
:1047E800650D706C850882850983E4F0A3F0050CDB
:1047F8009002F7E0F8E50CC3985066AA0C8A087591
:10480800090074037808121E9F850A82850B83A30A
:10481800A31248C8E8FEE9FF8E828F8312487E60A3
:1048280040EA2401F508E43400F5099002F7E06550
:10483800087002E509601488828983A3A3A3A3A34F
:10484800A3A3A3123EB060030247A879180247AA9F
:10485800E9609B124FAB7410121EFE12487012448E
:10486800D8A90D7F08021FF4E0FAA3E0F5838A8235
:1048780022F9888289831250A4EC4D2274F6121F03
:10488800227C0080010C900354E0F8ECC398501E81
:104898008C0875090074027808121E9F1248BDE042
:1048A8006A7003A3E06B70DDE8FAE9FB80047A0024
:1048B8007B000249609002F51248C88882898322E9
:1048C800E02508F8A3E03509F92274F2121F228ABC
:1048D800088B09750A0080278E828F83A3A3A3A360
:1048E8001233D660031219047C087D007900EEFAB1
:1048F800EFFB1218988E828F83E4F0A3F0050A125A
:1049080047895027850A0C750D007403780C121E10
:104918009F850882850983A3A3E0250CFEA3E035C3
:104928000DFF8E828F83123EB070AD850882850997
:104938008374FFF0A3F002509874F6121F22120C31
:10494800688A828B83E582458370067A007B0080C3
:1049580007A3A3A3A3123E817F02021FF474F412DB
:104968001F2289088C828D83E06402703C124F4EAE
:10497800FEA3E0F9EEF874026870037429697029DF
:10498800750A02750B00780A1221357410121EFE82
:1049980012214C7410121EFE12214CA90812161670
:1049A8007406121EC8E9F98002790102341374E80A
:1049B800121F2274FB121EB2E9851882851983F032
:1049C8008A168B17ECFEEDFF7510008E828F83A37D
:1049D800A3A3E0A2E4502D741D121EFE123E811204
:1049E8000CC28A828B83E58245837003024DED7980
:1049F8000AEEFCEFFDAA16AB17121F20E9F51060AE
:104A080003024DF0741F121EFEE0F508A3E0F5093D
:104A18007421121EFEE0F50AA3E0F50B7423121EA2
:104A2800FEE0F50EA3E0F50F8E828F83E06402604E
:104A380003024D8EA3124FAF850882850983A38593
:104A48008212858313EE2406F50CE43FF50D888267
:104A58008983124E2DF514E439F51578141221BF07
:104A6800010000280128904A07000228554B032816
:104A7800C34A0029844C0129AF4C0229504C032910
:104A8800844C0429284D8E4DE50E450F6003024DD8
:104A980089850C82850D83124FAFE8FAE9FB8A827B
:104AA8008B83E0850A82850B83124E381221358A62
:104AB800828B83A3E0FCA3E0024D12E50E450F6054
:104AC80003024D89850A82850B837401F0124E22F8
:104AD800850882850983F07C007D008E828F83A300
:104AE800A3A3A3E02401FAA3E03400FB120B66EAB7
:104AF8004B60408A828B83E02402F8850A82850B0A
:104B080083E028F0EA2404F8E43BF988828983E00A
:104B1800851282851383124E46124E381221358A29
:104B2800828B83A3124E15E5082403FAE43509FBAA
:104B3800024D17850A82850B83E02404F07C047DEE
:104B4800007900AA12AB13121898024DF0E50E4531
:104B58000F6003024D89124E22FEA3E0FF850A82F0
:104B6800850B837404F0EE850882850983F0EF8550
:104B78001282851383F07403121F18EEFAEFFB12EA
:104B88000B668A0C8B0DEA450D7003024C338A8242
:104B98008B83A3A312384C7401121F08880E890F47
:104BA800780E1221357405121EFE12214C7CFF7DF1
:104BB800FF120B6C7404121EC88B0FEA450F70337A
:104BC800850C82850D83124E19122135850C82853C
:104BD8000D83A312214C7C027D007ACC7B831209C1
:104BE800567404121EC8E9700A7401121EFE74FF7E
:104BF800F0A3F08E828F83E064027039750C027521
:104C08000D00780C1221358E828F83A3124E15E584
:104C1800082404FAE43509FB1218807402121EC82D
:104C2800850A82850B83E0240280097401121EFE26
:104C3800EEF0A3EFF07401121EFE124E077401127B
:104C48001EFE124DFE024D83E50E450F6003024D18
:104C580089850C82850D8312509DAA16AB171216F2
:104C68001C850A82850B837402F085088285098376
:104C7800EAF0851282851383EB024D86E50E450F17
:104C88006003024D89124E22F8A3E0F9850A828555
:104C98000B837402F0E8850882850983F0E98512A0
:104CA80082851383024D86850C82850D83123E8191
:104CB80012187AEAFAF8C3950EE4950F405CE86595
:104CC8000E450F70047A008021851882851983E0CB
:104CD800FCE50E2CFCE4350FFDC3EC98ED94005078
:104CE80003E08005E50ECAC39AFAEA850A82850BB5
:104CF80083F08A0A750B00780A122135850C8285A3
:104D08000D83E0250EFCA3E0350FFDAA08AB0912C0
:104D180018807402121EC8024DF0751007024DF07B
:104D2800E50E450F705B850C82850D83124FAF85AC
:104D38000A82850B837407F088828983124DFF12DB
:104D48004DF7E0851282851383F0E82402FAE439EE
:104D5800FB8A828B83124E078A828B83124DFEA3B5
:104D6800A31233DE124E0CF0E82405F8500109882E
:104D7800828983124E0CA3124E46A3A3A3A3F080EC
:104D88006775100B8062741D121EFE123E81120C94
:104D9800688A828B83E5824583604A124FAF880C0C
:104DA800890DE8450D603E7425121EFEE0F5107869
:104DB80010122139780E122135780A122135780817
:104DC8001221357407121EFEE0F9EEFCEFFDAA165B
:104DD800AB17850C82850D83121F207407121EC81D
:104DE800E9F510800375100EA9107405024144F00E
:104DF80088828983A322A3E08508828509832212F9
:104E08004E4DF022124E4DA3A3229002FB1250A445
:104E180022E0F50E750F00780E22850C82850D8331
:104E28001242E7E022E0FAA3E0F8E4C8F9EA28220F
:104E3800F08A828B83E0F50A750B00780A22124DFE
:104E4800F7124E4D22E0850882850983A3A32274B8
:104E5800EE121F2274FE121EB28A088B09ECFEEDB8
:104E6800FF890AAC18AD19EEFAEFFB120B668A0C33
:104E78008B0DEA450D7003024F3F85188285198313
:104E8800123E81120C688A828B83E5824583700307
:104E9800024F3AA3A3124FAF880E890FE8450F704F
:104EA80003024F3A7414121EFEE0F510A3E0F51148
:104EB800E50AF50B780B1221397419121EFE12211E
:104EC8004C7810122135741B121EFEE0F9AC0CADA3
:104ED8000DAA08AB09850E82850F83121F20740561
:104EE800121EC8E9F50B705274FE650A604C850CF9
:104EF80082850D83E064027041124F4EFAA3E0F9F7
:104F0800EAF87402687003742969702E8510828526
:104F18001183124E2DF50CE439F50D780C1221355C
:104F2800EEFCEFFDAA08AB09120CEC7402121EC8C5
:104F38008008750B0E8003750B01A90B7402121EF5
:104F4800C87F0A021FF4A3124FB388828983E02224
:104F580074F6121F2274FE121EB2740C121EFE1278
:104F68004FAFE8851882851983F07401121EFEE997
:104F7800F0E4F508F5097808122135750802780873
:104F88001221357404121F0888088909780812212B
:104F98003579FE120CD47406121EC87402121EC88B
:104FA8000249608E828F83124FB322E0F8A3E0F9A2
:104FB8002274F7121F22EAFEEBFF890890031212EF
:104FC8004E1512161CEA5402600BA908EEFAEFFB04
:104FD800120B5A800279017F01021FF474F2121F2A
:104FE8002274FE121EB2EAFEEBFF890A7401650AFA
:104FF80060147402650A60030250937901120EF678
:10500800E96003025093EEFAEFFB120CB6EA4B602C
:1050180003120CBCA818A919880889097808122154
:105028003575080275090078081221357508C675A6
:10503800098378081221357CFF7DFF7A017B0012F5
:105048000B607406121EC88038850882850983A300
:10505800A3A3A3A3A312509DEEFAEFFB121604E438
:10506800F50CF50D780C1221357402121EFE122172
:105078004C7CFF7DFFAA08AB09120B6C7404121E4E
:10508800C88A088B09E508450970BE7402121EC853
:105098007F06021FF41242E71250A422E0FCA3E0AC
:1050A800FD2274F4121F228A088B09ECFEEDFF9092
:1050B80019D5E0F4604B7A097B001218A4EA4B601A
:1050C800408A828B8374B1F0A3E412510CF08A8277
:1050D8008B83A3A3E508F0A3E50912510CA3EEF016
:1050E800A3EFF0740C121EFE124FAF8A828B83A3BB
:1050F800A3A3A3A3A3A31244D89019D5E0F9121827
:10510800B0023413F08A828B83A3A3A3A32274EE84
:10511800121F2274FA121EB28A0A8B0BE9FF8C083E
:105128008D097E00850A0C850B0D780C12217900FB
:105138000410F2535E518151A051C351E6510952F6
:105148003A525D527452A452535376539953C753EB
:10515800F253F253CD5274016F7019850882850994
:1051680083E0C39403500D850882850983E0901B72
:1051780016F080027E1802541A74026F70158508A2
:1051880082850983E0F8A3E0F9901B17E8F0A3E90A
:10519800F080027E1802541A74016F701985088213
:1051A800850983E0C39402500D850882850983E050
:1051B800900760F080027E1802541A74016F70190B
:1051C800850882850983E0C39405500D850882858A
:1051D8000983E0900761F080027E1802541A740176
:1051E8006F7019850882850983E0C39402500D8584
:1051F8000882850983E0900762F080027E180254D5
:105208001A74106F7027750C10750D00780C122128
:1052180035AC08AD097A637B071218807402121E38
:10522800C88A0C8B0D850C82850D8380027E18023E
:10523800541A74016F7019850882850983E0C39434
:1052480002500D850882850983E0900773F080027B
:105258007E1802541A74016F700D850882850983BF
:10526800E0901B1AF080027E1802541A74046F70C2
:1052780026908314780C121D6A8508828509837824
:105288000C121B8D5011850882850983121DA09070
:105298000775121DAC80027E1802541AEF70211295
:1052A8000AEEE9701312159EE9F50D79501219D618
:1052B800E9F50C12158C800A9008087401F0800238
:1052C8007E1802541A74076F707C750E06750F00ED
:1052D800780E122135850882850983A3AC82AD83B7
:1052E8007402121F101218867402121EC88A108BBC
:1052F8001185100E85110F7C007D00AA18AB198549
:105308000882850983E0F9121532E9F50CE50CC32A
:10531800940A502E120AEEE97015A90C1215A4E988
:10532800F50E79501219D6E9F50D12158C8019A8C9
:105338000C7900740928F582740839F5837401F032
:1053480080067E0280027E1802541A74016F70195A
:10535800850882850983E0C39402500D85088285FB
:105368000983E0900774F080027E1802541A7401D1
:105378006F7019850882850983E0C3940A500D85EA
:105388000882850983E0901B19F080027E18025478
:105398001A74016F7025850882850983E0C3940714
:1053A8004019850882850983E0C39411500D85084A
:1053B80082850983E0901B1BF080577E1880537408
:1053C800016F7022900807E0F50C85088285098333
:1053D800E0900807F0E50C7039900807E064017068
:1053E8003112158C802C7E188028C3E50A9427E595
:1053F8000B9400501B74026F701685088285098310
:10540800E0FCA3E0FDAA0AAB0B12096EE9FE8002DC
:105418007E02EEF97406121EC87F0A021FF474ECAD
:10542800121F2274DA121EB2890D8A128B138C0A8B
:105438008D0B743A121EFEE0F50C9082CDAC18ADBF
:10544800197406121DC5AC18AD19AA12AB13A90D13
:10545800121532E9FEEEC3940A400302559AEEF99A
:1054680012156EE9FF901B16E06402700474018047
:10547800027400F5087808122139AD0CEFFCEEF93A
:10548800AA0AAB0B1215EC7401121EC87C147D001D
:1054980079007412121F101218988A0E8B0F850E3D
:1054A80008850F097412121F187A1075F006EEA4F9
:1054B8002424F91219D0E9703C7C1079FF74121277
:1054C8001F101218F8E9702D7422121EFEAC82AD5E
:1054D800837A0475F006EEA42425F91219D0E9F5AB
:1054E800087412121F18EFA2E0E433F9AA0AAB0BF2
:1054F8001209F8E9F87406121F187A0C74702EF95C
:105508001219D0E970797406121F10121562750EFF
:1055180000E50EC394045067A80E7900E875F003FF
:10552800A4C8AAF075F000A42AFA75F003E9A42A21
:10553800F97406121EFEE58228F508E58339F50997
:10554800850882850983E0F8A3E0F9E849602C859D
:105558000882850983A3A3E0F5107511007810125D
:105568002135850882850983E0FCA3E0FDAA0AAB02
:105578000B120CDA7402121EC8E9F8050E8092EFBD
:10558800A2E1500E90075FE0F9AA0AAB0B120CE0FB
:10559800E9F87404650C700F901B16E0640270073C
:1055A800AA0AAB0B1215DA79007426121EC87F0CF2
:1055B800021FF474F7121F22EAFEEBFF120AEEE94B
:1055C8007067900808E06401701B12159EE9F508E1
:1055D8009008087400F07C0A7D0079007A097B083D
:1055E8001218988039750800E508C3940A502FA846
:1055F800087900740928F582740839F583E0640194
:105608007018A9081215A4E9FAA8087900740928DD
:10561800F582740839F5837400F0050880CA79505A
:105628001219D6E9F50812158C7F01021FF474F2DD
:10563800121F22890BEAFEEBFF8C088D09750A0AF6
:10564800E50B600C1460091460441460640256DBB6
:10565800EEFAEFFB121580E9F50AE50AC3940A5041
:1056680072E5084509606C750C06750D00780C121A
:105678002135EEFCEFFDAA08AB091218807402125E
:105688001EC88A0C8B0D850C82850D838045EEFA29
:10569800EFFB12157AE9F50AE50AC3940A5034E5D6
:1056A800084509602EAA08AB09A90A121574E980F1
:1056B80022EEFAEFFB121586E9F50AE50AC3940A09
:1056C8005011E5084509600BAA08AB09A90A12158B
:1056D80074E9F8A90A7F06021FF474F2121F228ADD
:1056E8000C8B0DE9FF7E1574FF650C700474FF6563
:1056F8000D702A750800E508C3940A5014EFFC7A67
:10570800027B00A908121550E960027E0005088096
:10571800E5EF60627AC87B15120F1A8059AA0CABA4
:105728000D120EEA8A0A8B0B850A08850B09E50813
:10573800450960407C007D00E5082405FAE4350948
:10574800FB850882850983A3A3A3A3E0F912153278
:10575800E9F50AE50AC3940A500EEFFC7A027B00C9
:10576800A90A121550E97E00EF600BAA08AB0912CE
:1057780015C880027E14EEF97F06021FF474EE123B
:105788001F228A0E8B0F8C0A8D0B7412121EFEE0DC
:10579800F50CA3E0F50D75081574FF650E7004741B
:1057A800FF650F701E7E00EEC3940A5061AC0CAD0D
:1057B8000DAA0AAB0BEEF9121556E960037508003D
:1057C8000E80E4AA0EAB0F120EEA8A108B11AE10EF
:1057D800AF11EE4F60357C007D00EE2405FAE43F02
:1057E800FB8E828F83A3A3A3A3E0F9121532E9F5F8
:1057F80009E509C3940A5016AC0CAD0DAA0AAB0B07
:10580800A909121556E97508008003750814A90836
:105818007F0A021FF474F7121F22EAFEEBFF9007BB
:1058280079EEF0A3EFF090075FE0FC7D007A267B2D
:105838000012096EE9F50890075FE0F9120C447F41
:1058480001021FF474F0121F2274EC121EB28A0CAB
:105858008B0D850C82850D83A3A3E024FA700302C7
:105868005CC524FD7003025B3A14700302593C14B2
:10587800601024FD7003025AE2147003025B79027F
:105888005CD8AE0CAF0D900779E0F8A3E0F9E849D1
:105898006066900779E0F8A3E0F5838882E0F8A3D2
:1058A800E0F9E8496052EE240CF582E43FF583E024
:1058B800F5087808122139EE240BF582E43FF583C8
:1058C800E0F98E828F83A3A3A3A3A3A3A3A3A3E03A
:1058D800FCA3E0FDEE2403FAE43FFB900779E0F82F
:1058E800A3E0F5838882E0F8A3E0F5838882121F9D
:1058F800207401121EC880398E828F83A3A3A3A3AC
:10590800A3A3A3A3A312214C900775121D88120A02
:105918000A7402121EC8E9601879018E828F83A367
:10592800A3A3A3A3A3A3A3A3E0FAA3E0FB120A04DF
:10593800E9025CD8AE0CAF0D7508008E828F83A388
:10594800E06003025A648E828F83A3A3A3A3A3E01B
:10595800A2E04003025A64900813E0F8A3E0F9E8D3
:10596800496003025A647C0E7D007900AA18AB19BD
:105978001218988A0A8B0BAA0AAB0BEE240CF58234
:10598800E43FF583E0F8A3E0F9E8496036750A06D4
:10599800750B00780A122135EE240CF582E43FF5E8
:1059A80083E02410FCA3E03400FD7402121F1012DF
:1059B80018807402121EC88A0A8B0B850A82850B0E
:1059C80083804F8E828F83A3A3A3E0FAA3E0FB1208
:1059D8000EEA8A0E8B0F850E0A850F0BE50A450B1A
:1059E800602D750E06750F00780E122135E50A2414
:1059F80005FCE4350BFD7402121F101218807402A6
:105A0800121EC88A0E8B0F850E82850F83800302B3
:105A18005CD88E828F83A3A3A3A3A3E0A2E2500441
:105A2800D2F08002C2F0A2F0E433F87900740C12CC
:105A38001EFEE048F0A3E049F0EEFCEFFDAA18AB2B
:105A480019121568E970127A027B0090075FE0F975
:105A58001218D4E97900025CDA750815900779E024
:105A6800F8A3E0F9E849606F900779E0F8A3E0F55A
:105A7800838882A3A3E0F8A3E0F9E84960598E82FD
:105A88008F83A3E0FC79018E828F83A3A3A3E0FA1E
:105A9800A3E0FB900779E0F8A3E0F5838882A3A34D
:105AA800E0F8A3E0F5838882121F20E5086028AC9F
:105AB8000879038E828F83A3A3A3E0FAA3E0FB9067
:105AC8000779E0F8A3E0F5838882A3A3E0F8A3E0D0
:105AD800F5838882121F20025CD8AE0CAF0D9007A8
:105AE80079E0F8A3E0F9E8496045900779E0F8A380
:105AF800E0F5838882A3A3E0F8A3E0F9E849602FE2
:105B0800850C82850D83A3E0FC79028E828F83A3A6
:105B1800A3A3E0FAA3E0FB900779E0F8A3E0F583FC
:105B28008882A3A3E0F8A3E0F5838882121F2002ED
:105B38005CD8AE0CAF0D7C007D00EE2404FAE43F87
:105B4800FB8E828F83A3A3A3E0F9121532E9F5082F
:105B5800E508C3940A5017EE240AFCE43FFD7A04D2
:105B680075F006E508A42425F91219CAE9F8025CBB
:105B7800D8AE0CAF0D900774E06019901B19E0F9CE
:105B88008E828F83A3A3A3E0FAA3E0FB120A04E9A1
:105B9800F8025CD8901B16E0701679058E828F8308
:105BA800A3A3A3E0FAA3E0FB120A04E9F8025CD875
:105BB8008E828F83A3A3A3E0FAA3E0FB120EEA8AE6
:105BC8000A8B0B850A08850B09E50845097003024D
:105BD8005CD88E828F83A3A3A3A3A3A3A3E0A2E090
:105BE800506D850882850983A3A3A3A3E060608E16
:105BF800828F83A3A3A3A3A3A3A3A3A3E0F50AA3CC
:105C0800E0F50B7409780A121E90E50A5401F8E5CC
:105C18000B5400F9E8A2E04036740E121F18E5088C
:105C28002405FAE43509FB850882850983A3A3A323
:105C3800A3E0F9121532E9701679038E828F83A3D7
:105C4800A3A3E0FAA3E0FB120A04E9F8025CD8EE89
