:020000040000FA
:1000000002071C020833FFFFFFFFFF02083BFFFF50
:10001000FFFFFFC2AFF508C1F9FFFF02084BFFFF6A
:10002000FFFFFF020853FFFFFFFFFF02085BFFFF18
:10003000FFFFFF020863FFFFFFFFFF02086BFFFFE8
:10004000FFFFFF020873FFFFFFFFFF02087BFFFFB8
:10005000FFFFFF020883FFFFFFFFFF02088BFFFF88
:10006000FFFFFF020893FFFFFFFFFF02089BFFFF58
:10007000FFFFFF0208A3FFFFFFFFFF0208ABFFFF28
:10008000FFFFFF0208B3FFFFFFFFFF0208BBFFFFF8
:10009000FF02009F0000003C0805050200003EC072
:1000A000E0C0D0E8C0E0E9C0E0EAC0E0EBC0E0C0FA
:1000B00082C083C28B90018274D0F0A37407F0E5F4
:1000C000C1C0E0900180E0F874AD28F582E434010D
:1000D000F583D0E0F0900180E004F09001B4E024DA
:1000E00006FAE43400FB900180E06A4B7010E09463
:1000F00008400B9001817401F0900180E4F0D083FE
:10010000D082D0E0FBD0E0FAD0E0F9D0E0F8D0D057
:10011000D0E03274F31205B874801206D0750A006C
:10012000750B007E007F00750D01750C10750E803B
:10013000750F00780E12070B7402120751AA0AAB52
:100140000BA90D1204B574021206B5A821A92288C4
:100150000E890FAA0EAB0FEFF9E4C9F8EEFFE8FC29
:100160008A828B83E0F8EC68FEC4540F6EFE8E0E1C
:100170008F0F740C780E1206E6E50F6FFFEEF50E8A
:10018000890F7405780E1206E6E50E6EFEE50F6F18
:10019000FFA3AA82AB837480120747E5826A7003CB
:1001A000E5836B70B2E50A2480F50AE4350BF50BA4
:1001B000150CE50C600302012D890A890B050DE57C
:1001C0000DC3947B500302012AEEFAEFFB748012F8
:1001D00006B57F0602061EC082C083900187743C6C
:1001E000F0A37412F0A37401F0A3F0A37440F0A381
:1001F0007408F0A37402F0A3F090780EE090018FE1
:10020000F090780FE0900190F0907810E0900191DC
:10021000F0907811E0900192F0907812E0900193C4
:10022000F0907813E0900194F0A3E4F090019874BA
:100230003EF0D083D0822253C6B8E59EA2E640FAB3
:10024000750A02750B00780A12070B7C9E7D017AF5
:10025000007B00797B1204B574021206B5750901A2
:100260001201D775F30C75C2D8E5C554E0440BF5FF
:10027000C543868075C40253C5DFC28B438640D216
:10028000AAD2AF7402F5D575D4435386FD75828426
:10029000758301E0F5C1E586A2E150FA5386FDA31E
:1002A000E58264997004E583640170E7900181E060
:1002B00070030204899001B5E01470030204621413
:1002C0006009147003020392020484A3E070030225
:1002D000035AA3E090019EF09001B8E090019FF0D6
:1002E0001201139001A0EAF0A3EBF09001A0E0F856
:1002F000A3E0F990019EE0687003A3E069705B7968
:100300007B1205A1906270E0A2E740F890019E7414
:1003100013F0A37420F0750A01780A12070B7C9E73
:100320007D017A007BF612053B74021206B55386F6
:10033000FD7582A2758301E0F5C1E586A2E150FA60
:100340005386FDA3E58264AD7004E583640170E724
:10035000C2AF75C9AB75C95B80FE900199E4F0909E
:10036000019AF0A3F090019CF0A3F05386FD7582F2
:10037000A2758301E0F5C1E586A2E150FA5386FD3E
:10038000A3E58264AD7004E5836401700302048414
:1003900080E290019AE0F8A3E0F9E849701A900130
:1003A00099E0C3947B4003747AF0E004F91205A14C
:1003B000906270E0A2E740F890019AE0F50AA3E0AD
:1003C000F50B7402780A12072B900199E02401F5CD
:1003D0000CE43400F50D7409780C1206E6E50A24E5
:1003E00000F8E50B350DF990019CE8F0A3E9F075F4
:1003F0000A20750B00780A12070B7CB67D0190016C
:100400009CE0FAA3E0FB12053B74021206B59001D2
:100410009AE02480F0A3E03400F0900199E0049089
:1004200001AAF05386FD7582A2758301E0F5C1E54E
:1004300086A2E150FA5386FDA3E58264AD7004E51F
:1004400083640170E79001AAE4F0C390019BE094FB
:1004500008403190019AE4F0A3F0900199E004F093
:1004600080225386FD758284758301E0F5C1E5869F
:10047000A2E150FA5386FDA3E58264997004E583F6
:10048000640170E7900181E4F0900182E0F8A3E05C
:10049000F9E84970030202AC900182E024FFF018F1
:1004A000A3E034FFF0F9E84960030202AC90018058
:1004B000E4F00202AC74F61205B8890C740F550C06
:1004C000F50A750B00740B780A1206E6EA2400F8A8
:1004D000EB3480F9E82400E9350BF985C70BA2AFAE
:1004E000E433F50AC2AFE50CC4540FFAE5C754F87B
:1004F0004AF5C7740A120747E0FEA3E0FFEE4F601B
:100500002CEEFAEFFB88828983E08C828D83F08861
:10051000828983A3A882A9838C828D83A3AC82ADB8
:1005200083EA24FF1AEB34FFFBEA4B70D8850BC734
:10053000E50AA2E092AF7F0302061E74F71205B827
:10054000ED900243F0ECA3F0A37462F0A37473F097
:10055000A3E0541FF07409120747E0F50AA3E0F581
:100560000BE50A333354FC900248F07406780A1203
:10057000072BE50A900247F09002497412F0A37429
:1005800042F053D1FE75D601EA906271F0EBA3F010
:10059000906270E0D2E1F0E0A2E740FB7F02020649
:1005A0001EC082C083E9C333906272F0906270E033
:1005B000D2E0F0D083D082222521C582C0E0E5229E
:1005C00034FFC583C0E0E521C3958224F910AF084C
:1005D0008583228582218008858322858221D2AF6E
:1005E000CEF0A3E520F0A3780AE608F0A3DEFAEF48
:1005F000F0A3E58124FBF8E608F0A3E608F0A308E1
:1006000008E608F0A3E608F0A315811581D0E0FE06
:10061000D0E0F815811581E8C0E0EEC0E022852227
:1006200083852182E0A3FEE0A3F520780AE0A3F60B
:1006300008DFFAE0A3FFE0A3C0E0E0A3C0E0E0A38E
:10064000C0E0E0A3C0E010AF08858221858322804E
:1006500008858221858322D2AFD083D08222E49084
:100660000180782379018002F0A3D8FCD9FA7AA21C
:100670007B01900094780C79018015E493A3AD82FE
:10068000AE838A828B83F0A3AA82AB838D828E8312
:10069000D8E9D9E71202371207592521F58210AFA0
:1006A00008F521400C15228008F52140021522D2C0
:1006B000AF8522832200C0D0252110AF08F521503C
:1006C0000C05228008F52150020522D2AFD0D0229D
:1006D000252110AF08F521400C15228008F5214096
:1006E000021522D2AF22700422600D18C6C333C691
:1006F00008C633C6D5E0F41822E5096007E508D23C
:10070000AF020091E508D2AF02084374028000C036
:10071000E0F40412069AD0E012073A2275D0007570
:10072000813F75218075220102065E600C08C6C3F8
:1007300013C618C613C6D5E0F422CAC0E0E6F0A37B
:1007400008DAFAD0E0FA222521F582E43522F58391
:10075000222521FCE43522FD2200000080FBFFFF62
:10076000FFFFFFFFFFFFFFFFFFFFFFFFFFFFFFFF99
:10077000FFFFFFFFFFFFFFFFFFFFFFFFFFFFFFFF89
:10078000FFFFFFFFFFFFFFFFFFFFFFFFFFFFFFFF79
:10079000FFFFFFFFFFFFFFFFFFFFFFFFFFFFFFFF69
:1007A000FFFFFFFFFFFFFFFFFFFFFFFFFFFFFFFF59
:1007B000FFFFFFFFFFFFFFFFFFFFFFFFFFFFFFFF49
:1007C000FFFFFFFFFFFFFFFFFFFFFFFFFFFFFFFF39
:1007D000FFFFFFFFFFFFFFFFFFFFFFFFFFFFFFFF29
:1007E000FFFFFFFFFFFFFFFFFFFFFFFFFFFFFFFF19
:1007F000FFFFFFFFFFFFFFFFFFFFFFFFFFFFFFFF09
:040000050000071CD4
:00000001FF
