:10000000E83F00203DB301006DB40100E1A601000E
:1000100071B4010075B4010079B401000000000062
:1000200000000000000000000000000049F900008E
:100030007DB4010000000000E5F800007FF700003B
:10004000F964000025A8010081B4010085B4010015
:1000500089B4010005A801008DB4010091B401002C
:1000600095B401002D2D01003F2D01007FA8010056
:1000700099B40100CBA801009DB40100A1B4010016
:10008000A5B40100A3280100A9B40100ADB401008A
:10009000B1B40100B5B40100B9B40100BDB40100B0
:1000A0004B050000C1B4010007A80100C5B4010060
:1000B000C9B40100CDB401002D090100CFBD00007D
:1000C000D1B40100D5B40100D9B40100DDB4010000
:1000D000E1B40100E5B40100E9B40100EDB40100B0
:1000E000012110F01F029140DFF80C2640B24309B5
:1000F00042F82310704710B440B2002809D54A01D5
:10010000DFF8F83540B210F00F04E31803F8042CC0
:1001100004E04A01DFF8E83540B2C25410BC704731
:10012000DFF8E01508607047DFF8DC25C0B2242353
:1001300003FB0020C0690200CA4012F001007047B2
:1001400010B401228A40DFF8C035C0B2242404FB79
:1001500000335A6110BC704710B401228A40DFF8A6
:10016000A835C0B2242404FB00331A6110BC7047C8
:1001700010B401228A40DFF89035C0B2242404FB79
:1001800000339A6110BC704772B6DFF880050068D2
:1001900010F1010F06D0DFF874050068401CDFF88D
:1001A0006C150860DFF8640500687047DFF85C05CF
:1001B000006800280FD0DFF854050068401EDFF803
:1001C0004C251060DFF8440500680100002900D1CB
:1001D00062B6080000E000207047DFF834050068D0
:1001E00030F00400DFF82815086030BF7047416325
:1001F0007047826B0A4382637047C06A704738B5A4
:1002000004002500012D03D1042004F0EEFF0FE0CF
:10021000022D0DD1DFF8FC040078002808D0002062
:10022000DFF8F01408700120DFF8EC1481F87A0090
:1002300031BD2DE9F84304000D0000265FF0FF37C3
:100240000020A84212DA015D0E00F6B2002E0DD099
:10025000F6B2802E02DB2021015505E0F6B2202EF9
:1002600002D0002F00D50700401CEAE7002F07D579
:100270005FF0000842462900200005F075F80AE00A
:10028000012F08DBB5EB070817EB04094246494686
:10029000200005F0ADF8BDE8F18380B500F01EF850
:1002A00004F028FBDFF8740490F87400002802D1F1
:1002B00004F0DFFB11E0DFF868040078401CDFF891
:1002C00060140870DFF858040078032805DB00206C
:1002D000DFF84C14087004F0CCFB01BD10B500240D
:1002E000DFF840040078012815D1DFF83C040078DD
:1002F00000286FD0DFF830040078401EDFF82814A3
:100300000870DFF824040078002863D1142101204C
:1003100004F094F95EE0DFF80C040078022859D16B
:10032000FFF732FFDFF8040400880B2801DB01200F
:1003300004000020DFF8F4130880FFF737FFE4B271
:10034000002C1FD0DFF8E8030078401CDFF8E01332
:100350000870DFF8DC0300780B283BDB0020DFF8B7
:10036000D01308700020DFF8CC130870DFF8C40346
:100370000078DFF8C413097888422BD0002004F0FD
:100380006DF927E0DFF8A8030078401CDFF8A01320
:100390000870DFF89C03007879281BDB0020DFF869
:1003A000901308700720DFF88C130870DFF88403BF
:1003B0000078DFF88413097888420BD0072004F016
:1003C0004DF9DFF878030078002803D00020DFF82B
:1003D0006C13087010BD10B504000020DFF8501336
:1003E0000870DFF8500304702000C0B204F036F942
:1003F00010BD80B5FFF7C8FE0420DFF84413088065
:10040000CA480088401CC9490880FFF7CFFE01BDDB
:1004100000B585B000A8CB49102204F0F9FF0621F1
:10042000C94805F065FC0121C84805F0BFFA012163
:10043000C74805F0BBFA0121C64805F0B7FAC6481F
:1004400005F0C1FE00A9C44805F09AFE40F2034041
:10045000C2490860012304220221052005F038FF6B
:10046000012302220021002005F032FF3C20BC497C
:1004700008603E20BB4908604FF48061B648FFF732
:10048000B8FEBF211820FFF736FE1820FFF728FE20
:1004900005B000BD10B40123B34C23706423B34CEA
:1004A000238010BC704710B58CB009A8B0491CC996
:1004B0001CC00C390C38AF48D0E90023CDE9042327
:1004C00006A8AD491CC91CC00C390C38AB48D0E992
:1004D0000023CDE902230121A94805F067FA002095
:1004E0008DF80000A748019000A806F0C3F809A9FC
:1004F000012006F071F804AA0121012006F099F804
:1005000006A9022006F068F802AA0121022006F0DE
:1005100090F89D489D49086000209C49486000F083
:1005200002F80CB010BD00B583B03F200190984890
:100530000090984898490978402202FB0103002264
:100540000121012006F02AF807BD10B582B08248CB
:10055000FFF753FE040021007F48FFF748FEFFF736
:1005600048FF8D480078401C8B4908708A48007805
:10057000082190FBF1F202FB110287480270FFF79D
:10058000D2FF0520ADF800000023002200A9834817
:10059000006806F0C4F913BD80B5734800780028E0
:1005A0000DD1FFF71AFEFFF7EFFD65480088002820
:1005B00002D1FFF7FBFD02E0FFF7F8FDEDE701BD1B
:1005C0002DE9F04383B004000D0016007448007854
:1005D000002801D103F0DAFFFFF7DEFF634800884F
:1005E000002803D112206F49087002E006206D49EF
:1005F00008706D480078412802D10A2069490870C6
:10060000684807785FF00008DFF8A091424639009B
:10061000484604F0A9FE3C206449624A12785054CE
:10062000B01D62495F4A1278511848705F485D49B1
:10063000097808188470F6B25C485A490978081895
:1006400010F1030932002900484604F0D1FE574852
:1006500054490978F6B2711808180021C17053483E
:1006600050490978F6B271180818002101714F48F5
:100670004C490978F6B2711808183E214171FFF70C
:10068000B8FE0020384908704648007850FA86F0D5
:10069000401D019045480090454B00220121022059
:1006A00005F07CFFBDE8F78310B504002F480088F3
:1006B000002802D000202D49088021480088002809
:1006C0000AD01F480088401E1D4908801C48008829
:1006D000002801D103F032FF10BD010000200228E4
:1006E00008DA425C334BC35C9A4201D0002002E03E
:1006F000401CF4E70120704700E100E018ED00E045
:1007000000E400E01C610040006000407C360020F6
:1007100010ED00E088370020F02C00200830002089
:100720008B3700207B3700208D3700202C370020AE
:100730008C37002088040020833700208537002074
:1007400028370020DCB2010003001200004304003F
:100750004005140000D20200004008405440084008
:100760001040084014400840860400202A3700202A
:100770004CB30100F4B3010058B30100FCB3010015
:1007800000030400003200209504000024350020FE
:100790001C4008409C220020813700206436002045
:1007A000843700208504002030350020943000205C
:1007B0002840084072B100002DE9F04FA9B00400B4
:1007C0000D0020788DF8380000261E2006F0A9FACA
:1007D00001200290042001900120009001230422B6
:1007E0000121012007F00DFA15275FF000090DF136
:1007F000200A4A463900504604F0B6FD02208DF822
:1008000020009DF838008DF821009DF8380001285F
:1008100000F0CE87022801F0A981032801F00480AE
:10082000042801F04980052801F0C280062801F063
:100830009982072801F0E782082801F03782112801
:1008400001F0F083122801F00984132800F0E084FD
:10085000142800F05985152800F01586162800F098
:10086000C886172800F02385182800F071861928FB
:1008700042D01A2801F04D831B2801F0FB801C2870
:1008800001F01F831D2801F0DD831E2803F00B817A
:100890001F2803F0278150284BD0512800F0ED800D
:1008A000532800F03484542800F04E82552800F07C
:1008B0000F83562800F001845E2800F07C845F28B6
:1008C00000F04F84802802F08587812803F014808F
:1008D000F02802F00387F12802F06D87F42802F077
:1008E0001987F82803F04680FD2802F04987FE2882
:1008F00002F02E8703F020B9DFF8300E006F8DF87C
:100900002200DFF8280E006F000A8DF82300DFF8C0
:100910001C0E006F000C8DF82400DFF8100E006F25
:10092000000E8DF82500062108A803F061FE03F0F3
:1009300003B9DFF8540E90F8820000280DD10F277C
:100940004FF0FF090DF1220A4A463900504604F0E3
:100950000BFDF0208DF8280089E0142007F0F9FE47
:100960000020FFF738FD142007F0F3FE022006F008
:10097000BCF906F0AEF92079E178090411EB0060CA
:10098000A17810EB01206178401810906079DFF8B1
:10099000FC1D0870DFF8F40D0078012804D1142044
:1009A000DFF8EC1D087003E05020DFF8E41D08704C
:1009B000A079002804D00120DFF8D81D087003E0DA
:1009C0000020DFF8D01D08700027DFF8C80D007880
:1009D000002808D04FF40070DFF8BC1D08804FF4E9
:1009E000C060070005E010A806F0A7FADFF8A81D10
:1009F00008800020DFF8A41D08600120DFF8A01D9A
:100A000008700120DFF89C1D0870DFF88C0D00884D
:100A10008DF82200DFF8800D008880B2000A8DF882
:100A2000230010988DF824001098000A8DF82500F6
:100A30001098000C8DF826001098000E8DF82700F5
:100A400000208DF8280038008DF82900BFB2380A40
:100A50008DF82A00109810F1010F08D001200090A5
:100A6000DFF8483D28220021002008F02DFB0B2153
:100A700008A803F0BDFD03F05FB801275FF000098F
:100A80005FF0000AA078000261784018ADF8040019
:100A9000BDF804004FF6FF7188421FD1DFF8FC0C4F
:100AA0000068002825D0DFF8F00C008806F087F9F0
:100AB000DFF8E01C097800290CD0DFF8DC1C09887D
:100AC00080B2814202D3F0210F009EE0DFF8C81C03
:100AD00008800EE0DFF8C01C08800AE0BDF80400C2
:100AE0004FF6FE71884204D0BDF80400DFF8A81C60
:100AF0000880DFF8A40C0088B0F5006F02DB03204B
:100B000007006AE0BDF804004FF6FE71884208DB7A
:100B1000DFF8840C0088B0F5007F02DA03200700BC
:100B20005BE006F0D6F8DFF8700C0088B0F5007FC7
:100B300053DBDFF8640C0088DFF83C1E0968896825
:100B400048430090202213A9009808F076FE8346BF
:100B50005FFA8BFBBBF10C0F02D00420070038E0DA
:100B6000DFF8300C007800282FD11398DFF80C1E26
:100B7000884202D0022007002BE01498DFF81C1CEA
:100B80000968884202D20520070022E0159810F17A
:100B9000010F03D0169810F1010F02D106200700B3
:100BA00017E01598002802D01698002808D1DFF821
:100BB000E80B008806F003F9DFF8DC1B0880B8E7D3
:100BC0001498DFF8D81B086003E01498DFF8CC1BFA
:100BD00008601598814616988246DFF8C40B0078A5
:100BE000002812D0FFB2012F0FD10020DFF8B01B78
:100BF0000870DFF8A80B016889B2DFF89C0B008849
:100C000004F0A8F9DFF8641E08808DF82270DFF880
:100C1000880B00888DF82300DFF87C0B008880B2F9
:100C2000000A8DF8240048468DF825005FEA192057
:100C30008DF826005FEA19408DF827005FEA1960F9
:100C40008DF8280050468DF829005FEA1A208DF8AB
:100C50002A005FEA1A408DF82B005FEA1A608DF8CF
:100C60002C00DFF8380B00688DF82D00DFF82C0B16
:100C70000068000A8DF82E00DFF8200B0068000CD9
:100C80008DF82F00DFF8140B0068000E8DF830008F
:100C9000DFF8DC0D00888DF83100DFF8D40D008816
:100CA00080B2000A8DF83200DFF8C00D00888DF8A0
:100CB0003300DFF8B80D008880B2000A8DF83400E8
:100CC000152108A803F094FCDFF8A40D0088401C4F
:100CD000DFF89C1D0880FFB2012F33D1002008F0FF
:100CE00017FADFF8940C00688068DFF8A41A097816
:100CF00090FBF1F0DFF8681E0880DFF87C0C0068DC
:100D00008068DFF88C1A097890FBF1F201FB120081
:100D1000DFF8501E0880DFF8800A0088DFF8581CD2
:100D2000096889684843DFF8401E08600020DFF842
:100D3000AC1E088000200090002314220121042012
:100D400004F073FA02F0F8BE0027DFF83C0A90F8CE
:100D5000820000280DD15FF001094FF0FF0A0DF16C
:100D6000220B52464946584604F0FEFAF02007008E
:100D700063E0142007F0EDFC0020FFF72CFB1420AB
:100D800007F0E7FC022005F0B0FF05F0A2FF207994
:100D9000E178090411EB0060A17810EB0120617883
:100DA0004018DFF83C1E0860207AE179090411EB55
:100DB0000060A17910EB012061794018DFF8241E52
:100DC0000860DFF8200E0068DFF8141E0968401A7A
:100DD000B0F5C06F02DB402007000CE0DFF8000E2A
:100DE0000068DFF8001E0968884202DB6020070007
:100DF00001E0802007008DF804709DF804008DF854
:100E000005009DF805900122DFF8DC1DDFF8D00D0C
:100E1000006806F026FC50EA09008DF805009DF8F0
:100E200004900022DFF8C41DDFF8B80D006806F05A
:100E300018FC50EA09008DF804009DF8050081288F
:100E400036D19DF80400832832D1DFF8980D006870
:100E5000DFF88C1D0968401A401C5FEAC00948464B
:100E600009F05FFDDFF8881E0860DFF8840E006877
:100E7000DFF8801E0860DFF8780E0068002815D0C3
:100E8000DFF8740E0090DFF85C0D0068DFF8501D8D
:100E90000968431ADFF8500D0288DFF8440D016835
:100EA000DFF8500E006806F033FC01E07020070008
:100EB0008DF822709DF805008DF823009DF8040040
:100EC0008DF82400052108A803F092FB02F034BE3F
:100ED0000027DFF8240ED0F80090A0780002617897
:100EE00010EB010ADFF8900A00688068DFF8A018AC
:100EF000097890FBF1F0DFF8681C0880DFF8780AC9
:100F000000688068DFF88818097890FBF1F201FB2F
:100F10001200DFF8501C0880DFF8D80D0068406828
:100F2000DFF8541A096889684843DFF83C1C0860F8
:100F30000020DFF8A81C08801FFA8AFA4FF6FF701D
:100F4000824506D1DFF8B40D0088401CDFF8AC1DE7
:100F50000880DFF8A40D0068012860DBDFF8840C4E
:100F6000006881450EDA48468DF825005FEA2920A1
:100F70008DF826005FEA29408DF827005FEA296096
:100F80008DF82800DFF8700D0068DFF8541C096840
:100F9000401ADFF8681D098888421CDB1FFA8AFAAC
:100FA0004FF6FF70824507D1DFF8480D0068083022
:100FB000DFF8401D0860FFE78DF82270DFF83C0D78
:100FC00000888DF82300DFF8340D008880B2000A15
:100FD0008DF8240063E0012007008DF82270DFF80F
:100FE0001C0D00888DF82300DFF8100D008880B2FA
:100FF000000A8DF82400092108A803F0F9FADFF8A7
:10100000F00C0068002808D0DFF8E40C006809F054
:10101000E8FD0020DFF8D81C086002F08DBDDFF885
:10102000DC0C00888DF82300DFF8D00C008880B23B
:10103000000A8DF8240000208DF8250000208DF88E
:10104000260000208DF8270000208DF82800DFF80A
:10105000940B0068DFF8881B0968401A401CDFF811
:101060009C1C0988884210DB1FFA8AFA4FF6FF7031
:10107000824507D1DFF87C0C00680830DFF8741C6B
:101080000860FFE78DF8227009E0012007008DF865
:101090002270092108A803F0ABFA02F04DBD092126
:1010A00008A803F0A5FA00200090002314220121D3
:1010B000042004F0BAF802F03FBD00270020ADF88C
:1010C0003A00022005F011FE05F003FE0DF13A0092
:1010D00006F08FFB070038008DF8220038128DF8DB
:1010E000230038148DF8240038168DF82500BDF83B
:1010F0003A008DF82600BDF83A0080B2000A8DF85B
:101100002700082108A803F073FA02F015BDDFF8E4
:10111000EC0B0088002803D00020DFF8E01B0880DB
:10112000DFF8D40B0068002803D00020DFF8C81BCC
:101130000860002007F0C0FF022005F0E4FD05F084
:1011400021FE00208DF8220000208DF823000621CA
:1011500008A803F04DFA0020DFF81419088002F007
:10116000EBBC601CFFF7B9FA002808D101208DF80C
:101170002200062108A803F03BFA02F0DDBC09209A
:101180008DF86C00E078452804D12079412801D100
:1011900001201D90002300221BA9DFF83C0E0068EF
:1011A00005F041FB00208DF82200062108A803F07D
:1011B0001FFA02F0C1BC0020DFF8201E08600020EA
:1011C000DFF81C1E08600020DFF8181E08600020F1
:1011D000DFF8141E08600020DFF8101E08600020F1
:1011E000DFF80C1E08600020DFF8081E08600020F1
:1011F000DFF8041E08600020DFF8001E08600020F1
:101200008DF82200032108A803F0F2F902F094BC43
:10121000DFF87405C0688DF82200DFF86C05C0683F
:1012200000128DF82300DFF8600540698DF8240076
:10123000DFF85405406900128DF8250000208DF874
:10124000260013208DF82700DFF8440E80788DF8F3
:101250002800DFF83C0EC0788DF829000627DFF85B
:10126000349E0DF12A0A3A004946504604F0C0F86F
:1012700049F2FE7000788DF8300049F2FF70007876
:101280008DF83100DFF8A40490F882008DF8320068
:10129000DFF89804B0F86C008DF8330000208DF86A
:1012A0003400152108A803F0A3F902F045BC042777
:1012B0006078A178090289B208180F900F98DFF8BA
:1012C000C8144969884208DADFF8CC0D00880F9904
:1012D00011FA80F008F0F1FA07000F988DF822005B
:1012E0000F9800128DF82300FFB20C2F03D10020BD
:1012F0008DF8240002E001208DF82400052108A8C3
:1013000003F076F902F018BC01276078DFF88C1D35
:101310000870DFF8880D0078012836D1DFF86804FE
:1013200090F88200002802D1F02007009EE0DFF84C
:10133000FC0390F82900DFF8501491F87A10084265
:1013400003D00120DFF8581D087002200090DFF85C
:101350005C341E220021002007F0B6FE022005F0BA
:10136000C4FC05F0B6FC02200700A078552807D180
:10137000E078217909020818DFF81C1D088075E063
:101380000020DFF8141D088070E0DFF8100D0078F1
:1013900002286BD1002007F08FFEDFF8040D0078E3
:1013A000002808D00020DFF8F81C08700120DFF8C2
:1013B000D81381F87A00012007001022DFF8E41C1E
:1013C000DFF8D40C00884FF48053584308F035FA06
:1013D000DFF8D41CDFF8CC0C09F09AFEDFF8C41C4F
:1013E000C98980B2814234D1DFF8B80C4168DFF896
:1013F000A80C00884FF480525043103008F076FB60
:10140000DFF8A81C0880DFF89C0C0089DFF89C1C22
:10141000098888421DD10020DFF8941C0870002044
:10142000DFF8901C087002200700DFF8700C0078CD
:101430008DF822008DF82370042108A803F0D8F855
:10144000642007F086F9DFF8700CDFF8701C086084
:10145000FEE70020DFF85C1C087003210220FEF785
:101460007BFE022005F04FFC05F08CFCDFF82C0C15
:1014700000788DF822008DF82370042108A803F06D
:10148000B7F802F059BB05F06DFC0700FFB2002F62
:1014900004D1022005F029FC05F01BFC6078A1783E
:1014A000090289B208180F900F98B749C9684843D4
:1014B00012904FF48051DFF8E00B00884FF4805217
:1014C000129B02FB003008F011FBDFF8E01B0880E4
:1014D000FFB2002F04D1022005F015FC05F052FCEC
:1014E00060788DF82200A0788DF82300E0788DF8E0
:1014F000240020798DF82500DFF8B00B00888DF8E6
:101500002600DFF8A80B008880B2000A8DF82700BB
:10151000082108A803F06CF89DED0F0AB8EEC00A88
:10152000DFF8A40DD0ED000A80EE200ADFED9E0A60
:1015300020EE200ABDEEC00ADFF8900D80ED000A13
:10154000112000900120DFF8681B087002F0F4BA47
:10155000E078DFF87C1D0870DFF8740D0078012852
:1015600022D16078A178090289B20818DFF8641DD9
:101570000860DFF8600D00688349C9684843DFF8F8
:10158000541D08600020DFF8501D08600020DFF8BF
:101590004C1D08707C48C068DFF8441D08600020BE
:1015A000DFF8401D086008E0DFF8240D007802280D
:1015B00003D10020DFF8201D086060788DF822003C
:1015C000A0788DF82300DFF8080D00788DF824004E
:1015D000DFF8100D00688DF82500DFF8080D0068B1
:1015E00000128DF82600072108A803F001F802F088
:1015F000A3BADFF8F40C0078002805D00020DFF84B
:10160000E81C087002F098BADFF8DC0C0078401C87
:10161000DFF8D41C0870002007F07AFDDFF8C40C56
:101620000068401CDFF8BC1C086000208046B8F150
:10163000130F12DA18EB04004078DFF8B01CDFF863
:101640009C2C12785054DFF8940C0078401CDFF882
:101650008C1C087018F10108E9E7DFF8840C0068B9
:10166000982865DBDFF8740C00789828C0F2838036
:10167000DFF86C0C00689838DFF8641C0860002004
:10168000DFF8581C08709822DFF8601CDFF8080AA1
:1016900000884FF48053DFF83CCCDCF800C003FB3B
:1016A00000C0DFF8343C1B68181808F0A9F90700DF
:1016B000DFF8240C00689830DFF81C1C0860DFF8A5
:1016C000F409007800282CD11022DFF8D819DFF8AF
:1016D000C80900884FF48053584308F0AEF807005B
:1016E000DFF8C009406809F04FFD0022DFF8003C38
:1016F00009F058FD09F07AFEDFF8CC1B0860DFF82E
:10170000C80B90ED000AB5EE400AF1EE10FA04D1D4
:10171000DFF8B40B5FF07E5101600120DFF894190F
:10172000087003210220FEF723FD24E0083000208A
:10173000DFF8A80B0078DFF8A81B096888421ADBDD
:10174000DFF89C0B0268DFF8A41BDFF84C09008867
:101750004FF48053DFF87CCBDCF800C003FB00C003
:10176000DFF8743B1B68181808F04AF907000020DE
:10177000DFF86C1B0860DFF8700B0078401EDFF8A4
:10178000681B087002F0D8B9F02C002089370020BF
:10179000870400208A3700202E370020AC35002037
:1017A00091040020890400200000C842FF010000CD
:1017B0006078DFF8401B087060788DF82200032104
:1017C00008A802F015FFDFF82C0B0078012826D1BD
:1017D000142006F0BEFF0020FEF7FDFD142006F0E9
:1017E000B8FF01200090002300220021002003F018
:1017F000AAF80020DFF8001B0870002000900023EA
:10180000C8220121052003F010FDDFF8F00A00785E
:10181000142110FB01F0DFF8E81A087002E005203F
:1018200003F0E3FC02F088B9207A617A0902081813
:10183000DFF8D01AA1F880000AF056F9A078070066
:101840004FF48070474360783F18A7F26C70239084
:10185000E078401E22902079219060792090A07934
:101860001F90E0791E9000202690012007901EA96D
:1018700084B068462C2203F0CBFD0FBC0AF010FBAD
:10188000DFF8840A0078012803D1AA20DFF8781A4B
:1018900008700F2003900023002203A9DFF86C0AD0
:1018A000006804F0C0FF00208DF82200032108A882
:1018B00002F09EFE02F040B9607800282CD1002092
:1018C0008DF82200DFF8480A006800788DF82300C0
:1018D000DFF83C0A0068807B8DF82400DFF8300ACE
:1018E0000068C07B8DF8250000208DF826000020C0
:1018F00007280CDA9DF82610DFF8142A12688218DF
:101900009278824011438DF82610401CF0E70A219E
:1019100008A802F06DFE49E00220DFF8F41909681A
:101920004870A078002801D0012000E00020DFF8F6
:10193000E01909680870E078DFF8D419096888733D
:101940002079DFF8CC190968C8730020072817DA56
:1019500061790A000241D10706D50121DFF8B029DB
:1019600012688218917005E00021DFF8A42912683E
:1019700082189170401CE9E748040020B90C8FB32D
:101980000AF0B2F8102002900023002202A9DFF82A
:101990007C09006804F047FF60788DF82200002081
:1019A0008DF82300042108A802F022FE02F0C4B83A
:1019B000607800282DD100208DF82200DFF854092E
:1019C000006840798DF82300DFF848090068007945
:1019D0008DF82400DFF83C09006800788DF82500B8
:1019E000DFF83009006840788DF82600DFF8240918
:1019F000006840888DF82700DFF8180900684088E3
:101A000080B2000A8DF828000A2108A802F0F0FD33
:101A100029E0A078DFF8FC1809684871E078DFF861
:101A2000F418096808712079DFF8E8180968087067
:101A30006079DFF8E01809684870A079E179090257
:101A40000818DFF8D018096848800AF04DF809F046
:101A5000CDFF60788DF8220000208DF8230004214E
:101A600008A802F0C5FD02F067B800BF42370020A9
:101A700040370020607800282DD160788DF8220052
:101A8000DFF88008006C8DF82300DFF87808406CE0
:101A90008DF82400DFF86C08406C00128DF82500EA
:101AA000DFF86008806C8DF82600DFF85808806C3D
:101AB00000128DF82700DFF84C08C06C8DF8280064
:101AC000DFF84008C06C00128DF829000A2108A830
:101AD00002F08EFD42E0607801283FD1A078DFF867
:101AE00024180864E078217909020818DFF814182E
:101AF00048646079A17909020818DFF80818886439
:101B0000E079217A09020818DFF8F817C86409F0AB
:101B1000EBFF60788DF8220000208DF8230004216F
:101B200008A802F065FDDFF8680C0078002803D0F3
:101B30000020DFF85C1C0870DFF8580C00780028E3
:101B400003D00020DFF84C1C0870DFF84C0C007844
:101B5000002803D00020DFF8401C087001F0ECBF23
:101B6000363700203A370020B03500206078002852
:101B70003ED100208DF82200DFF8880790F862003F
:101B8000800703D501208DF8230002E000208DF8A6
:101B90002300DFF8700790F86200C00703D501202A
:101BA0008DF8240002E000208DF82400DFF85407AF
:101BB000B0F860008DF82500DFF84807B0F8600045
:101BC00080B2000A8DF82600DFF8D00B807B8DF8FC
:101BD0002700082108A802F00BFD65E03837002037
:101BE000A4350020A83500203037002032370020EF
:101BF0006078012858D1A07801280AD1DFF80407BD
:101C000090F8620050F00200DFF8F81681F86200E8
:101C100009E0DFF8F00690F8620010F0FD00DFF850
:101C2000E41681F86200E07801280AD1DFF8D406D2
:101C300090F8620050F00100DFF8C81681F86200E9
:101C400009E0DFF8C00690F8620010F0FE00DFF84F
:101C5000B41681F862002079617909020818DFF86A
:101C6000A416A1F8600094F9067009F03DFF6078B1
:101C70008DF8220000208DF82300042108A802F02E
:101C8000B7FC022006F065FDDFF87806B0F86000CA
:101C9000002806D07FB2012F06D0012002F04FFAB3
:101CA00002E0002002F04BFA01F046BF6078002805
:101CB00034D160788DF82200DFF8480690F876007D
:101CC00010F00100012803DB01208DF8230002E061
:101CD00000208DF82300DFF82C0690F8760010F035
:101CE000020001280CDB01208DF824000BE000BF6E
:101CF000883500208C3500209035002034370020B6
:101D000000208DF82400DFF8FC0590F877008DF8AE
:101D10002500062108A802F06BFC21E0607801286C
:101D20001ED1A078012801D1012000E00020E17837
:101D3000012901D1022100E000210818DFF8C415B3
:101D400081F876002079DFF8BC1581F8770009F07A
:101D5000CBFE60788DF82200032108A802F048FC31
:101D600001F0EABE0027DFF89C0590F860008007CC
:101D700002D4012007003EE06078002804D1002052
:101D8000DFF8EC1B81F88C00607801281BD114204F
:101D900001905FF00009DFF8DCAB4A46019950463C
:101DA00003F0E2FA5FF0120AA01C0090DFF8C4BB57
:101DB00052460099584603F01BFB0120DFF8B01B88
:101DC00081F88C0017E06078022814D10020DFF839
:101DD000A01B81F8AB005FF0120914F1020ADFF8D2
:101DE00094BB4A465146584603F002FB0120DFF8F7
:101DF000801B81F88D008DF82270042108A802F064
:101E0000F7FB01F099BE00275FF000096078062813
:101E100031D1DFF8F00490F86000400602D40120D0
:101E200007002DE006208146A07810F00F008DF805
:101E300000009DF80000012816D114200590002014
:101E40000490DFF834AB049A0599504603F08CFAFD
:101E50005FF0100AE01C0190DFF81CBB52460199AC
:101E6000584603F0C5FA0BE09DF80000022807D1A0
:101E70000020814604E06078052801D105208146D4
:101E80005FFA89F9B9F1000F13D05FFA89F9B9F156
:101E9000060F0ED01B20ADF844005FFA89F9ADF8AB
:101EA00046900023002211A9DFF86004006804F0C6
:101EB000BAFC8DF82270042108A802F099FB01F009
:101EC0003BBE00208DF82200FF208DF823006078B3
:101ED00001280DD1A778FFB2082F01DB07200700EA
:101EE0003800C0B2FEF777FA142006F032FC07E0A3
:101EF0006078002804D1DFF8840A00788DF8230088
:101F000060788DF82200042108A802F071FB01F02E
:101F100013BE601CFEF7E1FB00287AD0DFF8E40373
:101F200090F874702079002805D02079122802D00A
:101F30002079562864D1FFB2342F04D0FFB2782F15
:101F400001D00020070094F803905FFA89F9B9F1F5
:101F5000340F06D05FFA89F9B9F1780F01D000206B
:101F60008146FFB25FFA89F94F4530D0DFF894031C
:101F700080F874905FFA89F9B9F1340F08D15FF0F5
:101F8000000A50460AF007F8DFF8781308670CE0FB
:101F90005FFA89F9B9F1780F07D15FF0000A50466E
:101FA00009F0F9FFDFF85C13C8670420ADF84400BE
:101FB0005FFA89F95FEA092050FA87F0ADF8460028
:101FC0000023002211A9D148006804F02CFC012054
:101FD0008DF8230019E000BF803600201436002061
:101FE000183600201C360020203600202436002021
:101FF000283600202C3600203036002034360020D1
:102000002079AA2801D18DF8237000208DF82200B4
:1020100002E001208DF82200042108A802F0E8FA6D
:1020200001F08ABD601CFEF758FB002801D00AF0C1
:1020300084F800208DF82200042108A802F0D8FAC4
:1020400001F07ABDDFF8280990F884008DF82200AD
:10205000032108A802F0CCFA01F06EBDEDB2022D0A
:10206000C0F2FB806078002840F0F78060788DF83F
:102070002200A44890F82900002825D0DFF8F008B5
:1020800090F8780000281BD011208DF823001EE066
:1020900030350020343500203C37002085370020C3
:1020A00088370020D4340020E13400203E3700205F
:1020B000A83700208E3700200400FA050CED00E060
:1020C00010208DF8230002E000208DF823008D48B9
:1020D00090F82A00002803D011208DF8240002E097
:1020E00000208DF82400874890F82B00002803D0AA
:1020F00011208DF8250002E000208DF82500814890
:1021000090F87800002803D011208DF8260002E016
:1021100000208DF826007B4890F83000002803D07E
:1021200011208DF8270002E000208DF82700754867
:1021300090F82F00002803D011208DF8280002E02D
:1021400000208DF828006F4890F82E00002803D05A
:1021500011208DF8290002E000208DF8290069483F
:1021600090F83100002803D011208DF82A0002E0F9
:1021700000208DF82A00634890F82D00002803D035
:1021800011208DF82B0002E000208DF82B005D4817
:1021900090F82C00002803D011208DF82C0002E0CC
:1021A00000208DF82C00574890F83200002803D00A
:1021B00011208DF82D0002E000208DF82D005148EF
:1021C00090F83300002803D011208DF82E0002E093
:1021D00000208DF82E004B4890F83400002803D0E2
:1021E00011208DF82F0002E000208DF82F004548C7
:1021F00090F83500002803D011208DF8300002E05F
:1022000000208DF830003F4890F83600002803D0B9
:1022100011208DF8310002E000208DF8310039489E
:1022200090F83700002803D011208DF8320002E02A
:1022300000208DF83200334890F83800002803D091
:1022400011208DF8330002E000208DF833001421B6
:1022500008A802F0CDF901F03EBAEDB2022DC0F2AD
:1022600004836078012840F00083EDB2032D54DB35
:10227000A07810F0F00020284FD1224890F82900D3
:10228000DFF8EC1691F87A10084207D100201C49BB
:1022900008700020DFF8D81681F8E0000120194905
:1022A00081F82900174890F87800002842D1A078DA
:1022B00010F00F0002282FD110480078052110FBE4
:1022C00001F00F49087035E038040020583600202E
:1022D000873700209435002098350020863700206D
:1022E0009C350020A03500208F370020702F002063
:1022F0000000B0407E370020B13700209937002021
:102300009C37002008300020920400206436002012
:102310003C040020400400200CE0EDB2032D09DB5A
:10232000A07810F0F000102804D10020DFF850163B
:1023300081F82900EDB2042D16DBE07810F0F000F2
:10234000202811D1DFF8380690F82A00002824D17F
:102350000120DFF82C1681F82A00DFF8240690F817
:102360002A000AF0C4FA18E0EDB2042D15DBE0787B
:1023700010F0F000102810D1DFF8040690F82A00C1
:1023800000280AD00020DFF8F81581F82A00DFF8CD
:10239000F00590F82A000AF0AAFAEDB2052D10DB3C
:1023A000207910F0F00020280BD10120DFF8D015A3
:1023B00081F82B00DFF8C80590F82B000AF02FFCFD
:1023C00012E0EDB2052D0FDB207910F0F00010289F
:1023D0000AD10020DFF8A81581F82B00DFF8A0054E
:1023E00090F82B000AF01BFCEDB2062D0ADB607999
:1023F00010F0F000202805D10120DFF8841581F8C5
:1024000078000CE0EDB2062D09DB607910F0F000E9
:10241000102804D10020DFF8681581F87800EDB2AB
:10242000072D16DBA07910F0F000202811D1DFF87D
:10243000500590F83000002824D10120DFF8401525
:1024400081F83000DFF8380590F830000BF01CFA06
:1024500018E0EDB2072D15DBA07910F0F000102880
:1024600010D1DFF81C0590F8300000280AD00020B9
:10247000DFF80C1581F83000DFF8040590F8300023
:102480000BF002FAEDB2082D16DBE07910F0F00047
:10249000202811D1DFF8E80490F82F00002824D17B
:1024A0000120DFF8DC1481F82F00DFF8D40490F865
:1024B0002F000BF0C2FB18E0EDB2082D15DBE07920
:1024C00010F0F000102810D1DFF8B40490F82F00BD
:1024D00000280AD00020DFF8A81481F82F00DFF8C8
:1024E000A00490F82F000BF0A8FBEDB2092D16DB2D
:1024F000207A10F0F000202811D1DFF8840490F841
:102500002E00002824D10120DFF8741481F82E0059
:10251000DFF86C0490F82E000BF00BFE18E0EDB223
:10252000092D15DB207A10F0F000102810D1DFF80B
:10253000500490F82E0000280AD00020DFF8401444
:1025400081F82E00DFF8380490F82E000BF0F1FD32
:10255000EDB20A2D16DB607A10F0F000202811D1C0
:10256000DFF81C0490F83100002824D10120DFF8A6
:10257000101481F83100DFF8080490F831000CF0F5
:1025800012F918E0EDB20A2D15DB607A10F0F000B8
:10259000102810D1DFF8E80390F8310000280AD0A5
:1025A0000020DFF8DC1381F83100DFF8D40390F865
:1025B00031000CF0F8F8EDB20B2D10DBA07A10F022
:1025C000F00020280BD1DFF8B80390F82D00002888
:1025D00018D10120DFF8A81381F82D0012E0EDB228
:1025E0000B2D0FDBA07A10F0F00010280AD1DFF8D5
:1025F000900390F82D00002804D00020DFF880130D
:1026000081F82D00EDB20C2D10DBE07A10F0F00017
:1026100020280BD1DFF8680390F82C00002818D18F
:102620000120DFF85C1381F82C0012E0EDB20C2DD4
:102630000FDBE07A10F0F00010280AD1DFF8400339
:1026400090F82C00002804D00020DFF8341381F823
:102650002C00EDB20D2D0EDB207B10F0F0002028B9
:1026600009D1C74890F83200002815D10120C4498B
:1026700081F8320010E0EDB20D2D0DDB207B10F063
:10268000F000102808D1BE4890F83200002803D08E
:102690000020BB4981F83200EDB20E2D0EDB607BCD
:1026A00010F0F000202809D1B54890F83300002838
:1026B00015D10120B24981F8330010E0EDB20E2DA2
:1026C0000DDB607B10F0F000102808D1AC4890F8CA
:1026D0003300002803D00020A94981F83300EDB26F
:1026E0000F2D0EDBA07B10F0F000202809D1A448AC
:1026F00090F83400002815D10120A14981F8340058
:1027000010E0EDB20F2D0DDBA07B10F0F0001028D3
:1027100008D19B4890F83400002803D00020984945
:1027200081F83400EDB2102D0EDBE07B10F0F000EC
:10273000202809D1924890F83500002815D10120B1
:102740008F4981F8350010E0EDB2102D0DDBE07BF4
:1027500010F0F000102808D1894890F835000028C2
:1027600003D00020864981F83500EDB2112D17DB2A
:10277000207C10F0F000202812D1814890F836001B
:1027800000281ED101207E4981F8360019E000BFE3
:10279000A6370020A4370020A5370020C43400202D
:1027A000EDB2112D0DDB207C10F0F000102808D1C7
:1027B000734890F83600012803D10020704981F851
:1027C0003600EDB2122D0EDB607C10F0F0002028F8
:1027D00009D16B4890F83700002815D101206849CD
:1027E00081F8370010E0EDB2122D0DDB607C10F0A7
:1027F000F000102808D1624890F83700012803D172
:1028000000205F4981F83700EDB2132D0EDBA07C6C
:1028100010F0F000202809D1594890F8380000281D
:1028200015D10120564981F8380010E0EDB2132D82
:102830000DDBA07C10F0F000102808D1504890F873
:102840003800012803D100204D4981F8380009F0F3
:102850004BF960788DF8220000208DF823000421C8
:1028600008A801F0C5FE00F036BFEDB2032D0DDB68
:10287000607803280AD1424890F82B00002800F025
:102880002A87A0780AF080FC00F025BFEDB2032D66
:1028900010DB607804280DD1394890F82F0000280B
:1028A00000F01987A078C0B2C000C0B20BF002FBE4
:1028B00000F011BFEDB2022D0FDB607805280CD1BE
:1028C00060788DF822000DF123000AF07FFC0421CE
:1028D00008A801F08DFE00F0FEBEEDB2022D0FDB68
:1028E000607806280CD160788DF822000DF1230065
:1028F0000BF0FFFA042108A801F07AFE00F0EBBE0D
:10290000EDB2022D6BDB6078102868D1EDB2032D9B
:102910003ADBA07810F0F000202835D1184890F864
:102920002900134991F87A10084207D10020DFF8F6
:102930006019087000200E4981F8E000012010495C
:1029400081F829000E4890F87800002840F0C386EE
:10295000A07810F00F00022814D1DFF838090078B1
:10296000052110FB01F0DFF82819087000F0B3BE54
:10297000F02C00209B2D0020AF2D0020833700205D
:102980000830002000F0A7BEEDB2032D0BDBA078CD
:1029900010F0F000102806D10020DFF8741D81F837
:1029A000290000F098BEA07810F0F000502840F008
:1029B000928660788DF82200DFF8540D90F8290097
:1029C000002803D011208DF8230002E000208DF8AC
:1029D0002300042108A801F00BFE00F07CBEEDB23C
:1029E000022D6EDB607811286BD1A07810F0F0001A
:1029F000A0284AD1A07810F00F00072813D1DFF8E3
:102A0000100D90F82A0000280AD10120DFF8001DDF
:102A100081F82A00DFF8F80C90F82A0009F067FF27
:102A20000120060017E0A07810F00F00062812D150
:102A3000DFF8DC0C90F82A0000280AD00020DFF82C
:102A4000D01C81F82A00DFF8C80C90F82A0009F0A1
:102A50004EFF01200600F6B2002E00F03C866078A2
:102A60008DF82200DFF8A80C90F82A00002803D087
:102A700011208DF8230002E000208DF823000421AE
:102A800008A801F0B5FD00F026BEA07810F0F00017
:102A9000502840F0208660788DF82200DFF8700C16
:102AA00090F82A00002803D011208DF8230002E0BE
:102AB00000208DF82300042108A801F099FD00F002
:102AC0000ABEEDB2022D6EDB607812286BD1A078C1
:102AD00010F0F000A0284AD1A07810F00F000728CD
:102AE00013D1DFF82C0C90F82B0000280AD101201C
:102AF000DFF81C1C81F82B00DFF8140C90F82B0079
:102B00000AF08DF80120060017E0A07810F00F0001
:102B1000062812D1DFF8F80B90F82B0000280AD015
:102B20000020DFF8EC1B81F82B00DFF8E40B90F8B5
:102B30002B000AF074F801200600F6B2002E00F017
:102B4000CA8560788DF82200DFF8C40B90F82B005E
:102B5000002803D011208DF8230002E000208DF81A
:102B60002300042108A801F043FD00F0B4BDA078C3
:102B700010F0F000502840F0AE8560788DF822000B
:102B8000DFF88C0B90F82B00002803D011208DF873
:102B9000230002E000208DF82300042108A801F0A2
:102BA00027FD00F098BDEDB2022D62DB607813289E
:102BB0005FD1A07810F0F000A0283ED1A07810F0EE
:102BC0000F0007280DD1DFF8480B90F87800002897
:102BD00004D10120DFF8381B81F8780001200600BD
:102BE00011E0A07810F00F0006280CD1DFF8200BC0
:102BF00090F87800002804D00020DFF8141B81F83A
:102C0000780001200600F6B2002E00F0648560789E
:102C10008DF82200DFF8F80A90F87800002803D039
:102C200011208DF8230002E000208DF823000421FC
:102C300008A801F0DDFC00F04EBDA07810F0F00017
:102C4000502840F0488560788DF82200DFF8C00AEF
:102C500090F87800002803D011208DF8230002E0BE
:102C600000208DF82300042108A801F0C1FC00F029
:102C700032BDEDB2022D6EDB607814286BD1A078E6
:102C800010F0F000A0284AD1A07810F00F0007281B
:102C900013D1DFF87C0A90F8300000280AD1012017
:102CA000DFF86C1A81F83000DFF8640A90F8300021
:102CB0000AF0EAFD0120060017E0A07810F00F00EE
:102CC000062812D1DFF8480A90F8300000280AD010
:102CD0000020DFF83C1A81F83000DFF8340A90F861
:102CE00030000AF0D1FD01200600F6B2002E00F0FF
:102CF000F28460788DF82200DFF8140A90F8300032
:102D0000002803D011208DF8230002E000208DF868
:102D10002300042108A801F06BFC00F0DCBCA078C3
:102D200010F0F000502840F0D68460788DF8220032
:102D3000DFF8DC0990F83000002803D011208DF86E
:102D4000230002E000208DF82300042108A801F0F0
:102D50004FFC00F0C0BCEDB2022D6EDB6078152890
:102D60006BD1A07810F0F000A0284AD1A07810F024
:102D70000F00072813D1DFF8980990F82F000028DA
:102D80000AD10120DFF8881981F82F00DFF88009C7
:102D900090F82F000AF051FF0120060017E0A078FC
:102DA00010F00F00062812D1DFF8640990F82F0008
:102DB00000280AD00020DFF8581981F82F00DFF82A
:102DC000500990F82F000AF038FF01200600F6B2F3
:102DD000002E00F0808460788DF82200DFF8300942
:102DE00090F82F00002803D011208DF8230002E076
:102DF00000208DF82300042108A801F0F9FB00F061
:102E00006ABCA07810F0F000502840F0648460782C
:102E10008DF82200DFF8F80890F82F00002803D082
:102E200011208DF8230002E000208DF823000421FA
:102E300008A801F0DDFB00F04EBCEDB2022D6CDB0A
:102E40006078162869D1A07810F0F000A02849D148
:102E5000A07810F00F00072813D1DFF8B40890F81D
:102E60002E0000280AD10120DFF8A41881F82E00D6
:102E7000DFF89C0890F82E000BF05BF901200600AB
:102E800017E0A07810F00F00062812D1DFF88008B4
:102E900090F82E0000280AD00020DFF8741881F87E
:102EA0002E00DFF86C0890F82E000BF042F901209C
:102EB0000600F6B2002E00F00E8460788DF8220035
:102EC000DFF84C0890F82E00002803D011208DF870
:102ED000230002E000208DF82300042108A801F05F
:102EE00087FBF8E3A07810F0F000502840F0F3835F
:102EF00060788DF82200DFF8180890F82E0000287E
:102F000003D011208DF8230002E000208DF823006B
:102F1000042108A801F06CFBDDE3EDB2022D6CDBAF
:102F20006078172869D1A07810F0F000A02849D166
:102F3000A07810F00F00072813D1DFF8D40790F81D
:102F4000310000280AD10120DFF8C41781F83100D0
:102F5000DFF8BC0790F831000BF025FC01200600DB
:102F600017E0A07810F00F00062812D1DFF8A007B4
:102F700090F8310000280AD00020DFF8941781F87B
:102F80003100DFF88C0790F831000BF00CFC0120C9
:102F90000600F6B2002E00F09E8360788DF82200C5
:102FA000DFF86C0790F83100002803D011208DF86D
:102FB000230002E000208DF82300042108A801F07E
:102FC00017FB88E3A07810F0F000502840F08383CE
:102FD00060788DF82200DFF8380790F8310000287B
:102FE00003D011208DF8230002E000208DF823008B
:102FF000042108A801F0FCFA6DE3EDB2022D60DBBC
:10300000607818285DD1A07810F0F000A0283DD19C
:10301000A07810F00F0007280DD1DFF8F40690F823
:103020002D00002804D10120DFF8E41681F82D00DE
:103030000120060011E0A07810F00F0006280CD146
:10304000DFF8CC0690F82D00002804D00020DFF82F
:10305000C01681F82D0001200600F6B2002E00F007
:103060003A8360788DF82200DFF8A40690F82D00EE
:10307000002803D011208DF8230002E000208DF8F5
:103080002300042108A801F0B3FA24E3A07810F08B
:10309000F000502840F01F8360788DF82200DFF8A0
:1030A000700690F82D00002803D011208DF8230021
:1030B00002E000208DF82300042108A801F098FA0E
:1030C00009E3EDB2022D60DB607819285DD1A078AC
:1030D00010F0F000A0283DD1A07810F00F000728D4
:1030E0000DD1DFF82C0690F82C00002804D1012027
:1030F000DFF81C1681F82C000120060011E0A078F2
:1031000010F00F0006280CD1DFF8040690F82C0010
:10311000002804D00020DFF8F81581F82C000120E9
:103120000600F6B2002E00F0D68260788DF82200FC
:10313000DFF8DC0590F82C00002803D011208DF872
:10314000230002E000208DF82300042108A801F0EC
:103150004FFAC0E2A07810F0F000502840F0BB8297
:1031600060788DF82200DFF8A80590F82C00002880
:1031700003D011208DF8230002E000208DF82300F9
:10318000042108A801F034FAA5E2EDB2022D60DBBB
:1031900060781A285DD1A07810F0F000A0283DD109
:1031A000A07810F00F0007280DD1DFF8640590F823
:1031B0003200002804D10120DFF8541581F83200D4
:1031C0000120060011E0A07810F00F0006280CD1B5
:1031D000DFF83C0590F83200002804D00020DFF82A
:1031E000301581F8320001200600F6B2002E00F002
:1031F000728260788DF82200DFF8140590F83200B2
:10320000002803D011208DF8230002E000208DF863
:103210002300042108A801F0EBF95CE2A07810F08B
:10322000F000502840F0578260788DF82200DFF8D7
:10323000E00490F83200002803D011208DF823001C
:1032400002E000208DF82300042108A801F0D0F945
:1032500041E2EDB2022D65DB60781B2862D1A078D7
:1032600010F0F000A02842D1A07810F00F0007283D
:1032700012D1DFF89C0490F83300002804D101201B
:10328000DFF88C1481F833000120060016E000BF3F
:103290009C37002099370020A07810F00F000628F6
:1032A0000CD1DFF86C0490F83300002804D0002023
:1032B000DFF85C1481F8330001200600F6B2002E1E
:1032C00000F0098260788DF82200DFF8440490F85D
:1032D0003300002803D011208DF8230002E00020E5
:1032E0008DF82300042108A801F082F9F3E1A07809
:1032F00010F0F000502840F0EE8160788DF8220048
:10330000DFF80C0490F83300002803D011208DF86A
:10331000230002E000208DF82300042108A801F01A
:1033200067F9D8E1EDB2022D60DB60781C285DD131
:10333000A07810F0F000A0283DD1A07810F00F0088
:1033400007280DD1DFF8C80390F83400002804D115
:103350000120DFF8BC1381F834000120060011E0E1
:10336000A07810F00F0006280CD1DFF8A40390F825
:103370003400002804D00020DFF8941381F83400D2
:1033800001200600F6B2002E00F0A58160788DF8CD
:103390002200DFF87C0390F83400002803D01120CD
:1033A0008DF8230002E000208DF82300042108A8F6
:1033B00001F01EF98FE1A07810F0F000502840F0E5
:1033C0008A8160788DF82200DFF8440390F8340099
:1033D000002803D011208DF8230002E000208DF892
:1033E0002300042108A801F003F974E1EDB2022DD5
:1033F0005ADB60781D2857D1A07810F0F000A02883
:1034000038D1A07810F00F0007280BD1C04890F8F1
:103410003500002803D10120BD4981F83500012085
:1034200006000FE0A07810F00F0006280AD1B84877
:1034300090F83500002803D00020B54981F8350008
:1034400001200600F6B2002E00F0458160788DF86C
:103450002200AF4890F83500002803D011208DF8E5
:10346000230002E000208DF82300042108A801F0C9
:10347000BFF830E1A07810F0F000502840F02B8128
:1034800060788DF82200A24890F83500002803D01B
:1034900011208DF8230002E000208DF82300042184
:1034A00008A801F0A5F816E1EDB2022D5ADB60780C
:1034B0001E2857D1A07810F0F000A02838D1A078AD
:1034C00010F00F0007280BD1914890F83600002823
:1034D00003D101208E4981F83600012006000FE05B
:1034E000A07810F00F0006280AD1894890F836001D
:1034F000012803D10020864981F83600012006000A
:10350000F6B2002E00F0E78060788DF82200804847
:1035100090F83600002803D011208DF8230002E037
:1035200000208DF82300042108A801F061F8D2E002
:10353000A07810F0F000502840F0CD8060788DF831
:103540002200734890F83600002803D011208DF82F
:10355000230002E000208DF82300042108A801F0D8
:1035600047F8B8E0EDB2022D59DB60781F2856D13C
:10357000A07810F0F000A02838D1A07810F00F004B
:1035800007280BD1624890F83700002803D10120AA
:103590005F4981F83700012006000FE0A07810F0A5
:1035A0000F0006280AD15A4890F83700012803D1A5
:1035B0000020574981F8370001200600F6B2002E9E
:1035C00000F0898060788DF82200514890F837002B
:1035D000002803D011208DF8230002E000208DF890
:1035E0002300042108A801F003F874E0A07810F08B
:1035F000F00050286FD160788DF82200444890F890
:103600003700002803D011208DF8230002E00020AD
:103610008DF82300042108A800F0EAFF5BE0EDB27A
:10362000022D58DB6078202855D1A07810F0F000EA
:10363000A02837D1A07810F00F0007280BD134480C
:1036400090F83800002803D10120314981F8380072
:10365000012006000FE0A07810F00F0006280AD124
:103660002B4890F83800012803D10020284981F820
:10367000380001200600F6B2002E2CD060788DF8BC
:103680002200234890F83800002803D011208DF83C
:10369000230002E000208DF82300042108A800F098
:1036A000A7FF18E0A07810F0F000502813D1607840
:1036B0008DF82200164890F83800002803D0112019
:1036C0008DF8230002E000208DF82300042108A8D3
:1036D00000F08EFFFFE708F007FA2DE2601CFCF710
:1036E000FCFF002803D000208DF8220002E001201A
:1036F0008DF82200042108A800F07AFF0A2005F0C6
:1037000028F8DFF8800ADFF8801A0860FEE700BFBB
:1037100008300020601CFCF7E0FF00280DD0E078A6
:10372000DFF8581D81F8840008F0DEF901208DF8DB
:103730002200E0788DF8230005E0FF208DF82200BC
:1037400000208DF82300042108A800F051FFF3E1C8
:10375000601CFCF7C2FF002807D000208DF8230072
:1037600007F0B7FE08F0C0F902E001208DF8230051
:1037700060788DF82200042108A800F039FFDBE111
:10378000601CFCF7AAFF00280AD000208DF8230057
:103790000020DFF8E81CA1F86C0008F0A5F902E0B1
:1037A00001208DF8230060788DF82200042108A8FC
:1037B00000F01EFFC0E1601CFCF78FFF002801D065
:1037C00008F0EEF900208DF82200042108A800F08E
:1037D0000FFFB1E10BF0DCF8C0B20321484307F062
:1037E000A0F800900098002800F0A68100A80BF037
:1037F000F0F80700052097FBF0F100FB117000289E
:1038000001D1002000E00120052197FBF1F14018D3
:103810000190019814214843401C07F082F881462A
:10382000B9F1000F03D1009807F0DBF984E1022021
:1038300089F800005FF0000A019882454CDA802088
:10384000142101FB0A9148700198401E82451FDA3D
:103850000520142101FB0A9188701AF1010005214D
:1038600001FB1070142101FB0A91C8700F20059014
:1038700000980F2101FB0A000490142000FB0A901D
:1038800010F1040B059A0499584601F0B1FD20E0AF
:10389000052000FB1A70142101FB0A91887000209A
:1038A000142101FB0A91C870052000FB1A70032146
:1038B0004843059000980F2101FB0A000490142052
:1038C00000FB0A9010F1040B059A0499584601F088
:1038D0008FFD1AF1010AAFE7019814214843421CF9
:1038E000D2B249460020FCF76BFE009807F079F948
:1038F000484607F076F91FE15FF0000A60788245DC
:103900002EDA14EB4A008078070014EB4A00C078E6
:10391000012802D15FF0010901E05FF0000949468A
:10392000C9B23800C0B20BF08FF85FFA89F9B9F16B
:10393000000F09D0DFF8440B406E0121B940084365
:10394000DFF8381B486608E0DFF8300B406E0121D5
:10395000B9408843DFF8241B48661AF1010ACDE715
:1039600008F0C2F800208DF82200042108A800F019
:103970003FFEE1E00227DFF8040B90F8290008A9D8
:10398000FFB278547F1CDFF8AC0B90F8780008A9E0
:10399000FFB278547F1CDFF8E40A90F8780008A999
:1039A000FFB278547F1CDFF88C0B90F8830008A9D5
:1039B000FFB278547F1CFF2008A9FFB278547F1C07
:1039C000DFF8700B90F8230008A9FFB278547F1C31
:1039D000DFF8640B0068808808A9FFB278547F1C68
:1039E000DFF8540B0068808880B2000A08A9FFB293
:1039F00078547F1CDFF8840AB0F8680008A9FFB289
:103A000078547F1CDFF8740AB0F8680080B2000AAE
:103A100008A9FFB278547F1CDFF8600AB0F86A008A
:103A200008A9FFB278547F1CDFF8500AB0F86A008A
:103A300080B2000A08A9FFB278547F1CDFF8480B57
:103A4000008808A9FFB278547F1CDFF83C0B00887F
:103A500080B2000A08A9FFB278547F1CDFF8780B07
:103A6000008808A9FFB278547F1CDFF86C0B00882F
:103A700080B2000A08A9FFB278547F1CDFF8FC0965
:103A800090F8740008A9FFB278547F1CDFF8A40AEC
:103A900090F8E10008A9FFB278547F1C152108A80E
:103AA00000F0A6FD48E0DFF8D4090BF0F1FA0700BA
:103AB000FFB2102F01D310200700FFB2142F01D343
:103AC00013200700FFB2DFF8B4990DF1220A3A0083
:103AD0004946504601F08CFCB91CC9B208A800F058
:103AE00087FD29E0B5F1010B5FFA8BFBBBF1110FEC
:103AF0001AD210275FF00009DFF880A94A46390082
:103B0000504601F031FC5FFA8BFB601C0190DFF83E
:103B10006CA95A460199504601F06AFC07F0E4FF8F
:103B200000208DF8220002E001208DF82200032100
:103B300008A800F05DFDFFE729B0BDE8F08F00B5F3
:103B400087B01E2003F0EDF8DFF8C40A0078DFF834
:103B5000C41A0978884240F0B680DFF8BC0A0078C1
:103B6000401CDFF8B41A0870DFF8B00A00780128AA
:103B70000AD1DFF8A40A00780328C0F2A48000204C
:103B8000DFF8941A087009E0DFF88C0A0078022840
:103B900004DB0020DFF8801A087094E0DFF8800A68
:103BA0000078002800F08F80DFF8780A008800286D
:103BB00036D0DFF8700A0088401EDFF8681A0880E7
:103BC0000520DFF8641A0870DFF8600A027892B204
:103BD000DFF85C1ADFF85C0A006805F02EFEDFF8FB
:103BE0004C0A0078421CD2B2DFF83C1A0020FCF7E5
:103BF000E7FCDFF8B42BDFF8300ADFF8301A097879
:103C00000918DFF82C0A07F09CFADFF8280A006888
:103C1000DFF8181A09784018DFF8181A086052E01F
:103C2000DFF8140A0088002828D00520DFF8F819EA
:103C30000870DFF8040A0288DFF8F419DFF8F409E5
:103C4000006805F0FAFDDFF8F0090088421CD2B2E6
:103C5000DFF8D4190020FCF7B3FCDFF84C2BDFF8B9
:103C6000C809DFF8D41909880918DFF8C40907F072
:103C700068FA0020DFF8C019088024E0042001F071
:103C8000B4FA02208DF8000052208DF80100DFF810
:103C90001C0B00888DF80200DFF8100B008880B242
:103CA000000A8DF80300DFF8000B00888DF804008F
:103CB000DFF8F40A008880B2000A8DF805000621BA
:103CC00000A800F095FC07B000BD2DE9F04F83B0CF
:103CD00004000E00207800280DD001280CD0022806
:103CE00041D0032800F0F680112800F0D881122876
:103CF00000F0F681F7E1F6E1607800281BD16079E9
:103D0000DFF8AC1A0870A079DFF8A41A4870E079DF
:103D1000DFF89C1A8870207ADFF8941AC8700020A7
:103D2000DFF88C1A48600020DFF8841A8881E07878
:103D3000DFF8801A08706078022813D1E078012833
:103D40000FD10BF0E2F91B20ADF804000120ADF813
:103D500006000023002201A9DFF85C0A006802F0D7
:103D600062FDEAE1BFE16078002840F0B280A51D65
:103D7000B61F0027B6B2042EC0F2AB80FFB2082FE8
:103D800080F2A7802878012868D168788346A878CF
:103D90005BEA002B1FFA8BFBBBF1150F01DB142034
:103DA0008346DFF8100A0078012804D0DFF8040AFF
:103DB0000078022816D15FF014085FF00009DFF8E0
:103DC0002CAB4A464146504601F0CEFA1FFA8BFB17
:103DD000E81C0090DFF814AB5A460099504601F0F9
:103DE00007FB2AE0DFF8CC090078042825D15FF032
:103DF00014085FF00009DFF8F8AA4A464146504629
:103E000001F0B2FA1FFA8BFBE81C0090DFF8E0AA81
:103E10005A460099504601F0EBFADFF8180790F87F
:103E2000BF00512809D1DFF80C0790F8C0005128D5
:103E300003D10020DFF87C1908701FFA8BFB1BEB05
:103E40000500C51CB6EB0B00C61EDFF86409406810
:103E500050F00200DFF85819486033E02878002855
:103E60000DD168788346A8785BEA002B1FFA8BFB9C
:103E70001BEB0500C51CB6EB0B00C61E22E0287824
:103E8000032815D168788346A8785BEA002B1FFACF
:103E90008BFB1BEB0500C51CB6EB0B00C61EDFF849
:103EA0001009406850F00800DFF80419486009E084
:103EB00068788346A8785BEA002B1FFA8BFB1BEB24
:103EC0000500C51CDFF8E8080079800701D47F1CD5
:103ED00050E708E16078002840F0E080DFF8D00883
:103EE0000078A178884240F0D980DFF8C408407893
:103EF000E178884240F0D280DFF8B40880782179F8
:103F0000884240F0CB80DFF8A808C0786179884209
:103F100040F0C480A51DB61F0027B6B2042EC0F223
:103F2000BD80FFB2082F80F2B9802878012868D1BF
:103F300068788346A8785BEA002B1FFA8BFBBBF1FD
:103F4000150F01DB14208346DFF86808007801288C
:103F500004D0DFF860080078022816D15FF014085A
:103F60005FF00009DFF884A94A464146504601F057
:103F7000FBF91FFA8BFBE81C0090DFF870A95A468A
:103F80000099504601F034FA2AE0DFF8280800785A
:103F9000042825D15FF014085FF00009DFF850A96C
:103FA0004A464146504601F0DFF91FFA8BFBE81CF8
:103FB0000090DFF83CA95A460099504601F018FAE3
:103FC000DFF8700590F8BF00512809D1DFF86405CB
:103FD00090F8C000512803D10020DFF8D8170870EE
:103FE0001FFA8BFB1BEB0500C51CB6EB0B00C61EB6
:103FF000DFF8BC07406850F00200DFF8B4174860F3
:1040000045E0287800280DD168788346A8785BEAD7
:10401000002B1FFA8BFB1BEB0500C51CB6EB0B003E
:10402000C61E34E02878032827D168788346A8780C
:104030005BEA002BDFF87807A0F80CB01FFA8BFBC7
:104040001BEB0500C51CB6B21FFA8BFB1BF103006E
:10405000864206DA002006000320DFF85417886045
:104060001CE0B6EB0B00C61EDFF84407406850F0BA
:104070000800DFF83C17486009E068788346A878B4
:104080005BEA002B1FFA8BFB1BEB0500C51CDFF85E
:1040900020070079800701D47F1C3EE723E0607889
:1040A000002804D10220DFF80817887303E00120FC
:1040B000DFF8FC168873DFF8F806807BDFF8F0166F
:1040C000C97B88420BD0DFF8E806C07B012803D10A
:1040D000012000F05BF802E0002000F057F802E059
:1040E00000F0CEF9FFE7DFF8C8060079800724D595
:1040F0001421DFF8F807FCF79CF8DFF8B806007821
:10410000012805D10120DFF82C1481F88C0014E07F
:10411000DFF8A0060078022805D10120DFF814148A
:1041200081F88D0009E0DFF88C060078042804D1BE
:104130000120DFF8001481F88F00BDE8F78F10B57B
:104140000400E4B2002C04D00120DFF86416C87328
:1041500003E00220DFF85816C87300F001F810BD24
:1041600000B583B005208DF8000001208DF8010016
:10417000022200A90120FCF723FA0020DFF8301604
:10418000887307BD0400FA050CED00E01CB50400BF
:1041900005208DF8000002208DF801008DF8024006
:1041A000032200A90120FCF70BFA13BD2DE9F04F03
:1041B00089B000255FF000080026DFF8C809007804
:1041C0000400DFF8C0090078401CDFF8B819087057
:1041D000DFF8B0090078082190FBF1F202FB110230
:1041E000DFF8A0090270002040282DDADFF89819C6
:1041F000E4B2402202FB0411415C0F00F6B2002E33
:1042000008D1FFB23C2F04D101210E00401C002137
:10421000884617E0FFB23E2F16D0FFB21B2F02D107
:1042200001210D000EE0EDB2002D03D097F0330711
:1042300000210D00DFF854195FFA88F808F80170C2
:1042400018F10108401CCFE70020DFF8E81281F8E0
:104250007D005FFA88F8B8F1000F02D0FFB23E2F60
:1042600009D0DFF8D00290F8FC00401CDFF8C4123F
:1042700081F8FC00FFE0DFF81409007801284BD03A
:10428000022834D004283ED005283BD0062842D04E
:1042900007281AD0082802D0092829D0EBE0DFF837
:1042A000EC08407801280FD11A20ADF80400DFF89F
:1042B000DC088078ADF806000023002201A9DFF8B1
:1042C000F804006802F0AFFAD5E009208DF8080084
:1042D00002208DF8090000208DF80A0013208DF8C7
:1042E0000B00042202A90020FCF76AF9C3E0C2E037
:1042F0005FFA88F8B8F1010189B2DFF86C0AFFF7BC
:10430000E4FCB8E0B7E0B8F10101C9B2DFF8580A3F
:10431000FCF752FAAFE0AEE0DFF870084078012811
:104320000ED0C0F0A780032828D03BD3042840F04B
:10433000A180DFF858088078DFF8D812087099E07B
:1043400001207C4981F87C005FF00C09DFF81CAA91
:10435000DFF81CBA4A465146584601F049F8DFF8E2
:10436000100A807A012804D10120DFF8081A0870A9
:1043700003E00020DFF8FC1908707BE0DFF80C0890
:10438000807801280DD1DFF80408C078012804D115
:104390000120DFF8E419087003E00020DFF8D819E5
:1043A000087067E00120634981F87C00DFF8DC07D2
:1043B0008078DFF8941B08705FFA88F8B8F1040F72
:1043C00016DBDFF8C807C078DFF8B0190870DFF82F
:1043D000AC09007803280BDBDFF8940900788D28FE
:1043E00006D1DFF898090078401CDFF890190870B2
:1043F000DFF8540B0078022810D101204D4981F8D4
:104400007E000220DFF84C1A087001200090012382
:1044100002220321012003F0F4FB24E0002045499F
:1044200081F87E000020DFF8301A08700020DFF8E5
:104430002C1A0870002000900023C82201210520BA
:1044400000F0F3FEDFF8040B007802280BD13C20CB
:10445000DFF80C1A08700A21012000F0EFF80120A3
:10446000DFF8F0190870DFF8E00A0078DFF8DC1AEE
:104470000870FFE7FFE709B0BDE8F08F08300020C3
:1044800080B504210320FBF74FFE012806D101234C
:1044900000220721052001F01BFF15E00123042263
:1044A0000721052001F014FF07210520FBF748FE36
:1044B000DFF8700B00784FF4FA51484304F048FDE0
:1044C00007210520FBF748FE01BD80B50121DFF87B
:1044D000800A01F06BFA002304220121002001F080
:1044E000F7FEDFF8440B006830F0607050F4000015
:1044F000DFF8341B08600220DFF8301B086001235E
:1045000004220721052001F0E3FEFFF7B9FFFBF7C6
:104510007FFFFBF7C8FF00F011F80020054981F884
:104520007C000020034981F87D000020DFF8241979
:10453000087001BDF02C00204C04002080B5DFF88D
:10454000F00A007800281DD00020DFF8E41A087077
:104550000021DFF8E00A01F029FA0120FBF7E0FD75
:1045600001200090012300220021002001F068FEBC
:10457000BF210120FBF7BFFD0120FBF7B1FD0320A8
:1045800000F033FE01BD00004637002080B5DFF8A3
:10459000A00A007800281DD10120DFF8941A0870C5
:1045A00000200090012300220021002001F048FE9D
:1045B0000121DFF8800A01F0F9F9FBF7B4FFFBF7FE
:1045C00018FF00200090DFF8703A642201210320D8
:1045D00000F02BFE01BD00004437002080B5012013
:1045E0008DF80000012200A90120FBF7E9FF01BDC1
:1045F00038B504000D00DFF850090078022805D115
:104600002A00D2B221000020FBF7DAFF31BD000002
:10461000880400208337002090370020893700204D
:104620008604002036370020702F002087040020E9
:10463000712F0020B03500203A37002038B5040033
:104640000D0000208DF800008DF801408DF802501B
:10465000032200A90120FBF7B3FF31BD10B582B0E2
:10466000040004208DF800008DF80140022200A90A
:104670000120FBF7A5FF13BD10B50024DFF8BC092E
:104680000078DFF8BC194978884210D0DFF8AC090F
:104690000078012804D0DFF8A4090078FF2806D1AB
:1046A000DFF898090078DFF898194870641CDFF883
:1046B000940990F88300002801D0552000E0AA203A
:1046C000DFF87C19897888420FD0DFF8780990F8F4
:1046D0008300002804D05520DFF86419887003E0B7
:1046E000AA20DFF85C198870641CDFF85C09007888
:1046F000012801D1012000E0FF20DFF84419C9782A
:1047000088420ED0DFF840090078012804D101204A
:10471000DFF82C19C87003E0FF20DFF82419C870F7
:10472000641CDFF82809007801280AD1DFF8100995
:104730000079012805D00120DFF804190871641CF4
:104740000EE0DFF808090078AA2809D1DFF8F008A0
:104750000079FF2804D0FF20DFF8E4180871641CFA
:10476000DFF8EC080078DFF8D8184979884210D0D3
:10477000DFF8DC080078012804D0DFF8D4080078DE
:10478000FF2806D1DFF8C8080078DFF8B4184871B0
:10479000641CE4B2002C05D00622DFF8A418012026
:1047A000FBF70EFF10BD0000383700202E37002029
:1047B000C4340020913700206436002080B5DFF833
:1047C0007C080078012827D0DFF870080078FF28DF
:1047D00022D0DFF88008007801281DD0DFF86808B3
:1047E0000078012818D0DFF860080078AA2813D0D4
:1047F000DFF85808007801280ED0DFF8500800785C
:10480000AA2809D0DFF848080078012804D0DFF88A
:1048100040080078FF2851D1DFF82C0700780228E3
:104820004CD0FFF729FFDFF814080078012804D0E6
:10483000DFF808080078FF2804D10020DFF8FC1713
:1048400008703BE0DFF80C080078012804D1FF2055
:10485000DFF80018087031E0DFF8EC070078AA28CC
:1048600004D1FF20DFF8E017087027E0DFF8E00749
:104870000078012804D0DFF8D8070078FF2804D199
:104880000020DFF8CC17087018E0DFF8C0070078C8
:10489000AA2813D1DFF8C0070078401CDFF8B8174A
:1048A0000870DFF8B4070078032807DB0020DFF882
:1048B000A8170870FF20DFF89417087001BD80B5B5
:1048C00000210020FFF7BAFE0020DFF888150870ED
:1048D00001BD80B514210120FFF7B0FE322003F0A6
:1048E00038FF0120DFF86C15087001BD9B2D0020FA
:1048F000AF2D002080B5DFF864070078401CDFF89A
:104900005C170870DFF84C050078DFF83C16097872
:10491000884204D10020DFF84417087012E0DFF865
:104920003C070078052802D1FFF7D3FF0AE0DFF843
:104930002C0700780A2805DBFFF7C7FD0020DFF809
:104940001C17087001BD2DE9F84F82B004000D005E
:1049500016008DF8005037005FF00008002C40D0A2
:10496000EDB2002D3DD0F6B2152E3ADAF6B2002E99
:1049700001D0370003E0DFF8E80600780700FFB257
:10498000D7F11500EDB2A84203DAD7F115008DF882
:1049900000009DF8000002280CDB9DF80090DFF875
:1049A000C406FFB217EB000A4A462100504600F049
:1049B0001FFD04E02078DFF8AC16FFB27854DFF872
:1049C000A00600789DF8001051FA87F1884205DAB8
:1049D0009DF80000C019DFF8881608709DF80000E7
:1049E00080469DF90800002827D0DFF85C05007894
:1049F000022822D1DFF870060078002812D0DFF8F4
:104A00006C060078401CDFF864160870DFF85C065E
:104A10000078112806DB0020FBF7DDFC0020DFF822
:104A20004C160870DFF838060178DFF83806FFF713
:104A3000DFFDDFF82C06007880469DF93000002865
:104A400012D05FF015095FF0000ADFF818B6524681
:104A50004946584600F088FC0120DFF80816087027
:104A60000120DFF8FC1508705FFA88F84046BDE8C1
:104A7000FE8F00B587B0DFF8D0040078022840F040
:104A80007F80BD48007800287AD003208DF8000090
:104A900000208DF80100DFF8AC0590F877000028C1
:104AA00003D1FF208DF8020004E0DFF8C405007890
:104AB0008DF80200DFF8BC0500788DF80300DFF800
:104AC000B40540788DF80400DFF8AC0500788DF867
:104AD0000500DFF8A40540788DF80600DFF89C0596
:104AE00000688DF80700DFF894050068000A8DF86B
:104AF0000800DFF88C0500688DF80900DFF88005F4
:104B00000068000A8DF80A00DFF8780500788DF853
:104B10000B00DFF8300590F884008DF80C00DFF80A
:104B2000680500688DF80D00DFF85C050068000A74
:104B30008DF80E00DFF85405B0F86A0080B2000A64
:104B40008DF80F00DFF84405B0F86A008DF810000A
:104B5000DFF83C05008880B2000A8DF81100DFF80C
:104B6000300500888DF81200DFF8280500788DF8F0
:104B7000130055208DF81400152100A8FFF738FD0B
:104B800007B000BD823700209C220020F0330020B7
:104B900010B50124DFF8A404007801280DD101200C
:104BA000DFF8F414E4B26054DFF8F004007850F059
:104BB0000200DFF8E814087021E0DFF880040078D4
:104BC000FF281CD1FF20DFF8D014E4B26054DFF8D6
:104BD000D0048078401CDFF8C8148870DFF8C00467
:104BE000807802280BDB0020DFF8B4148870DFF82F
:104BF000AC04007810F0FD00DFF8A0140870641C0D
:104C0000DFF850040078012834D1DFF8380490F838
:104C10008300002805D05520DFF87C14E4B26054EE
:104C200004E0AA20DFF87014E4B26054DFF87004E6
:104C30000079401CDFF868140871DFF86004007820
:104C400050F01000DFF854140870DFF854040079B5
:104C500003280FDB0020DFF848140871DFF83C045C
:104C6000007810F0EF00DFF8341408700020DFF84F
:104C7000E4130870641CDFF8D0030078012829D100
:104C80000120DFF81414E4B26054DFF81404407912
:104C9000401CDFF80C144871DFF80004007850F075
:104CA0002000DFF8F8130870DFF8F40340790328D8
:104CB00015DB0020DFF8901308700020DFF8E01308
:104CC0004871DFF8D803007810F0DF00DFF8CC136C
:104CD000087004E0FF20DFF8C013E4B26054641CE5
:104CE000DFF86C03007801280DD10120DFF8A8134C
:104CF000E4B26054DFF8A403007850F00100DFF85C
:104D00009C13087021E0DFF848030078FF281CD1CD
:104D1000FF20DFF88413E4B26054DFF884034078A6
:104D2000401CDFF87C134870DFF8740340780228D9
:104D30000BDB0020DFF868134870DFF860030078B1
:104D400010F0FE00DFF854130870641C7E480078F1
:104D5000022808D1DFF844030078002803D0082196
:104D6000CD48FFF745FC10BDF1330020F2330020A1
:104D700030350020840400207F3700207D3700205C
:104D80002DE9F04100240025C6480678C648007881
:104D9000002804D1C5480078F6B2B04257D0C348C5
:104DA0000078F6B2B04225D0C04806700120BE4956
:104DB00008700120A1490870BD480078002808D07B
:104DC0000020BB4908700027380007F0E4F8B94913
:104DD0000860B948007800280CD00020B649087057
:104DE0000027380007F0D7F8B449086002210220F4
:104DF000FBF7A6F9AC48007800280AD00027380055
:104E000007F0C9F804005FF00008404607F0C3F857
:104E10000500A8480068281A0C2805D30120A449D9
:104E200008700020A6490870A4480068201AB0F550
:104E3000967F0CD30120A049087000209A49087081
:104E4000FF207E49087002210220FBF785F9BDE8AA
:104E5000F0810000803700207E370020B13700202D
:104E60008D37002070B59748047800259648007863
:104E7000002804D195480078E4B2A04262D093485B
:104E80000078E4B2A04209D091480068002805D11A
:104E90000026300007F07FF88D4908608C480068D4
:104EA000002815D00026300007F075F80500884866
:104EB0000068281A032845D305210020FBF734F9A0
:104EC000002805D18148047000208149086039E03C
:104ED0007E480078E4B2A04218D07C4804700120DB
:104EE000794908707B48007800280FD00120584984
:104EF00008700020774908700026300007F04BF852
:104F00007549086001210220FBF71AF96E48007804
:104F1000002817D00026300007F03DF805006E4845
:104F20000068281AB0F5967F0CD9012069490870ED
:104F3000002065490870FF204549087001210220C2
:104F4000FBF70AF970BD00007B3700207C3700209A
:104F500000D202002DE9F04788B004000D005FF098
:104F6000000A01260127A2465FF00009FFB2002FC8
:104F70000BD01AF1010A594800680069401E1FFA57
:104F80008AFA504501DA00200700FFB2002F14D141
:104F900053480078002805D000205149087040F29D
:104FA000FF1082461AF1010A1FFA8AFAA4B2601EA3
:104FB000824502D1300080B230E01FFA8AFA4748B9
:104FC0000068806800FB0AF08146202200A948465C
:104FD00004F033FC8046009842498842C6D15FFA0B
:104FE00088F8B8F10C0FC1D10298002802D00398BC
:104FF000002802D11AF1010AB8E70198ADB2A8421F
:1050000007DB029810F1010F03D0039810F1010F94
:1050100002D1300080B201E0761CA7E708B0BDE8FD
:10502000F08700009504002000800C4080800C4038
:105030008437002040051400A9060000AB3700208B
:1050400018040020F02C0020B0370020920400202B
:10505000AE370020AF370020923700209337002072
:105060008A040020F40200208337002094370020B7
:10507000D437002056370020583700201C36002037
:1050800024360020A13700201436002008300020EC
:10509000443700207A370020200400209537002074
:1050A00078350020D0370020AA370020D1370020E3
:1050B0008C040020B83500208B040020B43500207B
:1050C000AC370020CE370020AD37002096370020C7
:1050D000C03500208D040020BC350020480400208D
:1050E00089040020B90C8FB3012110F01F029140F8
:1050F000934A40B2430942F82310704710B440B2BB
:10510000002808D54A018F4B40B210F00F04E31875
:1051100003F8042C03E04A018B4B40B2C25410BC8C
:10512000704772B68948006810F1010F04D08748B3
:105130000068401C854908608448006870478348BF
:10514000006800280CD081480068401E7F4A10602B
:105150007E4800680100002900D162B6080000E026
:1051600000207047C2680A43C2607047C16170473F
:105170002DE9F04104000D0016001F00DDF8188035
:10518000FFF7CFFF724800880121A1400843704912
:1051900008807048A4B221010D54B6B2142096FBC9
:1051A000F0F005F0E7FF41EC100B09F0C3FF51EC04
:1051B000100B09F0F7FF6749A4B211EB0411488006
:1051C00000206449A4B211EB041188806148A4B2A4
:1051D00010EB041087605F48A4B210EB0410C0F815
:1051E0000C80FFF7ACFFBDE8F08110B50400FFF7BD
:1051F00098FF574800880121A140884354490880FE
:1052000053480088002802D0FFF799FF0CE0FFF711
:1052100096FF102006F0ABFC00214F4809F0EEFF8E
:1052200000214E4800F0C2FB10BD2DE9FF410400F3
:105230000D0016001F00DDF82880102006F08DFC00
:105240004348008800280BD0CDF800803B00320096
:1052500092B22900C9B2200080B2FFF789FF30E086
:10526000CDF800803B00320092B22900C9B2200084
:1052700080B2FFF77DFF00A83949102200F0C8F87E
:105280000121364800F092FB00A9334809F0BFFF26
:10529000324800F0ECFB400A3221B0FBF1F12E481D
:1052A000FFF764FF01212C4809F0A8FFBF210D2062
:1052B000FFF724FF01212848FFF754FF0D20FFF7D7
:1052C00013FFBDE8FF8138B521480088002803D1CD
:1052D0000020FFF78AFF32E00024082C2FDA1C4858
:1052E000008801002141C80727D51A4810EB041592
:1052F000A888401CA880A888698888421DD328787F
:10530000002802D00020A88003E0200080B2FFF730
:105310006CFFA868002803D0E868A96888470CE0FB
:105320000E20ADF800002000ADF80200002300229E
:1053300000A90C48006801F0F2FA641CCDE731BD09
:1053400000E100E018ED00E000E400E07C36002021
:105350004C37002014310020000801400072020088
:10536000ECB201006436002062F30F2262F31F42A8
:10537000401810F0030308D0C91A1FD3DB0748BF39
:1053800000F8012D28BF20F8022D130030B4144678
:105390001546103928BF20E93C00FAD8490728BF34
:1053A00020E90C0048BF40F8042D890028BF20F8F0
:1053B000022D48BF00F8012D30BC7047C91818BF36
:1053C00000F8012DCB0728BF00F8012D704750F8D9
:1053D000041B61B150F8042BD30744BFA9F10103AA
:1053E0009A180023091F42F8043BFAD1EFE77047EF
:1053F00062B38B0708D0521E11F8013B00F8013B45
:1054000000F024808B07F6D1830740F0208000BF96
:10541000103A07D330B4B1E83810103AA0E8381089
:10542000F9D230BC530724BFB1E80810A0E8081037
:1054300044BF51F8043B40F8043BD20724BF31F885
:10544000022B20F8022B44BF0B7803707047083AF8
:1054500007D3B1E80810083A40F8043B40F804CB01
:10546000F7D25307E4E78268521C8260426832B187
:105470000268531C036011704168491E4160704707
:105480008B0013EB401313F184431A607047DFF86D
:10549000981A0968080010F00701002908D00229AD
:1054A0000AD005D3042903D006D3052904D006E089
:1054B000042161F3020002E0052161F30200DFF83C
:1054C000681A086070470100B1FA81F2D2F11F0238
:1054D00010007047012111FA00F07047DFF8482AE8
:1054E00012681100DFF8382A90420BD311F007023E
:1054F000921E012A03D8052262F3020102E004226F
:1055000062F30201DFF81C2A904211D3DFF8102A5F
:1055100090420DD211F00702921E012A01D9D21E2B
:1055200003D1032262F3020102E0012262F30201CD
:10553000DFF8F02990420CD211F00702921E012AE6
:1055400001D9D21E03D1022262F3020101E0C9088F
:10555000C900DFF8D4291160704738B5DFF8840A34
:1055600000F030FB0500EDB22800022804D003282B
:1055700006D0082808D00BE009F026FF040009E057
:1055800009F01CFF040005E009F0BBFE040001E087
:1055900000200400200032BDDFF89019096811F4E2
:1055A000E06100291BD0B1F5807F14D0B1F5007FF8
:1055B0000DD0B1F5407F06D0B1F5C06F17D0B1F571
:1055C000E06F10D017E0DFF86819080015E0DFF889
:1055D0006419080011E0DFF8601908000DE0DFF839
:1055E0005C19080009E0DFF85819080005E0DFF849
:1055F000F819080001E000210800704738B5DFF80D
:10560000440900F0DFFA0500EDB2280007280DD0AC
:1056100008280FD109F075FE0400DFF8D0090068F2
:10562000C0F38230401CB4FBF0F405E0FFF7B4FF98
:10563000040001E000200400200032BD38B5040061
:10564000DFF8540A00682100C9B249000200CA40CC
:1056500012F00300002821D0022807D002D303282B
:1056600008D02BE009F0AAFE050029E009F0ACFE05
:10567000050025E0DFF878090068C00504D4DFF8EC
:105680006C090068400004D509F025FE800805007B
:1056900003E009F020FE4008050011E0DFF8F809FA
:1056A0000068A10010310200CA40002A03D009F0AE
:1056B00088FE050001E00020050001E00020050053
:1056C000280032BDDFF82C190968C90704D4DFF8B7
:1056D000D41909680142FAD1704770B50400C4F3C7
:1056E00003100500012D0FD079D3032D22D016D33E
:1056F000052D01D050D372E0DFF8F0080068C0F348
:105700008230401C06006CE0DFF89C09006810F055
:105710000F0006003000FFF7DDFE060061E0DFF855
:10572000D008006810F00F0006003000FFF7D2FE2E
:10573000060056E02000DFF87419884208D0DFF830
:10574000701988420FD0DFF86C19884216D020E01B
:10575000DFF864090068C0F3031006003000FFF7AB
:10576000B9FE060017E0DFF850090068C0F3032017
:1057700006003000FFF7AEFE06000CE0DFF8380947
:10578000006810F0030006003000FFF7A3FE0600DB
:1057900001E00120060024E02000DFF82019884203
:1057A00004D0DFF81C1988420BD015E0DFF814098B
:1057B000006810F0030006003000FFF78BFE0600C3
:1057C0000CE0DFF800090068C0F3011006003000AB
:1057D000FFF780FE060001E00120060001E0012045
:1057E0000600300070BDF8B504000D00C4F30310CE
:1057F0000700012F1DD0C0F0D880032F63D026D31F
:10580000052F02D0C0F0A380CFE0FFF740FEDFF805
:10581000DC07006830F4E030691E50EA8130DFF8C0
:10582000CC17086009F057FD06003000FFF756FE60
:10583000BBE02800FFF747FE0500DFF86C080068B2
:10584000000900012843DFF860180860ADE0FFF7A9
:105850001EFE512000F0B6F9042807D109F0A4FD7E
:10586000B0FBF5F0DFF8B81688420CD200221E21FA
:10587000DFF87807FFF704FE00220821DFF8700741
:10588000FFF7FEFD0BE001221E21DFF86007FFF7A6
:10589000F7FD01220821DFF85807FFF7F1FD280086
:1058A000FFF711FE0500DFF8480700680009000156
:1058B0002843DFF83C17086009F00DFD06003000B2
:1058C000FFF70CFE71E02000DFF8E017884208D0F7
:1058D000DFF8DC17884216D0DFF8D817884224D0CA
:1058E00034E00420FFF7EEFE2800FFF7ECFD050092
:1058F000DFF8C407006830F0F00050EA0510DFF868
:10590000B817086022E00420FFF7DCFE2800FFF74C
:10591000DAFD0500DFF8A007006830F4706050EA97
:105920000520DFF89417086010E00420FFF7CAFE96
:105930002800FFF7C8FD0500DFF87C070068800835
:1059400080002843DFF870170860FFE72DE0200093
:10595000DFF86817884204D0DFF86417884211D056
:1059600022E04020FFF7AEFE2800FFF7ACFD050067
:10597000DFF850070068800880002843DFF84417EC
:10598000086011E04020FFF79DFE2800FFF79BFD17
:105990000500DFF83007006830F0300050EA0510ED
:1059A000DFF820170860FFE7FFE7F1BD2DE9F843B6
:1059B00004000D005FF00008C4F30320C0B201280A
:1059C00009D042D303280ED009D3052833D02CD3D5
:1059D000062836D039E0DFF8D006060036E0DFF8DA
:1059E000E806060032E0DFF8E4060600512000F089
:1059F000E9F8042818D109F0D7FC8146DFF8D00671
:105A0000FFF76BFEB9FBF0F0DFF8141588420BD3FB
:105A100001221E21DFF8D405FFF732FD0122082103
:105A2000DFF8CC05FFF72CFD10E0DFF8A806060034
:105A3000012080460AE0DFF8A0060600102080461C
:105A400004E0DFF89806060000E00EE0C4F304303E
:105A50000700B8F1000F02D04046FFF733FEEDB269
:105A60002A0039003000FFF70BFDBDE8F18338B59F
:105A7000040014F47810002824D0B0F5003F2DD095
:105A8000B0F5802F3ED0B0F5C02F3FD0B0F5002F3D
:105A900041D0B0F5202F4BD0B0F5801F56D0B0F5D7
:105AA000901F60D0B0F5A01F62D0B0F5B01F6CD0D1
:105AB000B0F5C01F76D0B0F5D01F77D0B0F5E01F9D
:105AC00078D07BE009F01DFC0500DFF820050068B8
:105AD000C0F38230401CB5FBF0F571E009F011FC19
