:10000000E83F002029B3010059B40100C1A7010055
:100010005DB4010061B4010065B40100000000009E
:1000200000000000000000000000000031F90000A6
:1000300069B4010000000000CDF8000067F700007F
:10004000E5640000CBA601006DB4010071B40100AD
:1000500075B40100ABA6010079B401007DB40100C4
:1000600081B40100CD2C0100DF2C010031A701007B
:1000700085B4010089A7010089B401008DB4010095
:1000800091B401004328010095B4010099B4010026
:100090009DB40100A1B40100A5B40100A9B4010000
:1000A00049050000ADB40100ADA60100B1B40100E6
:1000B000B5B40100B9B4010015090100B7BD0000D5
:1000C000BDB40100C1B40100C5B40100C9B4010050
:1000D000CDB40100D1B40100D5B40100D9B4010000
:1000E000012110F01F029140DFF8042640B24309BD
:1000F00042F82310704710B440B2002809D54A01D5
:10010000DFF8F03540B210F00F04E31803F8042CC8
:1001100004E04A01DFF8E03540B2C25410BC704739
:10012000DFF8D81508607047DFF8D425C0B2242363
:1001300003FB0020C0690200CA4012F001007047B2
:1001400010B401228A40DFF8B835C0B2242404FB81
:1001500000335A6110BC704710B401228A40DFF8A6
:10016000A035C0B2242404FB00331A6110BC7047D0
:1001700010B401228A40DFF88835C0B2242404FB81
:1001800000339A6110BC704772B6DFF878050068DA
:1001900010F1010F06D0DFF86C050068401CDFF895
:1001A00064150860DFF85C0500687047DFF85405E7
:1001B000006800280FD0DFF84C050068401EDFF80B
:1001C00044251060DFF83C0500680100002900D1DB
:1001D00062B6080000E000207047DFF82C050068D8
:1001E00030F00400DFF82015086030BF704741632D
:1001F0007047826B0A4382637047C06A704738B5A4
:1002000004002500012D03D1042004F0E4FF0FE0D9
:10021000022D0DD1DFF8F4040078002808D000206A
:10022000DFF8E81408700120DFF8E41481F87A00A0
:1002300031BD2DE9F84304000D0000265FF0FF37C3
:100240000020A84212DA015D0E00F6B2002E0DD099
:10025000F6B2802E02DB2021015505E0F6B2202EF9
:1002600002D0002F00D50700401CEAE7002F07D579
:100270005FF0000842462900200005F06BF80AE014
:10028000012F08DBB5EB070817EB04094246494686
:10029000200005F0A3F8BDE8F18380B500F01EF85A
:1002A00004F008FBDFF86C0490F87400002802D119
:1002B00004F0C2FB11E0DFF860040078401CDFF8B6
:1002C00058140870DFF850040078032805DB00207C
:1002D000DFF84414087004F0AFFB01BD10B5002432
:1002E000DFF838040078012815D1DFF834040078ED
:1002F00000286FD0DFF828040078401EDFF82014B3
:100300000870DFF81C040078002863D11421012054
:1003100004F0A6F95EE0DFF804040078022859D161
:10032000FFF732FFDFF8FC0300880B2801DB012018
:1003300004000020DFF8EC130880FFF737FFE4B279
:10034000002C1FD0DFF8E0030078401CDFF8D81342
:100350000870DFF8D40300780B283BDB0020DFF8BF
:10036000C81308700020DFF8C4130870DFF8BC035E
:100370000078DFF8BC13097888422BD0002004F005
:100380007FF927E0DFF8A0030078401CDFF898131E
:100390000870DFF89403007879281BDB0020DFF871
:1003A000881308700720DFF884130870DFF87C03D7
:1003B0000078DFF87C13097888420BD0072004F01E
:1003C0005FF9DFF870030078002803D00020DFF821
:1003D0006413087010BD10B504000020DFF8481346
:1003E0000870DFF8480304702000C0B204F048F938
:1003F00010BD80B5FFF7C8FE0420CF490880C9486A
:100400000088401CC7490880FFF7D0FE01BD00B539
:1004100085B000A8C949102204F0F0FF0621C848A1
:1004200005F05CFC0121C74805F0B6FA0121C64879
:1004300005F0B2FA0121C54805F0AEFAC44805F04E
:10044000B8FE00A9C24805F091FE40F20340C14940
:100450000860012304220221052005F02FFF01235B
:1004600002220021002005F029FF3C20BA49086043
:100470003E20BA4908604FF48061B548FFF7B9FEE5
:10048000BF211820FFF737FE1820FFF729FE05B01F
:1004900000BD10B40123B24C23706423B14C2380FF
:1004A00010BC704710B58CB009A8AF491CC91CC05E
:1004B0000C390C38AD48D0E90023CDE9042306A857
:1004C000AB491CC91CC00C390C38AA48D0E9002320
:1004D000CDE902230121A84805F05EFA00208DF83D
:1004E0000000A648019000A806F0BAF809A901206A
:1004F00006F068F804AA0121012006F090F806A988
:10050000022006F05FF802AA0121022006F087F817
:100510009B489C49086000209A49486000F002F816
:100520000CB010BD00B583B03F20019096480090FC
:10053000964897490978402202FB010300220121D5
:10054000012006F021F807BD10B582B08048FFF702
:1005500054FE040021007E48FFF749FEFFF749FFE3
:100560008B480078401C8A49087089480078082127
:1005700090FBF1F202FB110285480270FFF7D2FFF7
:100580000520ADF800000023002200A98148006882
:1005900006F0BBF913BD80B57148007800280DD175
:1005A000FFF71BFEFFF7F0FD63480088002802D12B
:1005B000FFF7FCFD02E0FFF7F9FDEDE701BD2DE9D6
:1005C000F04383B004000D00160073480078002843
:1005D00001D103F0F3FFFFF7DEFF62480088002837
:1005E00003D112206D49087002E006206B490870A3
:1005F00012206A490870694807785FF00008DFF840
:10060000A09142463900484604F0A4FE3C206449CB
:10061000624A12785054B01D6149604A12785118EC
:1006200048705F485D49097808188470F6B25C48E4
:100630005A490978081810F1030932002900484680
:1006400004F0CCFE564855490978F6B271180818DE
:100650000021C170524851490978F6B27118081842
:10066000002101714E484D490978F6B271180818F9
:100670003E214171FFF7BDFE00203949087047480F
:10068000007850FA86F0401D019045480090454B97
:1006900000220121022005F077FFBDE8F78310B5A5
:1006A000040030480088002802D000202D4908802E
:1006B0002148008800280AD01F480088401E1E4993
:1006C00008801D480088002801D103F04DFF10BDAF
:1006D00001000020022808DA425C334BC35C9A42D6
:1006E00001D0002002E0401CF4E701207047000028
:1006F00000E100E018ED00E000E400E01C610040D3
:10070000006000407C36002010ED00E088370020BB
:10071000E82C0020FC2F00208B3700207B370020A6
:100720008D3700202C3700208C37002080040020DB
:10073000833700208537002028370020C8B2010009
:1007400003001200004304004005140000D2020020
:100750000040084054400840104008401440084001
:100760007E0400202A37002038B30100E0B30100E6
:1007700044B30100E8B3010000030400003200208C
:1007800093040000243500201C40084094220020DF
:100790008137002064360020843700207D0400204B
:1007A00088300020284008405AB100002DE9F04F61
:1007B000A9B004000D0020788DF8380000261E2016
:1007C00006F0A5FA0120029004200190012000907B
:1007D000012304220121012007F009FA15275FF007
:1007E00000090DF1200A4A463900504604F0B2FDD6
:1007F00002208DF820009DF838008DF821009DF82A
:100800003800012800F0CE87022801F0A9810328D2
:1008100001F00480042801F04980052801F0C2801D
:10082000062801F09982072801F0E782082801F0E4
:100830003782112801F0F083122801F0098413286F
:1008400000F0E084142800F05985152800F0158682
:10085000162800F0C886172800F02385182800F015
:100860007186192842D01A2801F04D831B2801F007
:10087000FB801C2801F01F831D2801F0DD831E284A
:1008800003F00B811F2803F0278150284BD05128FB
:1008900000F0ED80532800F03484542800F04E829C
:1008A000552800F00F83562800F001845E2800F0E0
:1008B0007C845F2800F04F84802802F0858781289F
:1008C00003F01480F02802F00387F12802F06D870E
:1008D000F42802F01987F82803F04680FD2802F07A
:1008E0004987FE2802F02E8703F020B9DFF8300E8A
:1008F000006F8DF82200DFF8280E006F000A8DF8D7
:100900002300DFF81C0E006F000C8DF82400DFF8C8
:10091000100E006F000E8DF82500062108A803F0C8
:100920007CFE03F003B9DFF8540E90F88200002833
:100930000DD10F274FF0FF090DF1220A4A46390069
:10094000504604F007FDF0208DF8280089E01420BF
:1009500007F0F5FE0020FFF73EFD142007F0EFFE44
:10096000022006F0B8F906F0AAF92079E178090426
:1009700011EB0060A17810EB012061784018109015
:100980006079DFF8FC1D0870DFF8F40D00780128AD
:1009900004D11420DFF8EC1D087003E05020DFF8CC
:1009A000E41D0870A079002804D00120DFF8D81DCC
:1009B000087003E00020DFF8D01D08700027DFF882
:1009C000C80D0078002808D04FF40070DFF8BC1D77
:1009D00008804FF4C060070005E010A806F0A3FAF5
:1009E000DFF8A81D08800020DFF8A41D08600120A2
:1009F000DFF8A01D08700120DFF89C1D0870DFF8EB
:100A00008C0D00888DF82200DFF8800D008880B200
:100A1000000A8DF8230010988DF824001098000A21
:100A20008DF825001098000C8DF826001098000E07
:100A30008DF8270000208DF8280038008DF8290057
:100A4000BFB2380A8DF82A00109810F1010F08D0B3
:100A500001200090DFF8483D28220021002008F006
:100A600028FB0B2108A803F0D8FD03F05FB801278D
:100A70005FF000095FF0000AA0780002617840187A
:100A8000ADF80400BDF804004FF6FF7188421FD195
:100A9000DFF8FC0C0068002825D0DFF8F00C008897
:100AA00006F083F9DFF8E01C097800290CD0DFF8A4
:100AB000DC1C098880B2814202D3F0210F009EE045
:100AC000DFF8C81C08800EE0DFF8C01C08800AE0D0
:100AD000BDF804004FF6FE71884204D0BDF8040052
:100AE000DFF8A81C0880DFF8A40C0088B0F5006FC0
:100AF00002DB032007006AE0BDF804004FF6FE7138
:100B0000884208DBDFF8840C0088B0F5007F02DA49
:100B1000032007005BE006F0D2F8DFF8700C0088D5
:100B2000B0F5007F53DBDFF8640C0088DFF83C1E73
:100B30000968896848430090202213A9009808F0AA
:100B400070FE83465FFA8BFBBBF10C0F02D00420D2
:100B5000070038E0DFF8300C007800282FD1139818
:100B6000DFF80C1E884202D0022007002BE0149808
:100B7000DFF81C1C0968884202D20520070022E029
:100B8000159810F1010F03D0169810F1010F02D142
:100B90000620070017E01598002802D016980028B4
:100BA00008D1DFF8E80B008806F0FFF8DFF8DC1B5F
:100BB0000880B8E71498DFF8D81B086003E01498A1
:100BC000DFF8CC1B08601598814616988246DFF83E
:100BD000C40B0078002812D0FFB2012F0FD10020E3
:100BE000DFF8B01B0870DFF8A80B016889B2DFF8E6
:100BF0009C0B008804F0A0F9DFF8641E08808DF8D3
:100C00002270DFF8880B00888DF82300DFF87C0B5A
:100C1000008880B2000A8DF8240048468DF825002F
:100C20005FEA19208DF826005FEA19408DF8270049
:100C30005FEA19608DF8280050468DF829005FEAB8
:100C40001A208DF82A005FEA1A408DF82B005FEA1F
:100C50001A608DF82C00DFF8380B00688DF82D0035
:100C6000DFF82C0B0068000A8DF82E00DFF8200B4F
:100C70000068000C8DF82F00DFF8140B0068000EE0
:100C80008DF83000DFF8DC0D00888DF83100DFF8DA
:100C9000D40D008880B2000A8DF83200DFF8C00D54
:100CA00000888DF83300DFF8B80D008880B2000AA4
:100CB0008DF83400152108A803F0AFFCDFF8A40D6F
:100CC0000088401CDFF89C1D0880FFB2012F33D143
:100CD000002008F012FADFF8940C00688068DFF852
:100CE000A41A097890FBF1F0DFF8681E0880DFF89D
:100CF0007C0C00688068DFF88C1A097890FBF1F2B0
:100D000001FB1200DFF8501E0880DFF8800A00881F
:100D1000DFF8581C096889684843DFF8401E0860FE
:100D20000020DFF8AC1E0880002000900023142271
:100D30000121042004F06FFA02F0F8BE0027DFF86A
:100D40003C0A90F8820000280DD15FF001094FF0B5
:100D5000FF0A0DF1220B52464946584604F0FAFAB2
:100D6000F020070063E0142007F0E9FC0020FFF703
:100D700032FB142007F0E3FC022005F0ACFF05F085
:100D80009EFF2079E178090411EB0060A17810EB57
:100D9000012061784018DFF83C1E0860207AE17974
:100DA000090411EB0060A17910EB01206179401872
:100DB000DFF8241E0860DFF8200E0068DFF8141E3C
:100DC0000968401AB0F5C06F02DB402007000CE054
:100DD000DFF8000E0068DFF8001E0968884202DBB9
:100DE0006020070001E0802007008DF804709DF866
:100DF00004008DF805009DF805900122DFF8DC1D48
:100E0000DFF8D00D006806F022FC50EA09008DF8EA
:100E100005009DF804900022DFF8C41DDFF8B80D2E
:100E2000006806F014FC50EA09008DF804009DF8F3
:100E30000500812836D19DF80400832832D1DFF8DF
:100E4000980D0068DFF88C1D0968401A401C5FEAA5
:100E5000C009484609F059FDDFF8881E0860DFF830
:100E6000840E0068DFF8801E0860DFF8780E0068E6
:100E7000002815D0DFF8740E0090DFF85C0D0068D4
:100E8000DFF8501D0968431ADFF8500D0288DFF8BB
:100E9000440D0168DFF8500E006806F02FFC01E0F9
:100EA000702007008DF822709DF805008DF8230052
:100EB0009DF804008DF82400052108A803F0ADFB7F
:100EC00002F034BE0027DFF8240ED0F80090A0789E
:100ED0000002617810EB010ADFF8900A0068806870
:100EE000DFF8A018097890FBF1F0DFF8681C0880A3
:100EF000DFF8780A00688068DFF88818097890FBC6
:100F0000F1F201FB1200DFF8501C0880DFF8D80D69
:100F100000684068DFF8541A096889684843DFF8B8
:100F20003C1C08600020DFF8A81C08801FFA8AFA21
:100F30004FF6FF70824506D1DFF8B40D0088401CE3
:100F4000DFF8AC1D0880DFF8A40D0068012860DB25
:100F5000DFF8840C006881450EDA48468DF82500DC
:100F60005FEA29208DF826005FEA29408DF82700E6
:100F70005FEA29608DF82800DFF8700D0068DFF85F
:100F8000541C0968401ADFF8681D098888421CDB78
:100F90001FFA8AFA4FF6FF70824507D1DFF8480D35
:100FA00000680830DFF8401D0860FFE78DF8227008
:100FB000DFF83C0D00888DF82300DFF8340D008841
:100FC00080B2000A8DF8240063E0012007008DF84C
:100FD0002270DFF81C0D00888DF82300DFF8100D5B
:100FE000008880B2000A8DF82400092108A803F0C7
:100FF00014FBDFF8F00C0068002808D0DFF8E40CE0
:10100000006809F0E2FD0020DFF8D81C086002F05B
:101010008DBDDFF8DC0C00888DF82300DFF8D00CE4
:10102000008880B2000A8DF8240000208DF8250089
:1010300000208DF8260000208DF8270000208DF874
:101040002800DFF8940B0068DFF8881B0968401A55
:10105000401CDFF89C1C0988884210DB1FFA8AFAC2
:101060004FF6FF70824507D1DFF87C0C006808302E
:10107000DFF8741C0860FFE78DF8227009E001209A
:1010800007008DF82270092108A803F0C6FA02F0C3
:101090004DBD092108A803F0C0FA002000900023EC
:1010A00014220121042004F0B6F802F03FBD00270D
:1010B0000020ADF83A00022005F00DFE05F0FFFD1E
:1010C0000DF13A0006F08BFB070038008DF8220086
:1010D00038128DF8230038148DF8240038168DF856
:1010E0002500BDF83A008DF82600BDF83A0080B220
:1010F000000A8DF82700082108A803F08EFA02F0F4
:1011000015BDDFF8EC0B0088002803D00020DFF8C5
:10111000E01B0880DFF8D40B0068002803D0002013
:10112000DFF8C81B0860002007F0BBFF022005F0B5
:10113000E0FD05F01DFE00208DF8220000208DF856
:101140002300062108A803F068FA0020DFF814192C
:10115000088002F0EBBC601CFFF7BAFA002808D147
:1011600001208DF82200062108A803F056FA02F0AB
:10117000DDBC09208DF86C00E078452804D1207989
:10118000412801D101201D90002300221BA9DFF876
:101190003C0E006805F03DFB00208DF82200062182
:1011A00008A803F03AFA02F0C1BC0020DFF8201EC4
:1011B00008600020DFF81C1E08600020DFF8181E01
:1011C00008600020DFF8141E08600020DFF8101E01
:1011D00008600020DFF80C1E08600020DFF8081E01
:1011E00008600020DFF8041E08600020DFF8001E01
:1011F000086000208DF82200032108A803F00DFAF2
:1012000002F094BCDFF87405C0688DF82200DFF8A6
:101210006C05C06800128DF82300DFF86005406996
:101220008DF82400DFF85405406900128DF8250080
:1012300000208DF8260012208DF82700DFF8440EDC
:1012400080788DF82800DFF83C0EC0788DF82900F2
:101250000627DFF8349E0DF12A0A3A004946504627
:1012600004F0BCF849F2FE7000788DF8300049F2C5
:10127000FF7000788DF83100DFF8A40490F8820048
:101280008DF83200DFF89804B0F86C008DF8330068
:1012900000208DF83400152108A803F0BEF902F0F3
:1012A00045BC04276078A178090289B208180F901C
:1012B0000F98DFF8C8144969884208DADFF8CC0DC6
:1012C00000880F9911FA80F008F0EBFA07000F98E8
:1012D0008DF822000F9800128DF82300FFB20C2F1A
:1012E00003D100208DF8240002E001208DF82400B5
:1012F000052108A803F091F902F018BC01276078D5
:10130000DFF88C1D0870DFF8880D0078012836D1D1
:10131000DFF8680490F88200002802D1F02007006E
:101320009EE0DFF8FC0390F82900DFF8501491F8F4
:101330007A10084203D00120DFF8581D08700220FF
:101340000090DFF85C341E220021002007F0B1FE7F
:10135000022005F0C0FC05F0B2FC02200700A078D6
:10136000552807D1E078217909020818DFF81C1DFB
:10137000088075E00020DFF8141D088070E0DFF8B9
:10138000100D007802286BD1002007F08AFEDFF8EC
:10139000040D0078002808D00020DFF8F81C087041
:1013A0000120DFF8D81381F87A000120070010220D
:1013B000DFF8E41CDFF8D40C00884FF48053584366
:1013C00008F02FFADFF8D41CDFF8CC0C09F094FEFB
:1013D000DFF8C41CC98980B2814234D1DFF8B80C6F
:1013E0004168DFF8A80C00884FF480525043103059
:1013F00008F070FBDFF8A81C0880DFF89C0C00895F
:10140000DFF89C1C098888421DD10020DFF8941C5D
:1014100008700020DFF8901C087002200700DFF839
:10142000700C00788DF822008DF82370042108A834
:1014300003F0F3F8642007F082F9DFF8700CDFF8AE
:10144000701C0860FEE70020DFF85C1C08700321B8
:101450000220FEF781FE022005F04BFC05F088FC1F
:10146000DFF82C0C00788DF822008DF82370042111
:1014700008A803F0D2F802F059BB05F069FC070098
:10148000FFB2002F04D1022005F025FC05F017FC67
:101490006078A178090289B208180F900F98B749AF
:1014A000C968484312904FF48051DFF8E00B008880
:1014B0004FF48052129B02FB003008F00BFBDFF868
:1014C000E01B0880FFB2002F04D1022005F011FCC0
:1014D00005F04EFC60788DF82200A0788DF823008E
:1014E000E0788DF8240020798DF82500DFF8B00B26
:1014F00000888DF82600DFF8A80B008880B2000A6B
:101500008DF82700082108A803F087F89DED0F0A41
:10151000B8EEC00ADFF8A40DD0ED000A80EE200A74
:10152000DFED9E0A20EE200ABDEEC00ADFF8900D26
:1015300080ED000A112000900120DFF8681B087080
:1015400002F0F4BAE078DFF87C1D0870DFF8740D63
:101550000078012822D16078A178090289B20818A0
:10156000DFF8641D0860DFF8600D00688349C96812
:101570004843DFF8541D08600020DFF8501D086064
:101580000020DFF84C1D08707C48C068DFF8441D5F
:1015900008600020DFF8401D086008E0DFF8240D37
:1015A0000078022803D10020DFF8201D0860607851
:1015B0008DF82200A0788DF82300DFF8080D007860
:1015C0008DF82400DFF8100D00688DF82500DFF895
:1015D000080D006800128DF82600072108A803F006
:1015E0001CF802F0A3BADFF8F40C0078002805D04C
:1015F0000020DFF8E81C087002F098BADFF8DC0C75
:101600000078401CDFF8D41C0870002007F075FD3E
:10161000DFF8C40C0068401CDFF8BC1C0860002028
:101620008046B8F1130F12DA18EB04004078DFF8A7
:10163000B01CDFF89C2C12785054DFF8940C007822
:10164000401CDFF88C1C087018F10108E9E7DFF88E
:10165000840C0068982865DBDFF8740C0078982803
:10166000C0F28380DFF86C0C00689838DFF8641CE7
:1016700008600020DFF8581C08709822DFF8601C12
:10168000DFF8080A00884FF48053DFF83CCCDCF820
:1016900000C003FB00C0DFF8343C1B68181808F0DA
:1016A000A3F90700DFF8240C00689830DFF81C1C51
:1016B0000860DFF8F409007800282CD11022DFF848
:1016C000D819DFF8C80900884FF48053584308F050
:1016D000A8F80700DFF8C009406809F049FD0022BA
:1016E000DFF8003C09F052FD09F074FEDFF8CC1B76
:1016F0000860DFF8C80B90ED000AB5EE400AF1EE85
:1017000010FA04D1DFF8B40B5FF07E5101600120C4
:10171000DFF89419087003210220FEF729FD24E068
:10172000FC2F0020DFF8A80B0078DFF8A81B096861
:1017300088421ADBDFF89C0B0268DFF8A41BDFF895
:101740004C0900884FF48053DFF87CCBDCF800C0F4
:1017500003FB00C0DFF8743B1B68181808F044F95D
:1017600007000020DFF86C1B0860DFF8700B0078C2
:10177000401EDFF8681B087002F0D8B9E82C002082
:10178000893700207F0400208A3700202E37002070
:10179000AC35002089040020810400200000C842EC
:1017A000FF0100006078DFF8401B087060788DF85A
:1017B0002200032108A802F030FFDFF82C0B00788C
:1017C000012826D1142006F0BAFF0020FEF703FE00
:1017D000142006F0B4FF0120009000230022002115
:1017E000002003F093F80020DFF8001B08700020B1
:1017F00000900023C8220121052003F00CFDDFF832
:10180000F00A0078142110FB01F0DFF8E81A0870E4
:1018100002E0052003F0DFFC02F088B9207A617A4B
:1018200009020818DFF8D01AA1F880000AF050F970
:10183000A07807004FF48070474360783F18A7F204
:101840006C702390E078401E22902079219060797E
:101850002090A0791F90E0791E9000202690012012
:1018600007901EA984B068462C2203F0C7FD0FBC68
:101870000AF00AFBDFF8840A0078012803D1AA20C5
:10188000DFF8781A08700F2003900023002203A9C4
:10189000DFF86C0A006804F0BCFF00208DF822001D
:1018A000032108A802F0B9FE02F040B960780028D0
:1018B0002CD100208DF82200DFF8480A006800785B
:1018C0008DF82300DFF83C0A0068807B8DF8240047
:1018D000DFF8300A0068C07B8DF8250000208DF805
:1018E0002600002007280CDA9DF82610DFF8142ABD
:1018F000126882189278824011438DF82610401C9D
:10190000F0E70A2108A802F088FE49E00220DFF88B
:10191000F41909684870A078002801D0012000E07F
:101920000020DFF8E01909680870E078DFF8D419C2
:10193000096888732079DFF8CC190968C87300201A
:10194000072817DA61790A000241D10706D501217B
:10195000DFF8B02912688218917005E00021DFF8E5
:10196000A429126882189170401CE9E74004002005
:10197000B90C8FB30AF0ACF81020029000230022BB
:1019800002A9DFF87C09006804F043FF60788DF855
:10199000220000208DF82300042108A802F03DFE5B
:1019A00002F0C4B8607800282DD100208DF8220004
:1019B000DFF85409006840798DF82300DFF8480902
:1019C000006800798DF82400DFF83C090068007891
:1019D0008DF82500DFF83009006840788DF8260082
:1019E000DFF82409006840888DF82700DFF818091F
:1019F0000068408880B2000A8DF828000A2108A8F3
:101A000002F00BFE29E0A078DFF8FC1809684871A5
:101A1000E078DFF8F418096808712079DFF8E81831
:101A2000096808706079DFF8E01809684870A079E3
:101A3000E17909020818DFF8D018096848800AF02F
:101A400047F809F0C7FF60788DF8220000208DF874
:101A50002300042108A802F0E0FD02F067B800BFEF
:101A60004237002040370020607800282DD1607870
:101A70008DF82200DFF88008006C8DF82300DFF875
:101A80007808406C8DF82400DFF86C08406C001278
:101A90008DF82500DFF86008806C8DF82600DFF8EF
:101AA0005808806C00128DF82700DFF84C08C06CD5
:101AB0008DF82800DFF84008C06C00128DF829006E
:101AC0000A2108A802F0A9FD42E0607801283FD170
:101AD000A078DFF824180864E07821790902081852
:101AE000DFF8141848646079A17909020818DFF852
:101AF00008188864E079217A09020818DFF8F817D5
:101B0000C86409F0E5FF60788DF8220000208DF8A8
:101B10002300042108A802F080FDDFF8680C00789B
:101B2000002803D00020DFF85C1C0870DFF8580C98
:101B30000078002803D00020DFF84C1C0870DFF884
:101B40004C0C0078002803D00020DFF8401C0870FF
:101B500001F0ECBF363700203A370020B0350020C6
:101B6000607800283ED100208DF82200DFF8880739
:101B700090F86200800703D501208DF8230002E071
:101B800000208DF82300DFF8700790F86200C0078E
:101B900003D501208DF8240002E000208DF82400F8
:101BA000DFF85407B0F860008DF82500DFF848072B
:101BB000B0F8600080B2000A8DF82600DFF8D00B84
:101BC000807B8DF82700082108A802F026FD65E03B
:101BD00038370020A4350020A835002030370020F9
:101BE000323700206078012858D1A07801280AD126
:101BF000DFF8040790F8620050F00200DFF8F816F2
:101C000081F8620009E0DFF8F00690F8620010F059
:101C1000FD00DFF8E41681F86200E07801280AD1BF
:101C2000DFF8D40690F8620050F00100DFF8C81623
:101C300081F8620009E0DFF8C00690F8620010F059
:101C4000FE00DFF8B41681F862002079617909029C
:101C50000818DFF8A416A1F8600094F9067009F0DE
:101C600037FF60788DF8220000208DF823000421D2
:101C700008A802F0D2FC022006F061FDDFF8780629
:101C8000B0F86000002806D07FB2012F06D00120F6
:101C900002F04FFA02E0002002F04BFA01F046BFDA
:101CA0006078002834D160788DF82200DFF848068B
:101CB00090F8760010F00100012803DB01208DF878
:101CC000230002E000208DF82300DFF82C0690F8B6
:101CD000760010F0020001280CDB01208DF82400B2
:101CE0000BE000BF883500208C35002090350020A7
:101CF0003437002000208DF82400DFF8FC0590F830
:101D000077008DF82500062108A802F086FC21E066
:101D1000607801281ED1A078012801D1012000E0BF
:101D20000020E178012901D1022100E000210818FA
:101D3000DFF8C41581F876002079DFF8BC1581F84A
:101D4000770009F0C5FE60788DF82200032108A80D
:101D500002F063FC01F0EABE0027DFF89C0590F872
:101D60006000800702D4012007003EE06078002870
:101D700004D10020DFF8EC1B81F88C00607801288A
:101D80001BD1142001905FF00009DFF8DCAB4A465C
:101D90000199504603F0DEFA5FF0120AA01C009091
:101DA000DFF8C4BB52460099584603F017FB0120E8
:101DB000DFF8B01B81F88C0017E06078022814D19E
:101DC0000020DFF8A01B81F8AB005FF0120914F1CE
:101DD000020ADFF894BB4A465146584603F0FEFA21
:101DE0000120DFF8801B81F88D008DF8227004211E
:101DF00008A802F012FC01F099BE00275FF000096C
:101E00006078062831D1DFF8F00490F860004006D1
:101E100002D4012007002DE006208146A07810F0B2
:101E20000F008DF800009DF80000012816D1142045
:101E3000059000200490DFF834AB049A05995046D1
:101E400003F088FA5FF0100AE01C0190DFF81CBB79
:101E500052460199584603F0C1FA0BE09DF8000084
:101E6000022807D10020814604E06078052801D1CE
:101E7000052081465FFA89F9B9F1000F13D05FFAA6
:101E800089F9B9F1060F0ED01B20ADF844005FFAB6
:101E900089F9ADF846900023002211A9DFF860040B
:101EA000006804F0B6FC8DF82270042108A802F046
:101EB000B4FB01F03BBE00208DF82200FF208DF81E
:101EC0002300607801280DD1A778FFB2082F01DB2D
:101ED000072007003800C0B2FEF77DFA142006F094
:101EE0002EFC07E06078002804D1DFF8840A00782F
:101EF0008DF8230060788DF82200042108A802F0F4
:101F00008CFB01F013BE601CFEF7E2FB00287AD0C8
:101F1000DFF8E40390F874702079002805D0207968
:101F2000122802D02079562864D1FFB2342F04D071
:101F3000FFB2782F01D00020070094F803905FFAD9
:101F400089F9B9F1340F06D05FFA89F9B9F1780F40
:101F500001D000208146FFB25FFA89F94F4530D0A9
:101F6000DFF8940380F874905FFA89F9B9F1340FBF
:101F700008D15FF0000A50460AF001F8DFF8781344
:101F800008670CE05FFA89F9B9F1780F07D15FF0C3
:101F9000000A504609F0F3FFDFF85C13C86704201D
:101FA000ADF844005FFA89F95FEA092050FA87F03A
:101FB000ADF846000023002211A9D148006804F0C2
:101FC00028FC01208DF8230019E000BF8036002096
:101FD00014360020183600201C3600202036002041
:101FE00024360020283600202C36002030360020F1
:101FF000343600202079AA2801D18DF823700020E2
:102000008DF8220002E001208DF82200042108A8AA
:1020100002F003FB01F08ABD601CFEF759FB0028AB
:1020200001D00AF07EF800208DF82200042108A8D3
:1020300002F0F3FA01F07ABDDFF8280990F8840085
:102040008DF82200032108A802F0E7FA01F06EBD26
:10205000EDB2022DC0F2FB806078002840F0F780DE
:1020600060788DF82200A44890F82900002825D037
:10207000DFF8F00890F8780000281BD011208DF8C8
:1020800023001EE030350020343500203C3700208E
:102090008537002088370020D4340020E134002028
:1020A0003E370020A83700208E3700200400FA05B4
:1020B0000CED00E010208DF8230002E000208DF8E8
:1020C00023008D4890F82A00002803D011208DF8B5
:1020D000240002E000208DF82400874890F82B00AF
:1020E000002803D011208DF8250002E000208DF893
:1020F0002500814890F87800002803D011208DF841
:10210000260002E000208DF826007B4890F8300081
:10211000002803D011208DF8270002E000208DF860
:102120002700754890F82F00002803D011208DF863
:10213000280002E000208DF828006F4890F82E005B
:10214000002803D011208DF8290002E000208DF82E
:102150002900694890F83100002803D011208DF83B
:102160002A0002E000208DF82A00634890F82D0034
:10217000002803D011208DF82B0002E000208DF8FC
:102180002B005D4890F82C00002803D011208DF81A
:102190002C0002E000208DF82C00574890F8320007
:1021A000002803D011208DF82D0002E000208DF8CA
:1021B0002D00514890F83300002803D011208DF8ED
:1021C0002E0002E000208DF82E004B4890F83400DD
:1021D000002803D011208DF82F0002E000208DF898
:1021E0002F00454890F83500002803D011208DF8C5
:1021F000300002E000208DF830003F4890F83600B3
:10220000002803D011208DF8310002E000208DF865
:102210003100394890F83700002803D011208DF89C
:10222000320002E000208DF83200334890F8380088
:10223000002803D011208DF8330002E000208DF833
:102240003300142108A802F0E8F901F03EBAEDB21B
:10225000022DC0F204836078012840F00083EDB2C3
:10226000032D54DBA07810F0F00020284FD1224835
:1022700090F82900DFF8EC1691F87A10084207D19F
:1022800000201C4908700020DFF8D81681F8E00013
:102290000120194981F82900174890F87800002892
:1022A00042D1A07810F00F0002282FD110480078FA
:1022B000052110FB01F00F49087035E030040020C3
:1022C00058360020873700209435002098350020AC
:1022D000863700209C350020A03500208F37002055
:1022E000642F00200000B0407E370020B13700206E
:1022F000993700209C370020FC2F00208A04002002
:102300006436002034040020380400200CE0EDB2D4
:10231000032D09DBA07810F0F000102804D1002074
:10232000DFF8501681F82900EDB2042D16DBE078B5
:1023300010F0F000202811D1DFF8380690F82A00BC
:10234000002824D10120DFF82C1681F82A00DFF8BC
:10235000240690F82A000AF0BEFA18E0EDB2042D27
:1023600015DBE07810F0F000102810D1DFF804063B
:1023700090F82A0000280AD00020DFF8F81581F82C
:102380002A00DFF8F00590F82A000AF0A4FAEDB26E
:10239000052D10DB207910F0F00020280BD1012052
:1023A000DFF8D01581F82B00DFF8C80590F82B0076
:1023B0000AF029FC12E0EDB2052D0FDB207910F0B8
:1023C000F00010280AD10020DFF8A81581F82B00B2
:1023D000DFF8A00590F82B000AF015FCEDB2062DF1
:1023E0000ADB607910F0F000202805D10120DFF829
:1023F000841581F878000CE0EDB2062D09DB6079D8
:1024000010F0F000102804D10020DFF8681581F8E2
:102410007800EDB2072D16DBA07910F0F00020282F
:1024200011D1DFF8500590F83000002824D10120A8
:10243000DFF8401581F83000DFF8380590F83000FB
:102440000BF016FA18E0EDB2072D15DBA07910F0AD
:10245000F000102810D1DFF81C0590F8300000289B
:102460000AD00020DFF80C1581F83000DFF80405F1
:1024700090F830000BF0FCF9EDB2082D16DBE07996
:1024800010F0F000202811D1DFF8E80490F82F00B8
:10249000002824D10120DFF8DC1481F82F00DFF8B8
:1024A000D40490F82F000BF0BCFB18E0EDB2082D1F
:1024B00015DBE07910F0F000102810D1DFF8B4043B
:1024C00090F82F0000280AD00020DFF8A81481F827
:1024D0002F00DFF8A00490F82F000BF0A2FBEDB264
:1024E000092D16DB207A10F0F000202811D1DFF83A
:1024F000840490F82E00002824D10120DFF8741401
:1025000081F82E00DFF86C0490F82E000BF005FE29
:1025100018E0EDB2092D15DB207A10F0F00010283C
:1025200010D1DFF8500490F82E0000280AD00020C7
:10253000DFF8401481F82E00DFF8380490F82E0000
:102540000BF0EBFDEDB20A2D16DB607A10F0F00017
:10255000202811D1DFF81C0490F83100002824D184
:102560000120DFF8101481F83100DFF8080490F83A
:1025700031000CF00CF918E0EDB20A2D15DB607A91
:1025800010F0F000102810D1DFF8E80390F83100C7
:1025900000280AD00020DFF8DC1381F83100DFF8D2
:1025A000D40390F831000CF0F2F8EDB20B2D10DBF3
:1025B000A07A10F0F00020280BD1DFF8B80390F8D3
:1025C0002D00002818D10120DFF8A81381F82D0074
:1025D00012E0EDB20B2D0FDBA07A10F0F000102806
:1025E0000AD1DFF8900390F82D00002804D00020D5
:1025F000DFF8801381F82D00EDB20C2D10DBE07AAE
:1026000010F0F00020280BD1DFF8680390F82C00C0
:10261000002818D10120DFF85C1381F82C0012E0AB
:10262000EDB20C2D0FDBE07A10F0F00010280AD18B
:10263000DFF8400390F82C00002804D00020DFF8D9
:10264000341381F82C00EDB20D2D0EDB207B10F041
:10265000F000202809D1C74890F83200002815D191
:102660000120C44981F8320010E0EDB20D2D0DDBE0
:10267000207B10F0F000102808D1BE4890F83200FE
:10268000002803D00020BB4981F83200EDB20E2DA6
:102690000EDB607B10F0F000202809D1B54890F8DF
:1026A0003300002815D10120B24981F8330010E031
:1026B000EDB20E2D0DDB607B10F0F000102808D17C
:1026C000AC4890F83300002803D00020A94981F8D5
:1026D0003300EDB20F2D0EDBA07B10F0F0002028B0
:1026E00009D1A44890F83400002815D10120A1494F
:1026F00081F8340010E0EDB20F2D0DDBA07B10F05F
:10270000F000102808D19B4890F83400002803D02E
:102710000020984981F83400EDB2102D0EDBE07BEB
:1027200010F0F000202809D1924890F835000028D8
:1027300015D101208F4981F8350010E0EDB2102D40
:102740000DDBE07B10F0F000102808D1894890F8EC
:102750003500002803D00020864981F83500EDB20D
:10276000112D17DB207C10F0F000202812D18148B9
:1027700090F8360000281ED101207E4981F83600ED
:1027800019E000BFA6370020A4370020A53700209D
:10279000C4340020EDB2112D0DDB207C10F0F000D0
:1027A000102808D1734890F83600012803D1002082
:1027B000704981F83600EDB2122D0EDB607C10F00E
:1027C000F000202809D16B4890F83700002815D177
:1027D0000120684981F8370010E0EDB2122D0DDBC1
:1027E000607C10F0F000102808D1624890F83700A3
:1027F000012803D100205F4981F83700EDB2132D85
:102800000EDBA07C10F0F000202809D1594890F888
:102810003800002815D10120564981F8380010E011
:10282000EDB2132D0DDBA07C10F0F000102808D1C4
:10283000504890F83800012803D100204D4981F814
:10284000380009F045F960788DF8220000208DF8F5
:102850002300042108A801F0E0FE00F036BFEDB22D
:10286000032D0DDB607803280AD1424890F82B0035
:10287000002800F02A87A0780AF07AFC00F025BF33
:10288000EDB2032D10DB607804280DD1394890F8A3
:102890002F00002800F01987A078C0B2C000C0B295
:1028A0000BF0FCFA00F011BFEDB2022D0FDB6078E7
:1028B00005280CD160788DF822000DF123000AF074
:1028C00079FC042108A801F0A8FE00F0FEBEEDB2DC
:1028D000022D0FDB607806280CD160788DF822007D
:1028E0000DF123000BF0F9FA042108A801F095FE80
:1028F00000F0EBBEEDB2022D6BDB6078102868D1E2
:10290000EDB2032D3ADBA07810F0F000202835D18D
:10291000184890F82900134991F87A10084207D115
:102920000020DFF86019087000200E4981F8E000EF
:102930000120104981F829000E4890F878000028FD
:1029400040F0C386A07810F00F00022814D1DFF801
:1029500038090078052110FB01F0DFF8281908700C
:1029600000F0B3BEE82C0020932D0020A72D0020FE
:1029700083370020FC2F002000F0A7BEEDB2032D0E
:102980000BDBA07810F0F000102806D10020DFF853
:10299000741D81F8290000F098BEA07810F0F000B6
:1029A000502840F0928660788DF82200DFF8540DB0
:1029B00090F82900002803D011208DF8230002E0B0
:1029C00000208DF82300042108A801F026FE00F065
:1029D0007CBEEDB2022D6EDB607811286BD1A07841
:1029E00010F0F000A0284AD1A07810F00F000728BE
:1029F00013D1DFF8100D90F82A0000280AD1012029
:102A0000DFF8001D81F82A00DFF8F80C90F82A00A2
:102A100009F061FF0120060017E0A07810F00F0018
:102A2000062812D1DFF8DC0C90F82A0000280AD022
:102A30000020DFF8D01C81F82A00DFF8C80C90F8DD
:102A40002A0009F048FF01200600F6B2002E00F02F
:102A50003C8660788DF82200DFF8A80C90F82A00F8
:102A6000002803D011208DF8230002E000208DF80B
:102A70002300042108A801F0D0FD00F026BEA078B4
:102A800010F0F000502840F0208660788DF8220089
:102A9000DFF8700C90F82A00002803D011208DF880
:102AA000230002E000208DF82300042108A801F093
:102AB000B4FD00F00ABEEDB2022D6EDB6078122884
:102AC0006BD1A07810F0F000A0284AD1A07810F0C7
:102AD0000F00072813D1DFF82C0C90F82B000028EA
:102AE0000AD10120DFF81C1C81F82B00DFF8140C40
:102AF00090F82B000AF087F80120060017E0A07874
:102B000010F00F00062812D1DFF8F80B90F82B0018
:102B100000280AD00020DFF8EC1B81F82B00DFF83A
:102B2000E40B90F82B000AF06EF801200600F6B2D4
:102B3000002E00F0CA8560788DF82200DFF8C40B03
:102B400090F82B00002803D011208DF8230002E01C
:102B500000208DF82300042108A801F05EFD00F09C
:102B6000B4BDA07810F0F000502840F0AE85607839
:102B70008DF82200DFF88C0B90F82B00002803D092
:102B800011208DF8230002E000208DF8230004219D
:102B900008A801F042FD00F098BDEDB2022D62DB05
:102BA000607813285FD1A07810F0F000A0283ED103
:102BB000A07810F00F0007280DD1DFF8480B90F82F
:102BC0007800002804D10120DFF8381B81F8780054
:102BD0000120060011E0A07810F00F0006280CD1AB
:102BE000DFF8200B90F87800002804D00020DFF8F0
:102BF000141B81F8780001200600F6B2002E00F0C8
:102C0000648560788DF82200DFF8F80A90F8780083
:102C1000002803D011208DF8230002E000208DF859
:102C20002300042108A801F0F8FC00F04EBDA078B4
:102C300010F0F000502840F0488560788DF82200B0
:102C4000DFF8C00A90F87800002803D011208DF832
:102C5000230002E000208DF82300042108A801F0E1
:102C6000DCFC00F032BDEDB2022D6EDB6078142882
:102C70006BD1A07810F0F000A0284AD1A07810F015
:102C80000F00072813D1DFF87C0A90F830000028E5
:102C90000AD10120DFF86C1A81F83000DFF8640AED
:102CA00090F830000AF0E4FD0120060017E0A0785B
:102CB00010F00F00062812D1DFF8480A90F8300013
:102CC00000280AD00020DFF83C1A81F83000DFF835
:102CD000340A90F830000AF0CBFD01200600F6B26D
:102CE000002E00F0F28460788DF82200DFF8140ADC
:102CF00090F83000002803D011208DF8230002E066
:102D000000208DF82300042108A801F086FC00F0C3
:102D1000DCBCA07810F0F000502840F0D684607839
:102D20008DF82200DFF8DC0990F83000002803D08D
:102D300011208DF8230002E000208DF823000421EB
:102D400008A801F06AFC00F0C0BCEDB2022D6EDBF9
:102D5000607815286BD1A07810F0F000A0284AD137
:102D6000A07810F00F00072813D1DFF8980990F829
:102D70002F0000280AD10120DFF8881981F82F00E0
:102D8000DFF8800990F82F000AF04BFF01200600C1
:102D900017E0A07810F00F00062812D1DFF86409C0
:102DA00090F82F0000280AD00020DFF8581981F889
:102DB0002F00DFF8500990F82F000AF032FF0120B1
:102DC0000600F6B2002E00F0808460788DF82200B4
:102DD000DFF8300990F82F00002803D011208DF87B
:102DE000230002E000208DF82300042108A801F050
:102DF00014FC00F06ABCA07810F0F000502840F0FD
:102E0000648460788DF82200DFF8F80890F82F00CD
:102E1000002803D011208DF8230002E000208DF857
:102E20002300042108A801F0F8FB00F04EBCEDB22D
:102E3000022D6CDB6078162869D1A07810F0F000C4
:102E4000A02849D1A07810F00F00072813D1DFF88F
:102E5000B40890F82E0000280AD10120DFF8A41849
:102E600081F82E00DFF89C0890F82E000BF055F941
:102E70000120060017E0A07810F00F00062812D1FC
:102E8000DFF8800890F82E0000280AD00020DFF834
:102E9000741881F82E00DFF86C0890F82E000BF003
:102EA0003CF901200600F6B2002E00F00E84607896
:102EB0008DF82200DFF84C0890F82E00002803D08F
:102EC00011208DF8230002E000208DF8230004215A
:102ED00008A801F0A2FBF8E3A07810F0F000502859
:102EE00040F0F38360788DF82200DFF8180890F83E
:102EF0002E00002803D011208DF8230002E00020CE
:102F00008DF82300042108A801F087FBDDE3EDB272
:102F1000022D6CDB6078172869D1A07810F0F000E2
:102F2000A02849D1A07810F00F00072813D1DFF8AE
:102F3000D40790F8310000280AD10120DFF8C41727
:102F400081F83100DFF8BC0790F831000BF01FFC6E
:102F50000120060017E0A07810F00F00062812D11B
:102F6000DFF8A00790F8310000280AD00020DFF831
:102F7000941781F83100DFF88C0790F831000BF0DE
:102F800006FC01200600F6B2002E00F09E83607859
:102F90008DF82200DFF86C0790F83100002803D08C
:102FA00011208DF8230002E000208DF82300042179
:102FB00008A801F032FB88E3A07810F0F000502858
:102FC00040F0838360788DF82200DFF8380790F8AE
:102FD0003100002803D011208DF8230002E00020EA
:102FE0008DF82300042108A801F017FB6DE3EDB272
:102FF000022D60DB607818285DD1A07810F0F00019
:10300000A0283DD1A07810F00F0007280DD1DFF8DF
:10301000F40690F82D00002804D10120DFF8E41612
:1030200081F82D000120060011E0A07810F00F00BB
:1030300006280CD1DFF8CC0690F82D00002804D02B
:103040000020DFF8C01681F82D0001200600F6B23E
:10305000002E00F03A8360788DF82200DFF8A40695
:1030600090F82D00002803D011208DF8230002E0F5
:1030700000208DF82300042108A801F0CEFA24E3F3
:10308000A07810F0F000502840F01F8360788DF891
:103090002200DFF8700690F82D00002803D01120E0
:1030A0008DF8230002E000208DF82300042108A8F9
:1030B00001F0B3FA09E3EDB2022D60DB6078192864
:1030C0005DD1A07810F0F000A0283DD1A07810F0DC
:1030D0000F0007280DD1DFF82C0690F82C000028EF
:1030E00004D10120DFF81C1681F82C000120060015
:1030F00011E0A07810F00F0006280CD1DFF80406CC
:1031000090F82C00002804D00020DFF8F81581F892
:103110002C0001200600F6B2002E00F0D682607866
:103120008DF82200DFF8DC0590F82C00002803D091
:1031300011208DF8230002E000208DF823000421E7
:1031400008A801F06AFAC0E2A07810F0F000502858
:1031500040F0BB8260788DF82200DFF8A80590F877
:103160002C00002803D011208DF8230002E000205D
:103170008DF82300042108A801F04FFAA5E2EDB272
:10318000022D60DB60781A285DD1A07810F0F00085
:10319000A0283DD1A07810F00F0007280DD1DFF84E
:1031A000640590F83200002804D10120DFF854159E
:1031B00081F832000120060011E0A07810F00F0025
:1031C00006280CD1DFF83C0590F83200002804D026
:1031D0000020DFF8301581F8320001200600F6B239
:1031E000002E00F0728260788DF82200DFF814055E
:1031F00090F83200002803D011208DF8230002E05F
:1032000000208DF82300042108A801F006FA5CE2F2
:10321000A07810F0F000502840F0578260788DF8C8
:103220002200DFF8E00490F83200002803D01120DB
:103230008DF8230002E000208DF82300042108A867
:1032400001F0EBF941E2EDB2022D65DB60781B285D
:1032500062D1A07810F0F000A02842D1A07810F040
:103260000F00072812D1DFF89C0490F833000028E3
:1032700004D10120DFF88C1481F83300012006000E
:1032800016E000BF9C37002099370020A07810F08E
:103290000F0006280CD1DFF86C0490F833000028EA
:1032A00004D00020DFF85C1481F833000120060010
:1032B000F6B2002E00F0098260788DF82200DFF867
:1032C000440490F83300002803D011208DF8230027
:1032D00002E000208DF82300042108A801F09DF9E8
:1032E000F3E1A07810F0F000502840F0EE81607813
:1032F0008DF82200DFF80C0490F83300002803D08A
:1033000011208DF8230002E000208DF82300042115
:1033100008A801F082F9D8E1EDB2022D60DB6078F7
:103320001C285DD1A07810F0F000A0283DD1A07835
:1033300010F00F0007280DD1DFF8C80390F8340013
:10334000002804D10120DFF8BC1381F834000120EB
:10335000060011E0A07810F00F0006280CD1DFF86D
:10336000A40390F83400002804D00020DFF8941360
:1033700081F8340001200600F6B2002E00F0A5818D
:1033800060788DF82200DFF87C0390F83400002884
:1033900003D011208DF8230002E000208DF82300D7
:1033A000042108A801F039F98FE1A07810F0F000AD
:1033B000502840F08A8160788DF82200DFF84403BD
:1033C00090F83400002803D011208DF8230002E08B
:1033D00000208DF82300042108A801F01EF974E1F3
:1033E000EDB2022D5ADB60781D2857D1A07810F07D
:1033F000F000A02838D1A07810F00F0007280BD1DA
:10340000C04890F83500002803D10120BD4981F85B
:103410003500012006000FE0A07810F00F0006280C
:103420000AD1B84890F83500002803D00020B549EB
:1034300081F8350001200600F6B2002E00F045812B
:1034400060788DF82200AF4890F83500002803D04E
:1034500011208DF8230002E000208DF823000421C4
:1034600008A801F0DAF830E1A07810F0F000502858
:1034700040F02B8160788DF82200A24890F835004A
:10348000002803D011208DF8230002E000208DF8E1
:103490002300042108A801F0C0F816E1EDB2022DC6
:1034A0005ADB60781E2857D1A07810F0F000A028D1
:1034B00038D1A07810F00F0007280BD1914890F870
:1034C0003600002803D101208E4981F83600012002
:1034D00006000FE0A07810F00F0006280AD18948F6
:1034E00090F83600012803D10020864981F8360083
:1034F00001200600F6B2002E00F0E78060788DF81B
:103500002200804890F83600002803D011208DF862
:10351000230002E000208DF82300042108A801F018
:103520007CF8D2E0A07810F0F000502840F0CD8078
:1035300060788DF82200734890F83600002803D098
:1035400011208DF8230002E000208DF823000421D3
:1035500008A801F062F8B8E0EDB2022D59DB6078FE
:103560001F2856D1A07810F0F000A02838D1A078FC
:1035700010F00F0007280BD1624890F837000028A0
:1035800003D101205F4981F83700012006000FE0D8
:10359000A07810F00F0006280AD15A4890F837009A
:1035A000012803D10020574981F837000120060087
:1035B000F6B2002E00F0898060788DF82200514824
:1035C00090F83700002803D011208DF8230002E086
:1035D00000208DF82300042108A801F01EF874E0F3
:1035E000A07810F0F00050286FD160788DF822009C
:1035F000444890F83700002803D011208DF82300AC
:1036000002E000208DF82300042108A801F005F84D
:103610005BE0EDB2022D58DB6078202855D1A07810
:1036200010F0F000A02837D1A07810F00F00072884
:103630000BD1344890F83800002803D101203149DB
:1036400081F83800012006000FE0A07810F00F008C
:1036500006280AD12B4890F83800012803D1002011
:10366000284981F8380001200600F6B2002E2CD03F
:1036700060788DF82200234890F83800002803D0A5
:1036800011208DF8230002E000208DF82300042192
:1036900008A800F0C2FF18E0A07810F0F000502851
:1036A00013D160788DF82200164890F83800002871
:1036B00003D011208DF8230002E000208DF82300B4
:1036C000042108A800F0A9FFFFE708F001FA2DE2A5
:1036D000601CFCF7FDFF002803D000208DF82200BD
:1036E00002E001208DF82200042108A800F095FFD7
:1036F0000A2005F024F8DFF8800ADFF8801A086055
:10370000FEE700BFFC2F0020601CFCF7E1FF002853
:103710000DD0E078DFF8881D81F8840008F0D8F932
:1037200001208DF82200E0788DF8230005E0FF20CD
:103730008DF8220000208DF82300042108A800F055
:103740006CFFF3E1601CFCF7C3FF002807D00020EA
:103750008DF8230007F0B1FE08F0BAF902E001206D
:103760008DF8230060788DF82200042108A800F06D
:1037700054FFDBE1601CFCF7ABFF00280AD00020FF
:103780008DF823000020DFF8181DA1F86C0008F068
:103790009FF902E001208DF8230060788DF8220067
:1037A000042108A800F039FFC0E1601CFCF790FF7D
:1037B000002801D008F0E8F900208DF8220004214B
:1037C00008A800F02AFFB1E10BF0D6F8C0B203213F
:1037D000484307F09AF800900098002800F0A6816E
:1037E00000A80BF0EAF80700052097FBF0F100FBBA
:1037F0001170002801D1002000E00120052197FB75
:10380000F1F140180190019814214843401C07F041
:103810007CF88146B9F1000F03D1009807F0D5F983
:1038200084E1022089F800005FF0000A01988245D7
:103830004CDA8020142101FB0A9148700198401E47
:1038400082451FDA0520142101FB0A9188701AF1C4
:103850000100052101FB1070142101FB0A91C870C1
:103860000F20059000980F2101FB0A0004901420FE
:1038700000FB0A9010F1040B059A0499584601F0D8
:10388000ADFD20E0052000FB1A70142101FB0A9118
:1038900088700020142101FB0A91C870052000FBEC
:1038A0001A7003214843059000980F2101FB0A007C
:1038B0000490142000FB0A9010F1040B059A04995F
:1038C000584601F08BFD1AF1010AAFE70198142167
:1038D0004843421CD2B249460020FCF770FE0098D3
:1038E00007F073F9484607F070F91FE15FF0000A2E
:1038F000607882452EDA14EB4A008078070014EBDA
:103900004A00C078012802D15FF0010901E05FF0B0
:1039100000094946C9B23800C0B20BF089F85FFA15
:1039200089F9B9F1000F09D0DFF8740B406E01215D
:10393000B9400843DFF8681B486608E0DFF8600B11
:10394000406E0121B9408843DFF8541B48661AF1E4
:10395000010ACDE708F0BCF800208DF82200042110
:1039600008A800F05AFEE1E00227DFF8340B90F8D7
:10397000290008A9FFB278547F1CDFF8740B90F877
:10398000780008A9FFB278547F1CDFF8140B90F878
:10399000780008A9FFB278547F1CDFF8540B90F828
:1039A000830008A9FFB278547F1CFF2008A9FFB24A
:1039B00078547F1CDFF8380B90F8230008A9FFB279
:1039C00078547F1CDFF89C0B0068808808A9FFB240
:1039D00078547F1CDFF88C0B0068808880B2000A66
:1039E00008A9FFB278547F1CDFF8B40AB0F8680069
:1039F00008A9FFB278547F1CDFF8A40AB0F8680069
:103A000080B2000A08A9FFB278547F1CDFF8900A40
:103A1000B0F86A0008A9FFB278547F1CDFF8800A6A
:103A2000B0F86A0080B2000A08A9FFB278547F1C7F
:103A3000DFF8800B008808A9FFB278547F1CDFF8FC
:103A4000740B008880B2000A08A9FFB278547F1C6A
:103A5000DFF8640B008808A9FFB278547F1CDFF8F8
:103A6000580B008880B2000A08A9FFB278547F1C66
:103A7000DFF82C0A90F8740008A9FFB278547F1C74
:103A8000DFF86C0A90F8E10008A9FFB278547F1CB7
:103A9000152108A800F0C1FD48E0DFF8040A0BF08A
:103AA000EBFA0700FFB2102F01D310200700FFB27E
:103AB000142F01D313200700FFB2DFF8E4990DF1B2
:103AC000220A3A004946504601F088FCB91CC9B2A6
:103AD00008A800F0A2FD29E0B5F1010B5FFA8BFB0D
:103AE000BBF1110F1AD210275FF00009DFF8B0A95F
:103AF0004A463900504601F02DFC5FFA8BFB601CF2
:103B00000190DFF89CA95A460199504601F066FCE5
:103B100007F0DEFF00208DF8220002E001208DF882
:103B20002200032108A800F078FDFFE729B0BDE8D6
:103B3000F08F00B587B01E2003F0E9F8DFF8F80A2F
:103B40000078DFF8F81A0978884240F0B680DFF88C
:103B5000F00A0078401CDFF8E81A0870DFF8E40A81
:103B6000007801280AD1DFF8D80A00780328C0F2CB
:103B7000A4800020DFF8C81A087009E0DFF8C00A46
:103B80000078022804DB0020DFF8B41A087094E003
:103B9000DFF8B40A0078002800F08F80DFF8AC0A64
:103BA0000088002836D0DFF8A40A0088401EDFF81D
:103BB0009C1A08800520DFF8981A0870DFF8940A2C
:103BC000027892B2DFF8901ADFF8900A006805F0E8
:103BD00028FEDFF8800A0078421CD2B2DFF8701AA3
:103BE0000020FCF7ECFCDFF88C2CDFF8640ADFF82F
:103BF000641A09780918DFF8600A07F096FADFF806
:103C00005C0A0068DFF84C1A09784018DFF84C1A93
:103C1000086052E0DFF84C0B0088002828D005200F
:103C2000DFF82C1A0870DFF83C0B0288DFF8281A3E
:103C3000DFF8280A006805F0F4FDDFF8280B00889B
:103C4000421CD2B2DFF8081A0020FCF7B8FCDFF8FB
:103C5000242CDFF8FC09DFF80C1B09880918DFF8B1
:103C6000F80907F062FA0020DFF8F81A088024E06B
:103C7000042001F0B0FA02208DF8000052208DF8E7
:103C80000100DFF8E40A00888DF80200DFF8D80AA6
:103C9000008880B2000A8DF80300DFF8D80B008896
:103CA0008DF80400DFF8CC0B008880B2000A8DF894
:103CB0000500062100A800F0B0FC07B000BD2DE90A
:103CC000F04F83B004000E00207800280DD00128AA
:103CD0000CD0022841D0032800F0F680112800F013
:103CE000D881122800F0F681F7E1F6E1607800282B
:103CF0001BD16079DFF8741A0870A079DFF86C1AAC
:103D00004870E079DFF8641A8870207ADFF85C1A6E
:103D1000C8700020DFF8541A48600020DFF84C1A01
:103D20008881E078DFF8641B08706078022813D17E
:103D3000E07801280FD10BF0DCF91B20ADF804006E
:103D40000120ADF806000023002201A9DFF8400B96
:103D5000006802F05EFDEAE1BFE16078002840F013
:103D6000B280A51DB61F0027B6B2042EC0F2AB80EC
:103D7000FFB2082F80F2A7802878012868D16878E0
:103D80008346A8785BEA002B1FFA8BFBBBF1150F6B
:103D900001DB14208346DFF8F40A0078012804D000
:103DA000DFF8E80A0078022816D15FF014085FF007
:103DB0000009DFF8FCAA4A464146504601F0CAFA1B
:103DC0001FFA8BFBE81C0090DFF8E4AA5A46009922
:103DD000504601F003FB2AE0DFF8B00A007804281F
:103DE00025D15FF014085FF00009DFF81CAB4A46EC
:103DF0004146504601F0AEFA1FFA8BFBE81C0090DA
:103E0000DFF804AB5A460099504601F0E7FADFF8B4
:103E1000E00690F8BF00512809D1DFF8D40690F8E9
:103E2000C000512803D10020DFF8601A08701FFA83
:103E30008BFB1BEB0500C51CB6EB0B00C61EDFF8A9
:103E40002C09406850F00200DFF82019486033E088
:103E5000287800280DD168788346A8785BEA002B83
:103E60001FFA8BFB1BEB0500C51CB6EB0B00C61E37
:103E700022E02878032815D168788346A8785BEA81
:103E8000002B1FFA8BFB1BEB0500C51CB6EB0B00D0
:103E9000C61EDFF8D808406850F00800DFF8CC18DC
:103EA000486009E068788346A8785BEA002B1FFA2F
:103EB0008BFB1BEB0500C51CDFF8B0080079800701
:103EC00001D47F1C50E708E16078002840F0E080D2
:103ED000DFF898080078A178884240F0D980DFF8B0
:103EE0008C084078E178884240F0D280DFF87C0886
:103EF00080782179884240F0CB80DFF87008C07864
:103F00006179884240F0C480A51DB61F0027B6B273
:103F1000042EC0F2BD80FFB2082F80F2B98028784D
:103F2000012868D168788346A8785BEA002B1FFADD
:103F30008BFBBBF1150F01DB14208346DFF84C0926
:103F40000078012804D0DFF844090078022816D14F
:103F50005FF014085FF00009DFF854A94A464146B3
:103F6000504601F0F7F91FFA8BFBE81C0090DFF8D0
:103F700040A95A460099504601F030FA2AE0DFF88D
:103F80000C090078042825D15FF014085FF00009BF
:103F9000DFF874A94A464146504601F0DBF91FFAA2
:103FA0008BFBE81C0090DFF860A95A460099504648
:103FB00001F014FADFF8380590F8BF00512809D154
:103FC000DFF82C0590F8C000512803D10020DFF85D
:103FD000BC1808701FFA8BFB1BEB0500C51CB6EB69
:103FE0000B00C61EDFF88407406850F00200DFF8BF
:103FF0007C17486045E0287800280DD16878834612
:10400000A8785BEA002B1FFA8BFB1BEB0500C51C95
:10401000B6EB0B00C61E34E02878032827D1687859
:104020008346A8785BEA002BDFF84007A0F80CB0C5
:104030001FFA8BFB1BEB0500C51CB6B21FFA8BFBEE
:104040001BF10300864206DA002006000320DFF899
:104050001C1788601CE0B6EB0B00C61EDFF80C07CF
:10406000406850F00800DFF80417486009E06878FD
:104070008346A8785BEA002B1FFA8BFB1BEB05003D
:10408000C51CDFF8E8060079800701D47F1C3EE7F5
:1040900023E06078002804D10220DFF8D01688736E
:1040A00003E00120DFF8C4168873DFF8C006807BC8
:1040B000DFF8B816C97B88420BD0DFF8B006C07BAA
:1040C000012803D1012000F05BF802E0002000F09D
:1040D00057F802E000F0E6F9FFE7DFF89006007914
:1040E000800724D51421DFF8C807FCF7A2F8DFF811
:1040F0009C070078012805D10120DFF8F41381F82E
:104100008C0014E0DFF884070078022805D1012034
:10411000DFF8DC1381F88D0009E0DFF87007007824
:10412000042804D10120DFF8C81381F88F00BDE80E
:10413000F78F10B50400E4B2002C04D00120DFF8A2
:104140002C16C87303E00220DFF82016C87300F0B5
:1041500001F810BD00B583B005208DF800000120E6
:104160008DF80100022200A90120FCF728FA0020A6
:10417000DFF8F815887307BD0400FA050CED00E0C0
:104180001CB5040005208DF8000002208DF8010008
:104190008DF80240032200A90120FCF710FA13BD9C
:1041A0002DE9F04F89B000255FF000080026DFF808
:1041B0009C0900780400DFF894090078401CDFF8BF
:1041C0008C190870DFF884090078082190FBF1F25F
:1041D00002FB1102DFF874090270002040282DDA7A
:1041E000DFF86C19E4B2402202FB0411415C0F00BD
:1041F000F6B2002E08D1FFB23C2F04D101210E00EF
:10420000401C0021884617E0FFB23E2F16D0FFB2B7
:104210001B2F02D101210D000EE0EDB2002D03D0C5
:1042200097F0330700210D00DFF828195FFA88F8AE
:1042300008F8017018F10108401CCFE70020DFF8F2
:10424000B01281F87D005FFA88F8B8F1000F02D053
:10425000FFB23E2F00D020E1DFF8F80800780128F7
:104260004BD0022834D004283ED005283BD0062865
:1042700042D007281AD0082802D0092829D00CE1FA
:10428000DFF8D008407801280FD11A20ADF80400DB
:10429000DFF8C0088078ADF806000023002201A9ED
:1042A000DFF8EC05006802F0B4FAF6E009208DF8BA
:1042B000080002208DF8090000208DF80A00122065
:1042C0008DF80B00042202A90020FCF778F9E4E045
:1042D000E3E05FFA88F8B8F1010189B2DFF8740A07
:1042E000FFF7EDFCD9E0D8E0B8F10101C9B2DFF881
:1042F000640AFCF75BFAD0E0CFE0DFF858084078BA
:1043000001280ED0C0F0C880032828D03BD3042851
:1043100040F0C280DFF83C088078DFF82013087096
:10432000BAE00120724981F87C005FF00C09DFF8E7
:1043300028AADFF828BA4A465146584601F04EF8F6
:10434000DFF8180A807A012804D10120DFF8101A5A
:10435000087003E00020DFF8081A08709CE0DFF81E
:10436000F407807801280DD1DFF8E807C07801282C
:1043700004D10120DFF8EC19087003E00020DFF819
:10438000E419087088E00120594981F87C00DFF8C1
:10439000C4078078DFF89C1B08705FFA88F8B8F1D2
:1043A000040F16DBDFF8AC07C078DFF8901A08704E
:1043B000DFF8880A007803280BDBDFF8A009007813
:1043C0008D2806D1DFF8740A0078401CDFF86C1ADB
:1043D0000870DFF8600B0078022831D101204449D1
:1043E00081F87E000220DFF8581A08700120009042
:1043F000012302220321012003F0F9FB0120DFF851
:10440000441A0870142004F09AF90020FBF7E3FF27
:10441000142004F094F901200090002300220021D0
:10442000002000F073FA0020DFF81C1A087000204A
:1044300000900023C8220121052000F0ECFE24E0BA
:1044400000202B4981F87E000020DFF8F819087061
:104450000020DFF8F4190870002000900023C82223
:104460000121052000F0D7FEDFF89C0B0078022820
:104470000BD13C20DFF8D41908700121012000F095
:10448000EFF80120DFF8B8190870DFF8A80A007803
:10449000DFF8741B0870FFE7FFE709B0BDE8F08F95
:1044A000FC2F002080B504210320FBF73DFE0128EE
:1044B00006D1012300220721052001F0FFFE15E0AF
:1044C000012304220721052001F0F8FE0721052021
:1044D000FBF736FEDFF8340B00784FF4FA5148430F
:1044E00004F02CFD07210520FBF736FE01BD00007E
:1044F000E82C002080B50121DFF8140B01F04CFA04
:10450000002304220121002001F0D8FEDFF8040B73
:10451000006830F0607050F40000DFF8F81A0860AE
:104520000220DFF8F41A0860012304220721052085
:1045300001F0C4FEFFF7B6FFFBF769FFFBF7B2FF20
:1045400000F012F80020DFF8D41A81F87C00002077
:10455000DFF8C81A81F87D000020DFF8E418087041
:1045600001BD00004404002080B5DFF8B40A0078E3
:1045700000281DD00020DFF8A81A08700021DFF8FD
:10458000A40A01F009FA0120FBF7CAFD01200090FE
:10459000012300220021002001F048FEBF2101205C
:1045A000FBF7A9FD0120FBF79BFD032000F013FEA4
:1045B00001BD0000463700204437002080B5DFF8F9
:1045C000600A007800281DD10120DFF8541A087015
:1045D00000200090012300220021002001F026FE8F
:1045E0000121DFF8400A01F0D7F9FBF79BFFFBF749
:1045F00000FF00200090DFF8303A64220121032000
:1046000000F009FE01BD80B501208DF800000122F7
:1046100000A90120FBF7D3FF01BD38B504000D0050
:10462000DFF810090078022805D12A00D2B2210053
:104630000020FBF7C4FF31BD800400208337002039
:1046400090370020893700207E0400203637002074
:10465000642F00207F040020652F0020B03500204B
:1046600038B504000D0000208DF800008DF80140E1
:104670008DF80250032200A90120FBF7A0FF31BDF5
:1046800010B582B0040004208DF800008DF80140C0
:10469000022200A90120FBF792FF13BD80B506207E
:1046A000DFF888190870DFF888090078012804D13C
:1046B0000120DFF87819487008E0DFF87409007805
:1046C000FF2803D1FF20DFF864194870DFF84C0998
:1046D00090F88300002804D05520DFF85019887026
:1046E00003E0AA20DFF844198870DFF84809007851
:1046F000012804D10120DFF83419C87003E0FF203D
:10470000DFF82819C870DFF830090078012804D1D3
:104710000120DFF81819087108E0DFF81C0900789B
:10472000AA2803D1FF20DFF804190871DFF80C096B
:104730000078012804D10120DFF8F018487108E062
:10474000DFF8F8080078FF2803D1FF20DFF8DC1835
:1047500048710622DFF8D4180120FBF730FF01BDB5
:10476000000000003A3700202E370020C43400201B
:1047700080B5DFF8BC080078012827D0DFF8B00842
:104780000078FF2822D0DFF8B808007801281DD073
:10479000DFF8A0080078012818D0DFF89808007822
:1047A000AA2813D0DFF89008007801280ED0DFF88F
:1047B00088080078AA2809D0DFF880080078012846
:1047C00004D0DFF878080078FF2851D1DFF86407BB
:1047D000007802284CD0FFF761FFDFF8540800781A
:1047E000012804D0DFF848080078FF2804D1002011
:1047F000DFF83C1808703BE0DFF844080078012837
:1048000004D1FF20DFF83818087031E0DFF8240801
:104810000078AA2804D1FF20DFF81818087027E0D4
:10482000DFF818080078012804D0DFF810080078B5
:10483000FF2804D10020DFF80418087018E0DFF822
:10484000F8070078AA2813D1DFF8F8070078401C91
:10485000DFF8F0170870DFF8EC070078032807DBB3
:104860000020DFF8E0170870FF20DFF8CC17087091
:1048700001BD00003837002080B500210020FFF77F
:10488000EFFE0020DFF8B815087001BD9137002059
:104890006436002080B514210120FFF7E1FE3220AC
:1048A00003F04DFF0120DFF89815087001BD0000EE
:1048B000932D002080B5DFF890070078401CDFF8CA
:1048C00088170870DFF878050078DFF8681609782F
:1048D000884204D10020DFF87017087012E0DFF87A
:1048E00068070078052802D1FFF7D4FF0AE0DFF857
:1048F000580700780A2805DBFFF7FCFD0020DFF8E9
:104900004817087001BD0000A72D00202DE9F84FC1
:1049100082B004000D0016008DF8005037005FF0E3
:104920000008002C40D0EDB2002D3DD0F6B2152E7F
:104930003ADAF6B2002E01D0370003E0DFF80C07B8
:1049400000780700FFB2D7F11500EDB2A84203DAF4
:10495000D7F115008DF800009DF8000002280CDB4F
:104960009DF80090DFF8E806FFB217EB000A4A4610
:104970002100504600F032FD04E02078DFF8D01628
:10498000FFB27854DFF8C40600789DF8001051FAA1
:1049900087F1884205DA9DF80000C019DFF8AC16EF
:1049A00008709DF8000080469DF90800002827D077
:1049B000DFF880050078022822D1DFF89806007819
:1049C000002812D0DFF890060078401CDFF8881627
:1049D0000870DFF884060078112806DB0020FBF75A
:1049E000FAFC0020DFF870160870DFF86006017826
:1049F000DFF85C06FFF711FEDFF85006007880460E
:104A00009DF93000002812D05FF015095FF0000A10
:104A1000DFF83CB652464946584600F09BFC012060
:104A2000DFF82C1608700120DFF8201608705FFAF6
:104A300088F84046BDE8FE8F00B587B0DFF8F40483
:104A40000078022840F07F80C648007800287AD09D
:104A500003208DF8000000208DF80100DFF8BC0570
:104A600090F87700002803D1FF208DF8020004E0C1
:104A7000DFF8E80500788DF80200DFF8E40500783B
:104A80008DF80300DFF8D80540788DF80400DFF8D2
:104A9000D40500788DF80500DFF8C80540788DF85A
:104AA0000600DFF8C40500688DF80700DFF8B805D8
:104AB0000068000A8DF80800DFF8B00500688DF87E
:104AC0000900DFF8A8050068000A8DF80A00DFF881
:104AD000A00500788DF80B00DFF8400590F8840001
:104AE0008DF80C00DFF88C0500688DF80D00DFF8FC
:104AF00084050068000A8DF80E00DFF87C05B0F828
:104B00006A0080B2000A8DF80F00DFF86C05B0F87B
:104B10006A008DF81000DFF86405008880B2000A92
:104B20008DF81100DFF8540500888DF81200DFF8C9
:104B3000500500788DF8130055208DF814001521CC
:104B400000A8FFF76AFD07B000BD00008237002013
:104B500094220020F033002010B586B000A8DFF8C2
:104B60002415182200F04AFC0024DFF8C80300785E
:104B7000022840F0ED800A2000A9E4B26054641CD1
:104B8000DFF8AC04007801280CD1012000A9E4B2C0
:104B90006054DFF8F404007850F00200DFF8E81405
:104BA000087020E0DFF888040078FF281BD1FF2080
:104BB00000A9E4B26054DFF8D4048078401CDFF828
:104BC000CC148870DFF8C404807802280BDB002046
:104BD000DFF8B8148870DFF8B004007810F0FD003A
:104BE000DFF8A4140870641CDFF85404007801286E
:104BF00032D1DFF8280490F88300002804D0552033
:104C000000A9E4B2605403E0AA2000A9E4B2605411
:104C1000DFF878040079401CDFF870140871DFF8C1
:104C20006804007850F01000DFF85C140870DFF8BA
:104C30005C04007903280FDB0020DFF850140871B2
:104C4000DFF84404007810F0EF00DFF83C1408703F
:104C50000020DFF8EC130870641CDFF8D80300783C
:104C6000012828D1012000A9E4B26054DFF81C0417
:104C70004079401CDFF814144871DFF80C04007808
:104C800050F02000DFF800140870DFF800044079CD
:104C9000032814DB0020DFF89C1308700020DFF8E5
:104CA000EC134871DFF8E003007810F0DF00DFF864
:104CB000D813087003E0FF2000A9E4B26054641C1C
:104CC000DFF87803007801280CD1012000A9E4B2B4
:104CD0006054DFF8B403007850F00100DFF8A81347
:104CE000087020E0DFF854030078FF281BD1FF2074
:104CF00000A9E4B26054DFF894034078401CDFF868
:104D00008C134870DFF88403407802280BDB002006
:104D1000DFF878134870DFF87003007810F0FE00B9
:104D2000DFF864130870641CAA2000A9E4B2605480
:104D3000641CAA2000A9E4B26054641CDFF8480394
:104D40000078002804D02100C9B200A8FFF765FC54
:104D500006B010BDF1330020F233002030350020C2
:104D60007C0400207F3700202DE9F041002400253D
:104D7000C7480678C7480078002804D1C64800789C
:104D8000F6B2B04257D0C4480078F6B2B04225D04F
:104D9000C14806700120BF4908700120A44908706D
:104DA000BE480078002808D00020BC4908700027C1
:104DB000380007F0E4F8BA490860BA4800780028DB
:104DC0000CD00020B74908700027380007F0D7F84A
:104DD000B549086002210220FBF7B2F9AD4800781E
:104DE00000280AD00027380007F0C9F804005FF057
:104DF0000008404607F0C3F80500A9480068281AD3
:104E00000C2805D30120A54908700020A749087087
:104E1000A5480068201AB0F5967F0CD30120A1495F
:104E2000087000209B490870FF208149087002210A
:104E30000220FBF791F9BDE8F08100007D370020EA
:104E4000803700207E370020B13700208D370020CA
:104E500070B597480478002596480078002804D15A
:104E600095480078E4B2A04262D093480078E4B25A
:104E7000A04209D091480068002805D100263000E2
:104E800007F07DF88D4908608C480068002815D02F
:104E90000026300007F073F8050088480068281ADB
:104EA000032845D305210020FBF73EF9002805D152
:104EB0008148047000208149086039E07E4800780C
:104EC000E4B2A04218D07C480470012079490870EF
:104ED0007B48007800280FD0012058490870002036
:104EE000774908700026300007F049F875490860D6
:104EF00001210220FBF724F96E480078002817D022
:104F00000026300007F03BF805006E480068281ABC
:104F1000B0F5967F0CD901206949087000206549D9
:104F20000870FF204549087001210220FBF714F9A1
:104F300070BD00007B3700202DE9F04788B00400E9
:104F40000D005FF0000A01260127A2465FF000096C
:104F5000FFB2002F0BD01AF1010A5B48006800690C
:104F6000401E1FFA8AFA504501DA00200700FFB2FE
:104F7000002F14D155480078002805D0002053494F
:104F8000087040F2FF1082461AF1010A1FFA8AFAED
:104F9000A4B2601E824502D1300080B230E01FFA18
:104FA0008AFA49480068806800FB0AF0814620229E
:104FB00000A9484604F035FC8046009844498842E0
:104FC000C6D15FFA88F8B8F10C0FC1D10298002859
:104FD00002D00398002802D11AF1010AB8E701981B
:104FE000ADB2A84207DB029810F1010F03D003987D
:104FF00010F1010F02D1300080B201E0761CA7E76A
:1050000008B0BDE8F08700007C3700208D04002048
:1050100000D2020000800C4080800C40E82C002070
:1050200084370020400514009F060000180400206B
:10503000AB370020B03700208A040020AE370020B4
:10504000AF370020923700209337002082040020E1
:10505000F40200208337002094370020D33700204B
:1050600056370020583700201C36002024360020F8
:10507000A137002014360020FC2F002044370020E8
:105080007A37002048B2010095370020783500209B
:10509000CF370020AA370020D0370020840400201A
:1050A000B835002083040020B4350020AC37002040
:1050B000CD370020AD37002096370020C0350020C6
:1050C00085040020BC35002040040020810400201D
:1050D000B90C8FB3012110F01F029140934A40B2E6
:1050E000430942F82310704710B440B2002808D595
:1050F0004A018F4B40B210F00F04E31803F8042C60
:1051000003E04A018B4B40B2C25410BC704772B6E8
:105110008948006810F1010F04D087480068401CDE
:105120008549086084480068704783480068002803
:105130000CD081480068401E7F4A10607E4800689D
:105140000100002900D162B6080000E0002070478D
:10515000C2680A43C2607047C16170472DE9F041DF
:1051600004000D0016001F00DDF81880FFF7CFFFC8
:10517000724800880121A1400843704908807048A6
:10518000A4B221010D54B6B2142096FBF0F005F044
:10519000E5FF41EC100B09F0C1FF51EC100B09F0D9
:1051A000F5FF6749A4B211EB04114880002064495F
:1051B000A4B211EB041188806148A4B210EB041072
:1051C00087605F48A4B210EB0410C0F80C80FFF7B2
:1051D000ACFFBDE8F08110B50400FFF798FF574819
:1051E00000880121A1408843544908805348008821
:1051F000002802D0FFF799FF0CE0FFF796FF102080
:1052000006F0A9FC00214F4809F0ECFF00214E48B0
:1052100000F0C2FB10BD2DE9FF4104000D00160097
:105220001F00DDF82880102006F08BFC4348008822
:1052300000280BD0CDF800803B00320092B229004C
:10524000C9B2200080B2FFF789FF30E0CDF80080BE
:105250003B00320092B22900C9B2200080B2FFF7B1
:105260007DFF00A83949102200F0C8F80121364816
:1052700000F092FB00A9334809F0BDFF324800F06E
:10528000ECFB400A3221B0FBF1F12E48FFF764FF3E
:1052900001212C4809F0A6FFBF210D20FFF724FFB4
:1052A00001212848FFF754FF0D20FFF713FFBDE849
:1052B000FF8138B521480088002803D10020FFF77E
:1052C0008AFF32E00024082C2FDA1C4800880100F5
:1052D0002141C80727D51A4810EB0415A888401C9F
:1052E000A880A888698888421DD32878002802D021
:1052F0000020A88003E0200080B2FFF76CFFA868C0
:10530000002803D0E868A96888470CE00E20ADF8B3
:1053100000002000ADF802000023002200A90C4884
:10532000006801F0F2FA641CCDE731BD00E100E055
:1053300018ED00E000E400E07C3600204C3700204F
:10534000083100200008014000720200D8B20100BC
:105350006436002062F30F2262F31F42401810F0FF
:10536000030308D0C91A1FD3DB0748BF00F8012D7B
:1053700028BF20F8022D130030B41446154610390A
:1053800028BF20E93C00FAD8490728BF20E90C00D3
:1053900048BF40F8042D890028BF20F8022D48BFDF
:1053A00000F8012D30BC7047C91818BF00F8012D56
:1053B000CB0728BF00F8012D704750F8041B61B1DE
:1053C00050F8042BD30744BFA9F101039A18002316
:1053D000091F42F8043BFAD1EFE7704762B38B072D
:1053E00008D0521E11F8013B00F8013B00F0248068
:1053F0008B07F6D1830740F0208000BF103A07D317
:1054000030B4B1E83810103AA0E83810F9D230BC06
:10541000530724BFB1E80810A0E8081044BF51F8B2
:10542000043B40F8043BD20724BF31F8022B20F89C
:10543000022B44BF0B7803707047083A07D3B1E8DA
:105440000810083A40F8043B40F804CBF7D2530761
:10545000E4E78268521C8260426832B10268531CE1
:10546000036011704168491E416070478B0013EB67
:10547000401313F184431A607047DFF8981A0968E3
:10548000080010F00701002908D002290AD005D32E
:10549000042903D006D3052904D006E0042161F3D2
:1054A000020002E0052161F30200DFF8681A0860DB
:1054B00070470100B1FA81F2D2F11F02100070476B
:1054C000012111FA00F07047DFF8482A1268110034
:1054D000DFF8382A90420BD311F00702921E012AFE
:1054E00003D8052262F3020102E0042262F3020102
:1054F000DFF81C2A904211D3DFF8102A90420DD217
:1055000011F00702921E012A01D9D21E03D10322F3
:1055100062F3020102E0012262F30201DFF8F029E6
:1055200090420CD211F00702921E012A01D9D21E1C
:1055300003D1022262F3020101E0C908C900DFF8C9
:10554000D4291160704738B5DFF8840A00F030FBC9
:105550000500EDB22800022804D0032806D0082850
:1055600008D00BE009F024FF040009E009F01AFF5D
:10557000040005E009F0B9FE040001E00020040089
:10558000200032BDDFF89019096811F4E0610029AC
:105590001BD0B1F5807F14D0B1F5007F0DD0B1F5EF
:1055A000407F06D0B1F5C06F17D0B1F5E06F10D0D5
:1055B00017E0DFF86819080015E0DFF86419080043
:1055C00011E0DFF8601908000DE0DFF85C19080051
:1055D00009E0DFF85819080005E0DFF8F8190800BD
:1055E00001E000210800704738B5DFF8440900F0F9
:1055F000DFFA0500EDB2280007280DD008280FD1EA
:1056000009F073FE0400DFF8D0090068C0F38230AF
:10561000401CB4FBF0F405E0FFF7B4FF040001E028
:1056200000200400200032BD38B50400DFF8540A21
:1056300000682100C9B249000200CA4012F003000C
:10564000002821D0022807D002D3032808D02BE05D
:1056500009F0A8FE050029E009F0AAFE050025E0F2
:10566000DFF878090068C00504D4DFF86C09006829
:10567000400004D509F023FE8008050003E009F08E
:105680001EFE4008050011E0DFF8F8090068A100DF
:1056900010310200CA40002A03D009F086FE05003E
:1056A00001E00020050001E000200500280032BDD7
:1056B000DFF82C190968C90704D4DFF8D419096880
:1056C0000142FAD1704770B50400C4F3031005001D
:1056D000012D0FD079D3032D22D016D3052D01D063
:1056E00050D372E0DFF8F0080068C0F38230401C4D
:1056F00006006CE0DFF89C09006810F00F0006005F
:105700003000FFF7DDFE060061E0DFF8D00800683A
:1057100010F00F0006003000FFF7D2FE060056E042
:105720002000DFF87419884208D0DFF87019884229
:105730000FD0DFF86C19884216D020E0DFF864093A
:105740000068C0F3031006003000FFF7B9FE060042
:1057500017E0DFF850090068C0F3032006003000AE
:10576000FFF7AEFE06000CE0DFF83809006810F025
:10577000030006003000FFF7A3FE060001E0012051
:10578000060024E02000DFF82019884204D0DFF86A
:105790001C1988420BD015E0DFF81409006810F0DE
:1057A000030006003000FFF78BFE06000CE0DFF878
:1057B00000090068C0F3011006003000FFF780FE0A
:1057C000060001E00120060001E001200600300093
:1057D00070BDF8B504000D00C4F303100700012FDD
:1057E0001DD0C0F0D880032F63D026D3052F02D060
:1057F000C0F0A380CFE0FFF740FEDFF8DC070068D1
:1058000030F4E030691E50EA8130DFF8CC170860D0
:1058100009F055FD06003000FFF756FEBBE02800FA
:10582000FFF747FE0500DFF86C080068000900017B
:105830002843DFF860180860ADE0FFF71EFE512036
:1058400000F0B6F9042807D109F0A2FDB0FBF5F08D
:10585000DFF8B81688420CD200221E21DFF8780744
:10586000FFF704FE00220821DFF87007FFF7FEFDB6
:105870000BE001221E21DFF86007FFF7F7FD012290
:105880000821DFF85807FFF7F1FD2800FFF711FEA8
:105890000500DFF848070068000900012843DFF829
:1058A0003C17086009F00BFD06003000FFF70CFE06
:1058B00071E02000DFF8E017884208D0DFF8DC173D
:1058C000884216D0DFF8D817884224D034E004206C
:1058D000FFF7EEFE2800FFF7ECFD0500DFF8C40738
:1058E000006830F0F00050EA0510DFF8B8170860E3
:1058F00022E00420FFF7DCFE2800FFF7DAFD0500B8
:10590000DFF8A007006830F4706050EA0520DFF887
:105910009417086010E00420FFF7CAFE2800FFF784
:10592000C8FD0500DFF87C07006880088000284378
:10593000DFF870170860FFE72DE02000DFF8681738
:10594000884204D0DFF86417884211D022E040205A
:10595000FFF7AEFE2800FFF7ACFD0500DFF85007AB
:105960000068800880002843DFF84417086011E0D1
:105970004020FFF79DFE2800FFF79BFD0500DFF8A4
:105980003007006830F0300050EA0510DFF82017CB
:105990000860FFE7FFE7F1BD2DE9F84304000D00C3
:1059A0005FF00008C4F30320C0B2012809D042D33D
:1059B00003280ED009D3052833D02CD3062836D09F
:1059C00039E0DFF8D006060036E0DFF8E80606002A
:1059D00032E0DFF8E4060600512000F0E9F8042880
:1059E00018D109F0D5FC8146DFF8D006FFF76BFE31
:1059F000B9FBF0F0DFF8141588420BD301221E2109
:105A0000DFF8D405FFF732FD01220821DFF8CC05CD
:105A1000FFF72CFD10E0DFF8A80606000120804605
:105A20000AE0DFF8A00606001020804604E0DFF858
:105A30009806060000E00EE0C4F304300700B8F159
:105A4000000F02D04046FFF733FEEDB22A003900C6
:105A50003000FFF70BFDBDE8F18338B5040014F406
:105A60007810002824D0B0F5003F2DD0B0F5802F5D
:105A70003ED0B0F5C02F3FD0B0F5002F41D0B0F5EB
:105A8000202F4BD0B0F5801F56D0B0F5901F60D0BE
:105A9000B0F5A01F62D0B0F5B01F6CD0B0F5C01F3C
:105AA00076D0B0F5D01F77D0B0F5E01F78D07BE08E
:105AB00009F01BFC0500DFF820050068C0F3823008
:105AC000401CB5FBF0F571E009F00FFC0500DFF8B4
:105AD00008050068C0F38230401CB5FBF0F5DFF824
