:1000000068400020B5A30100E5A401004D9801005F
:10001000E9A40100EDA40100F1A40100000000002A
:1000200000000000000000000000000071E9000076
:10003000F5A40100000000000DE90000A7E70000A2
:100040009555000057970100F9A40100FDA4010097
:1000500001A501003797010005A5010009A50100D0
:100060000DA50100211D0100331D0100BD970100F8
:1000700011A501001598010015A5010019A50100A1
:100080001DA501009718010021A5010025A501006B
:1000900029A501002DA5010031A5010035A501000C
:1000A0004905000039A50100399701003DA501006F
:1000B00041A5010045A5010051F9000023AE000053
:1000C00049A501004DA5010051A5010055A501005C
:1000D00059A501005DA5010061A5010065A501000C
:1000E000012110F01F029140DFF8042640B24309BD
:1000F00042F82310704710B440B2002809D54A01D5
:10010000DFF8F03540B210F00F04E31803F8042CC8
:1001100004E04A01DFF8E03540B2C25410BC704739
:10012000DFF8D81508607047DFF8D425C0B2242363
:1001300003FB0020C0690200CA4012F001007047B2
:1001400010B401228A40DFF8B835C0B2242404FB81
:1001500000335A6110BC704710B401228A40DFF8A6
:10016000A035C0B2242404FB00331A6110BC7047D0
:1001700010B401228A40DFF88835C0B2242404FB81
:1001800000339A6110BC704772B6DFF878050068DA
:1001900010F1010F06D0DFF86C050068401CDFF895
:1001A00064150860DFF85C0500687047DFF85405E7
:1001B000006800280FD0DFF84C050068401EDFF80B
:1001C00044251060DFF83C0500680100002900D1DB
:1001D00062B6080000E000207047DFF82C050068D8
:1001E00030F00400DFF82015086030BF704741632D
:1001F0007047826B0A4382637047C06A704738B5A4
:1002000004002500012D03D1042004F03CF80FE088
:10021000022D0DD1DFF8F4040078002808D000206A
:10022000DFF8E81408700120DFF8E41481F87A00A0
:1002300031BD2DE9F84304000D0000265FF0FF37C3
:100240000020A84212DA015D0E00F6B2002E0DD099
:10025000F6B2802E02DB2021015505E0F6B2202EF9
:1002600002D0002F00D50700401CEAE7002F07D579
:100270005FF0000842462900200004F0C3F80AE0BD
:10028000012F08DBB5EB070817EB04094246494686
:10029000200004F0FBF8BDE8F18380B500F01EF803
:1002A00003F062FBDFF86C0490F86400002802D1D0
:1002B00003F020FC11E0DFF860040078401CDFF858
:1002C00058140870DFF850040078032805DB00207C
:1002D000DFF84414087003F00DFC01BD10B50024D4
:1002E000DFF838040078012815D1DFF834040078ED
:1002F00000286FD0DFF828040078401EDFF82014B3
:100300000870DFF81C040078002863D11421012054
:1003100003F0FAF95EE0DFF804040078022859D10E
:10032000FFF732FFDFF8FC0300880B2801DB012018
:1003300004000020DFF8EC130880FFF737FFE4B279
:10034000002C1FD0DFF8E0030078401CDFF8D81342
:100350000870DFF8D40300780B283BDB0020DFF8BF
:10036000C81308700020DFF8C4130870DFF8BC035E
:100370000078DFF8BC13097888422BD0002003F006
:10038000D3F927E0DFF8A0030078401CDFF89813CA
:100390000870DFF89403007879281BDB0020DFF871
:1003A000881308700720DFF884130870DFF87C03D7
:1003B0000078DFF87C13097888420BD0072003F01F
:1003C000B3F9DFF870030078002803D00020DFF8CD
:1003D0006413087010BD10B504000020DFF8481346
:1003E0000870DFF8480304702000C0B203F09CF9E5
:1003F00010BD80B5FFF7C8FE0420CF490880C9486A
:100400000088401CC7490880FFF7D0FE01BD00B539
:1004100085B000A8C949102204F048F80621C84850
:1004200004F0B4FC0121C74804F00EFB0121C648CA
:1004300004F00AFB0121C54804F006FBC44804F09F
:1004400010FF00A9C24804F0E9FE40F20340C14990
:100450000860012304220221052004F087FF012304
:1004600002220021002004F081FF3C20BA490860EC
:100470003E20BA4908604FF48061B548FFF7B9FEE5
:10048000BF211820FFF737FE1820FFF729FE05B01F
:1004900000BD10B40123B24C23706423B14C2380FF
:1004A00010BC704710B58CB009A8AF491CC91CC05E
:1004B0000C390C38AD48D0E90023CDE9042306A857
:1004C000AB491CC91CC00C390C38AA48D0E9002320
:1004D000CDE902230121A84804F0B6FA00208DF8E6
:1004E0000000A648019000A805F012F909A9012012
:1004F00005F0C0F804AA0121012005F0E8F806A9DA
:10050000022005F0B7F802AA0121022005F0DFF869
:100510009B489C49086000209A49486000F002F816
:100520000CB010BD00B583B03F20019096480090FC
:10053000964897490978402202FB010300220121D5
:10054000012005F079F807BD10B582B08048FFF7AB
:1005500054FE040021007E48FFF749FEFFF749FFE3
:100560008B480078401C8A49087089480078082127
:1005700090FBF1F202FB110285480270FFF7D2FFF7
:100580000520ADF800000023002200A98148006882
:1005900005F013FA13BD80B57148007800280DD11D
:1005A000FFF71BFEFFF7F0FD63480088002802D12B
:1005B000FFF7FCFD02E0FFF7F9FDEDE701BD2DE9D6
:1005C000F04383B004000D00160073480078002843
:1005D00001D103F04AF8FFF7DEFF624800880028E7
:1005E00003D112206D49087002E006206B490870A3
:1005F00012206A490870694807785FF00008DFF840
:10060000A09142463900484603F0FCFE3C20644974
:10061000624A12785054B01D6149604A12785118EC
:1006200048705F485D49097808188470F6B25C48E4
:100630005A490978081810F1030932002900484680
:1006400003F024FF564855490978F6B27118081886
:100650000021C170524851490978F6B27118081842
:10066000002101714E484D490978F6B271180818F9
:100670003E214171FFF7BDFE00203949087047480F
:10068000007850FA86F0401D019045480090454B97
:1006900000220121022004F0CFFFBDE8F78310B54E
:1006A000040030480088002802D000202D4908802E
:1006B0002148008800280AD01F480088401E1E4993
:1006C00008801D480088002801D102F0A9FF10BD54
:1006D00001000020022808DA425C334BC35C9A42D6
:1006E00001D0002002E0401CF4E701207047000028
:1006F00000E100E018ED00E000E400E01C610040D3
:1007000000600040FC36002010ED00E008380020BA
:10071000E82C0020803200200B380020FB3700201E
:100720000D380020AC3700200C3800208004002059
:100730000338002005380020A837002054A301000A
:1007400003001200004304004005140000D2020020
:100750000040084054400840104008401440084001
:100760007E040020AA370020C4A301006CA401006D
:10077000D0A3010074A40100000304000032002093
:1007800093040000A03500201C4008409422002063
:1007900001380020E4360020043800207D040020C9
:1007A000FC2F00202840084006A200002DE9F04F51
:1007B000A9B004000D0020788DF838001E2005F047
:1007C000FEFA0120029004200190012000900123F4
:1007D00004220121012006F062FA15275FF00008CB
:1007E0000DF1200942463900484603F00BFE022075
:1007F0008DF820009DF838008DF821009DF8380014
:10080000012800F0C187022801F09A81032800F036
:10081000F787042801F03C80052801F0B580062800
:1008200001F08C82072801F0DA82082801F02A8280
:10083000112801F0E183122801F0FA83132800F057
:10084000D784142800F05085152800F00B86162850
:1008500000F0BE86172800F01A85182800F0678679
:10086000192842D01A2801F040831B2801F0EC809F
:100870001C2801F012831D2801F0CE831E2802F0EF
:10088000F6811F2802F0F48150284BD0512800F047
:10089000ED80532800F02B84542800F04C8255281A
:1008A00000F00683562800F0F8835E2800F0738479
:1008B0005F2800F04684802802F07880812802F0CA
:1008C0000681F02801F0F287F12802F06080F42818
:1008D00002F00C80F82802F03981FD2802F03C80FB
:1008E000FE2802F0218002F0C4B9DFF8700E006E1D
:1008F0008DF82200DFF8640E006E000A8DF82300E8
:10090000DFF8580E006E000C8DF82400DFF84C0E56
:10091000006E000E8DF82500062108A802F0D4FE16
:1009200002F0A7B9DFF8380E90F8820000280DD148
:100930000F274FF0FF080DF12209424639004846C3
:1009400003F060FDF0208DF8280089E0142006F007
:100950004CFF0020FFF73FFD142006F046FF022069
:1009600005F011FA05F003FA2079E178090411EB9A
:100970000060A17810EB0120617840181090607938
:10098000DFF8E01D0870DFF8DC0D0078012804D1E5
:100990001420DFF8D41D087003E05020DFF8C81DD4
:1009A0000870A079002804D00120DFF8C01D08706D
:1009B00003E00020DFF8B41D08700027DFF8AC0D5D
:1009C0000078002808D04FF40070DFF8A41D0880DC
:1009D0004FF4C060070005E010A805F0FCFADFF84E
:1009E000901D08800020DFF88C1D08600120DFF8D2
:1009F000881D08700120DFF8841D0870DFF8700D75
:100A000000888DF82200DFF8680D008880B2000AA7
:100A10008DF8230010988DF824001098000A8DF8A6
:100A200025001098000C8DF826001098000E8DF807
:100A3000270000208DF8280038008DF82900BFB26B
:100A4000380A8DF82A00109810F1010F08D0012003
:100A50000090DFF8303D28220021002007F07FFBC6
:100A60000B2108A802F030FE02F003B901275FF065
:100A700000085FF00009A0780002617810EB010A1D
:100A80001FFA8AFA4FF6FF7082451FD1DFF8E40C97
:100A90000068002824D0DFF8D80C008805F0DDF9C4
:100AA000DFF8C81C097800290CD0DFF8C41C0988BD
:100AB00080B2814202D3F0210F009DE0DFF8B01C2C
:100AC00008800DE0DFF8A81C088009E01FFA8AFA08
:100AD0004FF6FE70824503D0DFF8940CA0F800A01A
:100AE000DFF88C0C0088B0F5006F02DB03200700F4
:100AF0006AE01FFA8AFA4FF6FE70824508DBDFF8DB
:100B0000700C0088B0F5007F02DA032007005BE07C
:100B100005F02DF9DFF8580C0088B0F5007F53DBA5
:100B2000DFF84C0C0088DFF8281E09688968484304
:100B30000090202213A9009807F0C9FE83465FFAAF
:100B40008BFBBBF10C0F02D00420070038E0DFF86C
:100B50001C0C007800282FD11398DFF8F81D88426C
:100B600002D0022007002BE01498DFF8081C096867
:100B7000884202D20520070022E0159810F1010FEB
:100B800003D0169810F1010F02D10620070017E0DC
:100B90001598002802D01698002808D1DFF8D00B4D
:100BA000008805F05AF9DFF8C81B0880B8E71498E8
:100BB000DFF8C01B086003E01498DFF8B81B08607A
:100BC0001598804616988146DFF8AC0B007800280F
:100BD00012D0FFB2012F0FD10020DFF89C1B08704C
:100BE000DFF8900B016889B2DFF8840B008803F00E
:100BF000FCF9DFF8501E08808DF82270DFF8700BCA
:100C000000888DF82300DFF8680B008880B2000AA6
:100C10008DF8240040468DF825005FEA18208DF8F5
:100C200026005FEA18408DF827005FEA18608DF80B
:100C3000280048468DF829005FEA19208DF82A001F
:100C40005FEA19408DF82B005FEA19608DF82C00DF
:100C5000DFF8200B00688DF82D00DFF8180B006816
:100C6000000A8DF82E00DFF80C0B0068000C8DF8E0
:100C70002F00DFF8000B0068000E8DF83000DFF861
:100C8000B40E00888DF83100DFF8A80E008880B21D
:100C9000000A8DF83200DFF8AC0D00888DF83300C3
:100CA000DFF8A00D008880B2000A8DF8340015210D
:100CB00008A802F009FDDFF87C0E0088401CDFF870
:100CC000741E0880FFB2012F33D1002007F06BFAA9
:100CD000DFF87C0C00688068DFF88C1A097890FBDC
:100CE000F1F0DFF8541E0880DFF8640C00688068BB
:100CF000DFF8741A097890FBF1F201FB1200DFF8BB
:100D00003C1E0880DFF8680A0088DFF8441C096888
:100D100089684843DFF8981E08600020DFF8941EB9
:100D2000088000200090002314220121042003F0F9
:100D3000CAFA01F09EBF0027DFF8240A90F882006B
:100D400000280DD15FF001094FF0FF0A0DF1220BD1
:100D500052464946584603F055FBF02007005DE037
:100D6000142006F042FD0020FFF735FB142006F0AA
:100D70003CFD022005F007F804F0F9FF2079E17846
:100D8000090411EB0060A17810EB01206178401894
:100D9000DFF8241E0860207AE179090411EB006075
:100DA000A17910EB012061794018DFF8101E08606E
:100DB000DFF8080E0068DFF8001E0968401AB0F579
:100DC000C06F02DB402007000CE0DFF8EC0D00688C
:100DD000DFF8E81D0968884202DB6020070001E0B7
:100DE00080200700B8468DF804809DF80490012209
:100DF000DFF8CC1DDFF8C00D006805F080FC50EA7C
:100E000009008DF804000022DFF8B81DDFF8AC0DF2
:100E1000006805F074FC50EA080080469DF8040064
:100E2000812837D15FFA88F8B8F1830F32D1DFF823
:100E30008C0D0068DFF8801D0968401A401C5FEACD
:100E4000C009484608F0B7FDDFF87C1E0860DFF8EF
:100E5000780E0068DFF8741E0860DFF86C0E00681A
:100E6000002815D0DFF8680E0090DFF8500D0068FC
:100E7000DFF8441D0968431ADFF8440D0288DFF8E3
:100E8000380D0168DFF8440E006805F08FFC01E0C2
:100E9000702007008DF822709DF804008DF8230063
:100EA0008DF82480052108A802F00EFC01F0E1BEB7
:100EB0000027DFF81C0ED0F80080A07800026178CF
:100EC00010EB0109DFF8880A00688068DFF89818DD
:100ED000097890FBF1F0DFF8601C0880DFF8700AF9
:100EE00000688068DFF88018097890FBF1F201FB58
:100EF0001200DFF8481C0880DFF8D00D0068406859
:100F0000DFF84C1A096889684843DFF8A41C0860B8
:100F10000020DFF8A01C08801FFA89F94FF6FF7047
:100F2000814506D1DFF8AC0D0088401CDFF8A41D18
:100F30000880DFF89C0D0068012860DBDFF87C0C7E
:100F4000006880450EDA40468DF825005FEA2820CB
:100F50008DF826005FEA28408DF827005FEA2860B8
:100F60008DF82800DFF8680D0068DFF84C1C096870
:100F7000401ADFF8601D098888421CDB1FFA89F9D6
:100F80004FF6FF70814507D1DFF8400D006808304B
:100F9000DFF8381D0860FFE78DF82270DFF8340DA8
:100FA00000888DF82300DFF82C0D008880B2000A3D
:100FB0008DF8240063E0012007008DF82270DFF82F
:100FC000140D00888DF82300DFF8080D008880B22A
:100FD000000A8DF82400092108A802F075FBDFF84B
:100FE000E80C0068002808D0DFF8DC0C006808F086
:100FF00042FE0020DFF8D01C086001F03ABEDFF8A6
:10100000D40C00888DF82300DFF8C80C008880B26B
:10101000000A8DF8240000208DF8250000208DF8AE
:10102000260000208DF8270000208DF82800DFF82A
:101030008C0B0068DFF8801B0968401A401CDFF841
:10104000941C0988884210DB1FFA89F94FF6FF705B
:10105000814507D1DFF8740C00680830DFF86C1C9C
:101060000860FFE78DF8227009E0012007008DF885
:101070002270092108A802F027FB01F0FABD09211E
:1010800008A802F021FB0020009000231422012177
:10109000042003F018F901F0ECBD00270020ADF8A2
:1010A0003A00022004F06FFE04F061FE0DF13A00F8
:1010B00005F0EDFB070038008DF8220038128DF89E
:1010C000230038148DF8240038168DF82500BDF85B
:1010D0003A008DF82600BDF83A0080B2000A8DF87B
:1010E0002700082108A802F0EFFA01F0C2BDDFF8DE
:1010F000E40B0088002803D00020DFF8D81B08800C
:10110000DFF8CC0B0068002803D00020DFF8C01BFC
:101110000860002007F01BF8022004F042FE04F0F3
:101120007FFE00208DF8220000208DF8230006218C
:1011300008A802F0C9FA0020DFF8F819088001F0C9
:1011400098BD601CFFF7C4FA002808D101208DF873
:101150002200062108A802F0B7FA01F08ABD092092
:101160008DF86C00E078452804D12079412801D120
:1011700001201D90002300221BA9DFF8300E00681B
:1011800004F09FFB00208DF82200062108A802F041
:101190009BFA01F06EBD0020DFF8141E08600020ED
:1011A000DFF8101E08600020DFF80C1E0860002029
:1011B000DFF8081E08600020DFF8041E0860002029
:1011C000DFF8001E08600020DFF8FC1D086000202A
:1011D000DFF8F81D08600020DFF8F41D086000202B
:1011E0008DF82200032108A802F06EFA01F041BD3B
:1011F000DFF86C05C0688DF82200DFF86405C06870
:1012000000128DF82300DFF8580540698DF824009E
:10121000DFF84C05406900128DF8250000208DF89C
:10122000260011208DF82700DFF8380E80788DF821
:101230002800DFF8300EC0788DF829000627DFF887
:10124000288E0DF12A093A004146484603F01EF95E
:1012500049F2FE7000788DF8300049F2FF70007896
:101260008DF83100DFF8F40490F872008DF8320048
:10127000DFF8E804B0F85C008DF8330000208DF84A
:101280003400152108A802F01FFA01F0F2BC04276F
:101290006078A178090289B208180F900F98DFF8DA
:1012A000C0144969884208DADFF8C00D00880F9938
:1012B00011FA80F007F04BFB07000F988DF8220021
:1012C0000F9800128DF82300FFB20C2F03D10020DD
:1012D0008DF8240002E001208DF82400052108A8E3
:1012E00002F0F2F901F0C5BC01276078DFF8801D3B
:1012F0000870DFF87C0D0078012835D1DFF8600434
:1013000090F88200002802D1F02007009DE0DFF86D
:101310004C04407EDFF8481491F87A10084203D05C
:101320000120DFF8501D087002200090DFF85434CF
:101330001E220021002006F012FF022004F023FDEF
:1013400004F015FD02200700A078552807D1E078A9
:10135000217909020818DFF8141D088075E00020C3
:10136000DFF8081D088070E0DFF8040D007802281F
:101370006BD1002006F0EBFEDFF8F80C00780028B7
:1013800008D00020DFF8EC1C08700120DFF8D01333
:1013900081F87A00012007001022DFF8DC1CDFF85A
:1013A000CC0C00884FF48053584307F090FADFF8D4
:1013B000CC1CDFF8C40C08F0F5FEDFF8BC1CC989B2
:1013C00080B2814234D1DFF8B00C4168DFF89C0C68
:1013D00000884FF480525043103007F0D1FBDFF803
:1013E000A01C0880DFF8900C0089DFF8941C0988A5
:1013F00088421DD10020DFF88C1C08700020DFF827
:10140000881C087002200700DFF8640C00788DF853
:1014100022008DF82370042108A802F055F96420F9
:1014200006F0E3F9DFF8640CDFF8641C0860FEE7FF
:101430000020DFF8541C087001210220FEF78CFE0A
:10144000022004F0AEFC04F0EBFCDFF8240C007882
:101450008DF822008DF82370042108A802F034F9D9
:1014600001F007BC04F0CCFC0700FFB2002F04D150
:10147000022004F088FC04F07AFC6078A17809026C
:1014800089B208180F900F98B549C968484312905F
:101490004FF48051DFF8D40B00884FF48052129B38
:1014A00002FB003007F06CFBDFF8D41B0880FFB2B2
:1014B000002F04D1022004F074FC04F0B1FC607829
:1014C0008DF82200A0788DF82300E0788DF82400B4
:1014D00020798DF82500DFF8A80B00888DF826000C
:1014E000DFF89C0B008880B2000A8DF827000821E5
:1014F00008A802F0E9F89DED0F0AB8EEC00ADFF87F
:101500008C0DD0ED000A80EE200ADFED9D0A20EE62
:10151000200ABDEEC00ADFF8780D80ED000A112028
:1015200000900120DFF85C1B087001F0A2BBE0789E
:10153000DFF8601D0870DFF85C0D0078012822D10B
:101540006078A178090289B20818DFF84C1D08609C
:10155000DFF8440D00688249C9684843DFF8381D48
:1015600008600020DFF8341D08600020DFF8301D1F
:1015700008707B48C068DFF82C1D08600020DFF889
:10158000281D086008E0DFF80C0D0078022803D160
:101590000020DFF8081D086060788DF82200A07830
:1015A0008DF82300DFF8EC0C00788DF82400DFF8CC
:1015B000F80C00688DF82500DFF8EC0C00680012CC
:1015C0008DF82600072108A802F07EF801F051BB33
:1015D000DFF8D80C0078002805D00020DFF8CC1CFC
:1015E000087001F046BBDFF8C40C0078401CDFF83F
:1015F000BC1C0870002006F0D6FDDFF8AC0C0068BB
:10160000401CDFF8A41C086000200600132E10DA2E
:1016100030194078DFF8981CDFF8842C1278505489
:10162000DFF87C0C0078401CDFF8741C0870761C16
:10163000ECE7DFF8700C0068982863DBDFF8600CDB
:1016400000789828C0F28180DFF8580C006898383C
:10165000DFF8501C08600020DFF8441C0870982256
:10166000DFF84C1CDFF8040A00884FF48053DFF8E1
:1016700028CCDCF800C003FB00C0DFF8203C1B686E
:10168000181807F007FA0700DFF8100C0068983008
:10169000DFF8081C0860DFF8F009007800282CD17A
:1016A0001022DFF8D419DFF8C40900884FF4805302
:1016B000584307F00CF90700DFF8BC09406808F050
:1016C000ADFD0022DFF8EC3B08F0B6FD08F0D8FED7
:1016D000DFF8B81B0860DFF8B40B90ED000AB5EE38
:1016E000400AF1EE10FA04D1DFF8A00B5FF07E5152
:1016F00001600120DFF89019087001210220FEF737
:1017000037FD22E0DFF8980B0078DFF8981B0968B6
:1017100088421ADBDFF88C0B0268DFF8941BDFF8D5
:101720004C0900884FF48053DFF86CCBDCF800C024
:1017300003FB00C0DFF8643B1B68181807F0AAF928
:1017400007000020DFF85C1B0860DFF8600B007802
:10175000401EDFF8581B087001F08BBA8032002061
:10176000E82C0020093800207F0400200A380020DF
:10177000AE37002028360020890400208104002094
:101780000000C842FF0100006078DFF82C1B0870E1
:1017900060788DF82200032108A801F095FFDFF89A
:1017A000180B0078012826D1142006F01EF800201E
:1017B000FEF711FE142006F018F801200090002317
:1017C00000220021002002F0FFF80020DFF8EC1AD0
:1017D0000870002000900023C8220121052002F09B
:1017E00072FDDFF8DC0A0078142110FB01F0DFF84D
:1017F000D41A087002E0052002F045FD01F039BA64
:10180000207A617A09020818DFF8BC1AA1F8700082
:1018100009F094F9A07807004FF48070474360788E
:101820003F18A7F26C702390E078401E2290207938
:10183000219060792090A0791F90E0791E9000207F
:101840002690012007901EA984B068462C2202F041
:101850002DFE0FBC09F04EFBDFF8700A007801285E
:1018600003D1AA20DFF8641A08700F200390002328
:10187000002203A9DFF8580A006804F022F80020CB
:101880008DF82200032108A801F01EFF01F0F1B934
:10189000607800282CD100208DF82200DFF8340A6F
:1018A000006800788DF82300DFF8280A0068807B44
:1018B0008DF82400DFF81C0A0068C07B8DF8250035
:1018C00000208DF82600002007280CDA9DF826104D
:1018D000DFF8002A126882189278824011438DF84E
:1018E0002610401CF0E70A2108A801F0EDFE49E0AF
:1018F0000220DFF8E01909684870A078002801D0BC
:10190000012000E00020DFF8CC1909680870E078B9
:10191000DFF8C019096888732079DFF8B8190968F9
:10192000C8730020072817DA61790A000241D1073D
:1019300006D50121DFF89C2912688218917005E014
:101940000021DFF89029126882189170401CE9E7A5
:1019500040040020B90C8FB309F0F0F81020029079
:101960000023002202A9DFF86809006803F0A9FF3C
:1019700060788DF8220000208DF82300042108A84B
:1019800001F0A2FE01F075B9607800282DD1002089
:101990008DF82200DFF84009006840798DF82300B7
:1019A000DFF83409006800798DF82400DFF8280991
:1019B000006800788DF82500DFF81C090068407881
:1019C0008DF82600DFF81009006840888DF82700A0
:1019D000DFF804090068408880B2000A8DF828000A
:1019E0000A2108A801F070FE29E0A078DFF8E818C5
:1019F00009684871E078DFF8E01809680871207913
:101A0000DFF8D418096808706079DFF8CC18096825
:101A10004870A079E17909020818DFF8BC18096854
:101A2000488009F08BF809F00BF860788DF82200F7
:101A300000208DF82300042108A801F045FE01F0E4
:101A400018B900BFC2370020607800282DD1607817
:101A50008DF82200DFF87008006B8DF82300DFF8A6
:101A60006808406B8DF82400DFF85C08406B0012BA
:101A70008DF82500DFF85008806B8DF82600DFF820
:101A80004808806B00128DF82700DFF83C08C06B17
:101A90008DF82800DFF83008C06B00128DF829009F
:101AA0000A2108A801F010FE42E0607801283FD129
:101AB000A078DFF814180863E07821790902081883
:101AC000DFF8041848636079A17909020818DFF883
:101AD000F8178863E079217A09020818DFF8E81717
:101AE000C86309F02BF860788DF8220000208DF88B
:101AF0002300042108A801F0E7FDDFF88C0C007832
:101B0000002803D00020DFF8801C0870DFF87C0C70
:101B10000078002803D00020DFF8701C0870DFF880
:101B2000700C0078002803D00020DFF8641C0870D7
:101B300001F09FB8C0370020B6370020BA37002028
:101B40006078002840D100208DF82200DFF8780767
:101B500090F85200800703D501208DF8230002E0A1
:101B600000208DF82300DFF8600790F85200C007CE
:101B700003D501208DF8240002E000208DF8240018
:101B8000DFF84407B0F850008DF82500DFF838077B
:101B9000B0F8500080B2000A8DF82600DFF8400D42
:101BA000807B8DF82700082108A801F08DFD67E0F3
:101BB0002C360020B83700202036002024360020A4
:101BC000B0370020B23700206078012858D1A078C3
:101BD00001280AD1DFF8F00690F8520050F0020018
:101BE000DFF8E41681F8520009E0DFF8DC0690F82F
:101BF000520010F0FD00DFF8D01681F85200E078B6
:101C000001280AD1DFF8C00690F8520050F0010018
:101C1000DFF8B41681F8520009E0DFF8AC0690F85E
:101C2000520010F0FE00DFF8A01681F85200207973
:101C3000617909020818DFF89016A1F8500094F9AC
:101C4000067008F07BFF60788DF8220000208DF888
:101C50002300042108A801F037FD022005F0C5FD8E
:101C6000DFF86406B0F85000002806D07FB2012FDC
:101C700006D0012001F002FB02E0002001F0FEFA94
:101C800000F0F7BF6078002834D160788DF822002A
:101C9000DFF8340690F8660010F00100012803DB3D
:101CA00001208DF8230002E000208DF82300DFF8EA
:101CB000180690F8660010F0020001280CDB0120E5
:101CC0008DF824000BE000BF043600200836002009
:101CD0000C360020B437002000208DF82400DFF8F7
:101CE000E80590F867008DF82500062108A801F0A6
:101CF000EBFC21E0607801281ED1A078012801D1F9
:101D0000012000E00020E178012901D1022100E05A
:101D100000210818DFF8B01581F866002079DFF897
:101D2000A81581F8670008F009FF60788DF8220097
:101D3000032108A801F0C8FC00F09BBF0027DFF8D2
:101D4000880590F85000800702D4012007003EE08B
:101D50006078002804D10020DFF8881B81F88C000F
:101D6000607801281BD15FF014085FF00009DFF8EC
:101D700078AB4A464146504602F044FB5FF0120AF7
:101D8000A01C0090DFF860BB52460099584602F054
:101D90007DFB0120DFF84C1B81F88C0017E0607898
:101DA000022814D10020DFF83C1B81F8AB005FF063
:101DB000120814F10209DFF830AB4246494650469A
:101DC00002F064FB0120DFF81C1B81F88D008DF808
:101DD0002270042108A801F077FC00F04ABF002718
:101DE0005FF000086078062831D1DFF8DC0490F855
:101DF0005000400602D4012007002DE00620804656
:101E0000A07810F00F008DF800009DF80000012868
:101E100016D1142004905FF00009DFF814AD4A4693
:101E20000499504602F0EEFA5FF0100AE01C0190AF
:101E3000DFF8FCBC52460199584602F027FB0BE044
:101E40009DF80000022807D10020804604E0607859
:101E5000052801D1052080465FFA88F8B8F1000F07
:101E600013D05FFA88F8B8F1060F0ED01B20ADF83A
:101E700044005FFA88F8ADF846800023002211A9DB
:101E8000DFF84C04006803F01CFD8DF8227004217B
:101E900008A801F019FC00F0ECBE00208DF822002B
:101EA000FF208DF82300607801280DD1A778FFB2BC
:101EB000082F01DB072007003800C0B2FEF78BFABD
:101EC000142005F092FC07E06078002804D1DFF8C8
:101ED000640C00788DF8230060788DF822000421CE
:101EE00008A801F0F1FB00F0C4BE601CFEF7F0FB97
:101EF000002878D0DFF8D00390F8647020790028AB
:101F000005D02079122802D02079562862D1FFB25C
:101F1000342F04D0FFB2782F01D00020070094F8AE
:101F200003805FFA88F8B8F1340F06D05FFA88F8BA
:101F3000B8F1780F01D000208046FFB25FFA88F830
:101F400047452FD0DFF8800380F864805FFA88F877
:101F5000B8F1340F08D15FF00009484609F045F8A0
:101F6000DFF8641308660BE05FFA88F8B8F1780FC1
:101F700006D15FF00009484609F037F8D249C86633
:101F80000420ADF844005FFA88F85FEA082050FAB0
:101F900087F0ADF846000023002211A9CC48006864
:101FA00003F08FFC01208DF8230018E0003700209B
:101FB0009036002094360020983600209C36002071
:101FC000A0360020A4360020A8360020AC36002021
:101FD000B03600202079AA2801D18DF82370002086
:101FE0008DF8220002E001208DF82200042108A8CB
:101FF00001F06AFB00F03DBE601CFEF769FB0028A3
:1020000001D009F0C4F800208DF82200042108A8AE
:1020100001F05AFB00F02DBEDFF8C80890F88400EC
:102020008DF82200032108A801F04EFB00F021BE2C
:10203000EDB2022DC0F2F4806078002840F0F0800C
:1020400060788DF82200A048407E002826D0DFF876
:10205000940890F8780000281CD011208DF82300F7
:102060001FE000BFAC350020B0350020BC37002099
:102070000538002008380020503500205D3500204C
:10208000BE370020283800200E3800200400FA0552
:102090000CED00E010208DF8230002E000208DF808
:1020A00023008948807E002803D011208DF8240069
:1020B00002E000208DF824008348C07E002803D071
:1020C00011208DF8250002E000208DF825007E48C3
:1020D00090F86800002803D011208DF8260002E057
:1020E00000208DF82600784890F82000002803D0C2
:1020F00011208DF8270002E000208DF8270072489B
:10210000C07F002803D011208DF8280002E00020B5
:102110008DF828006C48807F002803D011208DF8AE
:10212000290002E000208DF82900674890F821007E
:10213000002803D011208DF82A0002E000208DF83D
:102140002A006148407F002803D011208DF82B0021
:1021500002E000208DF82B005B48007F002803D0B0
:1021600011208DF82C0002E000208DF82C0056483C
:1021700090F82200002803D011208DF82D0002E0F5
:1021800000208DF82D00504890F82300002803D03F
:1021900011208DF82E0002E000208DF82E004A4814
:1021A00090F82400002803D011208DF82F0002E0C1
:1021B00000208DF82F00444890F82500002803D017
:1021C00011208DF8300002E000208DF830003E48EC
:1021D00090F82600002803D011208DF8310002E08D
:1021E00000208DF83100384890F82700002803D0EF
:1021F00011208DF8320002E000208DF832003248C4
:1022000090F82800002803D011208DF8330002E058
:1022100000208DF83300142108A801F055FA44E39A
:10222000EDB2022DC0F2FD826078012840F0F98203
:10223000EDB2032D53DBA07810F0F00020284ED132
:102240002148407EDFF89C1691F87A10084207D1A9
:1022500000201C4908700020DFF8881681F8E00093
:10226000012019494876184890F86800002842D1A2
:10227000A07810F00F00022830D111480078052115
:1022800010FB01F00F49087035E000BF300400205A
:10229000D4360020073800201036002014360020E5
:1022A00006380020183600201C3600200F38002089
:1022B000642F00200000B040FE370020313800209D
:1022C000193800201C380020803200208A040020A9
:1022D000E436002034040020380400200BE0EDB286
:1022E000032D08DBA07810F0F000102803D10020A7
:1022F000DFF8101B4876EDB2042D13DBE07810F008
:10230000F00020280ED1DFF8FC0A807E00281FD1C3
:102310000120DFF8F01A8876DFF8E80A807E09F0FD
:102320000EFB15E0EDB2042D12DBE07810F0F000AA
:1023300010280DD1DFF8CC0A807E002808D00020BC
:10234000DFF8C01A8876DFF8BC0A807E09F0F7FA59
:10235000EDB2052D0EDB207910F0F000202809D118
:102360000120DFF8A01AC876DFF8980AC07E09F0CD
:102370007EFC10E0EDB2052D0DDB207910F0F000B1
:10238000102808D10020DFF87C1AC876DFF8740A1C
:10239000C07E09F06CFCEDB2062D0ADB607910F00E
:1023A000F000202805D10120DFF8581A81F86800D4
:1023B0000CE0EDB2062D09DB607910F0F00010287A
:1023C00004D10020DFF83C1A81F86800EDB2072D37
:1023D00016DBA07910F0F000202811D1DFF8240AD4
:1023E00090F82000002824D10120DFF8181A81F885
:1023F0002000DFF8100A90F820000AF075FA18E0C3
:10240000EDB2072D15DBA07910F0F000102810D1E7
:10241000DFF8F00990F8200000280AD00020DFF84B
:10242000E41981F82000DFF8DC0990F820000AF0B8
:102430005BFAEDB2082D13DBE07910F0F0002028F4
:102440000ED1DFF8C009C07F00281FD10120DFF8BE
:10245000B419C877DFF8AC09C07F0AF01EFC15E09C
:10246000EDB2082D12DBE07910F0F00010280DD14C
:10247000DFF89009C07F002808D00020DFF8841919
:10248000C877DFF88009C07F0AF007FCEDB2092D9C
:1024900013DB207A10F0F00020280ED1DFF8640959
:1024A000807F00281FD10120DFF858198877DFF8D6
:1024B0005409807F0AF06DFE15E0EDB2092D12DBA4
:1024C000207A10F0F00010280DD1DFF83809807F55
:1024D000002808D00020DFF82C198877DFF82409BD
:1024E000807F0AF056FEEDB20A2D16DB607A10F0FE
:1024F000F000202811D1DFF80C0990F82100002805
:1025000024D10120DFF8FC1881F82100DFF8F4085D
:1025100090F821000BF077F918E0EDB20A2D15DBE9
:10252000607A10F0F000102810D1DFF8D80890F889
:10253000210000280AD00020DFF8C81881F8210007
:10254000DFF8C00890F821000BF05DF9EDB20B2D1B
:102550000EDBA07A10F0F000202809D1DFF8A408E3
:10256000407F002815D10120DFF89818487710E047
:10257000EDB20B2D0DDBA07A10F0F000102808D181
:10258000DFF88008407F002803D00020DFF87418AF
:102590004877EDB20C2D0EDBE07A10F0F000202829
:1025A00009D1DFF86008007F002815D10120DFF88D
:1025B0005418087710E0EDB20C2D0DDBE07A10F026
:1025C000F000102808D1DFF83C08007F002803D075
:1025D0000020DFF830180877EDB20D2D10DB207BDE
:1025E00010F0F00020280BD1DFF8180890F8220036
:1025F000002818D10120DFF80C1881F8220012E021
:10260000EDB20D2D0FDB207B10F0F00010280AD169
:10261000DFF8F00790F82200002804D00020DFF84F
:10262000E41781F82200EDB20E2D10DB607B10F074
:10263000F00020280BD1DFF8CC0790F82300002809
:1026400018D10120DFF8BC1781F8230012E0EDB2A9
:102650000E2D0FDB607B10F0F00010280AD1DFF8A0
:10266000A40790F82300002804D00020DFF8941776
:1026700081F82300EDB20F2D10DBA07B10F0F000ED
:1026800020280BD1DFF87C0790F82400002818D10F
:102690000120DFF8701781F8240012E0EDB20F2D51
:1026A0000FDBA07B10F0F00010280AD1DFF85407F0
:1026B00090F82400002804D00020DFF8481781F8A3
:1026C0002400EDB2102D10DBE07B10F0F00020288C
:1026D0000BD1DFF8300790F82500002818D1012031
:1026E000DFF8201781F8250012E0EDB2102D0FDB86
:1026F000E07B10F0F00010280AD1DFF8080790F80E
:102700002500002804D00020DFF8F81681F8250005
:10271000EDB2112D10DB207C10F0F00020280BD141
:10272000DFF8E00690F82600002818D10120DFF835
:10273000D41681F8260012E0EDB2112D0FDB207CBB
:1027400010F0F00010280AD1DFF8B80690F8260043
:10275000012804D10020DFF8AC1681F82600EDB284
:10276000122D17DB607C10F0F000202812D1DFF86A
:10277000940690F8270000281FD10120DFF8841666
:1027800081F8270019E000BF2638002024380020F7
:1027900025380020EDB2122D0FDB607C10F0F00028
:1027A00010280AD1DFF85C0690F82700012804D130
:1027B0000020DFF8501681F82700EDB2132D10DB52
:1027C000A07C10F0F00020280BD1DFF8380690F83C
:1027D0002800002818D10120DFF8281681F82800E9
:1027E00012E0EDB2132D0FDBA07C10F0F0001028EA
:1027F0000AD1DFF8100690F82800012804D1002043
:10280000DFF8001681F8280008F098F960788DF854
:10281000220000208DF82300042108A800F054FFB6
:1028200043E0EDB2032D0BDB6078032808D1DFF81D
:10283000D405C07E002838D0A07809F0D3FC34E05D
:10284000EDB2032D0EDB607804280BD1DFF8B40560
:10285000C07F002829D0A078C0B2C000C0B20AF062
:1028600059FB22E0EDB2022D0EDB607805280BD17A
:1028700060788DF822000DF1230009F0D5FC0421C9
:1028800008A800F021FF10E0EDB2022D0DDB60780A
:1028900006280AD160788DF822000DF123000AF095
:1028A00058FB042108A800F00FFFE2E1601CFDF7CF
:1028B0000FFF002803D000208DF8220002E0012045
:1028C0008DF82200042108A800F0FEFE0A2004F082
:1028D0008CFFDFF8900CDFF8901C0860FEE700BF6B
:1028E00040350020E82C0020932D0020601CFDF7CF
:1028F000EFFE00280DD0E078DFF8081581F87400AD
:1029000008F01CF901208DF82200E0788DF82300F2
:1029100005E0FF208DF8220000208DF8230004211F
:1029200008A800F0D1FEA4E1601CFDF7D1FE00284C
:1029300007D000208DF8230007F015FE08F0FEF800
:1029400002E001208DF8230060788DF82200042138
:1029500008A800F0B9FE8CE1601CFDF7B9FE002864
:102960000AD000208DF823000020DFF89814A1F889
:102970005C0008F0E3F802E001208DF823006078A5
:102980008DF82200042108A800F09EFE71E1601C71
:10299000FDF79EFE002801D008F02CF900208DF8EC
:1029A0002200042108A800F08FFE62E10BF020F85D
:1029B000C0B20321484306F0FEFF009000980028B3
:1029C00000F0578100A80BF034F80700052097FBB2
:1029D000F0F100FB1170002801D1002000E001207F
:1029E000052197FBF1F1401801900198142148430B
:1029F000401C06F0E0FF8046B8F1000F03D10098BC
:102A000007F039F935E1022088F800005FF000098D
:102A1000019881454BDA8020142101FB098148701F
:102A20000198401E81451FDA0520142101FB098110
:102A3000887019F10100052101FB1070142101FBC0
:102A40000981C8705FF00F0A00980F2101FB09008F
:102A50000490142000FB098010F1040B52460499E5
:102A6000584601F013FD1FE0052000FB19701421EA
:102A700001FB098188700020142101FB0981C870C5
:102A8000052000FB197003214843049000980F2192
:102A900001FB090A142000FB098010F1040B049AC1
:102AA0005146584601F0F2FC19F10109B0E70198CE
:102AB00014214843421CD2B241460020FDF77FFD5D
:102AC000009807F0D8F8404607F0D5F8D1E05FF05D
:102AD0000009607881452FDA14EB490080780700FF
:102AE00014EB4900C078012802D15FF0010801E031
:102AF0005FF000084146C9B23800C0B20AF0D4FF06
:102B00005FFA88F8B8F1000F07D0BE48406D012188
:102B1000B9400843BB49486506E0BA48406D012109
:102B2000B9408843B749486519F10109D1E700BFA9
:102B3000A72D00200338002008F000F800208DF8B1
:102B40002200042108A800F0BFFD92E00227AD4852
:102B5000407E08A9FFB278547F1CDFF88C0B90F8F8
:102B6000780008A9FFB278547F1CA64890F8680046
:102B700008A9FFB278547F1CDFF86C0B90F8830033
:102B800008A9FFB278547F1CFF2008A9FFB278542F
:102B90007F1CDFF8540B90F8230008A9FFB278548B
:102BA0007F1CDFF8480B0068808808A9FFB27854C2
:102BB0007F1CDFF8380B0068808880B2000A08A903
:102BC000FFB278547F1C8F48B0F8580008A9FFB2B4
:102BD00078547F1C8B48B0F8580080B2000A08A9CE
:102BE000FFB278547F1C8748B0F85A0008A9FFB29A
:102BF00078547F1C8348B0F85A0080B2000A08A9B4
:102C0000FFB278547F1CDFF8E80A008808A9FFB2F9
:102C100078547F1CDFF8D80A008880B2000A08A91F
:102C2000FFB278547F1CDFF8CC0A008808A9FFB2F5
:102C300078547F1CDFF8BC0A008880B2000A08A91B
:102C4000FFB278547F1C6F4890F8640008A9FFB267
:102C500078547F1CDFF8900A90F8E10008A9FFB2D1
:102C600078547F1C152108A800F02EFD01E000E03B
:102C7000FFE729B0BDE8F08F00B587B01E2003F054
:102C80009EF8DFF8740A0078DFF8701A0978884235
:102C900040F0B680DFF8680A0078401CDFF8601A60
:102CA0000870DFF8600A007801280AD1DFF8500ABE
:102CB00000780328C0F2A4800020DFF8441A0870CE
:102CC00009E0DFF83C0A0078022804DB0020DFF886
:102CD000301A087094E0DFF8340B0078002800F018
:102CE0008F80DFF82C0B0088002836D0DFF8200B0F
:102CF0000088401EDFF8181B08800520DFF8141B31
:102D00000870DFF8140B027892B2DFF8101BDFF8BE
:102D1000100B006805F0DBFDDFF8FC0A0078421CB0
:102D2000D2B2DFF8F01A0020FDF749FCDFF82C2CB6
:102D3000DFF8E00ADFF8E01A09780918DFF8DC0AA2
:102D400007F049FADFF8D80A0068DFF8CC1A0978EA
:102D50004018DFF8CC1A086052E0DFF8C80A008893
:102D6000002828D00520DFF8AC1A0870DFF8B40A74
:102D70000288DFF8A81ADFF8A80A006805F0A7FDA6
:102D8000DFF8A00A0088421CD2B2DFF8881A0020BF
:102D9000FDF715FCDFF8C42BDFF8780ADFF8841A9A
:102DA00009880918DFF8740A07F015FA0020DFF81F
:102DB000741A088024E0042001F065FA02208DF8DE
:102DC000000052208DF80100DFF85C0A00888DF8C1
:102DD0000200DFF8540A008880B2000A8DF8030070
:102DE000DFF8780B00888DF80400DFF8700B00889E
:102DF00080B2000A8DF80500062100A800F064FCEE
:102E000007B000BD803200202DE9F04F83B00400F0
:102E10000E00207800280DD001280CD0022841D0C7
:102E2000032800F0F680112800F0D881122800F065
:102E3000F681F7E1F6E1607800281BD16079DFF8D0
:102E4000201B0870A079DFF8181B4870E079DFF8C4
:102E5000101B8870207ADFF8081BC8700020DFF88C
:102E6000001B48600020DFF8F81A8881E078DFF85E
:102E7000F41A08706078022813D1E07801280FD185
:102E80000BF057F91B20ADF804000120ADF8060047
:102E90000023002201A9DFF8240B006802F011FDD5
:102EA000EAE1BFE16078002840F0B280A51DB61FBE
:102EB0000027B6B2042EC0F2AB80FFB2082F80F21A
:102EC000A7802878012868D168788346A8785BEACB
:102ED000002B1FFA8BFBBBF1150F01DB142083467F
:102EE000DFF8800A0078012804D0DFF8780A00783B
:102EF000022816D15FF014085FF00009DFF8C0AABD
:102F00004A464146504601F07DFA1FFA8BFBE81C09
:102F10000090DFF8ACAA5A460099504601F0B6FA84
:102F20002AE0DFF8400A0078042825D15FF0140871
:102F30005FF00009DFF88CAA4A464146504601F08E
:102F400061FA1FFA8BFBE81C0090DFF878AA5A465A
:102F50000099504601F09AFADFF88C0790F8BF000C
:102F6000512809D1DFF8800790F8C000512803D11B
:102F70000020DFF8F01908701FFA8BFB1BEB05002F
:102F8000C51CB6EB0B00C61EDFF8D409406850F034
:102F90000200DFF8CC19486033E0287800280DD112
:102FA00068788346A8785BEA002B1FFA8BFB1BEB43
:102FB0000500C51CB6EB0B00C61E22E028780328CE
:102FC00015D168788346A8785BEA002B1FFA8BFB43
:102FD0001BEB0500C51CB6EB0B00C61EDFF8800915
:102FE000406850F00800DFF87819486009E0687818
:102FF0008346A8785BEA002B1FFA8BFB1BEB0500CE
:10300000C51CDFF85C090079800701D47F1C50E7FC
:1030100008E16078002840F0E080DFF8440900789B
:10302000A178884240F0D980DFF834094078E1780F
:10303000884240F0D280DFF82809807821798842E0
:1030400040F0CB80DFF81809C0786179884240F001
:10305000C480A51DB61F0027B6B2042EC0F2BD80E5
:10306000FFB2082F80F2B9802878012868D16878EB
:103070008346A8785BEA002B1FFA8BFBBBF1150F88
:1030800001DB14208346DFF8DC080078012804D037
:10309000DFF8D0080078022816D15FF014085FF03E
:1030A0000009DFF81CA94A464146504601F0AAF93A
:1030B0001FFA8BFBE81C0090DFF804A95A46009920
:1030C000504601F0E3F92AE0DFF898080078042878
:1030D00025D15FF014085FF00009DFF8E8A84A4640
:1030E0004146504601F08EF91FFA8BFBE81C009018
:1030F000DFF8D0A85A460099504601F0C7F9DFF82A
:10310000E80590F8BF00512809D1DFF8DC0590F8F8
:10311000C000512803D10020DFF8481808701FFABA
:103120008BFB1BEB0500C51CB6EB0B00C61EDFF8C6
:103130003008406850F00200DFF82418486045E08D
:10314000287800280DD168788346A8785BEA002BA0
:103150001FFA8BFB1BEB0500C51CB6EB0B00C61E54
:1031600034E02878032827D168788346A8785BEA7A
:10317000002BDFF8EC07A0F80CB01FFA8BFB1BEB61
:103180000500C51CB6B21FFA8BFB1BF1030086427B
:1031900006DA002006000320DFF8C41788601CE070
:1031A000B6EB0B00C61EDFF8B807406850F0080009
:1031B000DFF8AC17486009E068788346A8785BEAD6
:1031C000002B1FFA8BFB1BEB0500C51CDFF89007DB
:1031D0000079800701D47F1C3EE723E06078002857
:1031E00004D10220DFF87817887303E00120DFF8AC
:1031F00070178873DFF86807807BDFF86417C97B76
:1032000088420BD0DFF85807C07B012803D101208A
:1032100000F057F802E0002000F053F802E000F060
:10322000A5F9FFE7DFF838070079800724D51421D6
:10323000DFF88C07FCF7FDFFDFF82807007801288E
:1032400005D10120DFF8A01481F88C0014E0DFF82C
:1032500014070078022805D10120DFF88C1481F8CA
:103260008D0009E0DFF8FC060078042804D1012075
:10327000DFF8741481F88F00BDE8F78F10B50400F3
:10328000E4B2002C04D00120DFF8D416C87303E0A8
:103290000220DFF8CC16C87300F001F810BD00B5AD
:1032A00083B005208DF8000001208DF80100022276
:1032B00000A90120FDF783F90020DFF8A416887328
:1032C00007BD1CB5040005208DF8000002208DF814
:1032D00001008DF80240032200A90120FDF76FF9DB
:1032E00013BD2DE9F04F89B000255FF000080026DE
:1032F000DFF8100900780400DFF808090078401CA6
:10330000DFF800190870DFF8FC080078082190FB4E
:10331000F1F202FB1102DFF8EC08027000204028F5
:103320002DDADFF8E418E4B2402202FB0411415C1C
:103330000F00F6B2002E08D1FFB23C2F04D10121BC
:103340000E00401C0021884617E0FFB23E2F16D029
:10335000FFB21B2F02D101210D000EE0EDB2002DB6
:1033600003D097F0330700210D00DFF8A0185FFAB3
:1033700088F808F8017018F10108401CCFE7002018
:10338000DFF8641381F87D005FFA88F8B8F1000F68
:1033900002D0FFB23E2F00D0E1E0DFF870080078E5
:1033A00001284BD0022834D004283ED005283BD039
:1033B000062842D007281AD0082802D0092829D088
:1033C000CDE0DFF84808407801280FD11A20ADF889
:1033D0000400DFF838088078ADF8060000230022EA
:1033E00001A9DFF8D805006802F06BFAB7E0092000
:1033F0008DF8080002208DF8090000208DF80A00E1
:1034000011208DF80B00042202A90020FDF7D7F847
:10341000A5E0A4E05FFA88F8B8F1010189B2DFF80D
:10342000EC09FFF7F1FC9AE099E0B8F10101C9B2AB
:10343000DFF8D809FDF7BAF991E090E0DFF8CC07A2
:10344000407801280DD0C0F08980032827D03AD3D6
:10345000042840F08380DFF8B4078078A74908701B
:103460007CE00120A04981F87C005FF00C09DFF8C6
:10347000A0A9DFF8A0B94A465146584601F006F81F
:10348000DFF89009807A012804D10120DFF8601A62
:10349000087003E00020DFF8581A08705EE0DFF8DB
:1034A0006C07807801280DD1DFF86007C07801280B
:1034B00004D10120DFF83C1A087003E00020DFF897
:1034C000341A08704AE00120874981F87C00DFF84F
:1034D0003C078078DFF8E01B08705FFA88F8B8F1E5
:1034E000040F05DBDFF82407C078DFF80C1A08703A
:1034F000DFF8C40B0078022810D101207A4981F846
:103500007E000220DFF8F4190870012000900123EA
:1035100002220321012003F0C2FB18E000207249BF
:1035200081F87E000020DFF8D8190870DFF88C0BD6
:10353000007802280BD13C20DFF8C819087001215F
:10354000012000F0E1F80120DFF8B0190870DFF881
:10355000680B0078DFF8641B0870FFE7FFE709B02D
:10356000BDE8F08F0400FA050CED00E080B5042101
:103570000320FCF7D9FD012806D1012300220721F1
:10358000052001F0F3FE15E00123042207210520A8
:1035900001F0ECFE07210520FCF7D2FDDFF8200B3F
:1035A00000784FF4FA51484304F01EFD072105202E
:1035B000FCF7D2FD01BD80B50121DFF8080B01F059
:1035C00043FA002304220121002001F0CFFEDFF89E
:1035D000F80A006830F0607050F40000DFF8E81A74
:1035E00008600220DFF8E41A0860012304220721A2
:1035F000052001F0BBFEFFF7B9FFFCF708FFFCF761
:1036000051FF00F00DF80020374981F87C000020C0
:10361000354981F87D000020DFF8E018087001BD11
:1036200080B5DFF8AC0A007800281DD00020DFF854
:10363000A01A08700021DFF89C0A01F005FA0120A9
:10364000FCF76EFD012000900123002200210020E4
:1036500001F044FEBF210120FCF74DFD0120FCF7E5
:103660003FFD032000F00FFE01BD80B5DFF8600ACA
:10367000007800281DD10120DFF8541A08700020BE
:103680000090012300220021002001F027FE0121EB
:10369000DFF8400A01F0D8F9FCF744FFFCF7A9FE77
:1036A00000200090DFF8303A64220121032000F06E
:1036B0000AFE01BD80B501208DF80000012200A99D
:1036C0000120FCF77CFF01BD38B504000D00DFF8D8
:1036D000E8090078022805D12A00D2B22100002092
:1036E000FCF76DFF31BD0000E82C002044040020F1
:1036F000C6370020C4370020800400200338002093
:10370000103800200938002038B504000D000020D2
:103710008DF800008DF801408DF80250032200A9B9
:103720000120FCF74CFF31BD10B582B0040004202D
:103730008DF800008DF80140022200A90120FCF75D
:103740003EFF13BD80B50620DFF890190870DFF842
:1037500090090078012804D10120DFF88019487011
:1037600008E0DFF87C090078FF2803D1FF20DFF8AC
:103770006C194870DFF8A00690F88300002804D088
:103780005520DFF85819887003E0AA20DFF84C199B
:103790008870DFF850090078012804D10120DFF893
:1037A0003C19C87003E0FF20DFF83019C870DFF85B
:1037B00038090078012804D10120DFF820190871A8
:1037C00008E0DFF824090078AA2803D1FF20DFF8F9
:1037D0000C190871DFF814090078012804D10120C0
:1037E000DFF8F818487108E0DFF800090078FF28D2
:1037F00003D1FF20DFF8E41848710622DFF8DC1857
:103800000120FCF7DCFE01BD000000007E0400206A
:10381000B6370020642F00207F040020652F002091
:103820002C360020BA370020AE37002080B5DFF8F4
:10383000B0080078012827D0DFF8A4080078FF2816
:1038400022D0DFF8AC08007801281DD0DFF89408FA
:103850000078012818D0DFF88C080078AA2813D047
:10386000DFF88408007801280ED0DFF87C080078A3
:10387000AA2809D0DFF874080078012804D0DFF8FE
:103880006C080078FF2851D1DFF82C080078022856
:103890004CD0FFF757FFDFF848080078012804D024
:1038A000DFF83C080078FF2804D10020DFF830184A
:1038B00008703BE0DFF838080078012804D1FF20C9
:1038C000DFF82C18087031E0DFF818080078AA2813
:1038D00004D1FF20DFF80C18087027E0DFF80C088F
:1038E0000078012804D0DFF804080078FF2804D10C
:1038F0000020DFF8F817087018E0DFF8EC07007810
:10390000AA2813D1DFF8EC070078401CDFF8E41791
:103910000870DFF8E0070078032807DB0020DFF8F5
:10392000D4170870FF20DFF8C017087001BD80B5FC
:1039300000210020FFF7E8FE0020DFF8C015087026
:1039400001BD80B514210120FFF7DEFE322003F017
:103950004CFF0120DFF8A415087001BDB837002026
:10396000403500201138002080B5DFF88C07007842
:10397000401CDFF884170870DFF880050078DFF856
:1039800038170978884204D10020DFF86C170870D6
:1039900012E0DFF864070078052802D1FFF7D1FFB5
:1039A0000AE0DFF8540700780A2805DBFFF703FE7A
:1039B0000020DFF84417087001BD0000E436002045
:1039C000932D0020A72D00202DE9F84F82B0040090
:1039D0000D0016008DF8005037005FF00008002C35
:1039E00040D0EDB2002D3DD0F6B2152E3ADAF6B247
:1039F000002E01D0370003E0DFF800070078070051
:103A0000FFB2D7F11500EDB2A84203DAD7F11500E5
:103A10008DF800009DF8000002280CDB9DF8009056
:103A2000DFF8DC06FFB217EB000A4A4621005046D9
:103A300000F02CFD04E02078DFF8C416FFB27854C3
:103A4000DFF8B80600789DF8001051FA87F1884237
:103A500005DA9DF80000C019DFF8A01608709DF87F
:103A6000000080469DF90800002827D0DFF84806AE
:103A70000078022822D1DFF88C060078002812D0C6
:103A8000DFF884060078401CDFF87C160870DFF849
:103A900078060078112806DB0020FCF79CFC00204B
:103AA000DFF864160870DFF854060178DFF8500676
:103AB000FFF70AFEDFF84406007880469DF93000E3
:103AC000002812D05FF015095FF0000ADFF830B669
:103AD00052464946584600F095FC0120DFF8201672
:103AE00008700120DFF8141608705FFA88F8404665
:103AF000BDE8FE8F00B587B0DFF8BC05007802286E
:103B00007DD1DFF8F0030078002878D003208DF80D
:103B1000000000208DF80100BF4890F877000028D1
:103B200003D1FF208DF8020004E0DFF8E005007803
:103B30008DF80200DFF8D80500788DF80300DFF873
:103B4000D00540788DF80400DFF8C80500788DF8BE
:103B50000500DFF8C00540788DF80600DFF8B805ED
:103B600000688DF80700DFF8B0050068000A8DF8DE
:103B70000800DFF8A80500688DF80900DFF89C054B
:103B80000068000A8DF80A00DFF8940500788DF8C7
:103B90000B00A14890F884008DF80C00DFF8840534
:103BA00000688DF80D00DFF87C050068000A8DF8CC
:103BB0000E00DFF87405B0F85A0080B2000A8DF8E4
:103BC0000F00DFF86405B0F85A008DF81000DFF838
:103BD0005C05008880B2000A8DF81100DFF84C0502
:103BE00000888DF81200DFF8480500788DF8130082
:103BF00055208DF81400152100A8FFF765FD07B0CA
:103C000000BD000002380020942200206C34002007
:103C100010B586B000A8DFF81C15182200F046FC8D
:103C20000024DFF894040078022840F0EC800A2099
:103C300000A9E4B26054641CDFF8A40400780128F1
:103C40000CD1012000A9E4B26054DFF8EC04007844
:103C500050F00200DFF8E014087020E0DFF8800484
:103C60000078FF281BD1FF2000A9E4B26054DFF8E0
:103C7000CC048078401CDFF8C4148870DFF8BC04E2
:103C8000807802280BDB0020DFF8B0148870DFF8A2
:103C9000A804007810F0FD00DFF89C140870641C84
:103CA000DFF84C040078012831D15B4890F883009C
:103CB000002804D0552000A9E4B2605403E0AA20F3
:103CC00000A9E4B26054DFF874040079401CDFF806
:103CD0006C140871DFF86004007850F01000DFF811
:103CE00058140870DFF85404007903280FDB002013
:103CF000DFF848140871DFF84004007810F0EF0096
:103D0000DFF8341408700020DFF8E4130870641C36
:103D1000DFF8D0030078012828D1012000A9E4B2FF
:103D20006054DFF818044079401CDFF81014487123
:103D3000DFF80404007850F02000DFF8FC1308706E
:103D4000DFF8F8034079032814DB0020DFF8941330
:103D500008700020DFF8E4134871DFF8DC03007816
:103D600010F0DF00DFF8D013087003E0FF2000A997
:103D7000E4B26054641CDFF87403007801280CD1AD
:103D8000012000A9E4B26054DFF8AC03007850F0E1
:103D90000100DFF8A413087020E0DFF8500300787A
:103DA000FF281BD1FF2000A9E4B26054DFF88C0388
:103DB0004078401CDFF884134870DFF880034078B7
:103DC00002280BDB0020DFF874134870DFF868036B
:103DD000007810F0FE00DFF860130870641CAA2061
:103DE00000A9E4B26054641CAA2000A9E4B26054A3
:103DF000641CDFF844030078002804D02100C9B215
:103E000000A8FFF761FC06B010BD00006D34002073
:103E10006E340020AC350020E82C00202DE9F04164
:103E200000240025C6480678C6480078002804D13A
:103E3000C5480078F6B2B04257D0C3480078F6B211
:103E4000B04225D0C04806700120BE49087001204C
:103E5000A3490870BD480078002808D00020BB495D
:103E600008700027380007F0C0F8B9490860B94861
:103E7000007800280CD00020B649087000273800D0
:103E800007F0B3F8B449086002210220FCF758F9A2
:103E9000AC48007800280AD00027380007F0A5F8C1
:103EA00004005FF00008404607F09FF80500A848AE
:103EB0000068281A0C2805D30120A44908700020A6
:103EC000A6490870A4480068201AB0F5967F0CD364
:103ED0000120A049087000209A490870FF208049FD
:103EE000087002210220FCF737F9BDE8F0810000DC
:103EF0007C040020FF370020FD3700200038002020
:103F0000FE3700200D38002070B595480478002554
:103F100094480078002804D193480078E4B2A04285
:103F200062D091480078E4B2A04209D08F4800687E
:103F3000002805D10026300007F057F88B490860AB
:103F40008A480068002815D00026300007F04DF898
:103F5000050086480068281A032845D3052100205B
:103F6000FCF7E2F8002805D17F48047000207F4963
:103F7000086039E07C480078E4B2A04218D07A4862
:103F800004700120774908707948007800280FD024
:103F9000012056490870002075490870002630003D
:103FA00007F023F87349086001210220FCF7C8F8E4
:103FB0006C480078002817D00026300007F015F86C
:103FC00005006C480068281AB0F5967F0CD90120CE
:103FD00067490870002063490870FF204349087052
:103FE00001210220FCF7B8F870BD2DE9F04788B038
:103FF00004000D005FF0000A01260127A2465FF0D1
:104000000009FFB2002F0BD01AF1010A5A480068CC
:104010000069401E1FFA8AFA504501DA00200700A5
:10402000FFB2002F14D155480078002805D0002099
:104030005249087040F2FF1082461AF1010A1FFA35
:104040008AFAA4B2601E824502D1300080B230E00C
:104050001FFA8AFA48480068806800FB0AF0814627
:10406000202200A9484604F032FC804600984449CA
:104070008842C6D15FFA88F8B8F10C0FC1D1029816
:10408000002802D00398002802D11AF1010AB8E7EB
:104090000198ADB2A84207DB029810F1010F03D0DE
:1040A000039810F1010F02D1300080B201E0761CBC
:1040B000A7E708B0BDE8F087FB370020FC370020F9
:1040C0008D04002000D2020000800C4080800C4053
:1040D00004380020400514009F060000180400204A
:1040E0002B380020303800208A0400202E38002091
:1040F0002F380020123800201338002082040020BE
:10410000F402002003380020143800205338002027
:10411000D6370020D837002098360020A03600205F
:10412000213800209036002080320020C437002043
:10413000FA370020D4A2010015380020F435002001
:104140004F3800202A3800205038002084040020F6
:104150003436002083040020303600202C38002024
:104160004D3800202D380020163800203C36002025
:1041700085040020383600204004002081040020FF
:10418000B90C8FB3012110F01F029140934A40B245
:10419000430942F82310704710B440B2002808D5F4
:1041A0004A018F4B40B210F00F04E31803F8042CBF
:1041B00003E04A018B4B40B2C25410BC704772B648
:1041C0008948006810F1010F04D087480068401C3E
:1041D0008549086084480068704783480068002863
:1041E0000CD081480068401E7F4A10607E480068FD
:1041F0000100002900D162B6080000E000207047ED
:10420000C2680A43C2607047C16170472DE9F0413E
:1042100004000D0016001F00DDF81880FFF7CFFF27
:10422000724800880121A140084370490880704805
:10423000A4B221010D54B6B2142096FBF0F005F0A3
:10424000E3FF41EC100B09F089FF51EC100B09F072
:10425000BDFF6749A4B211EB0411488000206449F6
:10426000A4B211EB041188806148A4B210EB0410D1
:1042700087605F48A4B210EB0410C0F80C80FFF711
:10428000ACFFBDE8F08110B50400FFF798FF574878
:1042900000880121A1408843544908805348008880
:1042A000002802D0FFF799FF0CE0FFF796FF1020DF
:1042B00006F087FC00214F4809F0B4FF00214E486A
:1042C00000F0C2FB10BD2DE9FF4104000D001600F7
:1042D0001F00DDF82880102006F069FC43480088A4
:1042E00000280BD0CDF800803B00320092B22900AC
:1042F000C9B2200080B2FFF789FF30E0CDF800801E
:104300003B00320092B22900C9B2200080B2FFF710
:104310007DFF00A83949102200F0C8F80121364875
:1043200000F092FB00A9334809F085FF324800F005
:10433000ECFB400A3221B0FBF1F12E48FFF764FF9D
:1043400001212C4809F06EFFBF210D20FFF724FF4B
:1043500001212848FFF754FF0D20FFF713FFBDE8A8
:10436000FF8138B521480088002803D10020FFF7DD
:104370008AFF32E00024082C2FDA1C480088010054
:104380002141C80727D51A4810EB0415A888401CFE
:10439000A880A888698888421DD32878002802D080
:1043A0000020A88003E0200080B2FFF76CFFA8681F
:1043B000002803D0E868A96888470CE00E20ADF813
:1043C00000002000ADF802000023002200A90C48E4
:1043D000006801F0F2FA641CCDE731BD00E100E0B5
:1043E00018ED00E000E400E0FC360020CC370020AF
:1043F0007C300020000801400072020064A301002C
:10440000E436002062F30F2262F31F42401810F0DE
:10441000030308D0C91A1FD3DB0748BF00F8012DDA
:1044200028BF20F8022D130030B414461546103969
:1044300028BF20E93C00FAD8490728BF20E90C0032
:1044400048BF40F8042D890028BF20F8022D48BF3E
:1044500000F8012D30BC7047C91818BF00F8012DB5
:10446000CB0728BF00F8012D704750F8041B61B13D
:1044700050F8042BD30744BFA9F101039A18002375
:10448000091F42F8043BFAD1EFE7704762B38B078C
:1044900008D0521E11F8013B00F8013B00F02480C7
:1044A0008B07F6D1830740F0208000BF103A07D376
:1044B00030B4B1E83810103AA0E83810F9D230BC66
:1044C000530724BFB1E80810A0E8081044BF51F812
:1044D000043B40F8043BD20724BF31F8022B20F8FC
:1044E000022B44BF0B7803707047083A07D3B1E83A
:1044F0000810083A40F8043B40F804CBF7D25307C1
:10450000E4E78268521C8260426832B10268531C40
:10451000036011704168491E416070478B0013EBC6
:10452000401313F184431A607047DFF8981A096842
:10453000080010F00701002908D002290AD005D38D
:10454000042903D006D3052904D006E0042161F331
:10455000020002E0052161F30200DFF8681A08603A
:1045600070470100B1FA81F2D2F11F0210007047CA
:10457000012111FA00F07047DFF8482A1268110093
:10458000DFF8382A90420BD311F00702921E012A5D
:1045900003D8052262F3020102E0042262F3020161
:1045A000DFF81C2A904211D3DFF8102A90420DD276
:1045B00011F00702921E012A01D9D21E03D1032253
:1045C00062F3020102E0012262F30201DFF8F02946
:1045D00090420CD211F00702921E012A01D9D21E7C
:1045E00003D1022262F3020101E0C908C900DFF829
:1045F000D4291160704738B5DFF8840A00F030FB29
:104600000500EDB22800022804D0032806D00828AF
:1046100008D00BE009F0ECFE040009E009F0E2FE2E
:10462000040005E009F081FE040001E00020040020
:10463000200032BDDFF89019096811F4E06100290B
:104640001BD0B1F5807F14D0B1F5007F0DD0B1F54E
:10465000407F06D0B1F5C06F17D0B1F5E06F10D034
:1046600017E0DFF86819080015E0DFF864190800A2
:1046700011E0DFF8601908000DE0DFF85C190800B0
:1046800009E0DFF85819080005E0DFF8F81908001C
:1046900001E000210800704738B5DFF8440900F058
:1046A000DFFA0500EDB2280007280DD008280FD149
:1046B00009F03BFE0400DFF8D0090068C0F3823047
:1046C000401CB4FBF0F405E0FFF7B4FF040001E088
:1046D00000200400200032BD38B50400DFF8540A81
:1046E00000682100C9B249000200CA4012F003006C
:1046F000002821D0022807D002D3032808D02BE0BD
:1047000009F070FE050029E009F072FE050025E0C1
:10471000DFF878090068C00504D4DFF86C09006888
:10472000400004D509F0EBFD8008050003E009F026
:10473000E6FD4008050011E0DFF8F8090068A10077
:1047400010310200CA40002A03D009F04EFE0500D5
:1047500001E00020050001E000200500280032BD36
:10476000DFF82C190968C90704D4DFF8D4190968DF
:104770000142FAD1704770B50400C4F3031005007C
:10478000012D0FD079D3032D22D016D3052D01D0C2
:1047900050D372E0DFF8F0080068C0F38230401CAC
:1047A00006006CE0DFF89C09006810F00F000600BE
:1047B0003000FFF7DDFE060061E0DFF8D00800689A
:1047C00010F00F0006003000FFF7D2FE060056E0A2
:1047D0002000DFF87419884208D0DFF87019884289
:1047E0000FD0DFF86C19884216D020E0DFF864099A
:1047F0000068C0F3031006003000FFF7B9FE0600A2
:1048000017E0DFF850090068C0F30320060030000D
:10481000FFF7AEFE06000CE0DFF83809006810F084
:10482000030006003000FFF7A3FE060001E00120B0
:10483000060024E02000DFF82019884204D0DFF8C9
:104840001C1988420BD015E0DFF81409006810F03D
:10485000030006003000FFF78BFE06000CE0DFF8D7
:1048600000090068C0F3011006003000FFF780FE69
:10487000060001E00120060001E0012006003000F2
:1048800070BDF8B504000D00C4F303100700012F3C
:104890001DD0C0F0D880032F63D026D3052F02D0BF
:1048A000C0F0A380CFE0FFF740FEDFF8DC07006830
:1048B00030F4E030691E50EA8130DFF8CC17086030
:1048C00009F01DFD06003000FFF756FEBBE0280092
:1048D000FFF747FE0500DFF86C08006800090001DB
:1048E0002843DFF860180860ADE0FFF71EFE512096
:1048F00000F0B6F9042807D109F06AFDB0FBF5F025
:10490000DFF8B81688420CD200221E21DFF87807A3
:10491000FFF704FE00220821DFF87007FFF7FEFD15
:104920000BE001221E21DFF86007FFF7F7FD0122EF
:104930000821DFF85807FFF7F1FD2800FFF711FE07
:104940000500DFF848070068000900012843DFF888
:104950003C17086009F0D3FC06003000FFF70CFE9E
:1049600071E02000DFF8E017884208D0DFF8DC179C
:10497000884216D0DFF8D817884224D034E00420CB
:10498000FFF7EEFE2800FFF7ECFD0500DFF8C40797
:10499000006830F0F00050EA0510DFF8B817086042
:1049A00022E00420FFF7DCFE2800FFF7DAFD050017
:1049B000DFF8A007006830F4706050EA0520DFF8E7
:1049C0009417086010E00420FFF7CAFE2800FFF7E4
:1049D000C8FD0500DFF87C070068800880002843D8
:1049E000DFF870170860FFE72DE02000DFF8681798
:1049F000884204D0DFF86417884211D022E04020BA
:104A0000FFF7AEFE2800FFF7ACFD0500DFF850070A
:104A10000068800880002843DFF84417086011E030
:104A20004020FFF79DFE2800FFF79BFD0500DFF803
:104A30003007006830F0300050EA0510DFF820172A
:104A40000860FFE7FFE7F1BD2DE9F84304000D0022
:104A50005FF00008C4F30320C0B2012809D042D39C
:104A600003280ED009D3052833D02CD3062836D0FE
:104A700039E0DFF8D006060036E0DFF8E806060089
:104A800032E0DFF8E4060600512000F0E9F80428DF
:104A900018D109F09DFC8146DFF8D006FFF76BFEC8
:104AA000B9FBF0F0DFF8141588420BD301221E2168
:104AB000DFF8D405FFF732FD01220821DFF8CC052D
:104AC000FFF72CFD10E0DFF8A80606000120804665
:104AD0000AE0DFF8A00606001020804604E0DFF8B8
:104AE0009806060000E00EE0C4F304300700B8F1B9
:104AF000000F02D04046FFF733FEEDB22A00390026
:104B00003000FFF70BFDBDE8F18338B5040014F465
:104B10007810002824D0B0F5003F2DD0B0F5802FBC
:104B20003ED0B0F5C02F3FD0B0F5002F41D0B0F54A
:104B3000202F4BD0B0F5801F56D0B0F5901F60D01D
:104B4000B0F5A01F62D0B0F5B01F6CD0B0F5C01F9B
:104B500076D0B0F5D01F77D0B0F5E01F78D07BE0ED
:104B600009F0E3FB0500DFF820050068C0F38230A0
:104B7000401CB5FBF0F571E009F0D7FB0500DFF84C
:104B800008050068C0F38230401CB5FBF0F5DFF883
:104B9000B405006810F00F0128000500CD405DE06D
:104BA00009F0ADFB050059E00020FFF795FD050079
:104BB00054E00020FFF790FD0500DFF8980500683D
:104BC000C0F303112800C840050047E00020FFF7AC
:104BD00083FD0500DFF87C050068000A10F00F0176
:104BE00028000500CD4039E00020FFF775FD0500E5
:104BF000DFF86005006810F0030128000500CD40D3
:104C00002CE00120FFF768FD050027E00120FFF7F9
:104C100063FD0500DFF84805006810F00301280077
:104C20000500CD401AE00120FFF756FD0500DFF832
:104C300030050068C0F301112800C84005000DE0F0
:104C4000FFF72AFD050009E0FFF7F4FC050005E089
:104C5000FFF7D1FC050001E000200500280032BD6F
:104C60000100012011F00F031A00012A08D0C0F042
:104C70008980032A3CD01DD3052A68D056D381E011
:104C8000DFF8B8341B6813F47053B3F5006F0BD022
:104C9000B3F5805F05D0B3F5005F08D1022318009B
:104CA00007E00323180004E00423180001E00523B3
:104CB000180069E0DFF87C341B6813F00303012B54
:104CC00004D00CD3032B07D003D308E00323180030
:104CD0000DE0022318000AE00623180007E0DFF8C1
:104CE00054341B68DB0302D509231800FFE74BE0AF
:104CF000DFF840341B6813F00C03042B04D0082B9E
:104D000005D00C2B06D008E0032318000DE0022389
:104D100018000AE00623180007E0DFF818341B68C3
:104D2000DB0202D509231800FFE72DE0DFF8583336
:104D30001B6813F08053002B03D0B3F1805F03D0C6
:104D400004E00723180001E0082318001CE0DFF846
:104D5000EC331B6813F46033B3F5004F06D0B3F5A2
:104D6000803F06D0B3F5003F06D008E008231800C6
:104D700007E00223180004E00323180001E00123E8
:104D8000180001E000231800C0B270472DE9F84F69
:104D900004000D00032603275FF0000A14F00F0043
:104DA0008146B9F1010F0CD0C0F00581B9F1030FB4
:104DB00063D062D3B9F1050F00F0D180C0F0B880A4
:104DC000F9E0EDB22800022808D003280BD004280F
:104DD0000ED0052836D0092839D039E00420060045
:104DE0000020070035E0032006000120070030E026
:104DF000022006000220070009F0EAFA6F49884203
:104E000015D3DFF88402006840F0804050F0600065
:104E1000DFF874120860DFF850030068C00610D590
:104E200001220821DFF86402FFF778FB09E0DFF8D0
:104E30005802006830F0600050F02000DFF848129F
:104E4000086006E0012006000320070001E000E002
:104E5000B1E0012201213800C0B200F01BF9FFF7D8
:104E600064FBDFF8D402066009F09CFB09F047FA06
:104E700080464046FFF780FB9DE0EDB22800012808
:104E800008D0022809D003280FD0062815D00928F9
:104E90002CD030E0002083462EE0012201210020AA
:104EA00000F0F8F80220834626E0012201210120CB
:104EB00000F0F0F8012083461EE001220421DFF813
:104EC000A802FFF72BFB0320834609F018FA80465F
:104ED0003A48804509D301221E216B48FFF71EFB8B
:104EE000012208216948FFF719FB05E000208346ED
:104EF0000120824600E05EE0B9F1020F0CD1DFF83C
:104F000034020068DFF8741208405BEA000050EADF
:104F10000A40884908600AE086480068DFF86012A5
:104F2000084050EA8B0050EA0A508249086042E08B
:104F3000EDB22800072802D0082807D00DE052481B
:104F4000006830F080505049086007E04E48006823
:104F500050F080504C49086000E02CE02BE0EDB2AE
:104F6000280002280BD0032816D0082821D12020A1
:104F700071490860714800680004FBD51AE00122FD
:104F80000121002000F086F840206B4908606B4842
:104F90000068C003FBD50DE001220121012000F0D3
:104FA00079F8602064490860644800688003FBD594
:104FB00000E000E0FFE7BDE8F18F00000148E801F4
:104FC0000124F40004000C4014800C4040420F0007
:104FD000C0CF6A00C0D8A700809FD500406F4001B5
:104FE00004001800F8B50400E4B2002C08D0022C2C
:104FF00011D00AD3042C19D013D3052C1BD020E0D8
:1050000061480068C0B205001CE05F480068C0F35A
:105010000720050016E05C480068C0F30740050063
:1050200010E059480068000E05000BE05748006882
:10503000C0B2050006E055480068C0F3072005002F
:1050400000E01BE05120FFF70BFE0700FFB2052F29
:1050500001D1FFF76AFA4B480068C00AC002E4B207
:1050600055EA0421084347490860FFB2052F05D1DE
:1050700009F045F906003000FFF77EFAF1BD0000A7
:1050800005231C00003FAB0100800C4004800C4055
:1050900054800C402DE9F84304000D001600E4B2E2
:1050A000002C24D0022C0DD01AD3042C11D002D302
:1050B000052C26D026E001208046022081460220D1
:1050C000070020E0042080460820814608200700D1
:1050D00019E010208046202081462020070012E0A1
:1050E0004020804680208146802007000BE04FF45E
:1050F000807080464FF4007081464FF400700700C6
:1051000001E013E012E0EDB2002D0AD02048C0F813
:105110000080F6B2002E07D008480068384203D15C
:10512000FAE71B48C0F8009009F03CFABDE8F183AB
:105130000000000028800C4024800C402C800C4093
:1051400050800C4008800C403014080030240A00C5
:105150003004100068800C40400514004015160013
:1051600070800C4044800C4040800C4020000400C3
:1051700058800C4060800C4078800C40FCFFFEFFA3
:10518000F3FFEFFF0C800C40DC81E00FE081E00FCB
:1051900020800C40026CD20702D4426C0A42FCD13F
:1051A00070472DE9F04104000D001600002D10D1CC
:1051B0001048844202D11048804606E00F488442DD
:1051C00002D10F48804600E011E04046FFF79DFC09
:1051D00005006801B0FBF6F00700203FFF0047F62E
:1051E000F870074004212000FFF7D4FFE760BDE816
:1051F000F0810000004008404005140000440840D1
:1052000040151600C9B2002905D0426C002AFCD115
:105210000122026401E000220264704738B50400F4
:105220000D0002212000FFF7B5FF0A206060012178
:105230002000FFF7E7FF206830F01C00297B0843BF
:10524000697B0843A97B08432060AA68696820003D
:10525000FFF7A7FF2878606000212000FFF7D2FF4A
:1052600031BD10B5040001212000FFF7CBFFEA207B
:105270006060002020600020E060002020610020AD
:1052800060610020A06340F2F97060630020E06379
:105290000020606500212000FFF7B4FF10BD026808
:1052A000531C0360117070478B0013EB401313F114
:1052B00084431A60704710B4604AC0B2242303FBD1
:1052C0000022126892089200C9B20A435B4BC0B236
:1052D000242404FB00331A6010BC70472DE9F84306
:1052E00005000E0017009846089C082E11D254485D
:1052F00000680F213200D2B2920091408843EDB293
:105300003100C9B2890015FA01F108434C4908601F
:1053100013E0B6F1080081464A4800680F214A466A
:10532000D2B2920091408843EDB24946C9B2890099
:1053300015FA01F1084343490860FFB23A00310011
:105340004148FFF7B1FF5FFA88F8424631003F4815
:10535000FFF7AAFF0120B0403D490860E4B22200F7
:1053600031003C48FFF7A0FFBDE8F18370B4D2B232
:10537000002A12D0002B08D001248C402F4DC0B23F
:10538000242606FB00552C6107E001248C402B4DA0
:10539000C0B2242606FB00556C61082919D2274C9F
:1053A000C0B2242505FB004464680F250E00F6B248
:1053B000B600B540AC43D2B20D00EDB2AD0012FA6A
:1053C00005F52C431D4DC0B2242606FB00556C602C
:1053D0001AE01A4CC0B2242505FB0044A4680F252E
:1053E0000E00083EF6B2B600B540AC43D2B20D0096
:1053F000083DEDB2AD0012FA05F52C430F4DC0B2D9
:10540000242606FB0055AC60D2B2002A12D1002B34
:1054100008D001248C40094DC0B2242606FB00555B
:105420002C6107E001248C40044DC0B2242606FB09
:1054300000556C6170BC70470000000000600040C7
:105440000061004004610040086100400C610040C0
:105450001C61004010610040012110F01F029140CA
:10546000DFF8442340B2430942F82310704701217A
:1054700010F01F029140DFF8342340B2430942F894
:1054800023107047012110F01F029140DFF8202304
:1054900040B2430942F8231070478B0013EB4013CE
:1054A00013F184431A6070472DE9F84F0A9C0B9D55
:1054B0000C9EDFF800C3DCF800C01CEB001BCDF82D
:1054C00000B0D2B2002A03D0DDF800C0674606E083
:1054D000DFF8E4C2DCF800C01CEB001C6746DDF816
:1054E00000C0DCF80CC0E646BEF1000F01D08EF81B
:1054F0000820002D0FD0D7F808C0CCF3816CE0460F
:10550000B8F1030F01D13D6005E016FA08FC1CEB71
:10551000050CC7F800C0002C0FD0D7F808C05FEA10
:105520009C7CE046B8F1030F01D17C6005E016FADF
:1055300008FC1CEB040CC7F804C05FF0010C1CFA5B
:1055400000FCE146DBB2002B04D0DFF870C2CCF8DF
:10555000009003E0DFF868C2CCF80090D2B2002AD5
:1055600004D0DFF860C2CCF8009003E0DFF858C246
:10557000CCF80090D7F808C0DFF850B21BEA0C0C4A
:10558000E2465AEA061AC9B251EA0A0AC7F808A05E
:10559000BDE8F18F2DE9F84FDFF83402006881464D
:1055A000DFF83002006810EA0909B9F1000F00D5F0
:1055B000FEE7DFF8240200680090009810EA090076
:1055C000060000208046B8F1020F33DA0020040004
:1055D000002E28D0F00723D5DFF8D801D0F800A09E
:1055E000012010FA04FBDFF8F401C0F800B01AEB58
:1055F0000410C0680500002D12D0287A0700287A10
:1056000090F0010028722868002809D0002F01D0EE
:10561000012100E000216A68C9B220002B68984788
:105620007608641CD4E7009839EA0000060018F1F7
:105630000108C8E7BDE8F18F2DE9FE4304000D0025
:1056400016001F00DDF82880DDF82C90CDF80890BA
:10565000CDF8048000973300DBB22A00D2B20121DA
:105660002000FFF721FF0120A040DFF8741108603F
:10567000BDE8F78370B504000D004E4800680600D1
:10568000A86816EB0411C8602878002804D001200F
:10569000A0405149086003E00120A0405149086042
:1056A0006868514941F824006878002809D0012031
:1056B000A0404A490860012221004648FFF7EDFE5C
:1056C00004E0002221004348FFF7E7FE70BD30B43C
:1056D000C9B2002903D0374C2468230002E0364CBD
:1056E0002468230013EB0013147895782D0755EAEE
:1056F0008474557854EA8564957854EA056415797C
:1057000054EA8544D57854EA85349C6030BC7047AF
:1057100010B5040001213548FFF796F900F014F8A0
:105720000020FFF7AFFE0020FFF796FE5FF000407D
:105730002849086060681F4908602078400150F0DF
:1057400001002B49086010BD10B50020FFF78FFE47
:1057500000202749086040F6FF701949086040F6AC
:10576000FF702449086040F6FF702349086040F646
:10577000FF701449086040F6FF701A490860012064
:105780001E4908600020134908601D48134908603D
:10579000002004000C2C05DA0020134941F82400F5
:1057A000641CF7E710BD000000E100E080E100E0CC
:1057B00080E200E008200C400C200C4018200C4037
:1057C0001C200C4034200C4030200C4008C0FFFF4F
:1057D00000300C400C300C4038200C4008300C409D
:1057E00028200C403C200C4000310C4000030400F9
:1057F00004200C4024200C402C200C404C200C4059
:10580000FF0F008070B504000D00260008F0ADFF0A
:105810003068F16B326C02FB010070600020B063F5
:105820003068B0603068F16B491E326C02FB0100D9
:10583000F0605FF0FF3070645FF0FF30B064002D07
:105840000BD13069002810D016F1100002F0A8F931
:1058500001280AD108F080FF07E016F1100008F0D7
:10586000CBFF16F1240008F0C7FF08F08EFF0120DF
:1058700070BD2DE9F84304000D0016005FF000092B
:10588000002C1BD04C2009F007F80700002F15D082
:1058900005FB04F0401C8046404608F0FDFF3860E0
:1058A0003868002807D0FC633D6401213800FFF709
:1058B000A9FFB94602E0380009F021F84846BDE8E2
:1058C000F2832DE9F74304000D001E005FF000088D
:1058D000A14608F04AFFD9F83800D9F83C108842B0
:1058E00001D3022E1AD132002900484600F045F9B2
:1058F0000700D9F82400002808D019F1240002F08C
:105900004FF9012806D108F027FF03E0002F01D04E
:1059100008F022FF08F039FF01204CE0029800282F
:1059200003D108F032FF002045E0B8F1000F04D1A8
:1059300000A802F072F90120804608F026FF01F06D
:10594000A4FF08F012FFD9F8440010F1010F02D1B2
:105950000020C9F84400D9F8480010F1010F02D125
:105960000020C9F8480008F010FF02A900A802F0C2
:105970005DF9002819D1484600F0A8F900280ED09A
:10598000029919F1100002F0D4F8484600F059F9D4
:1059900001F09DFF00289CD108F0DEFE99E7484603
:1059A00000F04FF901F093FF93E7484600F049F902
:1059B00001F08DFF0020BDE8FE832DE9F0470400D3
:1059C0000D0016001F00A24608F0FCFE08F0C6FFFE
:1059D0008146DAF83800DAF83C10884201D3022F09
:1059E00026D13A002900504600F0C7F8002803D01D
:1059F000002E01D001203060DAF8480010F1010FCC
:105A00000ED1DAF8240000280FD01AF1240002F099
:105A1000C7F8002809D0002E07D00120306004E02C
:105A2000DAF84800401CCAF848000120804601E02E
:105A300000208046484608F098FF4046BDE8F087C1
:105A40002DE9F74304000D001E000027A14608F0D1
:105A50008CFED9F83800002834D0D9F80C008046E4
:105A60002900484600F0D5F8002E19D1D9F83800A1
:105A7000401EC9F83800D9F80000002803D102F010
:105A800069FAC9F80400D9F81000002816D019F1F5
:105A9000100002F085F8012810D108F05DFE0DE03D
:105AA000C9F80C80D9F82400002807D019F1240087
:105AB00002F076F8002801D008F04EFE08F065FEEE
:105AC000012058E00298002803D108F05EFE002073
:105AD00051E0002F04D100A802F09FF80120070038
