:1000000002074B020833FFFFFFFFFF02083BFFFF21
:10001000FFFFFFC2AFF508E119FFFF02084BFFFF2A
:10002000FFFFFF020853FFFFFFFFFF02085BFFFF18
:10003000FFFFFF020863FFFFFFFFFF02086BFFFFE8
:10004000FFFFFF020873FFFFFFFFFF02087BFFFFB8
:10005000FFFFFF020883FFFFFFFFFF02088BFFFF88
:10006000FFFFFF020893FFFFFFFFFF02089BFFFF58
:10007000FFFFFF0208A3FFFFFFFFFF0208ABFFFF28
:10008000FFFFFF0208B3FFFFFFFFFF0208BBFFFFF8
:10009000FF02009F0000003C0805050200003EC072
:1000A000E0C0D0E8C0E0E9C0E0EAC0E0EBC0E0C0FA
:1000B00082C083C28B90018274D0F0A37407F0E5F4
:1000C000C1C0E0900180E0F874AD28F5827401347D
:1000D00000F583D0E0F0900180E004F09001B4E0FE
:1000E0002406F8E43400F9900180E0687001E970BA
:1000F00010E09408400B9001817401F0900180E4BD
:10010000F0D083D082D0E0FBD0E0FAD0E0F9D0E0AC
:10011000F8D0D0D0E03274F31205D874801206F013
:10012000750A00750B007E007F00750D01750C10BF
:10013000750E80750F00780E12072B740212076778
:10014000AC82AD83AA0AAB0BA90D1204D4740212BF
:1001500006D5851B82AA82AB83EFF9E4C9F8EEFFCE
:100160008A828B83E0FCE86CFEC4540F6EFE8E0E18
:100170008F0F740C780E120706E50F6FFFEEF50E69
:10018000890F7405780E120706E50E6EFEE50F6FF7
:10019000FFA3AA82AB837480120767E5826A7003AB
:1001A000E5836B70B4E50A2480F50AE50B3400F5AD
:1001B0000B150CE50C6003020130890A890B050D53
:1001C000E50DC3947B500302012DEEFAEFFB748022
:1001D0001206D57F0602063EC082C0839001877456
:1001E0003CF0A37412F0A37401F0A3F0A37440F0E8
:1001F000A37408F0A37402F0A3F090780EE09001CD
:100200008FF090780FE0900190F0907810E09001DE
:1002100091F0907811E0900192F0907812E09001C6
:1002200093F0907813E0900194F0A3E4F09001989B
:10023000743EF0D083D0822253C6B8E59EA2E64039
:10024000FA750A02750B00780A12072B7C9E7D0155
:100250007A007B00797B1204D474021206D59001D7
:100260009EE064137004A3E064207010750900021E
:100270000830C2AF75C9AB75C95B80FE7509011244
:1002800001D875F30C75C2D8E5C554E0440BF5C52B
:1002900043868075C40253C5DFC28B438640D2AA11
:1002A000D2AF7402F5D575D4435386FD758284753B
:1002B0008301E0F5C1E586A2E150FA5386FDA3E58E
:1002C0008264997004E583640170E7900181E070B5
:1002D000030204A89001B5E01470030204811460C5
:1002E000091470030203B10204A3A3E07003020324
:1002F00079A3E090019EF09001B8E090019FF01288
:1003000001169001A0EAF0A3EBF09001A0E0F8A3A1
:10031000E0F990019EE0687003A3E069705B797B6F
:100320001205C1906270E0A2E740F890019E74133C
:10033000F0A37420F0750A01780A12072B7C9E7DC9
:10034000017A007BF612055B74021206D55386FD16
:100350007582A2758301E0F5C1E586A2E150FA53EA
:1003600086FDA3E58264AD7004E583640170E7C295
:10037000AF75C9AB75C95B80FE900199E4F090013F
:100380009AF0A3F090019CF0A3F05386FD7582A231
:10039000758301E0F5C1E586A2E150FA5386FDA31D
:1003A000E58264AD7004E583640170030204A380F8
:1003B000E290019AE0F8A3E0F9E849701A900199F7
:1003C000E0C3947B4003747AF0E004F91205C19015
:1003D0006270E0A2E740F890019AE0F50AA3E0F528
:1003E0000B7402780A12073C900199E02401F50C85
:1003F000E43400F50D7409780C120706E50A2400B0
:10040000F8E50B350DF990019CE8F0A3E9F0750AC9
:1004100020750B00780A12072B7CB67D0190019C99
:10042000E0FAA3E0FB12055B74021206D590019A74
:10043000E02480F0A3E03400F0900199E004900102
:10044000AAF05386FD7582A2758301E0F5C1E586A9
:10045000A2E150FA5386FDA3E58264AD7004E58302
:10046000640170E79001AAE4F0C390019BE0940856
:10047000403190019AE4F0A3F0900199E004F080FB
:10048000225386FD758284758301E0F5C1E586A25D
:10049000E150FA5386FDA3E58264997004E5836414
:1004A0000170E7900181E4F0900182E0F8A3E0F9A7
:1004B000E84970030202CB900182E024FFF018A308
:1004C000E034FFF0F9E84960030202CB900180E4D8
:1004D000F00202CB74F51205D8890A740F550AF59B
:1004E0000C750D00740B780C120706EA2400F8EB6B
:1004F0003480F9E82400E9350DF9E5C7F50BA2AF22
:10050000E433F50CC2AFE50AC4540FFAE5C754F85A
:100510004AF5C7740B120767E0FEA3E0FFEE4F60D9
:100520002CEEFAEFFB88828983E08C828D83F08841
:10053000828983A3A882A9838C828D83A3AC82AD98
:1005400083EA24FF1AEB34FFFBEA4B70D8850BC714
:10055000E50CA2E092AF7F0402063E74F71205D8C4
:10056000ED900243F0ECA3F0A37462F0A37473F077
:10057000A3E0541FF07409120767E0F50AA3E0F541
:100580000BE50A333354FC900248F07406780A12E3
:10059000073CE50A900247F09002497412F0A374F8
:1005A00042F053D1FE75D601EA906271F0EBA3F0F0
:1005B000906270E0D2E1F0E0A2E740FB7F02020629
:1005C0003EC082C083E9C333906272F0906270E0F3
:1005D000D2E0F0D083D08222251BC582C0E0E51C8A
:1005E00034FFC583C0E0E51BC3958224F910AF0832
:1005F00085831C85821B800885831C85821BD2AF66
:10060000CEF0A3E520F0A3780AE608F0A3DEFAEF27
:10061000F0A3E58124FBF8E608F0A3E608F0A308C0
:1006200008E608F0A3E608F0A315811581D0E0FEE6
:10063000D0E0F815811581E8C0E0EEC0E022851C0D
:1006400083851B82E0A3FEE0A3F520780AE0A3F6F1
:1006500008DFFAE0A3FFE0A3C0E0E0A3C0E0E0A36E
:10066000C0E0E0A3C0E010AF0885821B85831C803A
:100670000885821B85831CD2AFD083D08222E49070
:100680000180782379018002F0A3D8FCD9FA7AA2FC
:100690007B01900094780C79018015E493A3AD82DE
:1006A000AE838A828B83F0A3AA82AB838D828E83F2
:1006B000D8E9D9E7120238120771251BF58210AF6D
:1006C00008F51B400C151C8008F51B4002151CD2B8
:1006D000AF851C832200C0D0251B10AF08F51B502E
:1006E0000C051C8008F51B5002051CD2AFD0D0228F
:1006F000251B10AF08F51B400C151C8008F51B408E
:1007000002151CD2AF22700422600D18C6C333C676
:1007100008C633C6D5E0F41822E5096007E508D21B
:10072000AF020091E508D2AF02084374028000C016
:10073000E0F4041206BAD0E012075A22600C08C690
:10074000C313C618C613C6D5E0F42275D000758150
:100750003F751B80751C0102067ECAC0E0E6F0A34F
:1007600008DAFAD0E0FA22251BF582E4351CF5837D
:100770002200000080FBFFFFFFFFFFFFFFFFFFFFE6
:10078000FFFFFFFFFFFFFFFFFFFFFFFFFFFFFFFF79
:10079000FFFFFFFFFFFFFFFFFFFFFFFFFFFFFFFF69
:1007A000FFFFFFFFFFFFFFFFFFFFFFFFFFFFFFFF59
:1007B000FFFFFFFFFFFFFFFFFFFFFFFFFFFFFFFF49
:1007C000FFFFFFFFFFFFFFFFFFFFFFFFFFFFFFFF39
:1007D000FFFFFFFFFFFFFFFFFFFFFFFFFFFFFFFF29
:1007E000FFFFFFFFFFFFFFFFFFFFFFFFFFFFFFFF19
:1007F000FFFFFFFFFFFFFFFFFFFFFFFFFFFFFFFF09
:10080000E42CFFFFFFFFFFFFFFFFFFFFFFFFFFFFE6
:10081000FFFFFFFFFFFFFFFFFFFFFFFFFFFFFFFFE8
:10082000FFFFFFFFFFFFFFFFFFFFFFFFFFFFFFFFD8
:10083000020F1B021FF0FFFFFFFFFFFFFFFFFFFF85
:10084000FFFFFFFFFFFFFFFFFFFFFFFFFFFFFFFFB8
:10085000FFFFFFFFFFFFFFFFFFFFFF0226C5FFFFB8
:10086000FFFFFFFFFFFFFFFFFFFFFF022757FFFF15
:10087000FFFFFF022669FFFFFFFFFFFFFFFFFFFFF4
:10088000FFFFFF022066FFFFFFFFFFFFFFFFFFFFED
:10089000FFFFFFFFFFFFFFFFFFFFFF0226E9FFFF54
:1008A000FFFFFFFFFFFFFFFFFFFFFFFFFFFFFFFF58
:1008B000FFFFFF021E9F01FF0000B4000028002878
:1008C00000283075A000A000A000A00000080008CB
:1008D000E001F000100010001000100010001000E7
:1008E00050005000500010001000D0070000000021
:1008F00000000F0001000500307507001000010026
:1009000081FF00000000FF552A732A5B2AFF0202C4
:100910000208025000A0000000E80302E39001007A
:10092000009E9002CF900100006D0E02BD9001006C
:1009300000B20202CF900100006E0E02BF900100D3
:1009400000C80202CF900100006F0E02C1900100AA
:1009500000CA0202CF90010000700E02C39008008E
:1009600000CB0202CF90010000710E02C590010081
:1009700000720EFFFF0100FF2002E39001000098CB
:100980009002CF90010000D70E02C7900000000037
:100990000002BB900300005A033931393139313933
:1009A00031393139313931393139313931393139F7
:1009B00031393115342D340F340402E39001000035
:1009C000929002CF90010000180F02F990020000EF
:1009D0008107FF0F0F0F0F0F0E0E09416363756C38
:1009E0006966655F78787878051208001000020A59
:1009F00004020106070250AA09180D1806FF000D8F
:100A0000FFAAFF416363756C6966655F78787878E3
:100A100000F53500005B365536FB3501364F363C68
:100A200004003E011241434B2E44617461000A41AF
:100A3000434B2E436F6E66000A41434B2E50657246
:100A4000696F640002E390010000B09002CF900152
:100A50000000830F02ED90010000F30902BB900338
:100A60000000070A02B990010000840F02CF900134
:100A700000008D0F02E7900300000D0A02B99001FB
:100A800000008E0F02CF90010000970F02E5900347
:100A900000000E0A02B990010000980F026402E300
:100AA00090010000A19002CF90010000FB0F02F323
:100AB00090010000FC0F022020202000024646206A
:100AC00046462046462046462046462046460002E8
:100AD00020302E3030000220312E32302028536555
:100AE00070203135203230313529000255565520DD
:100AF000546563682E0002E390010000B39002CFBA
:100B0000900100001510020F91010000161002CF95
:100B1000900100001B10020B910100001C1002CF7D
:100B2000900100003510020991010000361002CF3B
:100B3000900100002E100201910100002F1002CF41
:100B4000900100004A1002FF900100004B1001E8E4
:100B500003053F100A1C4461746155704C6F646555
:100B600072322E44617461000A4461746155704CA4
:100B70006F646572322E436F6E66000102E390016E
:100B80000000B69002CF90010000B41002CB90029A
:100B90000000E60A02BB90030000FA0A02B99001C5
:100BA0000000B51002CF90010000C71002CD9003E5
:100BB0000000000B02B990010000C81010100202E2
:100BC000E390010000A98F02CF900100001B1102E9
:100BD000D590000000CF0C02BB90030000D00C02A7
:100BE000CF900100001C1102D7900100001D1112CE
:100BF0004461746155704C6F646572312E44617448
:100C000061000A4461746155704C6F646572312EE5
:100C1000436F6E660002E390010000AD9002CF903A
:100C20000100004E1102DF90010000D80C02BB90C1
:100C3000030000EC0C02B9900100004F1102CF90AC
:100C4000010000611102E190030000F20C02B99072
:100C50000100006211FF000130750302010600006F
:100C60000000000000000000000000000000000084
:100C700000000000000000000000FFFF0600800CE4
:100C8000E8030110416C6572744E6F7469666963A4
:100C90006174696F6E2E20446174610002E39001FB
:100CA00000009B9002CF90010000E21102FD900035
:100CB0000000BD0D02BB90030000BE0D02B9900103
:100CC0000000E31120020202E3900100009590026F
:100CD000CF900100002312020591000000C60D0212
:100CE000BB90030000C70D02CF9001000024120248
:100CF000079101000025123C0000000000000000E8
:100D000000000000000000000000000000000000E3
:100D100000000000000000000000000000000000D3
:100D200000000000000000000000000000000000C3
:100D300000000000000000000000000000000000B3
:100D400000000000000000000000000000000000A3
:100D50000000000000000000000000000000000093
:100D60000000000000000000000000000000000083
:100D70000000000000000000000000000000000073
:100D80000000000000000000000000000000000063
:100D90000000000000000000000000000000000053
:100DA0000000000000000000000000000000000043
:100DB0000000000000000000000000000000000033
:100DC0000000000000000000000000000000000023
:100DD0000000000000000000000000000000000013
:100DE0000000000000000000000000000000000003
:100DF00000000000000000000000000000000000F3
:100E000000000000000000000000000000000000E2
:100E100000000000000000000000000000000000D2
:100E200000000000000000000000000000000000C2
:100E300000000000000000000000000000000000B2
:100E400000000000000000000000000000000000A2
:100E50000000000000000000000000000000000092
:100E60000000000000000000000000000000000082
:100E70000000000000000000000000000000000072
:100E800000000000000000E5C754F84401F5C779F0
:100E9000012200000080FB120E87B90003020F053B
:100EA000E479217808B800028004F709D8FCE479D5
:100EB000297802B800028004F709D8FCE490028087
:100EC0007897790C8002F0A3D8FCD9FA781C9008A6
:100ED000B67A01BA00028007E493A3F608DAF97A39
:100EE000167B0E9008B778D179068015E493A3ADF0
:100EF00082AE838A828B83F0A3AA82AB838D828E9B
:100F000083D8E9D9E77582E37583867404120F2DBF
:100F100075829275830E7400120F2D75D000758145
:100F20003F751A80751B02759F00020E97C09FF5D2
:100F30009FE473D09F22D083D082C09FE493C0E00F
:100F4000740193C0E0740293F59F22E0667010086C
:100F5000A3E066700A08A3E066700408A3E06622B6
:100F6000C3E7960809E7960809E7960809E7962275
:100F7000C3E09608A3E09608A3E09608A3E09622B3
:100F8000C008C3E096F50808A3E096420808A3E06D
:100F900096420808A3E09645087001D3D00822E9DC
:100FA000799EC608CAC608CBC608CCC6C3702079CD
:100FB00096CACBCC7019798ECBCC70137986CC7055
:100FC0000EF9802ACA33CACB33CBCC33CC33193099
:100FD000E7F2CCCBCA3350147004EA30E00DE4CA17
:100FE0003ACACB3BCBCC3CCC500209C3E913C6CCAC
:100FF000182313C6CB18C6CA18C6F922E626184607
:101000001846184622E72719471947194722181882
:1010100018E60846087009E626087005E633F4224B
:101020000822191919E70947097009E72709700506
:10103000E733F4220922E6084608C3134608336062
:1010400002E633F422E7094709C313470933600274
:10105000E733F42200121036604F1210456012E799
:10106000548066F612100E7011121005703B0909BB
:1010700009F4F618F618F618F62212102270151256
:101080000FFC08080860EAE6447FF618768018E44A
:10109000F618F622120FFC60161210057012E4F614
:1010A00008F608F608E65480F60909091818182207
:1010B000EAC0E0EBC0E0ECC0E0EDC0E0E687F0A401
:1010C000FBACF008E687F0A42CFCE435F0FA180934
:1010D000E687F0A42C4B60027401CA35F0FCE433BF
:1010E000FB09E687F0D2F7A42CCB35F0FC1908E613
:1010F00087F0A42BCC35F0FBE433FD0819E687F02C
:10110000D2E7A42C4ACB35F0CD3400FC09E687F0B9
:10111000D2E7A42DCC35F0FDE433FA0918E687F0C8
:10112000D2F7A42CCD35F0CA3400FC08E687F0D203
:10113000E7D2F7A42ACC35F07A7E20E70B0ACB332E
:10114000CBCD33CDCC33CC33CB3350147004ED3016
:10115000E00ED2F1E4CD3DCDCC3CCC3B5005DA05E0
:10116000C2F1EB547FC63308E63392F0FBE7330954
:10117000E733C39A502D2B70190C0D4C4D70151878
:1011800006E608C333700D20F10AA2F013F6E41846
:10119000800B4024E4F630F002768018F618F6183A
:1011A000F68024D33B14501074FFA2F013F6187687
:1011B00080E418F618F6800FA2F013F618E6330351
:1011C000F618ECF618EDF6D0E0FDD0E0FCD0E0FB30
:1011D000D0E0FA22121036601D1210457005191960
:1011E00019801A12100E701F121022C37003E667C6
:1011F0003319191940071818182208080874FFF63F
:1012000018F618F618F62212102260171210057040
:101210002192F0120FFC7019501720F014080808E2
:10122000090909E7F61819E7F61819E7F61819E792
:10123000F622120FFC60E6E869701F0808E62480B9
:10124000F608E436F618547FB47F0CE65480600745
:10125000F6E418F618F622181822E9C6CC08C6CD0E
:1012600008C6CE08C6CFC0E0E8C0E0EAC0E0EBC0E8
:10127000E009E9F809E7FA09E7FBE6F918E6F8C337
:10128000EC98ED99EE9AEBC2E7F5F0EFC2E795F036
:10129000500E600CEBCFFBEACEFAE9CDF9E8CCF8C2
:1012A000EAA2E7D2E7FAEB33FB13F5F0EEA2E7D2BE
:1012B000E7FEEF33FFC5F013A2E730E601B313C535
:1012C000F0C3C0E0C0F07F00C39BFB605E94186079
:1012D0000F401D14601AD0E023F9D0E0F80213B5D6
:1012E0008AF0E9486003D2F0E4AFF0FAF9F8803B05
:1012F000EB30E40D89F0EA6003D2F0E4AFF0F9CA14
:10130000F8EB30E30D88F0EF6002D2F0AFF0E4CA02
:10131000C9F8EB54076014FBC3EA13FAE913F9E8C0
:1013200013F8EF135002D2E0FFDBEDD0E0C0E03065
:10133000E739C3E49FFFF5F0EC98FC42F0ED99FD2E
:1013400042F0EE9AFE42F0D0E0F9D0E0F8E5F0602D
:101350007AE923F9EE20E742D8028067C3EF33FF32
:10136000EC33FCED33FDEE33FE80EAEC28FCED3986
:10137000FDEE3AFED0E023F9D0E0F84002801BC336
:10138000EE13FEED13FDEC13FCEF135002D2E0FF61
:1013900008B800067F7F74FF802EEF3350178CF063
:1013A00020F00260100CBC000C0DBD00080EBE0049
:1013B0000408E860DFE933E813FFEE2313FE4F4D26
:1013C0004C8008E95480FFE4FEFDFCEE33EF33F47B
:1013D0007004FCFD7E80D0E0FBD0E0FAD0E0F8D0D5
:1013E000E0CFC618CEC618CDC618CCC6F92208085C
:1013F00008EAC0E0EBC0E086F0E7A4FA180986F03E
:10140000E7A42AFA180986F0E7A42AFA180986F050
:10141000E7A42AFA1986F0E7A4FBE5F02AFA1908EE
:1014200086F0E7A42BFBE5F03AFA190886F0E7A46A
:101430002BFBE5F03AFA18180986F0E7A4C5F02B63
:10144000FBE43AFA1908E7C5F0C6A426F6E5F03B36
:10145000FBE43AFA1886F0E7A4F6E5F00826F6E48D
:101460003B08F6E43A08F6D0E0FBD0E0FA22E4CFFD
:10147000C0E0E4CEC0E0E4CDC0E0E4CCC0E075F074
:1014800020E626F608E633F608E633F608E633F6F5
:10149000181818EC33FCED33FDEE33FEEF33FFC3C9
:1014A000EC9709ED9709EE9709EF97191919400F75
:1014B000FFEC97FC09ED97FD09EE97FE191906D58B
:1014C000F0BFECF709EDF709EEF709EFF719191975
:1014D000D0E0FCD0E0FDD0E0FED0E0FF22601608B6
:1014E0000808C6C313C618C613C618C613C618C63E
:1014F00013C6D5E0EA2270090808082260161818F9
:1015000018C6C333C608C633C608C633C608C633B2
:10151000C6D5E0EA22E627F60809E637F60809E626
:1015200037F60809E637F622E026F608A3E036F695
:1015300008A3E036F608A3E036F622E026F008A37A
:10154000E036F008A3E036F008A3E036F022C3E668
:1015500097F60809E697F60809E697F60809E69768
:10156000F622C3E096F008A3E096F008A3E096F018
:1015700008A3E096F022E657F60809E657F60809B0
:10158000E657F60809E657F622E056F608A3E056B5
:10159000F608A3E056F608A3E056F622E056F00857
:1015A000A3E056F008A3E056F008A3E056F022E0CE
:1015B000F608A3E0F608A3E0F608A3E0F622E6F0BA
:1015C00008A3E6F008A3E6F008A3E6F022E0FAA3F9
:1015D000E0FBA3E0FCA3E0FD22EAF0A3EBF0A3EC28
:1015E000F0A3EDF022CAC0E0E6F0A308DAFAD0E0FA
:1015F000FA22CAC0E0E0A3C582CCC582C583CDC5AE
:1016000083F0A3C582CCC582C583CDC583DAE6D07D
:10161000E0CA22C3E498F8E499F91216548026C36C
:10162000E49AFAE49BFBE920E7E9121654E498F8FF
:10163000E499F922C3E498F8E499F9121654E4986D
:10164000F8E499F9C3E49AFAE49BFB22EB20E7CF94
:10165000E920E7E0B90010BB0008E88AF084F8AAA6
:10166000F022E4FBC8FA22EB70227B10C833C8C911
:1016700033C9335007C39AC3DBF280069A50012A5C
:10168000DBEAC833F4C8C933F4C9FA2275F008E4B8
:10169000C833C8C933C933C99AC99B5004C92AC9B8
:1016A0003BD5F0ECFBC833F4C8E4C9FA22600D085E
:1016B000C6A2E713C618C613C6D5E0F322600C080D
:1016C000C6C313C618C613C6D5E0F4227004226040
:1016D0000D18C6C333C608C633C6D5E0F418222594
:1016E0001A10AF08F51A400C151B8008F51A4002B5
:1016F000151BD2AF2200C0D0251A10AF08F51A5022
:101700000C051B8008F51A5002051BD2AFD0D02261
:10171000251AF58210AF08F51A400C151B8008F544
:101720001A4002151BD2AF851B8322251AF582E4CD
:10173000351BF58322E473251AC582C0E0E51B340E
:10174000FFC583C0E0E51AC3958224F810AF088571
:10175000831B85821A800885831B85821AD2AFCEAF
:10176000F0A3E520F0A37808E608F0A3DEFAEFF096
:10177000A3E58124FAF8E608F0A3E608F0A3E6085A
:10178000F0A30808E608F0A3E608F0A31581158188
:10179000D0E0FED0E0F8158115811581E8C0E0EEBB
:1017A000C0E022251AC582C0E0E51B34FFC583C016
:1017B000E0E51AC3958224F910AF0885831B858262
:1017C0001A800885831B85821AD2AFCEF0A3E5204C
:1017D000F0A37808E608F0A3DEFAEFF0A3E5812491
:1017E000FBF8E608F0A3E608F0A30808E608F0A373
:1017F000E608F0A315811581D0E0FED0E0F8158150
:101800001581E8C0E0EEC0E022851B83851A82E0E6
:10181000A3FEE0A3F5207808E0A3F608DFFAE0A332
:10182000FFE0A3C0E0E0A3C0E0E0A3C0E0E0A3C00D
:10183000E0E0A3C0E010AF0885821A85831B800812
:1018400085821A85831BD2AFD083D082020F338565
:101850001B83851A82E0A3FEE0A3F5207808E0A3AD
:10186000F608DFFAE0A3FFE0A3C0E0E0A3C0E0E0F9
:10187000A3C0E0E0A3C0E010AF0885821A85831BF7
:10188000800885821A85831BD2AFD083D08222C084
:10189000D0251AC582C0E0E51B34FFC583C0E0E552
:1018A0001AC3958224F310AF0885831B85821A80A2
:1018B0000885831B85821AD2AFC8F0A3E9F0A3EA9A
:1018C000F0A3EBF0A37908E709F0A3D8FAECF0A3B2
:1018D000EDF0A3EEF0A3EFF0A3D0E0F0A3D0E0F0A2
:1018E000A3D0E0F0A3E520F0A3E5F0F0A322851B50
:1018F00083851A82E0C0E0A3E0F9A3E0FAA3E0FB4D
:10190000A37808E0F608A3DFFAE0FCA3E0FDA3E07B
:10191000FEA3E0FFA3E0C0E0A3E0C0E0A3E0F5D0B9
:10192000A3E0F520A3E0A3F5F010AF0885831B85A5
:10193000821A800885831B85821AD2AFD082D08319
:10194000D0E0F8D0E03274048006740280027401A2
:10195000C0E0F404121710D0E01215E522740480E0
:101960000474028000CCC0E0EDC0E0E51AC39CCC5A
:10197000AD1B50011D10AF068C1A8D1B80068C1AF2
:101980008D1BD2AF1215F2D0E0FDD0E0FC22D08347
:10199000D082E9C0E0E493A3C386F0C5F095F0F9E6
:1019A00008E493A386F0C5F095F0700BE493A3C30D
:1019B000994005E9048002A3E475F002A42582F5AC
:1019C00082E5F03583F583D0E0F9E493A3C0E0E449
:1019D00093C0E022D083D082ECC0E0EDC0E0E4937D
:1019E000A3FCE493A3FDED4C600D121A20EC24FF40
:1019F000FCED34FFFD80EFE493A3FCE493A3FDED45
:101A00004C600D121A5FEC24FFFCED34FFFD80EFFB
:101A1000D0E0FDD0E0FCE493A3C0E0E493C0E0227A
:101A2000C0E0C3E49396087401939618400FE493C2
:101A300066700808740193661870007019A3A3C338
:101A4000E49396087401939618A3A3400DD0E0D0B8
:101A5000E0D0E0021A10A3A3A3A3A3A3D0E022C066
:101A6000E0C0F088F0E4936670080874019366188B
:101A70007000A8F0A3A3700BD0F0D0E0D0E0D0E0CD
:101A8000021A10A3A3D0F0D0E022FFFF74F51217C2
:101A9000A3EAFEEBFFEE2434F8EF3400F98808895E
:101AA00009EE2435121BB8F8EE2437121BB8F50ADC
:101AB000EC850AF0A4FCAAF0850AF0EDA42AFDE862
:101AC0002CF8E43DF97A257B00121654EA85088249
:101AD000850983F074075AF87401B800028004C3C2
:101AE00033D8FCFBEA131313541FF8EE28F8EF3435
:101AF00000F9E8245DF582E9121BBB5B6003EA8014
:101B00001CEE2436121BB8F5F0EA84A8F0EE28F893
:101B1000EF3400F9E82438F582E9121BBBF97F04A1
:101B200002184F74F51217A3EAFEEBFFEE243412ED
:101B30001BB8C0E0EE2435F582EF3400F583D0E029
:101B4000F08E828F83A3A3A3A3A3E0FAA3E0FB8E6E
:101B5000828F83A3A3A3A3A3A3A3E0FCA3E0FDEC34
:101B6000C39AF50AED9BF50BEE247FF508EF3400E0
:101B7000F509850882F583E06401702BEE2480F579
:101B800082EF3400F583121961121BC17402121620
:101B9000F5E960137C1D7D05EEFAEFFB12306185DF
:101BA0000882850983E4F0AC0AAD0BEEFAEFFB1274
:101BB0001A8C122655021B1EF582EF3400F583E0C5
:101BC00022C082C083851A82851B83E0F8A3E0F9D6
:101BD000C3EA9CEB9D5010C3EC98ED99401BC3EAFF
:101BE00098EB995014800EC3EA98EB994007C3EC28
:101BF00098ED994004790180027900D083D0822247
:101C0000EAC39CFAEB9DFB2274ED1217A39003E349
:101C1000E064086005E06407702C9061C8E060260D
:101C2000900411E0F874FF68601CE875F003A4C824
:101C3000AAF02AF9741328FE740439FF8E828F8368
:101C4000A3A3A3E070057900021DA8EE2468F51097
:101C5000EF3400F511906060E0851082851183F00B
:101C6000750A86750B05750800750900E5D914F528
:101C70000EE5D95403F50F601CEE2482F50CEF3409
:101C800000F50D7403650F6058E50E6013EE2467D0
:101C9000121BB8700B793DEEFAEFFB12308580A66F
:101CA000900581E064016026850C82850D83E060EB
:101CB00004780480027800850E08E508C398FA9538
:101CC000E0FB122EE78A088B09EA450970061232FA
:101CD000E3021C46850C82850D83E070048A0A8B22
:101CE0000B78008016E5D9C0E08812E50A2512F5C8
:101CF00082E50B3400F583D0E0F008E8C3950E4090
:101D0000E4850C82850D83E0602874FC250EF50EB9
:101D1000780A12194AAC0EA90FEEFAEFFB12313312
:101D200074021216F5E9700AAA08AB0912384102CA
:101D30001C957403650F6058850E0C750D00780CAA
:101D400012194AAC0AAD0BAA08AB091230F774029B
:101D50001216F5851082851183E0F874806870058D
:101D6000750C7F8002880CE50CF50A780A12194E72
:101D7000E50FF50A780A12194EA90EAC08AD0990C4
:101D80000411E0FA7B00122D7F74021216F5801305
:101D90009003E3E06408600BAC0AAD0BEEFAEFFBD6
:101DA0001231C91232EF79017F0C02184F74F3120D
:101DB00017A374FC1216DFEAFEEBFF8908A2AFE45A
:101DC00033F509C2AFEE2463F50AEF3400F50B805A
:101DD00010AA0AAB0B1230AF123841900524E00470
:101DE000F0850A82850B83E0F8A3E0F9E849602FCB
:101DF000E82402FAE93400FBEA2402F50CEB340093
:101E0000F50D780C12194A8A828B83E0FCA3E0F965
:101E1000EEFAEFFB1230A374021216F5E960B290ED
:101E20000524E06057900525E0F8900524E0C3986C
:101E3000500C740265087044900526E0603E8E8266
:101E40008F83A3A3A3A3E0851A82851B83121E8C14
:101E5000740212172BE8121E8C900523E028F074F0
:101E60000212172BAC82AD83851A82851B83AA824E
:101E7000AB837901122D8B900524E4F0E509A2E0F3
:101E800092AF74041216F57F0602184FF0A3E4F027
:101E9000900524E0F822FFFF8521878522C622C015
:101EA000E074EF12188FA2AFE433FEC2AF759B004F
:101EB000906182E0A2E05012E591A2E0500C759191
:101EC000FE740165217003121C08E0A2E55051E583
:101ED00091A2E5504B7591DF9003E3E06407600544
:101EE000E064087023740165217035790190041154
:101EF000E0FA75F003A4CAA8F028FB74132AFA7458
:101F0000043BFB121DAD8018E0640D7013900405B6
:101F1000E004F064287002E4F07A00E0F91232F58F
:101F2000906182E0A2E64003021FC6E591A2E6406E
:101F300003021FC67591BF9003E3E06405700812A9
:101F4000320B1232178003123211752100123283C4
:101F5000E99003E4F07900123277122FCB7A017BFB
:101F6000009003E2E0F9123541907803E06442709A
:101F700055900585E014F0704DC2AF121F7E0078B9
:101F80002AD0E0F618D0E0F6E59F540770057509F1
:101F9000FF800375097FC4C0E07829E6F50808E6EC
:101FA0005509F509740B78081216BDD0E02508F81C
:101FB000906270E0A2E740F8E8C333906272F0905C
:101FC0006270E0D2E0F0906181E0A2E35009E5E9BF
:101FD000A2E3500375E9F7A3E0A2E75009E591A257
:101FE000E7500375917FEEA2E092AF7F040218EEF6
:101FF000C0E0C0D0C082C083906183E0A2E05009FD
:10200000E5BFA2E0500375BFFEE0A2E15009E5BFC5
:10201000A2E1500375BFFDE0A2E25009E5BFA2E2D4
:10202000500375BFFBE0A2E35009E5BFA2E35003F4
:1020300075BFF7E0A2E45009E5BFA2E4500375BF05
:10204000EFE0A2E55009E5BFA2E5500375BFDFE070
:10205000A2E65009E5BFA2E6500375BFBFD083D00A
:1020600082D0D0D0E032C0E074F212188FE5A7A27F
:10207000E4500FE5A1A2E4500953A7EF75A1EF12B8
:1020800020BAE5A7A2E5500CE5A1A2E5500653A7AA
:10209000DF75A1DFE5A7A2E15009E5A1A2E15003A8
:1020A00075A1FDE5A7A2E2500CE5A1A2E2500653FE
:1020B000A7FB75A1FB7F010218EE74F81217A37538
:1020C00021019003E3E0640670077A007B0012317F
:1020D000F3A2AFE433FED2AF9003E9E064017018DD
:1020E0007A207B009003E2E0F91235BF7A207B0072
:1020F0009003E2E0F9123547906182E0D2E6F09079
:102100000582E0602185C62280169003E8E0640124
:102110007008E5C654F84405F5C653BEFC121E9877
:102120007401652160E4EEA2E092AF7F0102184FD6
:102130008E238F24858228858327851A82851B8399
:10214000E0CEA3E0CF852882852783EBC9EAC8EDDE
:10215000CBECCA75F010C3E833C8E933C9EA33CA17
:10216000EB33CBC3EA9EF526EB9FF525B35004ABCA
:1021700025AA26EC33CCED33CDD5F0DAAE23AF244F
:102180002274E91217A374FA1216DFEAFEEBFF8C31
:10219000088D099003E3E024F7C3940550067510F9
:1021A000010222AC1231698A0A8B0BEA450B7003DB
:1021B0000222A91232298A0C8B0D123229EA650CEF
:1021C0007003EB650D60ECEEFCEFFD851A82851B5C
:1021D00083AA82AB8312322F850A82850B83A3A345
:1021E000780C1215AF909026780C121589851A82FA
:1021F000851B8378141215AF9090267814121589D8
:10220000780C7914120F60501F780C791412154E47
:10221000909036780C120F804047850C10850D1178
:10222000850E12850F138045909036851410851504
:10223000118516128517137810790C12154E781027
:10224000120F80501C751000751100751200751367
:10225000017810791412154E7810790C121515802A
:102260000C75100175110075120075130074097852
:10227000101214F690902E780C1215AF7810790C7D
:1022800012146E9003E3E06408600AE064066005DF
:10229000E06405702090902A7810120F80501690FC
:1022A000901E7810121528800C751000751100759D
:1022B000120075130085088285098378101215BEF7
:1022C00074061216F57F1002184F74F71217A31236
:1022D0003241900580E064017010906245E4F0A303
:1022E000F053F4F343FE0C5390F31231E1E5C6547E
:1022F000804449F5C6E59E547F644970F890618535
:10230000740FF090057EE0F47002A3E0602C750875
:102310000175090090057EE078081216CCE508F4F6
:10232000FAA3E0600814600A14600C800DEA528081
:102330008008EA52908003EA52A079007F020218D6
:102340004F74F71217A3E9FEEAFF74016E700C7A5E
:10235000807B009003E2E0F91235419039A8E493C4
:10236000F46008E493F9122FAD800953C680E59E0E
:10237000547F70FA1231E7900580E0640170031217
:102380002FE390057EE0F47002A3E0602A75080157
:1023900075090090057EE078081216CCAA08A3E023
:1023A000600814600A14600C800DEA42808008EA1C
:1023B00042908003EA42A01231698A088B09A8087A
:1023C000A909E8496017E5E170FCE82414F582E901
:1023D0003400F583E0F874FF68600288E174016FEF
:1023E000700A7A019003E2E0F912359502233C74F9
:1023F000F11217A38A088B098C0A8D0B909026780E
:1024000008121589740F12172B780C1215AF9090C3
:1024100026780C1215897808790C120F6090903686
:1024200050107808790C12154E7808120F8040145D
:10243000800E780C790812154E780C120F8050041B
:102440007901800279007F0802184F74ED1217A3FA
:102450008A088B098C0A8D0B9090267808121589B2
:10246000741312172B780C1215AF909026780C125B
:102470001589780C7908120F6040117808790C12D0
:10248000154EAA08AB09AC0AAD0B80227510007579
:1024900011007512007513017810790C12154E7821
:1024A000107908121515AA10AB11AC12AD137F0CE0
:1024B00002184F90902678081215AF8A828B837885
:1024C0000812159C7F0402184F74F51217A38C8212
:1024D0008D8378081215AF8A828B83780812156273
:1024E00012251DC3E098F0A3E09912250F401E901D
:1024F000908278081215AF8A828B83780812153B78
:102500008E828F83E02420F0A3E0344EF080A4F08C
:102510008E828F83C3E09420A3E0944E22EA2404A9
:10252000F8EB3400F9E8FEE9FF8C828D83A3A3A3C6
:10253000A3E0F8A3E0F98E828F832274F51217A32B
:10254000E9FE900538E0FAA3E0FBEEC333F8E4338C
:10255000F9747428F582748F39F583E02AF508A39D
:10256000E03BF509780812194A9090621215CD12D5
:10257000213074021216F58A088B098C0A8D0B74AF
:102580001078081214DDAA08AB097F0402184F74F2
:10259000F11217A38A0C8B0D8C0E8D0F740F12176E
:1025A0002BE0FAA3E0FB741112172BE0F508A3E06F
:1025B000F509780812194AEA2401F508EB3400F508
:1025C00009E4F50AF50B780C79081213EE909022C5
:1025D00078081215AF780C79081213EEAA0CAB0D1F
:1025E000AC0EAD0F12213074021216F58B09EA45BC
:1025F0000960047A0180027A00EC2AFCED3400FDC7
:10260000741312172BE0F8A3E0F9E8FEE9FFECF8E9
:10261000EDF97A717B0212165488088909E4F50AEB
:10262000F50B8E828F8378081215BEECF8EDF97ADF
:10263000717B021216548A088B09740578081216E9
:10264000CC8E828F83A3A3A3A3E508F0A3E509F0B2
:102650007F0802184FC082C083E9906000F0D083E9
:10266000D08222C2AF02000022C0E0C0D0E8C0E0A9
:10267000E9C0E0EAC0E0EBC0E0ECC0E0EDC0E0EEB5
:10268000C0E0C082C083C0F0A2AFE433FED2AFC2CC
:10269000C0E5D1A2E4500653D1EF1237F9751C0002
:1026A000EEA2E092AFD0F0D083D082D0E0FED0E0B6
:1026B000FDD0E0FCD0E0FBD0E0FAD0E0F9D0E0F8CB
:1026C000D0D0D0E032C0E0C0D0E8C0E0E9C0E0E562
:1026D000A8D2AFC2C7751C00A2E7A2E792AFD0E0B4
:1026E000F9D0E0F8D0D0D0E032C0E0C0D0E8C0E00F
:1026F000E9C0E0EAC0E0EBC0E0ECC0E0EDC0E0EE35
:10270000C0E0C082C083C0F0A2AFE433FED2AF7598
:102710008900C2C5900B437401F0751C00FA900B40
:102720003EE0F9123595900CC7E0F8A3E06870021E
:10273000D285EEA2E092AFD0F0D083D082D0E0FE7E
:10274000D0E0FDD0E0FCD0E0FBD0E0FAD0E0F9D062
:10275000E0F8D0D0D0E032C0E0C0D0E8C0E0E9C0BE
:10276000E0C008C009C082C083A2AFE433F9D2AF91
:10277000900CC7E0F8A3E068700B539AFBA37401B8
:10278000F0D2858027C2E9900CC7E0F508740125D6
:1027900008F074472508F582740C3400F583E0F5E1
:1027A000C1900CC7E0C394804002E4F0E9A2E0923B
:1027B000AFD083D082D009D0088091120F36777EB7
:1027C00000120F368D7E00120F36BC7E00120F36BF
:1027D000F27E00120F36097F00120F36207F0012A2
:1027E0000F36577F00120F36AA7F00120F36C17FB7
:1027F00000120F36D87F00120F36B7F203120F36D1
:10280000CEF203120F36FFF203120F363AF3031221
:102810000F3664F303120F368EF303120F36A5F34F
:1028200003120F36BCF303120F36D3F303120F3625
:10283000FCF303120F360FF403120F3625F40312C4
:102840000F3638F403120F365FF403120F366D9E05
:1028500002120F36719F02120F369E9F02120F3620
:10286000F49F02120F3617A002120F362BA002128D
:102870000F362DA002120F3650A002120F3656A1AD
:1028800002120F369AA202120F365EA302120F3600
:1028900033A402120F36A4A402120F3630A502127E
:1028A0000F3633A502120F36BBA502120F36F6A55E
:1028B00002120F365DA602120F3660A602120F3604
:1028C00097A602120F36C0A602120F366BA702128D
:1028D0000F36F5A702120F3644A802120F3651A880
:1028E00002120F3654A802120F36B4A802120F3685
:1028F000BFA802120F363EA902120F3641A90212DA
:102900000F3654A902120F3657A902120F36E6A944
:1029100002120F3600AA02120F3610AA02120F3648
:1029200040AA02120F364DAA02120F3650AA021206
:102930000F36D1AA02120F36BFAB02120F3671AC9E
:1029400002120F3611BE03120F3639BE03120F36B4
:1029500067BE03120F369EBE03120F36FCBE031273
:102960000F3647BF03120F3692BF03120F36D2BF86
:1029700003120F3618C003120F3646C003120F366B
:1029800003C103120F360DC103120F361AC1031211
:102990000F364DC103120F3619C203120F3625C26E
:1029A00003120F363DC203120F3647C203120F3611
:1029B000068104120F36148104120F362C81041282
:1029C0000F36448104120F367C8F02120F36289086
:1029D00002120F36A39002120F36C49102120F3664
:1029E000009202120F36A99202120F369093021231
:1029F0000F36F49402120F364B9502120F36CC9517
:102A000002120F36BC9602120F36099702120F36C9
:102A10008F9702120F36C19702120F36D599021204
:102A20000F36179A02120F36359A02120F36B89ADD
:102A300002120F368C9B02120F36549C02120F3674
:102A4000E29103120F36B59203120F365E93031212
:102A50000F36B19303120F36619403120F36ED94C3
:102A600003120F36D99503120F36089603120F364C
:102A70001B9703120F36639703120F363898031211
:102A80000F36749803120F36909803120F3687850D
:102A900004120F36B3CE03120F36C9CE03120F360F
:102AA000EFCE03120F360BD003120F3615D00312E0
:102AB0000F364AD103120F3642D203120F3639A510
:102AC00003120F3669A603120F369CA603120F36A7
:102AD000E6A603120F36ADA803120F369F6A001246
:102AE0000F36236B00120F36336B00120F36196C42
:102AF00000120F36566C00120F36E26C00120F36C1
:102B0000256D00120F36306D00120F361A6E00124E
:102B10000F367D6E00120F36336F00120F361A71AA
:102B200000120F36D37200120F36AF7300120F3639
:102B3000637400120F36A07700120F364E78001221
:102B40000F36BD7900120F363D7B00120F36E47B45
:102B500000120F362D7C00120F36657C00120F36E6
:102B6000027D00120F368D7D00120F365DEF0112CF
:102B70000F36C7EF01120F3626F101120F3636F16C
:102B800001120F3663F101120F36BAF101120F363E
:102B900063F201120F366AF301120F3634F4011298
:102BA0000F3694F501120F36D7F501120F367CF669
:102BB00001120F36C9F601120F36EFF601120F3669
:102BC000FDF801120F3602F901120F3607FB011250
:102BD0000F3654FB01120F36C7FB01120F36FAFBFA
:102BE00001120F369CFC01120F3645FD01120F3603
:102BF0007DFD01120F3680FD01120F36C8FD011256
:102C00000F3608FE01120F365FFE01120F3618E272
:102C100003120F362BE203120F3639E203120F367E
:102C200081E203120F3697E203120F36DEE203123F
:102C30000F36F2E303120F367FE403120F36CAE4B5
:102C400003120F36AC3900120F36B83900120F36A6
:102C5000F33900120F36383A00120F36F83A0012E4
:102C60000F367E3B00120F36AA3B00120F36E33BB5
:102C700000120F36213E00120F36054000120F36AB
:102C8000EB4100120F362E4300120F367C45001226
:102C90000F368E4600120F36D94700120F36E9481C
:102CA00000120F36064900120F36414900120F3646
:102CB000634900120F36C64900120F36874E0012C4
:102CC0000F361C4F00120F366D4F00120F36944F07
:102CD00000120F36E64F00120F36045000120F3666
:102CE0005E5000120F365D5100120F36E151001296
:102CF0000F366AAF03120F3674AF03120F36B7AF39
:102D000003120F36D2AF03120F3662B003120F3622
:102D10008AB003120F36C7B003120F36FEB003128B
:102D20000F3627B103120F369CB103120F36B1B123
:102D300003120F36C6B103120F36F7B103120F3666
:102D40000BB203120F3630B203120F366AB20312FF
:102D50000F3696B203120F36CEB203120F364DB3B2
:102D600003120F3678B303120F36A3B303120F36D4
:102D7000ECB303120F3616B403120F3641B403122C
:102D80000F367CFD03120F36B4D602120F36E2D690
:102D900002120F3630D802120F3610D902120F3637
:102DA0002FD902120F36ACD902120F36EFD9021208
:102DB0000F3645DB02120F3606DC02120F368DDEAF
:102DC00002120F362EDF02120F3624E002120F36E7
:102DD00021E102120F367BE202120F3606E30212E5
:102DE0000F36E2FA03120F364BFB03120F369FFB2E
:102DF00003120F36C6FB03120F36F7FB03120F3612
:102E0000CEC203120F363BC303120F3682C3031226
:102E10000F369AC403120F3696C503120F3679C6C1
:102E200003120F36798903120F36BB8903120F364E
:102E30008D8A03120F36668B03120F36608C0312D5
:102E40000F36428D03120F36AB8D03120F36618E93
:102E500003120F36D58E03120F36418F03120F3631
:102E60006A8F03120F36E48F03120F367D90031220
:102E70000F36E29003120F36F79003120F363D9192
:102E800003120F36569103120F36BB9103120F3601
:102E9000BE9103120F3643DC03120F366BDC0312B4
:102EA0000F36A9DC03120F3667DD03120F36CEDDB5
:102EB00003120F36EADD03120F3612DE03120F364D
:102EC00042DE03120F3651DE03120F36CEDE03123E
:102ED0000F36F4DE03120F3617BB01120F36B5BCE6
:102EE00001120F36D0BE01120F360CBF01120F3681
:102EF00039BF01120F361EC001120F3665C0011214
:102F00000F36A9C001120F36BBC001120F36FBC02D
:102F100001120F3628C101120F3673C101120F368C
:102F2000B3C101120F36E1C101120F3633C20112D3
:102F30000F36C3C201120F3661C501120F3677C7B3
:102F400001120F36B5C701120F3646C901120F36EE
:102F50008BC901120F3602CA01120F364CCA011278
:102F60000F366DCA01120F3611CB01120F36F9CB95
:102F700001120F367ACC01120F36CBCC01120F366C
:102F8000F6CC01120F36008003120F367F80031239
:102F90000F36418603120F36508703120F36B8885A
:102FA00003120F364F8903120F367EA701120F3618
:102FB000C7A701120F36F4A701120F3627A8011276
:102FC0000F3634A801120F3640A801120F3652A84E
:102FD00001120F3639A901120F3697A901120F36C7
:102FE000CCA901120F360FAB01120F365CAB0112E8
:102FF0000F3680AB01120F36EDAB01120F36ABACC2
:1030000001120F3664AD01120F36D1AD01120F3629
:1030100083AE01120F3693AE01120F361AAF0112B2
:103020000F36D9AF01120F3606B001120F367FB03E
:1030300001120F36DCB001120F3626B101120F3625
:10304000BCB101120F3687B201120F363CB3011228
:103050000F36B1B301120F3612B401120F367CB421
:1030600001120F36B5B401120F3657B501120F36E3
:1030700067B601120F36A7B601120F36C4B6011299
:103080000F36E3B601120F362AB701120F364FB7CB
:1030900001120F367CB701120F36F6B701120F3648
:1030A00037B801120F365BB901120F360BBA011295
:1030B0000F3662BA01120F36CCBA01120F36E5BADA
:1030C00001120F36B5EE02120F3608EF02120F365C
:1030D00014EF02120F36E9EF02120F3610F002124F
:1030E0000F364BF002120F36B7F002120F36F3F024
:1030F00002120F362CF102120F3644F102120F3673
:1031000099F102120F36B2F102120F36FBF10212E0
:103110000F360EF202120F3628F202120F363EF26E
:1031200002120F3671F302120F36B8F402120F3684
:10313000BAF502120F36B4F602120F36F07F001203
:103140000F367DC902120F36ADC902120F3675CD8A
:1031500002120F36CCCE02120F3695CF02120F3666
:1031600015D102120F36E6D102120F3623D2021207
:103170000F3646D202120F3684D202120F368DD28B
:1031800002120F36D7D202120F36E1D202120F36D8
:103190008BD302120F3664D402120F36B8D4021247
:1031A0000F361AD502120F366DD502120F369CD586
:1031B00002120F36D9D502120F3618CD01120F3672
:1031C0007FD001120F3685D001120F3607D60112BB
:1031D0000F3680DA01120F3656DE01120F3619CB88
:1031E00003120F368FCB03120F36A5CB03120F3607
:1031F000E6CB03120F3620CC03120F3699CC031204
:103200000F36D4CC03120F3647CD03120F3685CDBF
:1032100003120F368ECD03120F369ACD03120F36DE
:10322000B6CD03120F36E1CD03120F36F7CD0312E0
:103230000F3620CE03120F3683CE03120F364EB94F
:1032400003120F3661B903120F367BB903120F3622
:10325000A4B903120F36E7B903120F3626BA0312C8
:103260000F3664BA03120F36C9BA03120F36DEBA2C
:1032700003120F36E9BA03120F36F6BA03120F36ED
:103280000DBB03120F361BBB03120F3626BB0312F6
:103290000F3632BB03120F3645BB03120F3650BB3D
:1032A00003120F3673BB03120F361ABC03120F360C
:1032B0002ABC03120F3644BC03120F3661BC031242
:1032C0000F367DBC03120F36A2BC03120F36ADBC05
:1032D00003120F36C2BC03120F36D6BC03120F36D0
:1032E00037BD03120F363DBD03120F3643BD031227
:1032F0000F3649BD03120F3661BD03120F3694BD60
:1033000003120F3653BB02120F36D7BB02120F3611
:1033100086BC02120F36E5BD02120F3606C002123D
:103320000F36F2C002120F3627C102120F3649C102
:1033300002120F36F8C102120F36F0C302120F3616
:1033400019C402120F36ABC402120F36DDC40212CA
:103350000F36EAC402120F3641C502120F3667C596
:1033600002120F36D4C702120F36D7C802120F3618
:103370002FC902120F36E2AC02120F36ECAD021268
:103380000F36D3AE02120F36DDAE02120F36FFAE8D
:1033900002120F360BAF02120F36A4B002120F3614
:1033A000D3B002120F36EFB102120F3648B202123A
:1033B0000F36AEB302120F368DB402120F36E9B4D7
:1033C00002120F3656B502120F3691B502120F36A1
:1033D000D0B502120F3689B802120F36A3B8021206
:1033E0000F362FB902120F363DB902120F3696B9B9
:1033F00002120F36A4B902120F3617BA02120F3694
:103400007BBA02120F36C5BA02120F3687E30212D8
:103410000F36A9E302120F36CFE502120F36E4E8A9
:1034200002120F36FCE902120F36AFEA02120F3613
:1034300091EB02120F36D3F703120F36F8F703128F
:103440000F366AF803120F367FF802120F3688F82B
:1034500002120F3691F802120F3668F902120F3677
:1034600019FB02120F364FFB02120F3689FB0212B4
:103470000F36BFFB02120F36F9FB02120F362DFC7E
:1034800002120F3659FC02120F36A2FC02120F363E
:10349000DCFC02120F3625FD02120F367DFD0212F2
:1034A0000F36B2FD02120F360DFE02120F3647FE26
:1034B00002120F3698FE02120F36CEFE02120F369F
:1034C00008FF02120F3636FF02120F3659FF0212A2
:1034D0000F36448404120F36708404120F36CB84E6
:1034E00004120F36D58404120F36E58404120F3609
:1034F0000B8604120F36538604120F364C9F0312AC
:103500000F36569F03120F36989F03120F36E39F14
:1035100003120F363AA003120F3694A003120F368F
:10352000B5A003120F36BFA003120F3612A103126B
:103530000F3640A103120F364AA103120F3660A2C4
:1035400003120F3691A303120F36D2A303120F36C4
:1035500019A403120F362BA403120F364AA4031228
:103560000F3653A403120F360FA503120F363DFC7E
:1035700003120F368DEC03120F36C3EC03120F3615
:1035800031ED03120F367CEE03120F36EF84041276
:103590000F36058504120F360F8504120F36598534
:1035A00004120F364CFF01120F3669B403120F36A6
:1035B0007EB403120F3666B503120F36A1B503129F
:1035C0000F36EEB503120F364DB603120F36B7B6EF
:1035D00003120F36DFB803120F363B8704120F3683
:1035E000558704120F36139101120F36E59401121C
:1035F0000F36C29801120F36B39901120F36D39BC2
:1036000001120F36279C01120F362A9C01120F3629
:10361000299D01120F36769D01120F36929D0112DF
:103620000F36F99D01120F361AA201120F3651A260
:1036300001120F3618A301120F3688A401120F369B
:10364000D1A401120F366BA501120F36ADA60112DF
:103650000F36CDA601120F36D0A601120F365CA789
:1036600001120F36B08204120F36BE8204120F36DA
:103670002F8304120F36768304120F3627D90312D4
:103680000F366CD903120F3695D903120F368CDA28
:1036900003120F360ADC03120F36828304120F3630
:1036A000B28304120F36C28304120F36C0D5031240
:1036B0000F36DDD603120F3602D703120F3678D736
:1036C00003120F36AAFF03120F36485200120F36AC
:1036D000E75400120F361E5700120F36985800128A
:1036E0000F36F85900120F36215A00120F36745A4D
:1036F00000120F363C5E00120F36366000120F3695
:10370000076300120F36F26300120F365C65001279
:103710000F366C6500120F369D6600120F36386743
:1037200000120F36516700120F361E6900120F3655
:10373000F4E403120F362EE503120F3657E5031299
:103740000F364CE603120F3681E703120F368487DB
:1037500004120F36C38704120F365C8804120F362A
:10376000DD8104120F36ED8104120F36FF81041241
:103770000F36A38204120F36008004120F368780A2
:1037800004120F36ED8004120F3695FE03120F3629
:10379000AAFE03120F363DFF03120F3657FF031226
:1037A0000F3673FF03120F36F87F00120F3654EAFC
:1037B00003120F368AEC03120F363BC703120F3683
:1037C000D6C703120F3656C803120F36EEC80312BF
:1037D0000F36DAC903120F365BCA03120F3664CAFA
:1037E00003120F36D1CA03120F36E4CA03120F3682
:1037F000FACA03120F3603CB03120F3616CB03128D
:103800000F36CAF003120F3608F103120F361BF100
:1038100003120F365BF103120F36DCF103120F3681
:10382000BAE703120F36FFE703120F3628E8031238
:103830000F361DE903120F361BEA03120F3678F913
:1038400003120F36CFF903120F365DFA03120F364B
:103850003CDF03120F3666DF03120F363DE0031222
:103860000F3615E103120F36A2E103120F36008066
:1038700002120F36228402120F36978702120F3679
:10388000AA8802120F365F8B02120F36768B021255
:103890000F36B38D02120F368D8E02120F36A5DE53
:1038A00001120F3661E301120F36ECE401120F36FC
:1038B0003CE501120F36BAE501120F367AE8011223
:1038C0000F3688E901120F36C1ED01120F36059946
:1038D00003120F36919903120F361D9A03120F36F9
:1038E000A99A03120F36AE9A03120F36329C0312B6
:1038F0000F36489C03120F36B19C03120F36B69C4C
:1039000003120F36209D03120F36CC9E03120F3682
:103910000F9F03120F36838604120F3671F40312C1
:103920000F36C3F403120F36D6F403120F3616F512
:1039300003120F3697F503120F36B6EE03120F3649
:10394000FBEE03120F360EEF03120F365CEF03127D
:103950000F36E7EF03120F3691F003120F3627F6FA
:1039600003120F3692F703120F3660AA03120F36B6
:103970009CAA03120F36DAAA03120F364CD2031296
:103980000F36CED203120F36ECD303120F36A1D46A
:1039900003120F36CC8704120F36128804120F362A
:1039A0003E8804FF0595D5F5FFFFFFFFC082C08369
:1039B000E9900ED6F0023BD674F7121737E9900360
:1039C00022F07C5A7D037AFF7BFF122CCB900323DD
:1039D00074FFF0A3F0A3E4F0A3F07905122C599042
:1039E0000322E0F9122B757AE37B2C122E997F01CA
:1039F00002180974F41217378A088B09EB54806097
:103A000030900322E0F912353B8A0A8B0BAE0AAFE5
:103A10000BEE4F60138E828F83E064B07003122C24
:103A20006BEEFAEFFB123529AA08E5096480FB80EA
:103A3000047A007B00023BA574F212173774FC1263
:103A400016DFEAFEEBFFEE4F6038740212172BEE22
:103A5000F0A3EF123E0AECF0A3ED123E0AAA82ABED
:103A600083122B6FE9F5087073741212172B124929
:103A7000BEE50A450B60658E828F83123AE6EE4FF3
:103A8000700575080280557A067B0012357D8A0C18
:103A90008B0DA80CA90DE8497005750813803D88A9
:103AA000828983E4123AF0A3A3EEF0A3EF124E57FB
:103AB000E50AF0A3E50BF0900328123B7890032869
:103AC0006017E0FCA3E08003EAFCEBFD8C828D83B1
:103AD000123B7870F38C828D831248E3A90874043A
:103AE0001216F5025059A3A3A3A3E0FEA3E0FF2200
:103AF000F0A3F0888289832274F2121737890AE9C9
:103B000075F017A4FEAFF0900327E4F090032512A0
:103B10003B78600A123583900325E4F0A3F0EEFAB7
:103B2000EFFB12357D8A088B09EA4509602FEEFC10
:103B3000EFFD7900123517900325E508F0A3E5099C
:103B4000F07B008008123B62E4F0A3F00BEBC3951E
:103B50000A40F2E50A900327F07900800279130207
:103B60005059EB75F017A4F8A9F0900325E028FA56
:103B7000A3E0398A82F58322124679EA4B2274F453
:103B80001217377900EAA2E0501B750807750990F3
:103B9000780812194A7C047D007AD87B0E122C53C7
:103BA00074021216F57F04021809C082C0839003C4
:103BB00028123BDD601C88828983A3A3E06A70031E
:103BC000A3E06B8882898370E8A3A3A3A312467540
:103BD00080047A007B00D083D082020F3312512CF4
:103BE000E8492274EE12173774FC1216DFEAFEEB76
:103BF000FF851A82851B83E4F0A3F0EE24021248AD
:103C0000C7EE2405123DF8EE2404F50EEF1241DD57
:103C1000E024FE603924FC604624FE605224FE60ED
:103C20005E24FE7003023CFD24FE7003023D7524F9
:103C3000FE7003023D8424FE7003023D9324FC7059
:103C400003023DA224FE7003023DB1023DEE90034B
:103C5000417417F0A3E4123E121227FD023DEE85D7
:103C60001A82851B83AC82AD83122C71023DBE8506
:103C70001A82851B83AC82AD83122C77023DBE85F0
:103C80000C08850D09740212172BAC82AD838508D0
:103C900082850983124675122B938A0C8B0DAC0C0E
:103CA000AD0DEC4D6042E4F50CF50D780C12194A9F
:103CB000750C41750D03780C12194A750C42750D7F
:103CC00003780C12194A740812172B12196179160D
:103CD00012466F122CB374081216F5E9F50C700B2E
:103CE00012466B122815800F750C01850882850914
:103CF00083123E001248E3850C08023DC174021293
:103D0000172BAC82AD83850C82850D83124675120C
:103D10002B938A108B11AC10AD11EC4D6043850CC8
:103D200082850D83A3A31219617510417511037863
:103D30001012194A751042751103781012194A743D
:103D40000812172B121961791612466F122CB374D0
:103D5000081216F5E9F509700B12466B12281B8044
:103D60000F750901850C82850D83123E001248E310
:103D7000850908804C851A82851B83AC82AD83122D
:103D80002C7D803A851A82851B83AC82AD83122CF0
:103D900083802B851A82851B83AC82AD83122C898C
:103DA000801C851A82851B83AC82AD83122C8F8088
:103DB0000D851A82851B83AC82AD83122C95E9F5A3
:103DC00008E50860298E828F83A3E06414601F8554
:103DD0000E82850F83E0900341123E0A1251289013
:103DE00003421248E3E508A3123E121227F7EEFA47
:103DF000EFFB122C170247CFF50CEF3400F50D2224
:103E000012512C851A82851B8322F0851A82851B0C
:103E10008322F07C417D03850A82850B83124679DB
:103E20002274EE12173774FC1216DF8A0A8B0B8C81
:103E30000E8D0FEA2405F508EB3400F5097C157D9D
:103E40000079007A417B03123517E5082402F50C4E
:103E5000E509123DFB851A82851B838582108583C7
:103E600011781012194A850882850983A3A3A3A398
:103E700012432512194AE5082405F510E509340016
:103E8000F511781012194A850C82850D8312467F30
:103E9000122B8D74061216F58A108B11AE10AF110D
:103EA000E50A2402F50AE50B1248CAEE4F70030238
:103EB0003FE78017740212172B1246758882898398
:103EC000EAF0A3EBF0900341E004F0900341E0C37B
:103ED00094054003023FE7E4F510F511781012193C
:103EE0004A75102A751103781012194A75102B752E
:103EF0001103781012194A740612172B12196179DE
:103F000010EEFCEFFD12466F122CB374081216F57A
:103F1000E9705E850882850983A3A3A3A3A3A3A355
:103F2000E0F890032AE068704812432512194A7C91
:103F30002B7D03E5082408FAE5093400FB1235114E
:103F400074021216F5E960298E828F83A3A3A3A3BE
:103F5000124675900341E0F510740278101216CCE9
:103F600074422510F58274033511F583EAF0A3EB52
:103F7000F0740212172B85821085831178101219A4
:103F80004A740212172B121961850C82850D831257
:103F9000513D122B9974041216F58A108B11AE1034
:103FA000AF11900341E0F510751100740278101202
:103FB00016CC74412510F874033511F98882898371
:103FC000A3123B787003023EABE82403F8E9340007
:103FD000F9EE4F6003023EB48882898374FFF0A338
:103FE000F0900341E004F0900341E0600A12466B58
:103FF0001228097900800B8508828509831248DA26
:10400000790A0247CF74EA12173774FE1216DF8C52
:10401000128D13EA2405F50CEB125147123AEA759A
:104020000800750900EA2402F510EB3400F511854B
:104030001A82851B8385820A85830B780A12194AA6
:10404000850C82850D83A3A3A3A31241E712194A0D
:10405000E50C2405F50AE50D1248CA780A12194A3A
:10406000850C82850D8312513B122B8D740612161E
:10407000F58A0A8B0BEA450B7003024198EA240487
:10408000F50EEB1241DD123AEA8A828B83A3A3A3D9
:10409000E0F9851082851183124675122B7BE9F5B4
:1040A000096003024198E4F514F515781412194AD1
:1040B00075142A751503781412194A75142B751581
:1040C00003781412194A740612172B121961791306
:1040D000AC0AAD0B851082851183124675122CB384
:1040E00074081216F5E9F509600302419890032A55
:1040F000E0F8E5087009E02402900342F080179090
:104100000342E0FCE82402FAE43400FBEA6C7001AC
:10411000EB600302419C850882AA8212431C94141E
:104120001243145073850E82850F83E0C0E0744300
:104130002A1241D4D0E0F00508850E82850F83A3B2
:10414000E0C0E085080A7443250A1241D4D0E0F0AB
:10415000050890032A1241E712194A7C2B7D03853A
:10416000080A7443250AFA74033400FB1234FF74FE
:10417000021216F590032AE02508F50874FF6E7008
:104180000374FF6F6012EE24010EEF3400FFE508A8
:10419000C39414500302402FE50860131245608554
:1041A000108285118312467512280F79008014E55C
:1041B00009700375090A851282851383EEF0A3EF57
:1041C000F0A90974021216F57F0E02180985080C71
:1041D0007443250CF58274033400F583223400F512
:1041E0000F850E82F58322124E6A2274EE12173763
:1041F00074FE1216DF8C0E8D0FEA2405F50CEB12FF
:104200003DFB750B00900341E4F0F50AEA2402F54A
:1042100008EB3400F5098049900341E0FA90032A45
:10422000E0F812431C9417124314400D900341E030
:10423000F87416C39890032AF012432512194A7C89
:104240002B7D0374422AFA74033400FB1234FF748A
:10425000021216F590032AE0F8900341E028F005D9
:104260000AE50C2416F582E50D1241D8E0F8E50ABE
:10427000C39840030242FD900341E0C39416507D71
:10428000E50AC333F8E433F9E50C28FEE50D39FF00
:10429000851A82851B83AC82AD838E828F83124602
:1042A00075122B938A108B11AC10AD11EC4D70056B
:1042B000750B018043E4F510F511781012194A7559
:1042C000102A751103781012194A75102B751103F5
:1042D000781012194A740612172B12196179168573
:1042E0000882850983124675122CB374081216F5DC
:1042F000E9F50B70030242181248D680107C417D0C
:1043000003850882850983124675122821A90B743A
:10431000020247D1E99400C365D03322EA28F8E4C9
:104320003400F9E822E0F51075110078102274EAE3
:1043300012173774FC1216DF8A0C8B0D8C128D133A
:10434000EA2405F50AEB1248CA750800750900E56C
:104350000A2402F510E50B3400F511740212172B34
:1043600085820E85830F780E12194A850A82850B85
:1043700083A3A3A3A3124E1612194AE50A2405F536
:104380000EE50B3400F50F780E12194A8510828560
:1043900011831248D012466F122B8D74061216F537
:1043A0008A0E8B0FAE0EAF0FE50C2402F50EE50D55
:1043B0003400F50F80408882898374FFF00508126D
:1043C00041CD74FFF0050890032AE0F50C750D004F
:1043D000780C12194A7C2B7D0385080C7443250C3C
:1043E000FA74033400FB1234FF74021216F59003C2
:1043F0002AE02508F508EE4F60718E828F83A3A313
:10440000A3E0F9850E82850F83124675122B7BE996
:10441000F509EE2404123DF8E97044E4F514F515AD
:10442000781412194A75142A751503781412194A4A
:1044300075142B751503781412194A740812172B6A
:104440001219617911EEFCEFFD850E82850F831242
:104450004675122CB374081216F5E9F50960278524
:104460000C82850D831245561248E3E5087003025D
:10447000453C124560850E82850F831246751228D1
:10448000277900024551850882AA82EA90032A70A2
:1044900009E02404900342F08022E0F8900342E017
:1044A000F514E82404FCE43400FDEC65147001ED1F
:1044B00070C012431C941212431450B6850C8285AE
:1044C0000D83E0C0E074432A1241D4D0E0F0050827
:1044D000850C82850D83A3E0C0E01241CDD0E012AF
:1044E000457285820C85830D780C12194A7404126A
:1044F000172B12196185108285118312513D122BE1
:104500009974041216F58A0C8B0DAE0CAF0D85084C
:104510000C7443250CF874033400F9EE4F70030259
:1045200043B6851A82851B83E0888289831245728F
:10453000A3E0C0E01241CDD0E00243C4E50970031E
:1045400075090A850A82850B831245561248E3A92C
:104550000974040241C512512C85128285138322ED
:10456000900342E0F5F0E50884900341F07C417D42
:104570000322F00508851A82851B832274EC12172A
:104580003774FE1216DF8A088B098C0E8D0FEA2411
:1045900005FEEB3400FF851A82851B83AC82AD8358
:1045A0008E828F83124675122B938A0A8B0BEE2410
:1045B00018123DF8EA450B70030246461247B85000
:1045C00032851A82851B83124675122CA78A108B9E
:1045D00011EA4511606B7912AC0AAD0B8508828532
:1045E0000983124675851082851183121735E9F506
:1045F0000A7058E4F50AF50B780A12194A8E828F70
:1046000083A3A3E0F50A780A12194AEE240312489C
:10461000C7780A12194A8E828F8312467F122CB9EC
:1046200074061216F5E9F50A7021850C82850D8352
:10463000E0701F85088285098312467512282D8037
:1046400011750A0E8009750A018004E50A600312DB
:1046500048D6850C82850D83E0600479008002A92C
:104660000A74021216F57F0C0218097C417D03853D
:104670000A82850B8312467922E0FAA3E0FB22E04E
:10468000FCA3E0FD8508828509831246792274EE39
:1046900012173774FE1216DF8A088B098C0C8D0DE9
:1046A000EA2405FEEB3400FF750E00851A82851B97
:1046B00083AC82AD838E828F83124675122B938AD0
:1046C0000A8B0BEA450B70030247A41247B850351A
:1046D000851A82851B83124675122CA78A0E8B0FB2
:1046E000EA450F605E7912AC0AAD0B850882850938
:1046F00083124675850E82850F83121735E9F50EF4
:1047000060030247A78508828509831249BEAA0A69
:10471000FB122C9B8A108B11A810A911E849701E5E
:104720007AFF7BFF122C9B8A108B11A810A911E82D
:1047300049606C88828983E50AF0A3E50BF0750A6D
:10474000008007750E0E805F050A900327E0FAE5EA
:104750000AC39A504AE50A75F017A4FAABF08882AA
:104760008983A3A3E02AFAA3E03BFB8A828B83120E
:1047700048D0EC4D70D2750A17750B00780A1219E3
:104780004AEEFCEFFD1234FF74021216F5EEFCEF58
:10479000FD850882850983124675122833801475B9
:1047A0000E098003750E01125124850C82850D833C
:1047B0001248E3A90E02430FE5082402F508E509B3
:1047C0003400F5098A828B83A3A3A3E0A2E52274B7
:1047D000041216F57F0A02180974EC1217378C10B0
:1047E0008D11EA2405F50CEB123DFB750F00EA2450
:1047F00002F50AEB1248CA850A82F5831246751241
:104800002C9B8A088B09EA450970030248BC750E87
:10481000008071850C82850D83E06401704F8E826B
:104820008F83A3A31219618E828F83A3A3A3A3E016
:10483000F512751300781212194AEE2405F512EFDD
:104840003400F513781212194A12466F122CB974FB
:10485000061216F5E9F50F6014850C82850D83E4C8
:10486000F01251248510828511831248E37C177D54
:10487000007900EEFAEFFB1235178E828F83E4F099
:10488000A3F0050E900327E0F8E50EC398501EE54F
:104890000E75F017A4F8A9F0850882850983A3A3F3
:1048A0001251511248D0EC4D600302481385088222
:1048B00085098374FFF0A3F0E50F700612466F12AE
:1048C0002839A90F024666F50AEF3400F50B22A33A
:1048D000E0FCA3E0FD228E828F8312512C850E8294
:1048E000850F83E8F0A3E9F022C082C08390032300
:1048F000E06A7003A3E06B70067A237B0380047A7E
:10490000007B00023BD6C082C08378008C828D83FE
:10491000E06A7003A3E06B7010E875F003A4F8A9D7
:10492000F0EC28FAED39FB8015088C828D83A3A367
:10493000A3E06A7003A3E06B60DF7A007B00023BB8
:10494000D674F6121737122C658A828B83E582455E
:104950008370067A007B008007A3A3A3A312467589
:10496000024FD574F2121737E9FE740E12172B128C
:1049700049BE741012172B124E368C828D83E06460
:10498000027036A3125132F50CA3E0F9A80C7402A0
:104990006870037429697021750C02750D00780C1C
:1049A00012194A780812194A780A12194AEEF912AD
:1049B0002CDD74061216F580027901025059E0F5DB
:1049C0000AA3E0F50B2274E812173774FB1216DF06
:1049D000E9851A82851B83F08A168B17ECFEEDFFA2
:1049E000751000741D12172B125128741D12172BED
:1049F0001248E38E828F83A3A3A3E0A2E4502D7418
:104A00001D12172B124675122CA78A828B83E58202
:104A100045837003024E07790AEEFCEFFDAA16AB40
:104A200017121735E9F5106003024E0A741F1217AA
:104A30002B124E36742112172B1249BE74231217F3
:104A40002BE0F50EA3E0F50F8E828F83E064026009
:104A500003024DB5A3125128850882850983A385D9
:104A60008212858313EE2406123DF888828983E042
:104A7000FAA3E0F9EA2400F514E439F515781412E4
:104A800019D4010000280128AA4A070002286F4B08
:104A90000328DC4A0029A64C0129D14C0229724C7A
:104AA0000329A64C0429504DB54DE50E450F600372
:104AB000024DB0850C82850D83124E2BFAE9FB8ADC
:104AC000828B83E0850A82850B83124E6112194A1C
:104AD0008A828B83A3E0FCA3E0024D3AE50E450FEA
:104AE0006003024DB0850A82850B837401F0124E7B
:104AF0003E850882850983F07C007D008E828F834D
:104B0000A3A3A3A3E02401FAA3E03400FB122B9398
:104B1000EA4B60418A828B83E02402F8850A828511
:104B20000B83E028F0EA2404F8EB3400F98882894A
:104B300083E0851282851383124E73124E6112191F
:104B40004A8A828B831248CFE5082403FAE50934A8
:104B500000FB024D3F850A82850B83E02404F07C34
:104B6000047D007900AA12AB13123517024E0AE534
:104B70000E450F6003024DB0124E3EFEA3E0FF85CE
:104B80000A82850B837404F0EE850882850983F020
:104B9000EF851282851383F0740312172BAC82AD5C
:104BA00083EEFAEFFB122B938A0C8B0DEA450D7006
:104BB00003024C538A828B83A3A3123AE674011238
:104BC000172B85820E85830F780E12194A740512F1
:104BD000172B1219617CFF7DFF122B99740412169A
:104BE000F58B0FEA450F7033850C82850D83124ECD
:104BF0001612194A850C82850D83A31219617C0255
:104C00007D007ADB7B9012293574041216F5E97069
:104C10000A740112172B74FFF0A3F08E828F83E0C9
:104C200064027039750C02750D00780C12194A8EE9
:104C3000828F831248CFE5082404FAE5093400FB8B
:104C40001234FF74021216F5850A82850B83E02464
:104C5000028009740112172BEEF0A3EFF074011219
:104C6000172B124E27F0740112172BA3124E1F029E
:104C70004DAAE50E450F6003024DB0850C82850DEF
:104C8000831248D0AA16AB17122CD1850A82850B45
:104C9000837402F0EA850882850983F08512828593
:104CA0001383EB024DADE50E450F6003024DB012CC
:104CB0004E3EF8A3E0F9850A82850B837402F0E882
:104CC000850882850983F0E9851282851383024D68
:104CD000AD850C82850D831246751234F9EAFC8C81
:104CE00082A882C3950EE4950F405FE8650E7002BE
:104CF000E50F70047C008022851A82851B83E0FA10
:104D0000E50E2AFAE50F3400FBC3EA98EB94005055
:104D100003E08005E50ECCC39CFCEC850A82850B84
:104D200083F08C0A750B00780A12194A850C82856B
:104D30000D83E0250EFCA3E0350FFDAA08AB091298
:104D400034FF74021216F5024E0A751007024E0A5D
:104D5000E50E450F705A850C82850D83125128850A
:104D60000A82850B837407123AF2124E1F123AF22E
:104D7000A3E0851282851383F0E82402FAE9340067
:104D8000FB8A828B83124E1F124E4E124E27A312A5
:104D90004E57124E30F0E82405F8E93400F98882C5
:104DA0008983124E30A3124E73A3A3A3A3F0805A9B
:104DB00075100B8055741D12172B124675122C6539
:104DC0008A828B83E5824583603D125128880C8955
:104DD0000DE8450D6031780E12194A780A12194A09
:104DE000780812194A740612172BE0F9EEFCEFFD51
:104DF000AA16AB17850C82850D831217357406121F
:104E000016F5E9F510800375100EA9107405121639
:104E1000F57F10021809E0F50E750F00780E22E0FC
:104E200085088285098322124E7D2212512CE822A8
:104E3000124E7DA3A322E0F508A3E0F50922850C1C
:104E400082850D83E0F8A3E0F5838882E022A3A3A6
:104E5000F08A828B83A322F088828983A3A3A3A3F1
:104E600022F08A828B83124E6A22E0F50A750B00CB
:104E7000780A22F088828983A3124E7D22E0850879
:104E800082850983A3A32274EE12173774FE1216CB
:104E9000DF8A0A8B0BECFAEDFB741412172BE0F58A
:104EA00010A3E0F511741612172BE0FE74181217F8
:104EB0002BE0F50EA3E0F50F851A82851B83AC82EB
:104EC000AD83122B938A0C8B0DEA450D6049851A30
:104ED00082851B83124675122C658A828B83E5823C
:104EE0004583602FA3A3124E36E508450960247858
:104EF0000E12194A781012194AEEF9AC0CAD0DAA2F
:104F00000AAB0B85088285098312173574041216C3
:104F1000F58006790E8002790102430F74F61217AC
:104F20003774FE1216DF740C12172B124E2B851AD3
:104F300082851B83F0740112172BE9F0E4F508F564
:104F400009780812194A750802780812194A740477
:104F500012172B858208858309780812194A122CAA
:104F6000B974061216F574021216F5806874F712F9
:104F70001737EAFEEBFF89087C5A7D03122CD1EA31
:104F80005402600BA908EEFAEFFB122B878002791E
:104F9000010239EE74F612173774FF6A700374FF5A
:104FA0006B70168C828D83124FDAE4F08C828D83C5
:104FB000A3A3A3124FDAA38018122CA18A088B098D
:104FC000A808A909E849600D8882898374FF123A0C
:104FD000F0A3A3E4F07F0202180974FFF0A3F08CA1
:104FE000828D83A3A32274F6121737122CA18A8212
:104FF0008B83E58245836006A3A3E0FA80027A00F2
:105000007B0080D174F21217378A088B09ECFEED11
:10501000FF740E12172BE0F50A122CA18A0C8B0DCF
:10502000A80CA90DE8497026EEFCEFFD7AFF7BFF86
:10503000122CA18A0C8B0DA80CA90DE849700479DB
:1050400011801688828983E508F0A3E509F088823B
:105050008983A3A3E50AF079007F0602180974EE9C
:10506000121737EAFEEBFF8C088D09890C741412B5
:10507000172B125128741612172B124675750D0036
:10508000E849600302511C7402650C600302511769
:10509000741212172B125132FCA3E0F9EC2400F524
:1050A0000EE439F50FEAF4F8EBF4F9EC58F8E50FF3
:1050B00059F9E849705CE5082406F8ED3400F988F0
:1050C0000A890B8882F58312513D122CD18A108BEC
:1050D00011E50E65107004E50F65116042780E123F
:1050E000194A850A82850B8312513D122CD774020E
:1050F0001216F5E9F50D7027780E12194A85088207
:10510000850983A3A312513B122CE974021216F5F0
:10511000800D750D808008750D0D8003750D0BA930
:105120000D0247D48E828F8312512C22E0F8A3E027
:10513000F92212512C88828983E022A3A3E0FCA3E8
:10514000E0FDEEFAEFFB223400F50D850C82F583CD
:1051500022E028FEA3E039FF8E828F832274F212B0
:105160001737EAFEEBFF890B7401650B600E7402C2
:10517000650B706A7901122EB7E97062EEFAEFFBE7
:10518000122C9B8A088B09EA45096047750A008042
:105190000B7C177D007900123517050A900327E074
:1051A000F8E50AC3985021E50A75F017A4F8A9F0AC
:1051B000850882850983A3A3E028FAA3E039FB8A46
:1051C000828B83123BDD70C985088285098374FF59
:1051D000F0A3F07C5A7D03EEFAEFFB122CCB0250C9
:1051E0005974F21217378A088B09ECFEEDFF740E22
:1051F00012172B1249BE900ED6E0F4603D7A097B5F
:1052000000123523EA4B60328A828B8374B1F0A39B
:10521000E4124E50A3124E4EA3E508F0A3E5091286
:10522000523DEEF0A3EF12523DA3A3E50AF0A3E531
:105230000BF0900ED6E0F912352F025059F08A8209
:105240008B83A3A3A3A3A32274EC12173774FA12BF
:1052500016DF890BECFEEDFF750A008A088B0978D2
:105260000812198E000410B0548B52A952C552E393
:105270005201531F53425360537453A9534154581E
:10528000546F548A54B054B054CF537401650B60BA
:10529000030254AB8E828F83E0F8C3940340030271
:1052A00054ABE89010AD0254877402650B600302A2
:1052B00054AB8E828F83E0F8A3E0F99010AEE8F053
:1052C000A3E90254877401650B60030254AB8E821C
:1052D0008F83E0F8C3940240030254ABE8900A2B9A
:1052E0000254877401650B60030254AB8E828F8376
:1052F000E0F8C3940540030254ABE8900A2C025432
:10530000877401650B60030254AB8E828F83E0F8D3
:10531000C3940240030254ABE8900A2D02548774F0
:1053200010650B60030254AB75081075090078080E
:1053300012194A7A2E7B0A1234FF74021216F502F1
:1053400054D37401650B60030254AB8E828F83E0EB
:10535000F8C3940240030254ABE8900A3E0254871B
:105360007401650B60030254AB8E828F83E0901052
:10537000B10254877404650B60030254AB8E828FB4
:1053800083780C1215AF75104075114275120F75A8
:1053900013007810790C120F6040030254AB900A8E
:1053A00040780C1215BE0254D3E960030254AB12CC
:1053B0002AA3E970157E00EEF9123703E9F80EEE24
:1053C000C3940A5065E860EF8060900AD3806E74E1
:1053D00007650B60030254AB750806750900780871
:1053E00012194A8E828F83A3AC82AD837402121786
:1053F0002BAA82AB8312350574021216F57C007D50
:1054000000851A82851B83AA82AB838E828F83E0FC
:10541000F91236D3E9F508C3940A40030254D012B6
:105420002AA3E9700CA90812370379501238958025
:105430007574D42508F582740A3400F583740180EC
:10544000467401650B70648E828F83E0F8C394020A
:105450005059E8900A3F802F7401650B704D8E8281
:105460008F83E0F8C3940A5042E89010B08018741B
:1054700001650B70368E828F83E0F874F928C3942F
:105480000A5028E89010B2F080497401650B701B37
:10549000900AD2E0F88E828F83E0900AD2F0E87012
:1054A00032E06401702D1236FD8028750A188023C1
:1054B000C3EA9427EB940050177402650B70118EA9
:1054C000828F83E0FCA3E0FD122941E9F50A800305
:1054D000750A02A90A74061216F57F0C0218091241
:1054E00016F57F0402180974F012173774B11216FA
:1054F000DF8C0A8D0B742012172BAC82AD83758361
:105500008F7582D174061215F2742012172BAC829B
:10551000AD831236D3E9FF745F12172BE0F50CEF61
:10552000C3940A40030256E575F006EFA4F508742B
:105530004112172BAC82AD837A0E74202508F91224
:10554000388FE97009744D12172BE0FE80027E003F
:105550009010ADE064027005750E018003750E00B9
:105560007408650C70047422800274212508F50902
:105570007C1B7D007900742612172BAA82AB831244
:105580003517742612172BAC82AD837A1BA909122A
:10559000388FE97031744012172BE024F9C3940A54
:1055A0005024E50EF509780912194E742712172BAD
:1055B000AC82AD83EEA2E0E433F9AA0AAB0B122968
:1055C000E374011216F57C147D007900740C121737
:1055D0002BAA82AB83123517740C12172BAC82AD39
:1055E000837A1074242508F912388FE9703C7C10F6
:1055F00079FF740C12172BAA82AB83123565E97000
:1056000029741C12172BAC82AD837A0474252508EB
:10561000F912388F740C12172BAC82AD83EEA2E016
:10562000E433F9AA0AAB0B1229CB851A82851B83B6
:10563000AC82AD837A0C74702FF912388FE9600355
:105640000256D4851A82851B83A882A98388828901
:1056500083E0F4FAA3E0F4FB88828983EAF0A3EB09
:10566000F0E82402F582E93400F583E0F4F0E82460
:1056700003F8E93400F9740C12172BE58268700303
:10568000E5836970C87F00851A82851B838582083F
:10569000858309850882850983E0FCA3E0FDEC4D44
:1056A000601F850882850983A3A3E0F50E750F00AE
:1056B000780E12194AAA0AAB0B122CBF74021216EA
:1056C000F50FE5082403F508E5093400F509EFC3F3
:1056D000940440BFEEA2E1500C900A2AE0F9AA0A15
:1056E000AB0B122CC57404650C70279010ADE064F0
:1056F00002701F7A00900A3EE060010A900A2BE0D7
:105700006004780480027800E84AF9AA0AAB0B1218
:105710002A8B7900744F1216F57F0802180974EE6F
:1057200012173774E21216DF8A0A8B0BECFEEDFFBC
:1057300075080AE9600F14600C146070147003029D
:1057400057F202587A750E00750C46750D0A7510E1
:1057500006751100781012194AAC0AAD0BAA0CABF1
:105760000D12351174021216F5E96026850E08E552
:1057700008C3940A400302587AEE4F700302587A25
:10578000750C06750D00780C12194AAC0AAD0B02A7
:10579000586E050EE50C240EF50CE50D3400F50DE4
:1057A000E50EC3940A400302587A80A2750E007574
:1057B0000C4C750D0A751006751100781012194AF7
:1057C000AC0AAD0BAA0CAB0D12351174021216F512
:1057D000E96005850E08805C050EE50C240EF50CCD
:1057E000E50D3400F50DE50EC3940A400302587A26
:1057F00080C3750C00750D23740E12172BAC82AD8F
:10580000837A10A90D12388FE9707B7C1079FF74B0
:105810000E12172BAA82AB83123565E97068AC0AA9
:10582000AD0B740E12172BAA82AB831229ADE9704F
:1058300055850C08E508C3940A503FEE4F603B8540
:105840001A82851B83AC82AD837A0E75F006E5085B
:10585000A42420F912388FE97020750A06750B0010
:10586000780A12194A740212172BAC82AD83EEFA31
:10587000EFFB1234FF74021216F5A908741E1216FB
:10588000F57F0A021809050C7406250DF50DE50CC7
:10589000C3940A50E50257F874F412173774F212E1
:1058A00016DF890875091574FF6A700374FF6B6051
:1058B000030259367E20851A82851B83AC82AD8314
:1058C0007A0EEEF912388FE970527C0679FF851A4C
:1058D00082851B83AA82AB83123565E9703E740C06
:1058E00012172BE0F8A3E0F9E8FAE5086005EAD220
:1058F000E18003EAC2E1FAE86A7001E9601B740C16
:1059000012172BEAF0A3E4F0851A82851B83AC8280
:10591000AD837A0EEEF912388975090074062EFEF1
:10592000745C6E7091E50870030259F17A1B7B3745
:10593000122EC90259F1122EAB8A0A8B0BAE0AAF96
:105940000BEE4F70030259EE7C007D00EE2405FA49
:10595000EF3400FB8E828F83A3A3A3A3E0F912365A
:10596000D3E9F8C3940A506E75F006E8A42420F534
:1059700009851A82851B83AC82AD837A0EF91238B1
:105980008FE9704F7C0679FF851A82851B83AA8276
:10599000AB83123565E9703B740C12172BE0F8A34A
:1059A000E0F9E8FAE5086005EAD2E18003EAC2E13D
:1059B000FAE86A7001E9601B740C12172BEAF0A375
:1059C000E4F0851A82851B83AC82AD837A0EA90927
:1059D000123889750900E5086017900A2AE0F98EE7
:1059E000828F83A3E0FAA3E0FB122CC58003750924
:1059F00014A909740E0254DFC082C083900A44EADD
:105A0000F0A3EBF0900A2AE0FC7D007A267B0012DE
:105A10002941900A2AE0F9122C41D083D082020F4A
:105A20003374EC1217378A088B09E9FE74141217C5
:105A30002B780C1215AF7F00EE7031780812194ADE
:105A400075104075114275120F8F13780C79101272
:105A5000146EAA10AB11AC12AD131229DD74021230
:105A600016F5E9FF60097901AA08AB091229D7EFF9
:105A7000F90254DA74F212173774EC1216DFEAFEE8
:105A8000EBFF8E828F83A3A3E024FA7003025DD123
:105A900024FD7003025CA5147003025B48146010BF
:105AA00024FD7003025C63147003025CDF025E3548
:105AB000900A44E0F8A3E0F9E849605CE0F58388E7
:105AC00082E0F8A3E0F988088909E845096049EE11
:105AD000240CF582EF3400F583E0F50A780A1219F8
