:020000040000FA
:1000000002074B020833FFFFFFFFFF02083BFFFF21
:10001000FFFFFFC2AFF508E119FFFF02084BFFFF2A
:10002000FFFFFF020853FFFFFFFFFF02085BFFFF18
:10003000FFFFFF020863FFFFFFFFFF02086BFFFFE8
:10004000FFFFFF020873FFFFFFFFFF02087BFFFFB8
:10005000FFFFFF020883FFFFFFFFFF02088BFFFF88
:10006000FFFFFF020893FFFFFFFFFF02089BFFFF58
:10007000FFFFFF0208A3FFFFFFFFFF0208ABFFFF28
:10008000FFFFFF0208B3FFFFFFFFFF0208BBFFFFF8
:10009000FF02009F0000003C0805050200003EC072
:1000A000E0C0D0E8C0E0E9C0E0EAC0E0EBC0E0C0FA
:1000B00082C083C28B90018274D0F0A37407F0E5F4
:1000C000C1C0E0900180E0F874AD28F5827401347D
:1000D00000F583D0E0F0900180E004F09001B4E0FE
:1000E0002406F8E43400F9900180E0687001E970BA
:1000F00010E09408400B9001817401F0900180E4BD
:10010000F0D083D082D0E0FBD0E0FAD0E0F9D0E0AC
:10011000F8D0D0D0E03274F31205D874801206F013
:10012000750A00750B007E007F00750D01750C10BF
:10013000750E80750F00780E12072B740212076778
:10014000AC82AD83AA0AAB0BA90D1204D4740212BF
:1001500006D5851B82AA82AB83EFF9E4C9F8EEFFCE
:100160008A828B83E0FCE86CFEC4540F6EFE8E0E18
:100170008F0F740C780E120706E50F6FFFEEF50E69
:10018000890F7405780E120706E50E6EFEE50F6FF7
:10019000FFA3AA82AB837480120767E5826A7003AB
:1001A000E5836B70B4E50A2480F50AE50B3400F5AD
:1001B0000B150CE50C6003020130890A890B050D53
:1001C000E50DC3947B500302012DEEFAEFFB748022
:1001D0001206D57F0602063EC082C0839001877456
:1001E0003CF0A37412F0A37401F0A3F0A37440F0E8
:1001F000A37408F0A37402F0A3F090780EE09001CD
:100200008FF090780FE0900190F0907810E09001DE
:1002100091F0907811E0900192F0907812E09001C6
:1002200093F0907813E0900194F0A3E4F09001989B
:10023000743EF0D083D0822253C6B8E59EA2E64039
:10024000FA750A02750B00780A12072B7C9E7D0155
:100250007A007B00797B1204D474021206D59001D7
:100260009EE064137004A3E064207010750900021E
:100270000830C2AF75C9AB75C95B80FE7509011244
:1002800001D875F30C75C2D8E5C554E0440BF5C52B
:1002900043868075C40253C5DFC28B438640D2AA11
:1002A000D2AF7402F5D575D4435386FD758284753B
:1002B0008301E0F5C1E586A2E150FA5386FDA3E58E
:1002C0008264997004E583640170E7900181E070B5
:1002D000030204A89001B5E01470030204811460C5
:1002E000091470030203B10204A3A3E07003020324
:1002F00079A3E090019EF09001B8E090019FF01288
:1003000001169001A0EAF0A3EBF09001A0E0F8A3A1
:10031000E0F990019EE0687003A3E069705B797B6F
:100320001205C1906270E0A2E740F890019E74133C
:10033000F0A37420F0750A01780A12072B7C9E7DC9
:10034000017A007BF612055B74021206D55386FD16
:100350007582A2758301E0F5C1E586A2E150FA53EA
:1003600086FDA3E58264AD7004E583640170E7C295
:10037000AF75C9AB75C95B80FE900199E4F090013F
:100380009AF0A3F090019CF0A3F05386FD7582A231
:10039000758301E0F5C1E586A2E150FA5386FDA31D
:1003A000E58264AD7004E583640170030204A380F8
:1003B000E290019AE0F8A3E0F9E849701A900199F7
:1003C000E0C3947B4003747AF0E004F91205C19015
:1003D0006270E0A2E740F890019AE0F50AA3E0F528
:1003E0000B7402780A12073C900199E02401F50C85
:1003F000E43400F50D7409780C120706E50A2400B0
:10040000F8E50B350DF990019CE8F0A3E9F0750AC9
:1004100020750B00780A12072B7CB67D0190019C99
:10042000E0FAA3E0FB12055B74021206D590019A74
:10043000E02480F0A3E03400F0900199E004900102
:10044000AAF05386FD7582A2758301E0F5C1E586A9
:10045000A2E150FA5386FDA3E58264AD7004E58302
:10046000640170E79001AAE4F0C390019BE0940856
:10047000403190019AE4F0A3F0900199E004F080FB
:10048000225386FD758284758301E0F5C1E586A25D
:10049000E150FA5386FDA3E58264997004E5836414
:1004A0000170E7900181E4F0900182E0F8A3E0F9A7
:1004B000E84970030202CB900182E024FFF018A308
:1004C000E034FFF0F9E84960030202CB900180E4D8
:1004D000F00202CB74F51205D8890A740F550AF59B
:1004E0000C750D00740B780C120706EA2400F8EB6B
:1004F0003480F9E82400E9350DF9E5C7F50BA2AF22
:10050000E433F50CC2AFE50AC4540FFAE5C754F85A
:100510004AF5C7740B120767E0FEA3E0FFEE4F60D9
:100520002CEEFAEFFB88828983E08C828D83F08841
:10053000828983A3A882A9838C828D83A3AC82AD98
:1005400083EA24FF1AEB34FFFBEA4B70D8850BC714
:10055000E50CA2E092AF7F0402063E74F71205D8C4
:10056000ED900243F0ECA3F0A37462F0A37473F077
:10057000A3E0541FF07409120767E0F50AA3E0F541
:100580000BE50A333354FC900248F07406780A12E3
:10059000073CE50A900247F09002497412F0A374F8
:1005A00042F053D1FE75D601EA906271F0EBA3F0F0
:1005B000906270E0D2E1F0E0A2E740FB7F02020629
:1005C0003EC082C083E9C333906272F0906270E0F3
:1005D000D2E0F0D083D08222251BC582C0E0E51C8A
:1005E00034FFC583C0E0E51BC3958224F910AF0832
:1005F00085831C85821B800885831C85821BD2AF66
:10060000CEF0A3E520F0A3780AE608F0A3DEFAEF27
:10061000F0A3E58124FBF8E608F0A3E608F0A308C0
:1006200008E608F0A3E608F0A315811581D0E0FEE6
:10063000D0E0F815811581E8C0E0EEC0E022851C0D
:1006400083851B82E0A3FEE0A3F520780AE0A3F6F1
:1006500008DFFAE0A3FFE0A3C0E0E0A3C0E0E0A36E
:10066000C0E0E0A3C0E010AF0885821B85831C803A
:100670000885821B85831CD2AFD083D08222E49070
:100680000180782379018002F0A3D8FCD9FA7AA2FC
:100690007B01900094780C79018015E493A3AD82DE
:1006A000AE838A828B83F0A3AA82AB838D828E83F2
:1006B000D8E9D9E7120238120771251BF58210AF6D
:1006C00008F51B400C151C8008F51B4002151CD2B8
:1006D000AF851C832200C0D0251B10AF08F51B502E
:1006E0000C051C8008F51B5002051CD2AFD0D0228F
:1006F000251B10AF08F51B400C151C8008F51B408E
:1007000002151CD2AF22700422600D18C6C333C676
:1007100008C633C6D5E0F41822E5096007E508D21B
:10072000AF020091E508D2AF02084374028000C016
:10073000E0F4041206BAD0E012075A22600C08C690
:10074000C313C618C613C6D5E0F42275D000758150
:100750003F751B80751C0102067ECAC0E0E6F0A34F
:1007600008DAFAD0E0FA22251BF582E4351CF5837D
:100770002200000080FBFFFFFFFFFFFFFFFFFFFFE6
:10078000FFFFFFFFFFFFFFFFFFFFFFFFFFFFFFFF79
:10079000FFFFFFFFFFFFFFFFFFFFFFFFFFFFFFFF69
:1007A000FFFFFFFFFFFFFFFFFFFFFFFFFFFFFFFF59
:1007B000FFFFFFFFFFFFFFFFFFFFFFFFFFFFFFFF49
:1007C000FFFFFFFFFFFFFFFFFFFFFFFFFFFFFFFF39
:1007D000FFFFFFFFFFFFFFFFFFFFFFFFFFFFFFFF29
:1007E000FFFFFFFFFFFFFFFFFFFFFFFFFFFFFFFF19
:1007F000FFFFFFFFFFFFFFFFFFFFFFFFFFFFFFFF09
:040000050000074BA5
:00000001FF
