:020000040000FA
:1000000002072E020833FFFFFFFFFF02083BFFFF3E
:10001000FFFFFFC2AFF508E10BFFFF02084BFFFF38
:10002000FFFFFF020853FFFFFFFFFF02085BFFFF18
:10003000FFFFFF020863FFFFFFFFFF02086BFFFFE8
:10004000FFFFFF020873FFFFFFFFFF02087BFFFFB8
:10005000FFFFFF020883FFFFFFFFFF02088BFFFF88
:10006000FFFFFF020893FFFFFFFFFF02089BFFFF58
:10007000FFFFFF0208A3FFFFFFFFFF0208ABFFFF28
:10008000FFFFFF0208B3FFFFFFFFFF0208BBFFFFF8
:10009000FF02009F0000003C0805050200003EC072
:1000A000E0C0D0E8C0E0E9C0E0EAC0E0EBC0E0C0FA
:1000B00082C083C28B90018274D0F0A37407F0E5F4
:1000C000C1C0E0900180E0F874AD28F582E434010D
:1000D000F583D0E0F0900180E004F09001B4E024DA
:1000E00006FAE43400FB900180E06A4B7010E09463
:1000F00008400B9001817401F0900180E4F0D083FE
:10010000D082D0E0FBD0E0FAD0E0F9D0E0F8D0D057
:10011000D0E03274F31205CA74801206E2750A0048
:10012000750B007E007F00750D01750C10750E803B
:10013000750F00780E12071D7402120763AA0AAB2E
:100140000BA90D1204C774021206C7A810A91188C2
:100150000E890FAA0EAB0FEFF9E4C9F8EEFFE8FC29
:100160008A828B83E0F8EC68FEC4540F6EFE8E0E1C
:100170008F0F740C780E1206F8E50F6FFFEEF50E78
:10018000890F7405780E1206F8E50E6EFEE50F6F06
:10019000FFA3AA82AB837480120759E5826A7003B9
:1001A000E5836B70B2E50A2480F50AE4350BF50BA4
:1001B000150CE50C600302012D890A890B050DE57C
:1001C0000DC3947B500302012AEEFAEFFB748012F8
:1001D00006C77F0602063053C6B8E59EA2E640FA7F
:1001E000750A02750B00780A12071D7C9E7D017A44
:1001F000007B00797B1204C774021206C790019E2F
:10020000E064137004A3E064207010750900020814
:1002100030C2AF75C9AB75C95B80FE75090190012D
:1002200087743CF0A37412F0A37401F0A3F0A374DC
:1002300040F0A37408F0A37402F0A3F090780EE0ED
:1002400090018FF090780FE0900190F0907810E09E
:10025000900191F0907811E0900192F0907812E086
:10026000900193F0907813E0900194F0A3E4F09063
:100270000198743EF075F30C75C2D8E5C554E0449E
:100280000BF5C543868075C40253C5DFC28B438618
:1002900040D2AAD2AF7402F5D575D4435386FD750A
:1002A0008284758301E0F5C1E586A2E150FA5386A8
:1002B000FDA3E58264997004E583640170E7900111
:1002C00081E0700302049B9001B5E0147003020406
:1002D000741460091470030203A4020496A3E0706E
:1002E0000302036CA3E090019EF09001B8E090013E
:1002F0009FF01201139001A0EAF0A3EBF09001A08F
:10030000E0F8A3E0F990019EE0687003A3E0697053
:100310005B797B1205B3906270E0A2E740F8900130
:100320009E7413F0A37420F0750A01780A12071D59
:100330007C9E7D017A007BF612054D74021206C781
:100340005386FD7582A2758301E0F5C1E586A2E1C1
:1003500050FA5386FDA3E58264AD7004E583640121
:1003600070E7C2AF75C9AB75C95B80FE900199E4B7
:10037000F090019AF0A3F090019CF0A3F05386FD59
:100380007582A2758301E0F5C1E586A2E150FA53BA
:1003900086FDA3E58264AD7004E583640170030209
:1003A000049680E290019AE0F8A3E0F9E849701A17
:1003B000900199E0C3947B4003747AF0E004F91251
:1003C00005B3906270E0A2E740F890019AE0F50A68
:1003D000A3E0F50B7402780A12073D900199E0241E
:1003E00001F50CE43400F50D7409780C1206F8E5FB
:1003F0000A2400F8E50B350DF990019CE8F0A3E91B
:10040000F0750A20750B00780A12071D7CB67D0175
:1004100090019CE0FAA3E0FB12054D74021206C79E
:1004200090019AE02480F0A3E03400F0900199E07C
:10043000049001AAF05386FD7582A2758301E0F550
:10044000C1E586A2E150FA5386FDA3E58264AD7052
:1004500004E583640170E79001AAE4F0C390019B76
:10046000E09408403190019AE4F0A3F0900199E003
:1004700004F080225386FD758284758301E0F5C106
:10048000E586A2E150FA5386FDA3E58264997004E3
:10049000E583640170E7900181E4F0900182E0F867
:1004A000A3E0F9E84970030202BE900182E024FF54
:1004B000F018A3E034FFF0F9E84960030202BE90AF
:1004C0000180E4F00202BE74F61205CA890C740FB2
:1004D000550CF50A750B00740B780A1206F8EA241D
:1004E00000F8EB3480F9E82400E9350BF985C70BF7
:1004F000A2AFE433F50AC2AFE50CC4540FFAE5C766
:1005000054F84AF5C7740A120759E0FEA3E0FFEE5B
:100510004F602CEEFAEFFB88828983E08C828D831A
:10052000F088828983A3A882A9838C828D83A3AC5F
:1005300082AD83EA24FF1AEB34FFFBEA4B70D885C7
:100540000BC7E50AA2E092AF7F0302063074F712F0
:1005500005CAED900243F0ECA3F0A37462F0A3741B
:1005600073F0A3E0541FF07409120759E0F50AA3D1
:10057000E0F50BE50A333354FC900248F07406783A
:100580000A12073DE50A900247F09002497412F002
:10059000A37442F075D11E75D601EA906271F0EB3A
:1005A000A3F0906270E0D2E1F0E0A2E740FB7F02AE
:1005B000020630C082C083E9C333906272F0906259
:1005C00070E0D2E0F0D083D082222510C582C0E056
:1005D000E51134FFC583C0E0E510C3958224F9100E
:1005E000AF0885831185821080088583118582106C
:1005F000D2AFCEF0A3E520F0A3780AE608F0A3DEA0
:10060000FAEFF0A3E58124FBF8E608F0A3E608F092
:10061000A30808E608F0A3E608F0A315811581D029
:10062000E0FED0E0F815811581E8C0E0EEC0E022E0
:10063000851183851082E0A3FEE0A3F520780AE00F
:10064000A3F608DFFAE0A3FFE0A3C0E0E0A3C0E068
:10065000E0A3C0E0E0A3C0E010AF0885821085836E
:10066000118008858210858311D2AFD083D0822279
:10067000E4900180782379018002F0A3D8FCD9FAB4
:100680007AA27B01900094780C79018015E493A301
:10069000AD82AE838A828B83F0A3AA82AB838D82E4
:1006A0008E83D8E9D9E71201D712076B2510F5829E
:1006B00010AF08F510400C15118008F51040021518
:1006C00011D2AF8511832200C0D0251010AF08F5DC
:1006D00010500C05118008F51050020511D2AFD052
:1006E000D022251010AF08F510400C15118008F528
:1006F0001040021511D2AF22700422600D18C6C33B
:1007000033C608C633C6D5E0F41822E5096007E50C
:1007100008D2AF020091E508D2AF0208437402800C
:1007200000C0E0F4041206ACD0E012074C2275D0F1
:100730000075813F751080751101020670600C080C
:10074000C6C313C618C613C6D5E0F422CAC0E0E675
:10075000F0A308DAFAD0E0FA222510F582E4351188
:10076000F583222510FCE43511FD2200000080FBFA
:10077000FFFFFFFFFFFFFFFFFFFFFFFFFFFFFFFF89
:10078000FFFFFFFFFFFFFFFFFFFFFFFFFFFFFFFF79
:10079000FFFFFFFFFFFFFFFFFFFFFFFFFFFFFFFF69
:1007A000FFFFFFFFFFFFFFFFFFFFFFFFFFFFFFFF59
:1007B000FFFFFFFFFFFFFFFFFFFFFFFFFFFFFFFF49
:1007C000FFFFFFFFFFFFFFFFFFFFFFFFFFFFFFFF39
:1007D000FFFFFFFFFFFFFFFFFFFFFFFFFFFFFFFF29
:1007E000FFFFFFFFFFFFFFFFFFFFFFFFFFFFFFFF19
:1007F000FFFFFFFFFFFFFFFFFFFFFFFFFFFFFFFF09
:040000050000072EC2
:00000001FF
