:020000040000FA
:1008000037D7FFFFFFFFFFFFFFFFFFFFFFFFFFFFE8
:10081000FFFFFFFFFFFFFFFFFFFFFFFFFFFFFFFFE8
:10082000FFFFFFFFFFFFFFFFFFFFFFFFFFFFFFFFD8
:10083000020E92021C45FFFFFFFFFFFFFFFFFFFFBD
:10084000FFFFFFFFFFFFFFFFFFFFFFFFFFFFFFFFB8
:10085000FFFFFFFFFFFFFFFFFFFFFF02236BFFFF15
:10086000FFFFFFFFFFFFFFFFFFFFFF0223D5FFFF9B
:10087000FFFFFF022340FFFFFFFFFFFFFFFFFFFF20
:10088000FFFFFF021CBBFFFFFFFFFFFFFFFFFFFF9C
:10089000FFFFFFFFFFFFFFFFFFFFFF022393FFFFAD
:1008A000FFFFFFFFFFFFFFFFFFFFFFFFFFFFFFFF58
:1008B000FFFFFF021A9B010112416363656C2E204A
:1008C00044617461000A416363656C2E20436F6E5E
:1008D000662E000A0A416363656C2E2050657269BA
:1008E0006F64000279830100005083027783010066
:1008F000004C181091810100008202027F830300E6
:1009000000850202AD830100004D180277830100CB
:10091000005918105181030000870202AD830100C5
:10092000005A180277830100006718102181030024
:1009300000681802AD83010000691812642C0104DC
:1009400000AD2701113104010279830100006883A1
:10095000027783010000CF1802A983010000D0189C
:10096000027F830300008A0202A583010000DA18D7
:10097000028183010000D318FF0000B400002800AA
:100980002800283075A000A000A000A000000800EA
:1009900008E001F00010001000100010001000101E
:1009A0000050005000500010001000D00700000060
:1009B0000000000F00010005003075070010000165
:1009C0000081FF00000000FFFFFFB326D126B926FB
:1009D000F526FF02020208025000A0000000E80312
:1009E0000279830100004D830277830100006719BB
:1009F000029383010000CA02027783010000681994
:100A0000029583010000E00202778301000069196A
:100A1000029783010000E2020277830100006A1955
:100A2000029F83080000E3020277830100006B1934
:100A300002A1830100006C19FFFF0100FF20027971
:100A4000830100005383027783010000D11902A3C0
:100A5000830000000000027F8303000011031700E1
:100A6000732D732D732D732D732D732D732D732D86
:100A7000732D732D732D732D732D313043302B3027
:100A800012436F6E6E2E20506172616D73000843C9
:100A90006F6E6E2E20506172616D73205265710011
:100AA00008446973636F6E6E6563742052657100EC
:100AB0000279830100005683027783010000141A33
:100AC00010C1810100004D07027F8303000053071E
:100AD00002AD83010000151A027783010000221A7B
:100AE00010B181020000550702AD83010000231AF6
:100AF000027783010000341A10A1810200005D0713
:100B000002AD83010000351A020246462046462007
:100B100046462046462046462046460002023030E1
:100B20002E30310002027983010000658302778351
:100B30000100009C1A029B8301000021820277833E
:100B40000100009D1A0299830100009E1A0277831A
:100B5000010000B01A0287830100007F82027783C0
:100B6000010000B11A028583010000B21A027783E6
:100B7000010000B81A0283830100003A8201E803F1
:100B80000577100A0A0B32124779726F204461749C
:100B900061000A4779726F20436F6E662E000A0A61
:100BA0004779726F20506572696F64000279830122
:100BB00000004A830277830100001B1B10D18001D3
:100BC00000001A08027F83030000200802AD8301A1
:100BD00000001C1B027783010000261B10C180034C
:100BE0000000220802AD83010000271B0277830169
:100BF0000000321B106181030000331B02AD830132
:100C00000000341B61801254656D702E20446174A5
:100C100061000A54656D702E20436F6E662E001EB3
:100C20000279830100005C830277830100009A1B34
:100C3000101181010000FC09027F83030000200ADB
:100C400002AD830100009B1B027783010000A61BFD
:100C500010E181030000220A02AD83010000A71BFE
:100C6000124D61676E2E2044617461000A4D616708
:100C70006E2E20436F6E662E000A0A4D61676E2E3F
:100C800020506572696F64000279830100006E83F1
:100C9000027783010000F41B104181010000250A46
:100CA000027F830300002B0A02AD83010000F51BC5
:100CB000027783010000001C1071810300002D0ADF
:100CC00002AD83010000011C0277830100000D1CAE
:100CD0001081810300000E1C02AD830100000F1C77
:100CE00010416C6572744E6F7469666963617469F2
:100CF0006F6E2E2044617461000279830100006BE5
:100D000083027783010000741C02758300000030A9
:100D10000A027F83030000310A02AD8301000075DF
:100D20001CFFFFFF000130750302010600000000F8
:100D300000000000000000000000000000000000B3
:100D40000000000000000000FFFF0600800CE80328
:100D50000A04120279830100006283027783010092
:100D600000E41C028F830300000417027983010052
:100D7000005F83027783010000E51C028F8302007D
:100D8000000517027983010000598302778301006F
:100D900000E61C0291830100000617027F83030016
:100DA0000007170F09526F636B62616E64315F78E1
:100DB000787878051250002003020A000201060725
:100DC0000250AA09180D1808FF000DFFAAFFFFFF27
:100DD000526F636B62616E64315F7878787800D0AF
:100DE00007E803E803673600007F3685368B3691C7
:100DF000369D36A336000000013C04003E01E5C7E5
:100E000054F84401F5C779012200000080FB120D5F
:100E1000FEB90003020E7CE479217808B800028054
:100E200004F709D8FCE479297802B800028004F7B5
:100E300009D8FCE490028078CC79168002F0A3D81F
:100E4000FCD9FA781A9008B67A01BA00028007E451
:100E500093A3F608DAF97A4B7B189008B7784879AB
:100E6000068015E493A3AD82AE838A828B83F0A3C0
:100E7000AA82AB838D828E83D8E9D9E77582837588
:100E800083FF7402120EA475820975830E7400121A
:100E90000EA475D00075813F751880751902759F75
:100EA00000020E0EC09FF59FE473D09F22D083D026
:100EB00082C09FE493C0E0740193C0E0740293F594
:100EC0009F22E066701008A3E066700A08A3E0663F
:100ED000700408A3E06622C3E7960809E7960809AC
:100EE000E7960809E79622C3E09608A3E09608A3D0
:100EF000E09608A3E09622C008C3E096F50808A390
:100F0000E096420808A3E096420808A3E096450848
:100F10007001D3D00822080808EAC0E0EBC0E086E0
:100F2000F0E7A4FA180986F0E7A42AFA180986F06F
:100F3000E7A42AFA180986F0E7A42AFA1986F0E746
:100F4000A4FBE5F02AFA190886F0E7A42BFBE5F0EC
:100F50003AFA190886F0E7A42BFBE5F03AFA1818DC
:100F60000986F0E7A4C5F02BFBE43AFA1908E7C5B7
:100F7000F0C6A426F6E5F03BFBE43AFA1886F0E763
:100F8000A4F6E5F00826F6E43B08F6E43A08F6D0C5
:100F9000E0FBD0E0FA22E4CFC0E0E4CEC0E0E4CD54
:100FA000C0E0E4CCC0E075F020E626F608E633F6B3
:100FB00008E633F608E633F6181818EC33FCED3380
:100FC000FDEE33FEEF33FFC3EC9709ED9709EE9783
:100FD00009EF97191919400FFFEC97FC09ED97FDE0
:100FE00009EE97FE191906D5F0BFECF709EDF709E0
:100FF000EEF709EFF7191919D0E0FCD0E0FDD0E0C9
:10100000FED0E0FF226016080808C6C313C618C643
:1010100013C618C613C618C613C6D5E0EA2270094F
:10102000080808226016181818C6C333C608C63345
:10103000C608C633C608C633C6D5E0EA22E627F698
:101040000809E637F60809E637F60809E637F62212
:10105000E026F608A3E036F608A3E036F608A3E09B
:1010600036F622E026F008A3E036F008A3E036F0DA
:1010700008A3E036F022C3E697F60809E697F608DB
:1010800009E697F60809E697F622C3E096F008A36A
:10109000E096F008A3E096F008A3E096F022E05670
:1010A000F608A3E056F608A3E056F608A3E056F6C5
:1010B00022E056F008A3E056F008A3E056F008A39B
:1010C000E056F022E0F608A3E0F608A3E0F608A355
:1010D000E0F622E6F008A3E6F008A3E6F008A3E6AF
:1010E000F022E0FAA3E0FBA3E0FCA3E0FD22EAF09B
:1010F000A3EBF0A3ECF0A3EDF022E0F8A3E0F9A35A
:10110000E0FAA3E0FB22E8F0A3E9F0A3EAF0A3EB06
:10111000F022CAC0E0E6F0A308DAFAD0E0FA22CA68
:10112000C0E0E0A3C582CCC582C583CDC583F0A352
:10113000C582CCC582C583CDC583DAE6D0E0CA229C
:10114000C3E498F8E499F91211818026C3E49AFA6D
:10115000E49BFBE920E7E9121181E498F8E499F9AE
:1011600022C3E498F8E499F9121181E498F8E4991B
:10117000F9C3E49AFAE49BFB22EB20E7CFE920E7EE
:10118000E0B90010BB0008E88AF084F8AAF022E475
:10119000FBC8FA22EB70227B10C833C8C933C933AD
:1011A0005007C39AC3DBF280069A50012ADBEAC8D3
:1011B00033F4C8C933F4C9FA2275F008E4C833C857
:1011C000C933C933C99AC99B5004C92AC93BD5F050
:1011D000ECFBC833F4C8E4C9FA22600D08C6A2E7E4
:1011E00013C618C613C6D5E0F322600C08C6C31395
:1011F000C618C613C6D5E0F422700422600D18C6C6
:10120000C333C608C633C6D5E0F41822251810AF7C
:1012100008F518400C15198008F51840021519D268
:10122000AF2200C0D0251810AF08F518500C0519D2
:101230008008F51850020519D2AFD0D0222518F534
:101240008210AF08F518400C15198008F5184002F7
:101250001519D2AF851983222518F582E43519F5C1
:1012600083222518F8E43519F9222518FAE43519EE
:10127000FB222518FCE43519FD22E4732518C582EC
:10128000C0E0E51934FFC583C0E0E518C3958224AA
:10129000F810AF0885831985821880088583198521
:1012A0008218D2AFCEF0A3E520F0A37808E608F0CC
:1012B000A3DEFAEFF0A3E58124FAF8E608F0A3E64E
:1012C00008F0A3E608F0A30808E608F0A3E608F093
:1012D000A315811581D0E0FED0E0F81581158115A8
:1012E00081E8C0E0EEC0E0222518C582C0E0E51923
:1012F00034FFC583C0E0E518C3958224F910AF0818
:101300008583198582188008858319858218D2AF54
:10131000CEF0A3E520F0A37808E608F0A3DEFAEF0C
:10132000F0A3E58124FBF8E608F0A3E608F0A308A3
:1013300008E608F0A3E608F0A315811581D0E0FEC9
:10134000D0E0F815811581E8C0E0EEC0E0228519F3
:1013500083851882E0A3FEE0A3F5207808E0A3F6D9
:1013600008DFFAE0A3FFE0A3C0E0E0A3C0E0E0A351
:10137000C0E0E0A3C0E0E0A3C0E010AF08858218A1
:101380008583198008858218858319D2AFD083D0D0
:1013900082020EAA851983851882E0A3FEE0A3F5D8
:1013A000207808E0A3F608DFFAE0A3FFE0A3C0E09E
:1013B000E0A3C0E0E0A3C0E0E0A3C0E010AF088578
:1013C00082188583198008858218858319D2AFD049
:1013D00083D08222C0D02518C582C0E0E51934FF31
:1013E000C583C0E0E518C3958224F310AF08858358
:1013F000198582188008858319858218D2AFC8F0B4
:10140000A3E9F0A3EAF0A3EBF0A37908E709F0A3BE
:10141000D8FAECF0A3EDF0A3EEF0A3EFF0A3D0E048
:10142000F0A3D0E0F0A3D0E0F0A3E520F0A3E5F036
:10143000F0A322851983851882E0C0E0A3E0F9A318
:10144000E0FAA3E0FBA37808E0F608A3DFFAE0FCEB
:10145000A3E0FDA3E0FEA3E0FFA3E0C0E0A3E0C0A3
:10146000E0A3E0F5D0A3E0F520A3E0A3F5F010AFF2
:10147000088583198582188008858319858218D28A
:10148000AFD082D083D0E0F8D0E03274048006740C
:101490000280027401C0E0F40412123DD0E0121187
:1014A00012227404800474028000CCC0E0EDC0E01D
:1014B000E518C39CCCAD1950011D10AF068C188DDA
:1014C0001980068C188D19D2AF12111FD0E0FDD0F3
:1014D000E0FC22D083D082E9C0E0E493A3C386F08D
:1014E000C5F095F0F908E493A386F0C5F095F07087
:1014F0000BE493A3C3994005E9048002A3E475F0CB
:1015000002A42582F582E5F03583F583D0E0F9E485
:1015100093A3C0E0E493C0E022D083D082ECC0E08B
:10152000EDC0E0E493A3FCE493A3FDED4C600D1249
:101530001565EC24FFFCED34FFFD80EFE493A3FC84
:10154000E493A3FDED4C600D1215A4EC24FFFCED1B
:1015500034FFFD80EFD0E0FDD0E0FCE493A3C0E0D9
:10156000E493C0E022C0E0C3E4939608740193962C
:1015700018400FE4936670080874019366187000B1
:101580007019A3A3C3E49396087401939618A3A3B8
:10159000400DD0E0D0E0D0E0021555A3A3A3A3A353
:1015A000A3D0E022C0E0C0F088F0E49366700808A1
:1015B00074019366187000A8F0A3A3700BD0F0D04C
:1015C000E0D0E0D0E0021555A3A3D0F0D0E022FF98
:1015D00074F61212E8EAFEEBFF8C088D09EE243453
:1015E000F8E43FF9E8FCE9FDEE24351218E3FAEEE1
:1015F00024371218E3F88508F0A4C885F00A850995
:10160000F0A4250AF9EA28F8E439F97A257B0012D2
:101610001181EA8C828D83F0FA131313541FF8EEB4
:1016200028F8E43FF9E8245DF582E439F583E0C069
:10163000E074075AF8D0E0B800028004C313D8FC65
:10164000A2E0EE50082434F582E43F8018243612DC
:1016500018E3F5F0EA84A8F0EE28F8E43FF9E8246E
:1016600038F582E439F583E0F97F0302139474F7C7
:101670001212E8EAFEEBFFEE24341218E3C0E0EEAB
:101680002435F582E43FF583D0E0F08E828F83A38A
:10169000A3A3A3A3A3A3C082C0838E828F83A3A38B
:1016A000A3A3A3E0F8A3E0F9D083D082E0C398F528
:1016B00008A3E099F509EE247F1218E36401703E57
:1016C000EE2480F582E43FF583C082C0838E828F52
:1016D00083A3A3A3A3A3E0240108A3E03400F9D0CB
:1016E00083D082E0687003A3E06970127CBC7D0443
:1016F000122CB3EE247FF582E43FF583E4F0AC08CE
:10170000AD09EEFAEFFB1215D0E9F91223327F0290
:10171000021394C082C083851882851983E0F8A3E0
:10172000E0F9C3EA9CEB9D5010C3EC98ED99401B87
:10173000C3EA98EB995014800EC3EA98EB994007DE
:10174000C3EC98ED994004790180027900D083D0F0
:101750008222EAC39CFAEB9DFB2274EF1212E890FE
:101760000381E064086005E06407702A9061C8E0C6
:1017700060249003AFE0F4601DE0F875F00BA4C89E
:10178000AAF02AF974B128FE740339FF8E828F8380
:10179000A3A3A3E07003021868906060E0C0E0EECD
:1017A0002468F582E43FF583D0E0F0750C2C750DCC
:1017B00005750800750900E5D914F50AE5D9540343
:1017C000F50E60127403650E6043E50A600AEE24AC
:1017D000671218E370028075900527E06401601FAE
:1017E0001218E060047A0480027A00E50AC39AFACB
:1017F00095E0FB122B5D8A088B09EA4509700512FA
:101800002EF980641218E070048A0C8B0DE50A60D2
:1018100012850C82850D83F50BE5D9F0A3150BE538
:101820000B70F61218E0604474FC250AF50A780C77
:1018300012148FAC0AA90EEEFAEFFB122D6D740292
:10184000121222E97026AA08AB091234E1793D8E02
:10185000828F83A3A3A3A3E0FA7B001229BFEEFA31
:10186000EFFB122CD7122D7F7900806F7403650E69
:101870006051850A10751100781012148FAC0CADF0
:101880000DAA08AB09122D317402121222EE24683F
:101890001218E364807004747F8001E0F50C780C0A
:1018A000121493E50EF50C780C121493A90AAC08E7
:1018B000AD099003AFE0FA7B001229957402121271
:1018C000228013900381E06408600BAC0CAD0DEE38
:1018D000FAEFFB122DF7122F0579017F0A021394FC
:1018E000EE2483F582E43FF583E02274F21212E8DD
:1018F00074FC12120CEAFEEBFF8909A2AFE433F587
:1019000008C2AF0219B5E0601B780C12148FAC0B43
:10191000A90EEEFAEFFB122D677402121222740464
:10192000250BF50B7401250BF5D9850ED9E50B6058
:1019300018F50A850C82850D83E0F5D9A385820C04
:1019400085830D150AE50A70EA75E195EE2463F8C2
:10195000E43FF97A007B00A2AFE433F50BC2AF8815
:10196000828983E0FCA3E0FDEC4D603A88828983A4
:10197000E0FAA3E0FB8A828B83E0FCA3E0FD88828F
:101980008983ECF0A3EDF08A828B83E4F0A3F088E6
:10199000828983E0FCA3E0FDEC4D700A8882898394
:1019A000A3A3E4F0A3F0E50BA2E092AF1234E19020
:1019B00004C3E004F0EE24631218E3F8A3E0F9E8AE
:1019C000496064EE24631218E32402F8A3E03400B3
:1019D000F988828983E5822402F50CE43583F50DCC
:1019E000E0F50BA3E0F50EEE24621218E36401703B
:1019F000369061D0E0F81218E060047C0480027C2C
:101A0000007480C398FA95E0FBE50B2CF8E43400F1
:101A1000F9E82402F8500109C3EA98EB99A2D265CB
:101A2000D03340030219069004C3E0604D9004C413
:101A3000E0F89004C3E0C398500C74026509703A52
:101A40009004C5E060348E828F83A3A3A3A3E085B6
:101A50001882851983121A8A7402121258E8121A0F
:101A60008A9004C2E028F07402121272AA18AB190C
:101A700079011229E99004C3E4F0E508A2E092AFED
:101A800074041212227F07021394F0A3E4F090046E
:101A9000C3E0F8228521878522C622C0E074EB12BC
:101AA00013D4A2AFE433F508C2AF759B00906182F6
:101AB000E0A2E05030E591A2E0502A7591FE740159
:101AC00065217021121C2E122E45121C1C1214A20C
:101AD0001220DC7404121222E964017005790112EB
:101AE0002E8D12175A906182E0A2E5505DE591A219
:101AF000E550577591DF900381E064076005E0646D
:101B000008702F121C2E74016521703E122E451292
:101B10001C1C1214A21220DC7404121222E96401AB
:101B200070057901122E8D7901EEFAEFFB1218EB98
:101B30008018E0640D70139003A3E004F064287033
:101B400002E4F07A00E0F9122F0B906182E0A2E645
:101B50004003021BF1E591A2E64003021BF17591DF
:101B6000BF900381E064057008122E2D122E39807B
:101B700003122E33752100122E99E9900382F07919
:101B800000122E8D122C237A017B00900380E0F945
:101B90001234B1907803E06442705690052BE01443
:101BA000F0704EC2AF121BA800782AD0E0F618D011
:101BB000E0F6E59F5407F87005750DFF8003750D7D
:101BC0007FC4C0E07829E6F50A08E6550DF50B74E8
:101BD0000B780A1211EAD0E0250AF8906270E0A2B0
:101BE000E740F8E8C333906272F0906270E0D2E0B0
:101BF000F0906181E0A2E35009E5E9A2E3500375AA
:101C0000E9F7A3E0A2E75009E591A2E75003759137
:101C10007FE508A2E092AF7F080214338E828F83A3
:101C2000E0F8A3E0C82416F582E438F58322900397
:101C3000AFE0F875F00BA4C8AAF02AF974B128FE39
:101C4000740339FF22C0E0C0D0C082C0839061839A
:101C5000E0A2E05009E5BFA2E0500375BFFEE0A29C
:101C6000E15009E5BFA2E1500375BFFDE0A2E250DB
:101C700009E5BFA2E2500375BFFBE0A2E35009E50E
:101C8000BFA2E3500375BFF7E0A2E45009E5BFA28D
:101C9000E4500375BFEFE0A2E55009E5BFA2E550AF
:101CA0000375BFDFE0A2E65009E5BFA2E650037569
:101CB000BFBFD083D082D0D0D0E032C0E074F21267
:101CC00013D4E5A7A2E6500FE5A1A2E6500953A759
:101CD000BF75A1BF121D0FE5A7A2E5500CE5A1A29B
:101CE000E5500653A7DF75A1DFE5A7A2E15009E59E
:101CF000A1A2E1500375A1FDE5A7A2E2500CE5A168
:101D0000A2E2500653A7FB75A1FB7F0102143374B6
:101D1000F71212E8752101900381E0640670151234
:101D20002DA38A828B83A3A3A3A3A3A3E0FAA3E09A
:101D3000FB122E1BA2AFE433FED2AF900387E06408
:101D40000170187A207B00900380E0F91235DD7A6B
:101D5000207B00900380E0F91234B7906182E0D2DA
:101D6000E6F0900528E0602185C622801690038663
:101D7000E064017008E5C654F84405F5C653BEFC9E
:101D8000121A947401652160E4EEA2E092AF7F0222
:101D9000021394FF8E238F2485822885832785183C
:101DA00082851983E0CEA3E0CF852882852783EB47
:101DB000C9EAC8EDCBECCA75F010C3E833C8E93303
:101DC000C9EA33CAEB33CBC3EA9EF526EB9FF52570
:101DD000B35004AB25AA26EC33CCED33CDD5F0DAE5
:101DE000AE23AF242274E91212E874FA12120CEA3C
:101DF000FEEBFF8C0A8D0B122E51EAF8EBF9ECFA90
:101E0000EDFB8E828F83121106900381E024F7C3CD
:101E100094055006751401021F4C122DA38A088BDD
:101E200009EA45097003021F49EEFCEFFDAA18AB51
:101E300019122E4B850882850983A3A3780C1210F2
:101E4000C49082DE780C12109E85188285198378E2
:101E5000101210C49082DE781012109E780C791047
:101E6000120ED7501F780C79101210769082FA78E3
:101E70000C120EF74047850C14850D15850E16853E
:101E80000F1780459082FA8510148511158512165A
:101E90008513177814790C1210767814120EF750F7
:101EA0001C751400751500751600751701781479E6
:101EB000101210767814790C12103D800C751401F4
:101EC0007515007516007517007409781412101E28
:101ED0009082F6780C1210C47814790C120F968543
:101EE0000882850983A3A3A3A3A3A3121F6A1211C7
:101EF00081880C890DE4F50EF50F7814790C121019
:101F00003D7404121258121F6A121181E8FA8A0CE9
:101F1000E4F50D7814790C120ED750077814790C6B
:101F2000121076900381E06408600AE064066005A0
:101F3000E0640570209082EA7814120EF750169033
:101F400082E67814121050800C7514007515007517
:101F50001600751700850A82850B8378141210D33A
:101F600074061212227F10021394E0F8A3E0F97AAB
:101F7000D07B032274F71212E8122E63900526E03C
:101F800064017010906245E4F0A3F053F4F343FE53
:101F90000C5390F3122E09E5C654B84441F5C6E53A
:101FA0009E5447644170F8906185740FF090052449
:101FB000E0F47002A3E0604E900525E06008146034
:101FC0001B14602E8040750801750900900524E0FF
:101FD00078081211F9E508F45280802A7508017515
:101FE0000900900524E078081211F9E508F45290F0
:101FF0008014750801750900900524E07808121115
:10200000F9E508F452A079007F0202139474F712E4
:1020100012E8E9FEEAFF122E6374016E700C7A80FA
:102020007B00900380E0F91234B190374CE493F4D4
:102030006008E493F9122C17800953C6B8E59E5442
:102040004770FA122E0F900526E064017003122CDF
:1020500035900524E0F47002A3E0604B900525E084
:10206000600814601A14602C803D75080175090021
:10207000900524E078081211F9E50842808028755F
:102080000801750900900524E078081211F9E508A7
:1020900042908013750801750900900524E07808C6
:1020A0001211F9E50842A0122DA38A088B09A8088D
:1020B000A909E8496014E5E170FCE82414F582E41C
:1020C00039F583E0F46003E0F5E174016F700A7A9A
:1020D00001900380E0F912354102200874F11212D8
:1020E000E88A088B098C0A8D0B9082DE7808121022
:1020F0009E740F121258780C1210C49082DE780C65
:1021000012109E7808790C120ED79082FA5010782F
:1021100008790C1210767808120EF74014800E78A9
:102120000C7908121076780C120EF75004790180A1
:102130000279007F0802139474ED1212E88A088B6A
:10214000098C0A8D0B9082DE780812109E7413128F
:102150001258780C1210C49082DE780C12109E78FF
:102160000C7908120ED740117808790C121076AA53
:1021700008AB09AC0AAD0B80227510007511007513
:1021800012007513017810790C1210767810790806
:1021900012103DAA10AB11AC12AD137F0C021394B8
:1021A0009082DE78081210C48A828B83780812101D
:1021B000B17F0402139474F51212E88C828D837837
:1021C000081210C48A828B83780812108A12220E99
:1021D000C3E09CF0A3E09D12220040229083267869
:1021E000081210C48A828B8378081210638A828B4B
:1021F00083A3A3A3A3E02420F0A3E0344EF080A0A7
:10220000F088828983C3E09420A3E0944E22EA24DC
:1022100004F8E43BF98C828D83A3A3A3A3E0FCA381
:10222000E0FD888289832274F51212E8E9FE9004A9
:10223000DEE0FAA3E0FBEE29F8E433F9740128F5B7
:1022400082748239F583E02AF508A3E03BF509782A
:102250000812148F9082DA1210E2121D9474021286
:1022600012228A088B098C0A8D0B741078081210C0
:1022700005AA08AB097F0402139474F11212E88ACC
:102280000C8B0D8C0E8D0F74111212581214A67433
:1022900011121258E02401F508A3E03400F509E416
:1022A000F50AF50B780C7908120F169082D278088F
:1022B0001210C4780C7908120F16AA0CAB0DAC0ED4
:1022C000AD0F121D9474021212228B09EA450960A7
:1022D000047A0180027A00EC2AFCE43DFD741312BA
:1022E0001258E0F8A3E0F9E8FEE9FFECF8EDF97A1E
:1022F000717B0212118188088909E4F50AF50B8EB9
:10230000828F8378081210D3ECF8EDF97A717B0292
:102310001211818A088B09740578081211F98E82CE
:102320008F83A3A3A3A3E508F0A3E509F07F080228
:102330001394C082C083E9906000F0D083D08222E1
:10234000C0E074F21213D4A2AFE433FED2AFC2C025
:10235000E5D1A2E4500675D10F1233C1751A00EE13
:10236000F8EEA2E092AF7F01021433C0E0C0D0E8E3
:10237000C0E0E9C0E0A2AFE433F8D2AFC2C7751A3B
:1023800000E8F9E8A2E092AFD0E0F9D0E0F8D0D0D0
:10239000D0E032C0E074F21213D4A2AFE433FED224
:1023A000AF758900C2C59008717401F0751A007A82
:1023B0000190084EE0F9123541E9F8C2BD53ABFB7C
:1023C0005389FB43F3047586C0EEF9EEA2E092AFA9
:1023D0007F01021433C0E0C0D0E8C0E0E9C0E0EA09
:1023E000C0E0C082C083A2AFE433FAD2AF9009F557
:1023F000E0F89009F6E068700B539AFB9009F774C7
:1024000001F0802CC2E99009F5E0F87401289009E8
:10241000F5F07900747528F582740939F583E0F5D3
:10242000C19009F5E0C3948040069009F57400F06E
:10243000EAF8EAA2E092AFD083D082D0E0FAD0E00E
:10244000F9D0E0F8D0D0D0E032C2AF0200002212C2
:102450000EAD50BA03120EAD87BA03120EADB0BA6C
:1024600003120EAD85BB03120EADEEBB03120EAD13
:10247000FCBC03120EAD008004120EAD718004127C
:102480000EAD4D8104120EAD318204120EAD4182AB
:1024900004120EADB5E303120EADC8E303120EAD88
:1024A000F9E303120EAD33E403120EAD8CE4031214
:1024B0000EADD3E403120EAD1BE503120EAD4AE5DB
:1024C00003120EAD79E503120EADB0E503120EADA9
:1024D000F7E503120EAD10E603120EAD65E603122A
:1024E0000EAD7EE603120EADCCE603120EAD06E78E
:1024F00003120EAD9B7600120EAD9E7700120EAD4C
:10250000D77700120EADFA7700120EAD0C780012DC
:102510000EAD4A7800120EADC67800120EAD8E795F
:1025200000120EADB07900120EAD477A00120EAD5A
:10253000997A00120EADCA7A00120EADD77A001247
:102540000EAD417B00120EAD987B00120EAD9B7B51
:1025500000120EADD47B00120EADD77B00120EAD73
:10256000E17B00120EAD357C00120EAD767C0012C0
:102570000EADA97C00120EADE67C00120EADE87D1A
:1025800000120EAD8C7E00120EADF57E00120EAD67
:10259000337F00120EAD04D803120EAD2CD80312F7
:1025A0000EAD59D803120EAD91D803120EADEFD86F
:1025B00003120EAD3BD903120EADA2D903120EAD1C
:1025C000E2D903120EAD1FDA03120EAD4DDA03127B
:1025D0000EADF7DA03120EAD01DB03120EAD0EDB0A
:1025E00003120EAD41DB03120EAD4DDB03120EAD37
:1025F00065DB03120EAD6FDB03120EAD31960412D4
:102600000EAD3F9604120EAD579604120EAD6E96A7
:1026100004120EADAAD001120EAD54D101120EADAE
:1026200067D201120EADE3D201120EAD01D4011238
:102630000EAD3DD401120EADD8D401120EADBCD5F5
:1026400001120EAD88D601120EAD16D801120EADD4
:1026500087D801120EAD41D901120EAD33DA011245
:102660000EAD73DA01120EAD27DB01120EAD59DB90
:1026700001120EAD4FDD01120EAD91DD01120EAD56
:10268000AFDD01120EAD15DE01120EADE4DE01125A
:102690000EADA8DF01120EADC7E101120EAD2D88FF
:1026A00003120EAD178903120EADC28903120EADCF
:1026B000138A03120EADC38A03120EAD348B0312BC
:1026C0000EAD198C03120EAD4D8C03120EAD468D5E
:1026D00003120EAD838D03120EAD5F8E03120EAD8D
:1026E0009E8E03120EADBA8E03120EAD55860412E5
:1026F0000EADD98604120EAD048704120EAD1E88ED
:1027000004120EADFDDB03120EAD13DC03120EAD91
:1027100031DC03120EAD42DD03120EAD4CDD0312AF
:102720000EAD77DE03120EAD6EDF03120EADDBDFF2
:1027300003120EAD879B03120EADBD9C03120EADAE
:10274000379D03120EAD679D03120EAD7A9D0312E5
:102750000EADD19D03120EADE69F03120EADE9FF43
:1027600001120EADF4AB01120EAD80AC01120EAD34
:10277000E4AD01120EADF0AD01120EAD2BAE0112A3
:102780000EAD9AAE01120EADA3AF01120EADACB0FC
:1027900001120EAD73B101120EADD0B201120EAD29
:1027A000EEB201120EAD0BB301120EADB8B30112B1
:1027B0000EAD35B401120EAD5DB401120EAD27B7EA
:1027C00001120EAD2CB701120EAD45B901120EADBE
:1027D00093B901120EAD03BA01120EAD41BA011246
:1027E0000EAD1DBB01120EADDDBB01120EAD29BC3D
:1027F00001120EAD2CBC01120EAD70BC01120EAD5B
:10280000B8BC01120EADF7BC01120EAD19BD01121C
:102810000EAD4DBD01120EADB0BD01120EAD4EA7F5
:1028200003120EAD5CA703120EADAFA703120EADDF
:10283000CEA703120EAD13A803120EAD57A90312B3
:102840000EADF2A903120EAD36AA03120EAD60AAA8
:1028500003120EADCFAA03120EAD15AB03120EADCF
:102860008CAB03120EAD3DAC03120EAD503700120F
:102870000EAD603700120EAD013800120EAD5D389E
:1028800000120EAD1A3900120EAD363A00120EAD1E
:10289000683A00120EAD973A00120EAD443C001299
:1028A0000EADBB3E00120EAD2B4100120EAD1D420F
:1028B00000120EAD164300120EAD1D4500120EADF6
:1028C000114800120EAD404900120EAD444B0012EB
:1028D0000EAD544C00120EADE34D00120EADD44EB1
:1028E00000120EAD224F00120EAD914F00120EAD30
:1028F000B54F00120EAD065000120EADA7540012D7
:102900000EADA85500120EAD095600120EAD34568C
:1029100000120EADFA5600120EADC7CF03120EAD67
:10292000D1CF03120EAD16D003120EAD2AD0031272
:102930000EADBAD003120EADF3D003120EAD2ED1F0
:1029400003120EAD57D103120EADABD103120EAD73
:10295000C0D103120EADE2D103120EADF7D10312B6
:102960000EAD0BD203120EAD20D203120EAD5AD211
:1029700003120EAD86D203120EADCFD203120EADEE
:1029800041D303120EAD84D303120EADAED30312A6
:102990000EADD9D303120EAD309204120EAD6BD032
:1029A00002120EAD4ED102120EADC9D102120EAD01
:1029B00004D202120EAD55D302120EADE3D30212B1
:1029C0000EAD75D602120EAD27D702120EAD33D85A
:1029D00002120EADA6D902120EADFFD902120EAD33
:1029E000A5BE03120EADE8BE03120EAD6CBF0312FE
:1029F0000EAD43C203120EAD2BFC03120EADDDFC77
:102A000003120EADD9FD03120EAD18FE03120EAD6A
:102A100072FE03120EAD4D8804120EADB088041282
:102A20000EAD4D8904120EAD828904120EADB2892D
:102A300004120EADED8904120EAD0D8A04120EAD16
:102A400006B103120EAD92B103120EAD51B20312D4
:102A50000EAD69B303120EAD83B503120EADD7B937
:102A600002120EADFCB902120EADC9BA02120EADC1
:102A70009DBB02120EAD0ABC02120EAD4ABC021280
:102A80000EADE6BC02120EAD1ABE02120EADF5BEC0
:102A900002120EAD54BF02120EADE0BF02120EAD17
:102AA0004EC002120EADDAC002120EAD20C10212EB
:102AB0000EAD92C102120EAD24C202120EADC5C2FD
:102AC00002120EADE5C202120EAD2DC302120EAD02
:102AD00076C302120EAD92C302120EADB8C302123B
:102AE0000EAD32C402120EAD40C402120EADCFC400
:102AF00002120EAD38C502120EADBAB503120EADFC
:102B00003FB603120EAD81B603120EAD65B70312C8
:102B10000EADD2B703120EAD16B803120EAD5AB8F1
:102B200003120EAD87B803120EADAFB803120EAD8F
:102B3000E7B803120EAD25B903120EAD4CB903125E
:102B40000EADC6B903120EAD10BA03120EADD4E12C
:102B500001120EAD73E301120EADABE501120EAD25
:102B6000FFE501120EAD2AE601120EAD06E70112D5
:102B70000EAD36E701120EAD65E701120EAD78E736
:102B800001120EADB9E701120EADE6E701120EAD6E
:102B900034E801120EAD70E801120EADB5E8011275
:102BA0000EAD02E901120EAD7CE901120EADBDEBD6
:102BB00001120EADA7ED01120EADE3ED01120EAD47
:102BC00072EF01120EADB7EF01120EAD2AF0011235
:102BD0000EAD7FF001120EAD84F001120EAD0EF1BC
:102BE00001120EAD2DF201120EAD3EF201120EAD2C
:102BF00050EE02120EADC9EE02120EAD83F40212B7
:102C00000EAD8EF502120EAD37F702120EADC5F7FE
:102C100002120EADE19701120EAD629801120EADD7
:102C20008F9801120EADD89801120EADD9990112EC
:102C30000EAD329A01120EADAE9B01120EAD309C5C
:102C400001120EAD4B9C01120EADBC9C01120EADDB
:102C5000799D01120EAD3C9E01120EADCA9E01126D
:102C60000EAD819F01120EAD949F01120EAD2DA0ED
:102C700001120EADC4A001120EADEBA001120EADFB
:102C800054A101120EAD9EA101120EADECA10112D4
:102C90000EAD91A201120EAD2FA301120EADBCA379
:102CA00001120EAD2DA401120EAD74A401120EADD1
:102CB000CCA401120EADFEA401120EADB8A50112F6
:102CC0000EADBFA601120EAD08A701120EAD25A7CD
:102CD00001120EAD44A701120EAD77A801120EAD80
:102CE0002EA901120EAD53A901120EAD68A9011251
:102CF0000EADD8A901120EAD19AA01120EAD3DAB51
:102D000001120EADBEAB01120EAD90E402120EAD7B
:102D1000DBE402120EADE7E402120EADBBE50212D7
:102D20000EADD2E502120EAD0FE602120EAD40E678
:102D300002120EAD78E602120EADCEE602120EAD14
:102D4000E4E602120EAD20E702120EAD33E70212E6
:102D50000EAD5AE702120EAD8EE702120EADB4E8C8
:102D600002120EADFEE902120EADFAEA02120EAD2B
:102D700017EC02120EADF9FF01120EAD0090021217
:102D80000EAD3B9002120EAD8D9302120EADE99482
:102D900002120EADA89502120EAD0F9902120EADE1
:102DA000F99902120EAD459A02120EAD5F9A021207
:102DB0000EAD9C9A02120EADA79A02120EADE69AC3
:102DC00002120EADEF9A02120EAD999B02120EADD9
:102DD000709C02120EADC49C02120EAD219D021217
:102DE0000EAD939D02120EAD88BE01120EADE7C16D
:102DF00001120EADEDC101120EAD1EC901120EADD4
:102E000025CD01120EAD6EE703120EAD04E80312DC
:102E10000EAD1AE803120EAD73E803120EADB7E85B
:102E200003120EADF1E803120EAD89E903120EADE7
:102E3000F8E903120EAD01EA03120EAD0DEA03121A
:102E40000EAD27EA03120EAD51EA03120EAD66EA8B
:102E500003120EADC8EA03120EADEFEA03120EAD77
:102E600085CB03120EAD92CB03120EADACCB031289
:102E70000EADDFCB03120EAD1DCC03120EAD82CC16
:102E800003120EAD97CC03120EADA2CC03120EAD01
:102E9000AFCC03120EADC6CC03120EADD4CC0312D0
:102EA0000EADDFCC03120EADEBCC03120EADFACC9F
:102EB00003120EAD05CD03120EAD28CD03120EADDB
:102EC000CCCD03120EADDCCD03120EADF6CD031248
:102ED0000EAD13CE03120EAD2ECE03120EAD53CE99
:102EE00003120EAD5ECE03120EAD73CE03120EAD05
:102EF00087CE03120EADE8CE03120EADEECE031256
:102F00000EADF4CE03120EADFACE03120EAD12CFFB
:102F100003120EAD45CF03120EAD66F201120EADD7
:102F2000FDF201120EAD95F301120EAD85F4011202
:102F30000EADBCF401120EADCFF401120EAD3DF595
:102F400001120EADD8F601120EADFFF601120EAD54
:102F5000A1F701120EADD6F701120EADE7F701127F
:102F60000EAD60F801120EAD81F801120EAD99F8A8
:102F700001120EADF1F901120EADFAFB01120EAD08
:102F80004AFE01120EAD4DFF01120EAD9CFF011263
:102F90000EADE29E02120EADDF9F02120EADCAA070
:102FA00002120EADD4A002120EADF6A002120EADAA
:102FB00002A102120EAD54A202120EAD83A20212A1
:102FC0000EADB3A302120EADF5A302120EAD21A5F4
:102FD00002120EADF7A502120EAD49A602120EADF9
:102FE000A8A602120EADDFA602120EAD1AA702129B
:102FF0000EADB5AA02120EADCEAA02120EAD50ABA6
:1030000002120EAD5EAB02120EADB3AB02120EADEC
:10301000C1AB02120EAD2EAC02120EADA0AC02126C
:103020000EADE6AC02120EAD5BC502120EAD7DC553
:1030300002120EAD67C702120EAD0CCB02120EAD1E
:103040004FCC02120EAD29CD02120EAD1B8A041216
:103050000EAD408A04120EADB18A04120EAD00808E
:1030600003120EAD098003120EAD128003120EADD5
:10307000438103120EAD628303120EAD98830312D7
:103080000EADD28303120EAD088403120EAD42843E
:1030900003120EAD768403120EADA28403120EADA0
:1030A000EB8403120EAD258503120EAD6D85031260
:1030B0000EADC38503120EADF88503120EAD538617
:1030C00003120EAD8D8603120EADDE8603120EAD19
:1030D000148703120EAD4E8703120EAD7C870312C8
:1030E0000EAD9F8703120EADC59704120EADF1977A
:1030F00004120EAD4C9804120EAD569804120EAD8B
:10310000669804120EAD01D403120EAD38D403122A
:103110000EAD55D403120EAD39D503120EADBAD58E
:1031200003120EAD91D603120EAD4FAC03120EADCD
:1031300028AE03120EAD4FAE03120EAD58AE031201
:103140000EAD597F00120EAD665700120EAD765AC5
:1031500000120EAD0B5C00120EAD865C00120EADBF
:10316000325D00120EADD55D00120EAD6D5E001227
:103170000EAD9C5E00120EAD346300120EADC66340
:1031800000120EAD026500120EAD6C6500120EADA0
:10319000206600120EADD66800120EAD1069001246
:1031A0000EAD7A6900120EADD76900120EAD346A09
:1031B00000120EAD916A00120EAD7C6B00120EADC6
:1031C000C26B00120EAD0D6C00120EAD306C001211
:1031D0000EAD926D00120EADAD6D00120EAD356FDD
:1031E00000120EAD746F00120EADB46F00120EAD72
:1031F000077000120EAD287000120EAD6F70001235
:103200000EAD957200120EADD67200120EAD6D733A
:1032100000120EAD197400120EADB47400120EAD92
:10322000267500120EAD677600120EADADA1031229
:103230000EAD53A203120EAD98A303120EAD21A43E
:1032400003120EAD0EA503120EAD4DA503120EAD69
:10325000B7A503120EAD25A603120EADF5C20312DB
:103260000EAD2CC303120EAD55C303120EAD1DC41B
:1032700003120EAD86C403120EAD94C503120EAD3B
:10328000E68F04120EAD2B9004120EAD09910412BC
:103290000EAD8B9904120EAD1B9104120EAD2B9145
:1032A00004120EAD3C9104120EAD1F9204120EAD2D
:1032B00051F103120EADF9F103120EAD3BF40312FE
:1032C0000EAD548204120EADB78204120EAD2583EA
:1032D00004120EADDB8304120EADFA8304120EADA0
:1032E0000A8404120EAD498404120EADD18B04126F
:1032F0000EAD208C04120EAD528C04120EADE48C77
:1033000004120EAD608D04120EADFCFF01120EAD65
:10331000DE7F00120EADF07F00120EADF37F0012C3
:103320000EAD9DFE03120EADE6FE03120EAD12FFB2
:1033300003120EAD32FF03120EADD1FF03120EAD1C
:10334000449304120EAD939304120EAD2394041211
:103350000EADF87F00120EAD56F403120EAD3CF622
:1033600003120EADA8F603120EADF3F603120EAD66
:103370001B8F03120EAD189103120EAD8291031232
:103380000EAD809203120EAD449303120EAD209445
:1033900003120EAD7B9403120EADAA9403120EAD70
:1033A000AD9403120EADBB9403120EADD89403126C
:1033B0000EAD019503120EAD2A9503120EAD389590
:1033C00003120EAD509503120EAD38EE03120EAD82
:1033D0006FEE03120EAD98EE03120EADAFEF0312B7
:1033E0000EAD3DC703120EAD74C703120EAD9DC7DF
:1033F00003120EAD65C803120EADCEC803120EAD9A
:10340000DCC903120EADF6F603120EAD67F7031218
:103410000EAD7AF703120EAD10F803120EADBBF825
:1034200003120EADFE9604120EAD779704120EAD88
:10343000969704120EADB59704120EADAC8E041221
:103440000EADD58E04120EADFF8E04120EAD1F8F81
:1034500004120EAD7D8F04120EADEFF702120EAD09
:1034600004F802120EAD60F802120EADCBF8021293
:103470000EAD13F902120EAD85F902120EADAEF9C2
:1034800002120EADBCF902120EAD1EFA02120EAD02
:103490005CFA02120EAD77FA02120EAD12FB0212A6
:1034A0000EADBBFB02120EAD3EFC02120EAD77FC60
:1034B00002120EAD02FD02120EAD59FD02120EAD4A
:1034C000B7FD02120EADC9FD02120EADEFFD0212E4
:1034D0000EADF8FD02120EAD4FFF02120EAD5B8471
:1034E00004120EADC28404120EAD7F8504120EAD1F
:1034F000FD8504120EADE5DF03120EAD18E00312D8
:103500000EAD4AE103120EAD8EE103120EAD6AE27A
:1035100003120EAD728D04120EAD508E04120EAD5C
:1035200093F903120EADD8F903120EAD1EFA031271
:103530000EADE7FB03120EAD559504120EAD70955E
:1035400004120EAD809504120EADE59504120EAD79
:10355000709804120EADA8DA02120EAD84DB0212CE
:103560000EADCBDB02120EAD08DC02120EAD76DC26
:1035700002120EADD0DC02120EAD40DD02120EAD15
:1035800010DE02120EADFFDE02120EAD76DF021269
:103590000EAD12E102120EAD9FE102120EAD12E26B
:1035A00002120EAD8EE202120EADA5E202120EADB7
:1035B000CAE302120EAD24E402120EAD5E950312B0
:1035C0000EAD7E9503120EAD849603120EADD0960D
:1035D00003120EADF09603120EAD439703120EAD1B
:1035E000B09703120EADF69703120EAD5A98031260
:1035F0000EAD069B03120EADB18301120EADDE8837
:1036000001120EADE18B01120EAD0A8C01120EAD4E
:10361000218C01120EAD4A8C01120EADFC8C0112F0
:103620000EADE58E01120EAD309001120EAD499037
:1036300001120EAD939501120EADCC9501120EAD97
:10364000109601120EAD219701120EAD1DEB031263
:103650000EADFDEB03120EADD1EC03120EAD0080EA
:1036600002120EAD178302120EAD098602120EADC4
:10367000078702120EAD328702120EAD5D8702126D
:103680000EAD888702120EADDD8702120EAD848862
:1036900002120EAD298902120EADD08902120EADB2
:1036A000A18A02120EAD6E8B02120EADFC8B0212BD
:1036B0000EAD7E8C02120EADFE8C02120EAD4A8D46
:1036C00002120EAD7F8D02120EAD278F02120EADCB
:1036D0006D8F02120EAD6FAD02120EADFCAD021277
:1036E0000EAD51AE02120EAD54AE02120EADF4AFDD
:1036F00002120EAD0FB002120EAD2FB002120EADBF
:1037000061B002120EAD3BB102120EAD42B1021217
:103710000EAD49B102120EADB9B102120EAD78B7BD
:1037200002120EADF9B802120EAD509404120EAD95
:10373000FC9404120EAD199904120EAD5F99041297
:103740000EADAA9904FFFFFFFFFFFFFFFFFFFFFF82
:10375000C082C083E99019D0F0D083D082020EAA33
:1037600074F612127CE99002F3F0900353E0F5082E
:10377000750900740278081211F9AA08AB0912350C
:10378000299002F41241139002F4124500606F90E8
:103790000353E075F003A4FAABF01235299003113E
:1037A000124113900311124500700B9002F4124461
:1037B000D112352F80489003111254657AFF7BFF98
:1037C0001232297A0080198A087509007402780873
:1037D0001211F9124F0D74FF123913E4F0A3F00A1D
:1037E000900353E0F8EAC39840DD790512288190F0
:1037F00002F3E0F912276D7A0B7B29122AFD024FA2
:10380000B074F412127C8A088B09EB5480604790E4
:1038100002F3E0F91234998A0A8B0BAE0AAF0BEE71
:103820004F602A8E828F83E064B0701A122893E969
:1038300060148E828F83A3A3A3A3E0F9EE2405FA7C
:10384000E43FFB122863EEFAEFFB123487AA08E587
:10385000096480FB80047A007B00023A6374F212F0
:10386000127C74FB12120CEAFEEBFFEE4F60457403
:1038700003121258EEF0A3EFF0851882851983EC3D
:10388000F0A3EDF07402121258E9F0AA18AB191265
:103890002767E9F50870757413121258E0F50AA34A
:1038A000E0F50BE50A450B60638E828F83123E9C28
:1038B000EE4F700575080280537A067B0012352999
:1038C0008A0C8B0DA80CA90DE849700575081380AA
:1038D0003B88828983E4123913EEF0A3EF123A2F6A
:1038E000E50AF0A3E50BF09002F7123A289002F7F0
:1038F0006017E0FCA3E08003EAFCEBFD8C828D8383
:10390000123A2870F38C828D83124B28A908740513
:103910000256E5F0A3125447A32274F212127C89D6
:1039200008890C750D007403780C1211F9850C0AC6
:10393000850D0B9002F6F09002F4124933123A26EC
:10394000602E12352F7900801D890C750D007402D0
:10395000780C1211F99002F4124DCC8882F583A3F1
:10396000A3E4F0A3F009900353E0F8E9C39840D929
:10397000900353E0FA850AF0A4CAA8F0850BF0A4DE
:1039800028FB1235298A0C8B0DAE0CAF0DEE4F7053
:1039900003023A1C900353E0FC850AF0A4CCA8F083
:1039A000850BF0A428FD79001234757C0080318DE0
:1039B0000C750D007403780C1211F98A828B831236
:1039C0003A2188828983E4F0123A2EA3A3F0A3F06F
:1039D0000DEDC3950840D8EE250AFEEF350BFF0C20
:1039E000900353E0F8ECC39850288C0C750D0074CC
:1039F00002780C1211F99002F4123A21E8240250D4
:103A00000109FAE9FB8A828B83EEF0A3EFF07D00D7
:103A100080BFE5089002F6F0790080027913025623
:103A2000E8124DD0F922A3A31244D5EA4B22A312E7
:103A30005447A3A3A32274F412127C7900EAA2E0F3
:103A4000501F750855750982780812148F79107CFB
:103A5000047D007AD27B1912287B7402121222E9AB
:103A6000F980007F0402134EC082C0839002F712D7
:103A70004500601C88828983A3A3E06A7003A3E0E9
:103A80006B8882898370E8A3A3A3A31244D1800426
:103A90007A007B0002375974F212127C74FD121204
:103AA0000CEAFEEBFF851882851983E4F0A3F0741D
:103AB000021212587401F01244FD7014122A3712C7
:103AC00035299002FA1241131244FD7003023C2979
:103AD000124213EE2404F50AE43FF50B850A82F541
:103AE00083E024FE603C24FC607424FE607E24FE9F
:103AF0007003023B7924FE7003023B8624FE7003B0
:103B0000023B9324FE7003023BA024FE7003023BA1
:103B1000AD24FC7003023BCE24FE7003023BE602A0
:103B20003C22122A379002FCEAF0A3EB123C351239
:103B3000249DE96003023C229002FC1214A68E82AE
:103B40008F83A3A3A3A3A312546585088285098349
:103B50001244D112284B7402121222023C22AC18D9
:103B6000AD19EEFAEFFB122899023BF1AC18AD1932
:103B7000EEFAEFFB12289F8078AC18AD19EEFAEF41
:103B8000FB1228A5806BAC18AD19EEFAEFFB1228DA
:103B9000AB805EAC18AD19EEFAEFFB1228B1805184
:103BA000AC18AD19EEFAEFFB1228B780447402127C
:103BB0001262880C890D780C12148F740212127222
:103BC000EEFAEFFB1228BD74021212228023AC1809
:103BD000AD19EEFAEFFB1228C3E9F8701674021261
:103BE0001258E4F0803CAC18AD19EEFAEFFB122845
:103BF000C9E9F8E8602C8E828F83A3E06414602208
:103C0000850A82850B83E09002FCF0851882851975
:103C1000831244D19002FD124113E8A3123C3512E5
:103C20002497EEFAEFFB1228217402121258E0F9E1
:103C300074030256E5F07CFC7D02850882850983C9
:103C40001244D52274E812127C74FA12120C740415
:103C5000121258ECF0A3EDF08A128B13EA2405F54A
:103C60000EE43513F50FEA2402F510E43513F511CF
:103C7000851082F5831244D112258D8A0A8B0B752B
:103C800008007C037D0079007AFC7B02123475E524
:103C90000E2402F516E4350FF5177402121262882D
:103CA0000C890D780C12148F850E82850F83A3A3C7
:103CB000A3A3E0F50C750D00780C12148FE50E240B
:103CC00005F50CE4350FF50D780C12148F8516826E
:103CD0008517831247D812278574061212228A0C80
:103CE0008B0DE50C450D7003023E65802085188222
:103CF000851983E088828983F005088518828519F3
:103D000083A3E0C0E0123EA6D0E0F00508E50A2457
:103D1000FBFAE50B34FFFBC3E5089AE49B40030282
:103D20003E657E007F00851282851383A3A3A3A333
:103D3000E0F5097809121493E4F514F515781412D6
:103D4000148F7514F9751502781412148F9002FAF5
:103D50001214A674091212581214A6E50A24F9F9CD
:103D6000AC0CAD0D8510828511831244D11228F35D
:103D70007409121222E96003023E06850E82850F45
:103D800083A3A3A3A3A3A3A3E0F89002F9E0687020
:103D900075E0F5148E15781412148F125462850E86
:103DA00082850F83A3A3A3A3A3A3A3A31244D11229
:103DB000346F7402121222E9604C9002FD12450029
:103DC000703BE4F514781412148F7CFF7DFF7907A3
:103DD0008510828511831244D112285D740212125B
:103DE000221245067017850E82850F831255FF74C7
:103DF00004121258124EC0124809023E99850C82D4
:103E0000850D83123E9CA818A91988148915781469
:103E100012148F74041212581214A6851682851774
:103E20008312410912279174041212228A0C8B0DFD
:103E3000EE4F7003023CE2123EA6EE123EB1124774
:103E4000BFEF123EB1F8A3E03400F9E50C450D6078
:103E500003023CED8882898374FFF00508123EA6B8
:103E600074FFF00508E508601A1313543F12411956
:103E70001224A9E960099002FD1244D11234E179BB
:103E8000008016850E82850F831255FF740412126E
:103E900058124EC0124B28790A024792A3A3A3A33B
:103EA000E0FEA3E0FF22A8089002FDE0281247BF31
:103EB00022F00508089002FDE0282274E812127C26
:103EC00074FA12120C740212125812411374041272
:103ED0001258ECF0A3EDF07402121258E02405120F
:103EE00047A8E0F50CA3E0F50D7402121258E02487
:103EF00002F510A3E03400F511851082F583124419
:103F0000D112258D750800750900EA24FCFEEB34FA
:103F1000FFFF8008050CE50C7002050DA808C3EE34
:103F200098EF940050030240C5A818A919880E897B
:103F30000F780E12148F851482851583A3A3A3A373
:103F400012546912148FE5142405F50EE43515F5A5
:103F50000F780E12148F8514828515831241071273
:103F6000278574061212228A0E8B0FEA450F700302
:103F70000240C5EA2404F516E4350FF517851682CC
:103F8000F583E0F50CA3E0F50D8518828519831201
:103F900054658A828B83A3A3A3E0F98510828511DF
:103FA000831244D1122773E9F50960030240C574F6
:103FB000021212581247CFF5097809121493E4F54A
:103FC00012F513781212148F7512F9751302781204
:103FD00012148F9002FA1214A674071212581214B7
:103FE000A6EEF9AC0EAD0F8510828511831244D177
:103FF0001228F37409121222E9F50960030240C580
:10400000E508703FE4F50EF50F780E12148F7CFF73
:104010007DFF79098510828511831244D112285DB4
:1040200074021212221247F5700D74041212581203
:1040300040FC79110240F99002F9E024029002FD5F
:10404000F080149002FDE0FA9002F9E07900240279
:104050005001096A497072A8089002F9E0FAE82A4A
:10406000FAE43400FBEE9AEF9B405A8516828517DE
:1040700083E0C0E09002FE123EABD0E0F005088580
:104080001682851783A3E0C0E0089002FE123EABC3
:10409000D0E0F005089002F912546912148F1254FE
:1040A00062A80812479C12345D7402121222900218
:1040B000F9E02508F50874FF650C700474FF650DC0
:1040C0006003023F14E508601F9002FDE0F5F0E593
:1040D00008841241191224AFE960099002FE1244CB
:1040E000D11234E179008011E509700375090A7471
:1040F000041212581240FCA909024792124937E5EE
:104100000CF0A3E50DF022A3A31256F4AA0CAB0DFC
:1041100022A3A3EAF0A3EBF0229002FCF07CFC7D4A
:10412000028510828511831244D52274EC12127C10
:1041300074FC12120C124C3874021212721244CB1C
:1041400012278B8A0C8B0DEA450D70030242031275
:104150004213A818A91988108911781012148F7C9D
:10416000FF7DFF790B8508828509831244D11228CF
:104170005D7402121222124309700C850A82850BAB
:10418000831248060242108E828F83A3A3A3A3E06A
:10419000F5127812121493E4F512F5137812121432
:1041A0008F7512FC751302781212148F7810121486
:1041B0008F74091212581214A67409121258E0F9D9
:1041C000AC0CAD0D8508828509831244D11228F309
:1041D0007409121222E9FE70157CFC7D02850882AA
:1041E0008509831244D11224B5E970098020741620
:1041F0006E70027E009002FD1244D11234E1EE7026
:1042000004800B7E01850A82850B83124B25EEF913
:10421000024B3AEE2402F508E43FF5092274EC1251
:10422000127C74FC12120CEAFEEBFF8C0E8D0FEE6A
:104230002405F508E43FF50974021212728508821C
:104240008509831244D112278B8A0C8B0DEA450D08
:1042500070030242F9EE2402F50AE43FF50BA818B8
:10426000A91988108911781012148F7CFF7DFF79AD
:104270000D1244CB12285D740212122212430970EF
:104280000B850882850983124806807A8E828F8387
:10429000A3A3A3A3E0F512781212149385088285D4
:1042A0000983A3A31214A67512FC751302781212C7
:1042B000148F781012148F74091212581214A674E5
:1042C00009121258E0F91244C71228F374091212A5
:1042D00022E9FE700F7CFC7D021244CB1224BBE964
:1042E0007009802074166E70027E009002FD1244E8
:1042F000D11234E1EE7004800B7E018508828509BD
:1043000083124B25EEF9024B3A124510F510A3E04B
:10431000F511EA45112274E812127C74FE12120C97
:104320008A168B178C148D15EA2405F50CE43517C5
:10433000F50DEA2402F50EE43517F50F850E82F52A
:10434000831244D112258D8A088B09750B007C03DA
:104350007D0079007AFC7B02123475750A00E5084D
:1043600014F5100424FFF508E50934FFF50980541D
:104370009002FCE0FA9002F9E0F8EA28F8E4340050
:10438000F9E50898E50999500D9002FCE0F8E51070
:10439000C3989002F9F0E0F5127513007812121428
:1043A0008F1254629002FDE02AFAA3E03400FB125F
:1043B000345D74021212229002F9E0F89002FCE0DF
:1043C00028F0050A850C82850D83A3A3124DDC40DD
:1043D000030244AC9002FCE0C39508E49509400355
:1043E0000244ACAE0AEE2EFEE433FF1244EBAC18EE
:1043F000AD1912547DE439FB12278B8A128B13AC52
:1044000012AD13EC4D701B750B011244DB124B29DE
:104410009002FD123A2860031234E1A90B740202E3
:104420004794851682851783A3A3A3A3E0F50B7891
:104430000B121493E4F512F513781212148F7512FF
:10444000F9751302781212148F9002FA1214A674DE
:10445000071212581214A6A910850E82850F831216
:1044600044D11228F37409121222E9F50B709B90C3
:1044700002FD1245006003024370E4F512F5137863
:104480001212148F7CFF7DFF790F850E82850F83BA
:104490001244D112285D74021212221245066003E2
:1044A0000243701244DB12480A02441D7CFC7D0268
:1044B000850E82850F831244D11224C1E960030264
:1044C0004410790002441DAC0CAD0D850A82850BA9
:1044D000831244D522E0FAA3E0FB221244EBE0FA77
:1044E000A3E0F9EA85148285158322850C82850D67
:1044F00083E02EF8A3E03FF988828983229002FAB4
:10450000125603E84922124510F8A3E0F9E84922BF
:104510009002FDEAF0A3EBF09002FDE02274E812B5
:10452000127C74FA12120C74041212581241138C79
:10453000168D177404121258E02405F50EA3E0340A
:1045400000F50F7404121258E024021247A8124416
:10455000D112258D8A0A8B0B7F007E00A818A9191D
:1045600088088909780812148F850E82850F83A325
:10457000A3A3A3E0F5088E09780812148FE50E2492
:1045800005F508E4350FF509780812148F850E82B9
:10459000850F83A3A31247D812278574061212220F
:1045A0008A0C8B0D80291247C9F00F1247C9F00FF2
:1045B0009002F9124B1412148F125462EFF8124742
:1045C0009C12345D74021212229002F9E02FFFE572
:1045D0000C450D7003024658851882851983124CCC
:1045E0004AA3A3A3E0F98514828515831244D1124E
:1045F0002773E9FEE50C2404F510E4350DF511EE02
:10460000705074041212581247CFF508780812142B
:1046100093E4F508F509780812148F7508F97509FF
:1046200002780812148F9002FA1214A6740712125C
:10463000581214A6E50A24FAF9AC0CAD0D851482C3
:104640008515831244D11228F37409121222E9FE4F
:1046500060391247E5124B28EF700302477F900242
:10466000FDE0F5F0EF849002FCF07CFC7D02851407
:10467000828515831244D11224C7E960099002FE95
:104680001244D11234E179000247928F08EF703B57
:10469000E4F512F513781212148F7CFF7DFF791167
:1046A0008514828515831244D112285D740212127A
:1046B000221247F570091247E51248090247929005
:1046C00002F9E024049002FDF080359002F9E0F850
:1046D0009002FDE0FAE82404FCE43400FDEC6A4DAD
:1046E000600302465EE50A24FAFAE50B34FFFBE5B7
:1046F0000828F8E43400F9EA98EB99500302465E82
:10470000851082851183E0C0E09002FEE02FF8A3BF
:10471000E034008882F583D0E0F00F8510828511A7
:1047200083A3E0C0E01247B6D0E0F00F740212128B
:104730006288088909780812148F740212125812BC
:1047400014A6850E82850F831241071227917404E7
:104750001212228A0C8B0DEA450D70030245A674D5
:1047600002121258E0C0E01247B6D0E0F00F740217
:10477000121258A3E0C0E01247B6D0E00245AEEEF8
:1047800070027E0A850E82850F831247EB124B283A
:10479000EEF974061212227F1002134E9002FEE010
:1047A00028FAA3E03400FB22F514A3E03400F51549
:1047B000851482F583221247BA229002FEE02FFA76
:1047C000A3E034008A82F583221247BA74FF2212D2
:1047D0004937A3A3A3A3E0221256F4850E82850FC6
:1047E000831244D5228510828511831256038516C3
:1047F00082851783229002FEEAF0A3EBF09002FE7E
:10480000125603E84922124B2EE8F0A3E9F0791181
:104810002274EA12127C74FE12120C8A088B098C24
:10482000128D13EA2405FEE43509FFAC18AD198E8C
:10483000828F831244D112278B8A0C8B0DEE2406B3
:10484000F50EE43FF50FEA450D7003024909E5084E
:104850002402F50AE43509F50B8A828B83A3A3A30E
:10486000E0A2E550288518828519831244D11228C8
:10487000E78A108B11EA4511602079121244C7852E
:10488000108285118312127AE9F50C707F850E82F1
:10489000850F83E0600979528011750C0E806D855B
:1048A0000882850983A3A3A3A3E0F9E4F508F50929
:1048B000780812148F8E828F83A3A3E0F5087808FE
:1048C00012148F8E828F83A3A3A31214A68E828FBD
:1048D000831254651244CB1228F97406121222E98D
:1048E000F50C7011850E82850F83E0702D1244CB7C
:1048F0001224CD80257416650C7011750C00741887
:10490000121258124933E48010750C011255FB85C0
:104910001282851383E8F0A3E9F0850E82850F8368
:10492000E0600479008002A90C74021212227F0E4A
:1049300002134E12493722E0F8A3E0F58388822261
:1049400074EC12127C74F712120C8A0A8B0B8C1006
:104950008D11EA2405FEE4350BFF750C00AC18AD93
:10496000198E828F831244D112278B8A088B09EA11
:1049700045097003024AFFE50A2402F50A500205C0
:104980000B8A828B83A3A3A3E0A2E5502F85188214
:104990008519831244D11228E78A0C8B0DEA450D44
:1049A000604F7912AC08AD091244CB850C82850D9D
:1049B0008312127AE9F50C6003024B02850A8285A4
:1049C0000B83E0F508A3E0F509AA08FB1228DBEA4F
:1049D0004B70197AFF7BFF1228DBEA4B7003024A07
:1049E000F58A828B83E508F0A3E509F0750800805D
:1049F00008750C0E024B0205089002F6E0F8E50877
:104A0000C3984003024AF585080E750F00740378B9
:104A10000E1211F98A828B83A3A3E0250EF8A3E07E
:104A2000350F124EC970D08E828F83124B1D1241EA
:104A3000138E828F83A3A3124B1D124111EE240407
:104A4000F508E43FF509850882F583E088828983CB
:104A5000A3A3A3A3F0A3E4F0EE2405F50EE43FF531
:104A60000F850E82F583124B1DA3A3A3A312411140
:104A7000751207751300781212148FEEFCEFFD7497
:104A80000412126A12345D7402121222E4F51278D2
:104A90001212148F850882850983E0FC7D00791746
:104AA0001244CB12285D740212122274071212589B
:104AB0001241137407121258E0FA4B603D850882C8
:104AC000850983124B1412148F850E82850F831271
:104AD000546512345D7402121222740212127212A0
:104AE00044CB1224D3E9602674071212581244D121
:104AF0001234E18019750C098008750C118003755A
:104B00000C011255FB851082851183124B28A90CCC
:104B100074098028E0F5087509007808221244D548
:104B20008882898322124B2EE8F0A3E9F022E0F874
:104B3000A3E0F9850E82850F832274041212227F6E
:104B40000C02134E74EC12127C124C38751000EEED
:104B50002402F50CE43FF50D850C82F5831244D157
:104B60001228DB8A088B09EA45097003024C1C8570
:104B70000A82850B83E064016003024C11AC08AD2E
:104B800009AA0AAB0B1228CFE9606E850882850955
:104B900083123E9EEE2406F50AE43FF50B8E828FCB
:104BA00083A3A31214A68E828F83A3A3A3A312149C
:104BB000A6850A82850B831214A679188E828F83AC
:104BC000124C4A1244D11228F97406121222E9F842
:104BD000741668700B850A82850B83E4F0A3801439
:104BE000E860128E828F831244D1850E82850F83F6
:104BF000EAF0A3EBF088108018780E12148FAC083E
:104C0000AD09EEFAEFFB1228D57402121222E9F573
:104C100010AA08AB091228E1E510700E850C8285F8
:104C20000D831244D11224D98009741665107003C3
:104C3000751000A910024B3FEAFEEBFF8C0E8D0FA2
:104C4000EE2405F50AE43FF50B221256F4850C829A
:104C5000850D832274EA12127C7508007509007EA6
:104C6000007F00750A00EC2402F510E43DF5118088
:104C700035EC65087003ED65096003024D09888213
:104C80008983A3A3E06A7003A3E06B707C888289A8
:104C900083A3A3A3A31255FFEE28FEEF39FFEA2852
:104CA000FAEB39FB050A124DD9503A850A0C750DFD
:104CB000007403780C1211F9851082851183124D4E
:104CC000CC124EC9601FE508450970A58C088D09F6
:104CD00088828983123E9C88828983A3A3E02EFA6E
:104CE000A3E03F80BEE50AC394025003024DC7759E
:104CF0000800750900EE4F6010EEFAEFFB1234DB8E
:104D00008A0E8B0FEA450F70057900024DC9750BAD
:104D100000024D9C850B0C750D007403780C12116C
:104D2000F9851082851183E0250CF50CA3E0350D83
:104D3000F50DE50C2406F514E4350DF51585148202
:104D4000F583124ECE6042E50C2404F512E4350DD5
:104D5000F513851282F5831214A6E50E2508FAE5EF
:104D60000F3509FB12345D740212122285128285FE
:104D70001383E02508F508A3E03509F509851482B9
:104D80008515831244D11234E1E50B600D7C087D5A
:104D9000007900AA0CAB0D123475050BE50BC39519
:104DA0000A5003024D148510828511831255FF8825
:104DB000828983A3A3A3A3A3A3E50EF0A3E50F1207
:104DC0003A2FEEF0A3EFF0790102492E124DD022D6
:104DD000E0250CF8A3E0350D229002F6E0F8E50A94
:104DE000C3982274F012127C8A0E8B0F8C0A8D0BE2
:104DF000750D00750C0080507916EE2406F508E458
:104E00003FF5098E828F83A3A31214A68E828F830F
:104E1000A3A3A3A31214A68508828509831214A64E
:104E2000850E82850F83A3A31244D11228F974063C
:104E3000121222E9F50D7416650D706C85088285D5
:104E40000983E4F0A3F0050C9002F6E0F8E50CC34A
:104E5000985066AA0C8A0875090074037808121124
:104E6000F9850A82850B83A3A3124F18E8FEE9FF98
:104E70008E828F83124ECE6040EA2401F508E4341E
:104E800000F5099002F6E065087002E509601488F3
:104E9000828983A3A3A3A3A3A3A3A31245006003B2
:104EA000024DF87918024DFAE9609B1255FB741017
:104EB000121258124EC0124B28A90D7F0802134E31
:104EC000E0FAA3E0F5838A8222F988828983125668
:104ED000F4EC4D2274F612127C7C0080010C9003DD
:104EE00053E0F8ECC398501E8C08750900740278E2
:104EF000081211F9124F0DE06A7003A3E06B70DD28
:104F0000E8FAE9FB80047A007B00024FB09002F4DB
:104F1000124F188882898322E02508F8A3E035091A
:104F2000F92274F212127C8A088B09750A00802714
:104F30008E828F83A3A3A3A3123A2660031234E1C7
:104F40007C087D007900EEFAEFFB1234758E828FBB
:104F500083E4F0A3F0050A124DD95027850A0C7599
:104F60000D007403780C1211F9850882850983A35A
:104F7000A3E0250CFEA3E0350DFF8E828F83124542
:104F80000070AD85088285098374FFF0A3F0025696
:104F9000E874F612127C12288D8A828B83E5824592
:104FA0008370067A007B008007A3A3A3A31244D1D9
:104FB0007F0202134E74F412127C89088C828D8356
:104FC000E06402703C12559EFEA3E0F9EEF8740214
:104FD0006870037429697029750A02750B00780AD4
:104FE00012148F74101212581214A6741012125840
:104FF0001214A6A90812323B7406121222E9F98093
:10500000027901023A6374E812127C74FB12120CEA
:10501000E9851882851983F08A168B17ECFEEDFF5F
:105020007510008E828F83A3A3A3E0A2E4502D7499
:105030001D1212581244D11228E78A828B83E5820E
:105040004583700302543D790AEEFCEFFDAA16ABCE
:105050001712127AE9F5106003025440741F1212FD
:1050600058E0F508A3E0F5097421121258E0F50A9A
:10507000A3E0F50B7423121258E0F50EA3E0F50F30
:105080008E828F83E0640260030253DEA31255FF19
:10509000850882850983A3858212858313EE240601
:1050A000F50CE43FF50D8882898312547DF514E4F4
:1050B00039F5157814121519010000280128E0505F
:1050C00007000228A551032813510029D4520129B1
:1050D000FF520229A0520329D45204297853DE53E7
:1050E000E50E450F60030253D9850C82850D8312AE
:1050F00055FFE8FAE9FB8A828B83E0850A82850BFB
:105100008312548812148F8A828B83A3E0FCA3E05D
:10511000025362E50E450F60030253D9850A82856A
:105120000B837401F0125472850882850983F07C28
:10513000007D008E828F83A3A3A3A3E02401FAA3A2
:10514000E03400FB12278BEA4B60408A828B83E0BD
:105150002402F8850A82850B83E028F0EA2404F80B
:10516000E43BF988828983E0851282851383125497
:105170009612548812148F8A828B83A3125465E589
:10518000082403FAE43509FB025367850A82850B7C
:1051900083E02404F07C047D007900AA12AB131292
:1051A0003475025440E50E450F60030253D9125482
:1051B00072FEA3E0FF850A82850B837404F0EE85FE
:1051C0000882850983F0EF851282851383F07403CA
:1051D000121272EEFAEFFB12278B8A0C8B0DEA4546
:1051E0000D70030252838A828B83A3A3123E9C74A8
:1051F00001121262880E890F780E12148F74051234
:1052000012581214A67CFF7DFF122791740412120B
:10521000228B0FEA450F7033850C82850D83125463
:105220006912148F850C82850D83A31214A67C024B
:105230007D007A717B8312257B7404121222E9703F
:105240000A740112125874FFF0A3F08E828F83E06B
:1052500064027039750C02750D00780C12148F8E73
:10526000828F83A3125465E5082404FAE43509FB10
:1052700012345D7402121222850A82850B83E024A7
:105280000280097401121258EEF0A3EFF0740112BB
:105290001258125457740112125812544E0253D31A
:1052A000E50E450F60030253D9850C82850D8312EC
:1052B00056EDAA16AB17123241850A82850B83740C
:1052C00002F0850882850983EAF0851282851383BE
:1052D000EB0253D6E50E450F60030253D912547208
:1052E000F8A3E0F9850A82850B837402F0E885084B
:1052F00082850983F0E98512828513830253D6855E
:105300000C82850D831244D1123457EAFAF8C39502
:105310000EE4950F405CE8650E450F70047A00803E
:1053200021851882851983E0FCE50E2CFCE4350FFD
:10533000FDC3EC98ED94005003E08005E50ECAC370
:105340009AFAEA850A82850B83F08A0A750B00783F
:105350000A12148F850C82850D83E0250EFCA3E0D4
:10536000350FFDAA08AB0912345D74021212220235
:105370005440751007025440E50E450F705B850CD4
:1053800082850D831255FF850A82850B837407F091
:105390008882898312544F125447E0851282851304
:1053A00083F0E82402FAE439FB8A828B8312545793
:1053B0008A828B8312544EA3A3123A2E12545CF0AD
:1053C000E82405F85001098882898312545CA312ED
:1053D0005496A3A3A3A3F0806775100B8062741D7D
:1053E0001212581244D112288D8A828B83E582458D
:1053F00083604A1255FF880C890DE8450D603E74A4
:1054000025121258E0F5107810121493780E121429
:105410008F780A12148F780812148F74071212589A
:10542000E0F9EEFCEFFDAA16AB17850C82850D8323
:1054300012127A7407121222E9F510800375100E09
:10544000A9107405024794F088828983A322A3E0FF
:105450008508828509832212549DF02212549DA34F
:10546000A3229002FA1256F422E0F50E750F00788E
:105470000E22850C82850D83124937E022E0FAA3C3
:10548000E0F8E4C8F9EA2822F08A828B83E0F50A82
:10549000750B00780A2212544712549D22E08508A9
:1054A00082850983A3A32274EE12127C74FE121269
:1054B0000C8A088B09ECFEEDFF890AAC18AD19EED9
:1054C000FAEFFB12278B8A0C8B0DEA450D70030255
:1054D000558F8518828519831244D112288D8A82AE
:1054E0008B83E5824583700302558AA3A31255FF7F
:1054F000880E890FE8450F700302558A7414121242
:1055000058E0F510A3E0F511E50AF50B780B12143D
:105510009374191212581214A6781012148F741B57
:10552000121258E0F9AC0CAD0DAA08AB09850E8239
:10553000850F8312127A7405121222E9F50B70524C
:1055400074FE650A604C850C82850D83E0640270F0
:105550004112559EFAA3E0F9EAF8740268700374E8
:105560002969702E85108285118312547DF50CE413
:1055700039F50D780C12148FEEFCEFFDAA08AB097B
:1055800012291174021212228008750B0E80037505
:105590000B01A90B74021212227F0A02134EA312EE
:1055A000560388828983E02274F612127C74FE12FC
:1055B000120C740C1212581255FFE88518828519C6
:1055C00083F07401121258E9F0E4F508F50978083F
:1055D00012148F750802780812148F740412126264
:1055E00088088909780812148F79FE1228F9740640
:1055F0001212227402121222024FB08E828F831274
:10560000560322E0F8A3E0F92274F712127CEAFEB6
:10561000EBFF8908900311125465123241EA5402DB
:10562000600BA908EEFAEFFB12277F800279017F59
:105630000102134E74F212127C74FE12120CEAFE76
:10564000EBFF890A7401650A60147402650A60033D
:105650000256E37901122B1BE960030256E3EEFACE
:10566000EFFB1228DBEA4B60031228E1A818A91906
:1056700088088909780812148F750802750900785E
:105680000812148F75087F750983780812148F7CAF
:10569000FF7DFF7A017B001227857406121222809B
:1056A00038850882850983A3A3A3A3A3A31256ED7B
:1056B000EEFAEFFB123229E4F50CF50D780C12141A
:1056C0008F74021212581214A67CFF7DFFAA08AB39
:1056D0000912279174041212228A088B09E50845E1
:1056E0000970BE74021212227F0602134E1249374D
:1056F0001256F422E0FCA3E0FD2274F412127C8A1C
:10570000088B09ECFEEDFF9019D0E0F4604B7A09AC
:105710007B00123481EA4B60408A828B8374B1F043
:10572000A3E412575CF08A828B83A3A3E508F0A35D
:10573000E50912575CA3EEF0A3EFF0740C121258B7
:105740001255FF8A828B83A3A3A3A3A3A3A3124B07
:10575000289019D0E0F912348D023A63F08A828BD6
:1057600083A3A3A3A32274EE12127C74FA12120C68
:105770008A0A8B0BE9FF8C088D097E00850A0C854F
:105780000B0D780C1214D3000410425AAE57D157A7
:10579000F0571358365859588A58AD58C458F458C9
:1057A000A359C659E959175A425A425A1D59740108
:1057B0006F7019850882850983E0C39403500D85B5
:1057C0000882850983E0901B11F080027E18025A3E
:1057D0006A74026F7015850882850983E0F8A3E07A
:1057E000F9901B12E8F0A3E9F080027E18025A6AD1
:1057F00074016F7019850882850983E0C394025093
:105800000D850882850983E090075FF080027E188D
:10581000025A6A74016F7019850882850983E0C392
:105820009405500D850882850983E0900760F0801B
:10583000027E18025A6A74016F7019850882850900
:1058400083E0C39402500D850882850983E09007A8
:1058500061F080027E18025A6A74106F7027750C0E
:1058600010750D00780C12148FAC08AD097A627BAC
:105870000712345D74021212228A0C8B0D850C8281
:10588000850D8380027E18025A6A74016F70198533
:105890000882850983E0C39402500D85088285093A
:1058A00083E0900772F080027E18025A6A74016FDA
:1058B000700D850882850983E0901B15F080027EBB
:1058C00018025A6A74046F70269082DA780C1210EB
:1058D000C4850882850983780C120EE7501185086B
:1058E000828509831210FA90077412110680027ED5
:1058F00018025A6AEF7021122713E970131231C38C
:10590000E9F50D79501235B3E9F50C1231B1800A81
:105910009008077401F080027E18025A6A74076FBB
:10592000707C750E06750F00780E12148F85088234
:10593000850983A3AC82AD83740212126A123463A8
:1059400074021212228A108B1185100E85110F7CA1
:10595000007D00AA18AB19850882850983E0F91239
:105960003157E9F50CE50CC3940A502E122713E9C0
:105970007015A90C1231C9E9F50E79501235B3E949
:10598000F50D1231B18019A80C7900740828F58240
:10599000740839F5837401F080067E0280027E1857
:1059A000025A6A74016F7019850882850983E0C301
:1059B0009402500D850882850983E0900773F0807A
:1059C000027E18025A6A74016F701985088285096F
:1059D00083E0C3940A500D850882850983E0901BFB
:1059E00014F080027E18025A6A74016F70258508CF
:1059F00082850983E0C3940740198508828509835D
:105A0000E0C39411500D850882850983E0901B1630
:105A1000F080577E18805374016F7022900806E062
:105A2000F50C850882850983E0900806F0E50C7086
:105A300039900806E0640170311231B1802C7E1873
:105A40008028C3E50A9427E50B9400501B74026F6D
:105A50007016850882850983E0FCA3E0FDAA0AABE5
:105A60000B122593E9FE80027E02EEF974061212F3
:105A7000227F0A02134E74EC12127C74DA12120C9A
:105A8000890D8A128B138C0A8D0B743A121258E00E
:105A9000F50C908267AC18AD19740612111FAC1882
:105AA000AD19AA12AB13A90D123157E9FEEEC3943A
:105AB0000A4003025BEAEEF9123193E9FF901B11F1
:105AC000E064027004740180027400F50878081222
:105AD0001493AD0CEFFCEEF9AA0AAB0B1232117461
:105AE000011212227C147D007900741212126A12C3
:105AF00034758A0E8B0F850E08850F0974121212E9
:105B0000727A1075F006EEA42424F91235ADE9700E
:105B10003C7C1079FF741212126A1234D5E9702D90
:105B20007422121258AC82AD837A0475F006EEA48A
:105B30002425F91235ADE9F5087412121272EFA29C
:105B4000E0E433F9AA0AAB0B12261DE9F874061239
:105B500012727A0C74702EF91235ADE970797406F0
:105B600012126A123187750E00E50EC39404506755
:105B7000A80E7900E875F003A4C8AAF075F000A497
:105B80002AFA75F003E9A42AF97406121258E5827C
:105B900028F508E58339F509850882850983E0F849
:105BA000A3E0F9E849602C850882850983A3A3E076
:105BB000F510751100781012148F850882850983FD
:105BC000E0FCA3E0FDAA0AAB0B1228FF740212123C
:105BD00022E9F8050E8092EFA2E1500E90075EE0F8
:105BE000F9AA0AAB0B122905E9F87404650C700FC9
:105BF000901B11E064027007AA0AAB0B1231FF7907
:105C00000074261212227F0C02134E74F712127CBB
:105C1000EAFEEBFF122713E97067900807E06401C2
:105C2000701B1231C3E9F5089008077400F07C0A74
:105C30007D0079007A087B08123475803975080078
:105C4000E508C3940A502FA8087900740828F58243
:105C5000740839F583E064017018A9081231C9E9A4
:105C6000FAA8087900740828F582740839F5837455
:105C700000F0050880CA79501235B3E9F5081231F1
:105C8000B17F0102134E74F212127C890BEAFEEB13
:105C9000FF8C088D09750A0AE50B600C1460091465
:105CA0006044146064025D2BEEFAEFFB1231A5E94B
:105CB000F50AE50AC3940A5072E5084509606C7557
:105CC0000C06750D00780C12148FEEFCEFFDAA087F
:105CD000AB0912345D74021212228A0C8B0D850CF2
:105CE00082850D838045EEFAEFFB12319FE9F50ABC
:105CF000E50AC3940A5034E5084509602EAA08ABAA
:105D000009A90A123199E98022EEFAEFFB1231ABB0
:105D1000E9F50AE50AC3940A5011E5084509600B44
:105D2000AA08AB09A90A123199E9F8A90A7F060263
:105D3000134E74F212127C8A0C8B0DE9FF7E1574DF
:105D4000FF650C700474FF650D702A750800E50886
:105D5000C3940A5014EFFC7A027B00A90812317533
:105D6000E960027E00050880E5EF60627AED7B3134
:105D7000122B3F8059AA0CAB0D122B0F8A0A8B0BEA
:105D8000850A08850B09E508450960407C007D000F
:105D9000E5082405FAE43509FB850882850983A313
:105DA000A3A3A3E0F9123157E9F50AE50AC3940A5F
:105DB000500EEFFC7A027B00A90A123175E97E00D1
:105DC000EF600BAA08AB091231ED80027E14EEF9E8
:105DD0007F0602134E74EE12127C8A0E8B0F8C0A11
:105DE0008D0B7412121258E0F50CA3E0F50D750836
:105DF0001574FF650E700474FF650F701E7E00EE53
:105E0000C3940A5061AC0CAD0DAA0AAB0BEEF912AB
:105E1000317BE960037508000E80E4AA0EAB0F1217
:105E20002B0F8A108B11AE10AF11EE4F60357C0036
:105E30007D00EE2405FAE43FFB8E828F83A3A3A3AB
:105E4000A3E0F9123157E9F509E509C3940A5016A0
:105E5000AC0CAD0DAA0AAB0BA90912317BE9750890
:105E6000008003750814A9087F0A02134E74F71204
:105E7000127CEAFEEBFF900778EEF0A3EFF09007BC
:105E80005EE0FC7D007A267B00122593E9F5089000
:105E9000075EE0F91228697F0102134E74F01212B6
:105EA0007C74EC12120C8A0C8B0D850C82850D8390
:105EB000A3A3E024FA700302631524FD70030261BA
:105EC0008A147003025F8C14601024FD7003026159
:105ED000321470030261C9026328AE0CAF0D900743
:105EE00078E0F8A3E0F9E8496066900778E0F8A365
:105EF000E0F5838882E0F8A3E0F9E8496052EE24F7
:105F00000CF582E43FF583E0F5087808121493EE6F
:105F1000240BF582E43FF583E0F98E828F83A3A3FF
:105F2000A3A3A3A3A3A3A3E0FCA3E0FDEE2403FA91
:105F3000E43FFB900778E0F8A3E0F5838882E0F87F
:105F4000A3E0F583888212127A740112122280393A
:105F50008E828F83A3A3A3A3A3A3A3A3A31214A698
:105F60009007741210E212262F7402121222E960B6
:105F70001879018E828F83A3A3A3A3A3A3A3A3A3B2
:105F8000E0FAA3E0FB122629E9026328AE0CAF0D6C
:105F90007508008E828F83A3E060030260B48E8256
:105FA0008F83A3A3A3A3A3E0A2E040030260B49065
:105FB0000812E0F8A3E0F9E84960030260B47C0E3F
:105FC0007D007900AA18AB191234758A0A8B0BAAC6
:105FD0000AAB0BEE240CF582E43FF583E0F8A3E076
:105FE000F9E8496036750A06750B00780A12148FB5
:105FF000EE240CF582E43FF583E02410FCA3E034AA
:1060000000FD740212126A12345D74021212228AA6
:106010000A8B0B850A82850B83804F8E828F83A328
:10602000A3A3E0FAA3E0FB122B0F8A0E8B0F850EC1
:106030000A850F0BE50A450B602D750E06750F00DE
:10604000780E12148FE50A2405FCE4350BFD74026A
:1060500012126A12345D74021212228A0E8B0F859C
:106060000E82850F8380030263288E828F83A3A311
:10607000A3A3A3E0A2E25004D2F08002C2F0A2F0F7
:10608000E433F87900740C121258E048F0A3E049A8
:10609000F0EEFCEFFDAA18AB1912318DE970127AFF
:1060A000027B0090075EE0F91234B1E979000263E7
:1060B0002A750815900778E0F8A3E0F9E849606FC1
:1060C000900778E0F8A3E0F5838882A3A3E0F8A323
:1060D000E0F9E84960598E828F83A3E0FC79018E54
:1060E000828F83A3A3A3E0FAA3E0FB900778E0F8F4
:1060F000A3E0F5838882A3A3E0F8A3E0F583888278
:1061000012127AE5086028AC0879038E828F83A387
:10611000A3A3E0FAA3E0FB900778E0F8A3E0F583FF
:106120008882A3A3E0F8A3E0F583888212127A02A2
:106130006328AE0CAF0D900778E0F8A3E0F9E849CA
:106140006045900778E0F8A3E0F5838882A3A3E098
:10615000F8A3E0F9E849602F850C82850D83A3E060
:10616000FC79028E828F83A3A3A3E0FAA3E0FB90C5
:106170000778E0F8A3E0F5838882A3A3E0F8A3E022
:10618000F583888212127A026328AE0CAF0D7C0070
:106190007D00EE2404FAE43FFB8E828F83A3A3A349
:1061A000E0F9123157E9F508E508C3940A5017EEF3
:1061B000240AFCE43FFD7A0475F006E508A42425D2
:1061C000F91235A7E9F8026328AE0CAF0D900773FA
:1061D000E06019901B14E0F98E828F83A3A3A3E0E3
:1061E000FAA3E0FB122629E9F8026328901B11E0CC
:1061F000701679058E828F83A3A3A3E0FAA3E0FB38
:10620000122629E9F80263288E828F83A3A3A3E0D4
:10621000FAA3E0FB122B0F8A0A8B0B850A08850B69
:1062200009E508450970030263288E828F83A3A3C2
:10623000A3A3A3A3A3E0A2E0506D850882850983F0
:10624000A3A3A3A3E060608E828F83A3A3A3A3A3D1
:10625000A3A3A3A3E0F50AA3E0F50B7409780A123F
:1062600011EAE50A5401F8E50B5400F9E8A2E04010
:1062700036740E121272E5082405FAE43509FB851E
:106280000882850983A3A3A3A3E0F9123157E9701B
:106290001679038E828F83A3A3A3E0FAA3E0FB12F7
:1062A0002629E9F8026328EE2405FCE43FFD850871
:1062B00082850983A3A3A3A3E0F98E828F83A3A37E
:1062C000A3E0FAA3E0FB1231F9900778E0F8A3E02D
:1062D000F9E8496053900778E0F8A3E0F5838882F5
